:020000040800F2
:10000000F8180020450100089F110008731100082E
:100010009D11000809090008751A00080000000079
:100020000000000000000000000000003116000881
:10003000A70D0008000000001B130008351600087B
:10004000771A0008191300081D1700082716000862
:10005000CD0E000891150008A90D0008D70D000865
:10006000D90D0008DB0D0008DD0D0008910D00081A
:10007000930D0008950D0008970D0008990D0008D4
:100080009B0D00089D0D000873070008F319000878
:10009000F51900083D0C00083F0C0008E30D0008AE
:1000A0001F1700082517000823170008211700084C
:1000B00027170008291700083517000877110008CE
:1000C000751100087B110008791100082B16000833
:1000D0002D16000859170008A5170008F117000889
:1000E000BB0D000825160008F11900084717000885
:1000F0004D1700084B17000849170008750700083E
:10010000010F000829160008411700082F160008E3
:10011000551700085717000843170008451700082F
:100120009F0D0008A10D0008A30D0008A50D0008F3
:10013000DFF80CD000F0DAFA00480047192A00086E
:10014000F818002000480047310100082DE9FE4F53
:1001500081EA030404F0004421F0004100944FF0D0
:10016000000B23F0004350EA010402D052EA0304DA
:1001700004D10020014603B0BDE8F08FC3F30A5458
:10018000C1F30A552C44A4F2F3340194A0FB0254A9
:10019000C1F3130141F48011C3F3130343F480133B
:1001A00001FB024400FB034E840A970A44EA81548F
:1001B00047EA8357A4FB076802958D0A05FB07856C
:1001C0004FEA932C04FB0C542705029D4FEA065876
:1001D00047EA1637B5EB08056EEB070C870E920E53
:1001E00047EA811742EA8312A7FB0201B6EB0B0133
:1001F00064EB00042B0D43EA0C335E1844EB1C50F7
:10020000DA465146E7FB0201C5F313044FEA0B330C
:1002100043EA14534FEA0432019C43EA0603A4F173
:100220000C040294009CCDE900B400F0CBF8A2E7E6
:100230000EB5C10F80EAE0700844CA07002140F201
:1002400033438DE80E000A460B4600F0BBF803B0BE
:1002500000BD00F0004230F000400AD0C10D01F5B1
:100260006071C0F3160042EA0151C2084007114311
:10027000704700200146704701F0004330B421F080
:10028000004150EA010206D00A0DA2F56072C1F3E6
:100290001301002A02DC30BC00207047440F44EAFE
:1002A000C104C100E01830BC00EBC25000F047B8F8
:1002B00030B50B46014600202022012409E021FA36
:1002C00002F59D4205D303FA02F5491B04FA02F533
:1002D0002844151EA2F10102F1DC30BD2DE9F05FCA
:1002E0000546002092469B468846064681464024A5
:1002F0001BE0284641464746224600F018FA53467E
:100300005A46C01A914110D311461846224600F0B1
:10031000FFF92D1A67EB01084F4622460120002104
:1003200000F0F6F917EB00094E41201EA4F101047C
:10033000DFDC484631462A464346BDE8F09F0029A7
:10034000A8BF7047401C490008BF20F0010070475B
:1003500010B4B0FA80FC00FA0CF050EA010404BFBB
:1003600010BC704749B1CCF1200421FA04F411FA11
:100370000CF118BF012121430843A3EB0C01CB1D55
:100380000106000A002BBEBF002010BC704700EB26
:10039000C35010440029A4BF10BC7047401C490042
:1003A00008BF20F0010010BC704710B5002B08DA20
:1003B000401C41F1000192185B411A4301D120F029
:1003C000010010BD2DE9F04D92469B4611B1B1FAE6
:1003D00081F202E0B0FA80F22032904600F098F903
:1003E00004460F4640EA0A0041EA0B0153465A46CA
:1003F000084303D120463946BDE8F08D114653EA43
:10040000010015D0C8F14002504600F090F90546B1
:100410000E4650465946424600F07AF9084301D04C
:10042000012000E00020054346EAE0762C433743F4
:100430000A984FEA4453A0EB08004FEAD4240A304C
:100440004FF0000244EA47544FEAD72502D5002076
:100450000146D1E7010510196941DDE90845001998
:100460006941BDE8F04DA0E72DE9FE4F804681EAE5
:100470000300C00F0C46009021F0004123F000451E
:10048000B8EB0200A94105D24046214690461C46E1
:100490000B46024623F00040104304D1404621465B
:1004A00003B0BDE8F08F270DC7F30A00C3F30A516C
:1004B0000290401A0190402866DAC3F3130040F41A
:1004C000801B0098924620B10023D2EB030A63EB15
:1004D0000B0B01985946C0F14002504600F018F944
:1004E00006460D4650465946019A00F030F910EB89
:1004F00008006141002487EA115284EAE7731A4335
:100500003BD0009A3AB3019A012A4FEA075210DC15
:10051000001B61EB02014FF0004202EA0752CDE9F5
:100520000042001C41F5801132462B46FFF74AFF7E
:10053000B6E7001B61EB0201001C41F580130018B7
:100540005B412018A2F5001747EB030140EAD57084
:10055000B6196D4111E06D084FEA360645EAC075DF
:100560004FEA0752001B61EB0201001C41F58011AC
:1005700049084FEA30000019514132462B4603B07A
:10058000BDE8F04FFFF711BF0098012240000023A3
:10059000D0EB020263EBE073009821464FEAE0746F
:1005A000B8EB000061EB0401E9E783F000435BE78F
:1005B00081F0004158E72DE9F04D81EA030404F091
:1005C000004B21F0004514464FF0000A23F0004193
:1005D00050EA050220D054EA01021DD0C5F30A57A3
:1005E0000246C5F31303C1F31300C1F30A5640F4E6
:1005F000801543F48013A7EB0608101BD64608F2BB
:10060000FD3873EB050002D308F1010801E09218F0
:100610005B41B8F1000F03DA00200146BDE8F08D20
:1006200000204FF48011064684460EE0171B73EB42
:10063000050705D3121B63EB050306434CEA010CC7
:1006400049084FEA300092185B4150EA0107EDD1AA
:1006500052EA030012D082EA040083EA050108434B
:1006600003D100224FF0004308E0101BAB4102D23F
:100670000122002302E06FF0010253101AEB060082
:100680004CEB085110EB0A0041EB0B01BDE8F04DBB
:10069000FFF78BBEC1F30A52C1F3130140F2FF33DF
:1006A00041F480119A4202DA00200146704740F27C
:1006B00033439A42A2F2334202DC524200F037B88E
:1006C00000F026B830B5002904DB4FF0004440426A
:1006D00064EB0101002B04DB4FF00044524264EB59
:1006E0000303994208BF904230BD0000064C074DFD
:1006F00006E0E06840F0010394E8070098471034F2
:10070000AC42F6D3FFF718FDF02A0008102B0008C2
:10071000202A04DB203A00FA02F1002070479140C1
:10072000C2F1200320FA03F3194390407047202AB6
:1007300004DB203A21FA02F00021704721FA02F38B
:10074000D040C2F120029140084319467047202A48
:1007500006DBCB17203A41FA02F043EAE07306E0E9
:1007600041FA02F3D040C2F12002914008431946F9
:10077000704770477047C94301607047002981681E
:1007800006D041F00101816003A10A4801F074B96B
:1007900021F00101816070470D0A20414443206926
:1007A00073206269742041444F4E20697320534581
:1007B00054000000780000200D4910B5401811D0F9
:1007C0004FF48064A04210D0B0F5C05F0FD101217A
:1007D000CC03204600F0D0FD2046BDE810400021AB
:1007E00000F0CABD01214C02F3E70121F1E710BD81
:1007F00000DCFEBF014600208968490700D50120C2
:100800007047C06C80B270470246002012680A42EE
:1008100000D001207047014600208968090700D5F3
:100820000120704710B542680E4B0C791A400B68D6
:1008300042EA04221343436082680B4B1A40D1E919
:10084000024323434C7942EA440213438360C26A61
:10085000097C22F47002491EC9B242EA0151C16208
:1008600010BD0000FFFEF0FFFDF7F1FF70B507249B
:1008700009290AD9C568A1F10A0606EB4606B44063
:10088000A543B3401D43C56007E0056901EB410680
:10089000B440A543B3401D4305611F23072A09D275
:1008A000446B521E02EB820293409C4391400C43E6
:1008B000446370BD0D2A09D2046BD21F02EB820281
:1008C00093409C4391400C43046370BDC46A0D3A4D
:1008D00002EB820293409C4391400C43C46270BD82
:1008E000816841F00801816070470029816802D069
:1008F00041F4800101E021F480018160704781684A
:1009000041F0040181607047FEE70000F0B54FF44C
:1009100080773E0208231022224C402834D013DC7A
:100920002149072801F1040528D007DC042827D035
:10093000052821D0062800D10F60F0BD082821D05D
:100940002028FAD12360F0BD16490831B0F5806F38
:1009500020D008DCB84219D0B0F5007FF3D1086888
:1009600020F0020019E01049091FB04217D0B0F57D
:10097000003FE8D10A60F0BD01200EE00E60F0BD3E
:100980002B60F0BD2A60F0BD2260F0BD086820F049
:10099000010002E0086820F004000860F0BD0B6070
:1009A000F0BD000010640040086400402DE9F041F3
:1009B00000F058F8294800F043F92848002501269E
:1009C000057045708570C570067145718571C5717A
:1009D0000B210172042141720227478100F0C6F801
:1009E0001F4C44F2401025706670A570A08044F240
:1009F0006010E0804FF4B05020816581A581A6731E
:100A0000204600F045F826706670A5704FF48440CB
:100A1000A08044F22020E08044F2602020814FF446
:100A200085406081A581A673204600F031F82770CB
:100A30006670A57044F2A020A08044F2C020E0803F
:100A400025816581A581A673204600F021F8BDE8C7
:100A5000F0410121022000F07DB80000F0000020EC
:100A6000FC00002010B501214C06204600F06CFC73
:100A70002046BDE81040002100F066BC202110B1E6
:100A80000248016070470148001FFAE71064004007
:100A9000F0B50278012191402D4A89B2136843F0E4
:100AA000010313602A4C1C3423688B432360284BBA
:100AB000274D87780C3340352E1DA7B91F688F430B
:100AC0001F60C788B0F80AC047EA0C4790F800C01A
:100AD00045F83C708788B0F808C047EA0C4790F8A2
:100AE00000C046F83C708778012F0ED11F680F4375
:100AF0001F60436807784FEA334345F8373083680F
:100B000005784FEA334346F83530114B45781B1DC5
:100B1000002D1D6806D00D431D600D4B85891433D3
:100B200015B104E08D43F7E71D688D431D6085898D
:100B3000012D02D11D680D431D60807B012802D16B
:100B4000206808432060106820F001001060F0BDAC
:100B500000660040044A0029116801D0014300E00A
:100B6000814311607047000014640040324910B5A1
:100B7000002201230B600B1D1C68E40748D002789B
:100B8000012A0A6846D022F080020A604278012ACF
:100B90000A6842D022F040020A608278012A0A687C
:100BA0003ED022F020020A60C278012A0A683AD0B8
:100BB00022F010020A600279012A0A6836D022F077
:100BC00008020A604279012A0A6832D022F004023F
:100BD0000A608279C479920742EA0462047A42EA9E
:100BE0000442447A408942EA0452401E02431248B9
:100BF0001C3002600868012220F0010008609002A9
:100C0000401E0004000CFBD11868C00700D0002271
:100C1000104610BD42F08002B7E742F04002BBE749
:100C200042F02002BFE742F01002C3E742F00802A0
:100C3000C7E742F00402CBE700640040704770470A
:100C40000021017041708170C17001714171817129
:100C5000C17103210172022141720121418170475A
:100C600030B52A4A002113685B0108D411680901D4
:100C700001D5012103E01168C9003BD50221244AB6
:100C800002EB0112136803F001031360037A83B3CC
:100C90004468E500456014682C43457A2B431C43A7
:100CA0001460837A03F00F038372194B1B1D03EB4F
:100CB00001131C6824F00F041C601C68857A2C4307
:100CC0001C60C37AC46843EA0423114C083404EB63
:100CD00001142360C37B006943EA00200C4B0C33F2
:100CE00003EB01131860106840F001001060084623
:100CF00030BD01E00421FAE703885C050460136855
:100D00002343447A23431360CBE700000864004088
:100D1000806500401D49002220B101280FD0022823
:100D200030D121E0086800F0010042EA80000A6842
:100D300002F0020202430868C0F380600CE0086819
:100D400000F4807042EA90100A6802F4007240EAEF
:100D500012220868C0F3C060104313D0052801D0E8
:100D6000072811D000207047086800F4803042EA5C
:100D700090300A6802F4003240EA12420868C0F378
:100D80000070E9E7022070470120704708640040C6
:100D9000704770477047704770477047704770479B
:100DA000704770477047704710B5012000F046F853
:100DB000BDE81040012000F025B810B54FF4805474
:100DC000204600F03BF8002804D02046BDE8104043
:100DD00000F018B810BD704770477047102000F041
:100DE00011B810B5202000F00DF8402000F00AF8EE
:100DF000802000F007F8BDE810404FF4807000F04C
:100E000001B8000001490860704700001404014067
:100E100010B50C21012000F01FF907484FF4805154
:100E20000160002101711021417101218171BDE832
:100E3000104000F013B8000028000020064A0146C8
:100E400000201268044B0A4014331B680B4202D086
:100E5000002A00D0012070470004014030B583799A
:100E60001949026853B30B6893430B600A1D13685A
:100E70000468A343136002790A4413680468234397
:100E80001360114B08331A680468A2431A601A1DD4
:100E900014680568AC4314604479102C05D02144D3
:100EA0000A68006802430A6030BD1968046821437B
:100EB0001960116800680143116030BD0079084471
:100EC00001689143016030BD00040140704700009B
:100ED00004490A6822F010020A600A6802430A60A4
:100EE000704700000020024004490A6802F03802FE
:100EF0000A600A6802430A6070470000002002404E
:100F0000704700002DE9F05F01214E4800F008F91C
:100F10004D4C4FF4017003252080A5701826E67013
:100F200021464A4800F0ACF84FF481602080A5705B
:100F30000427E7702146454800F0A2F838022080D7
:100F4000A570E6702146424800F09AF84FF4006818
:100F5000A4F80080A570E77021463D4800F090F8A5
:100F60004FF4805BA4F800B0A570E67021463748C6
:100F700000F086F8A4F80080A570E7702146334899
:100F800000F07EF84FF40058A4F80080A5701026F9
:100F9000E67021462F4800F073F84FF0010AA4F8DC
:100FA00000A04FF0000984F803902146274800F084
:100FB00067F80227278084F803902146234800F031
:100FC0005FF82680A570E6702146204800F058F8AA
:100FD000A4F800A0A570E67021461D4800F050F866
:100FE0002780A570E6702146194800F049F827804F
:100FF000A5704820E0702146164800F041F8A4F89A
:101000000080A570E6702146114800F039F8F00222
:101010002080A570E67021460D4800F031F8B0023E
:101020002080A570E6702146094800F029F8A4F850
:1010300000B0A570E6702146BDE8F05F044800F0FE
:101040001FB800000004300022000020000801400A
:10105000000C01400010014010B58A0721F0030484
:101060000649130F21440F228C689A4094438C60E8
:101070008A68984002438A6010BD00000000014069
:10108000F0B5CA78002502F00F03D20601D58A78A0
:1010900013430C784FF00F0E0122ECB1D0F8004052
:1010A0000F8802FA05F63740B74211D14FEA850C96
:1010B0000EFA0CF724EA070703FA0CF43C43CF7846
:1010C000282F02D0482F02D002E0466100E00661DE
:1010D0006D1C082DE4D304600C88FF2C1ED94468D5
:1010E0005FF0000606F1080702FA07F50F882F40A7
:1010F000AF420FD14FEA860C0EFA0CF7BC4303FA4D
:101100000CF73C43CF78282F00D14561CF78482F8A
:1011100000D10561761C082EE4D34460F0BD0000C8
:10112000F0B5104D6A68440D260184B2C0F3015732
:10113000B440C0F30343032F05D0C0020AD50320F7
:101140009840824307E0686822F0706320F0706086
:10115000686002E0A24342F0706301B123436B6018
:10116000F0BD0000000001400AB10161704741611B
:101170007047FEE7704770477047704710B5002012
:1011800000F0AAFA42F2283000F0C4FA012000F080
:10119000B5FABDE81040012000F09EBAFEE77047A6
:1011A000F8B500214FF0006000F0ACF825208DF874
:1011B000000002258DF8015000268DF80260012400
:1011C0008DF80340684600F055F826208DF80000A1
:1011D0008DF801508DF802408DF80340684600F00C
:1011E00049F827208DF800008DF801608DF8024045
:1011F0008DF80340684600F03DF814208DF800009B
:101200008DF801608DF802608DF80340684600F0AB
:1012100031F81D208DF800008DF801508DF8025036
:101220008DF80340684600F025F81E208DF8000078
:101230008DF801508DF802508DF80340684600F09B
:1012400019F828208DF800008DF801608DF80260F3
:101250008DF80340684600F00DF84FF4C06000F0D0
:1012600047F8F8BD02490148086070470400FA05D4
:101270000CED00E0F0B50F22C478017801234FF0A7
:10128000E0253CB3184C2468467804F4E064C4F5C7
:10129000E064240AC4F10407E2408478BE401440AC
:1012A000344322018C07E70E21F003040F49BA40B2
:1012B00066183168FF24BC40A143224011433160CD
:1012C000007800F01F018B40400905EB8000C0F85A
:1012D0000031F0BD01F01F008340480905EB80009C
:1012E000C0F88031F0BD00000CED00E000E400E04B
:1012F0000249084302490860704700000000FA05EF
:101300000CED00E0024A11400143024801607047C1
:1013100080FFFF1F08ED00E070477047034A5168E7
:1013200021F4404101435160704700000010024029
:10133000044A0029D16901D0014300E08143D16111
:101340007047000000100240044A0029116901D0D2
:10135000014300E08143116170470000001002402A
:10136000044A0029916901D0014300E08143916161
:101370007047000000100240044A0029D16801D0E3
:10138000014300E08143D16070470000001002403B
:1013900010B500F053F84FF48034204600F0DEF82A
:1013A00000F026F9234901280870234919D00020AC
:1013B000087001214FF00610FFF7BAFF01218803E2
:1013C000FFF7CEFF012140F67D00FFF7C9FF0121A5
:1013D0004802FFF7C5FF0121BDE810404806FFF7AE
:1013E000A7BF012008701020FFF772FD0220FFF751
:1013F0007BFD002000F0A8F8002000F0D5F84FF4A5
:10140000A06000F0C7F84FF4E011204600F0DCF8CF
:10141000012000F0D3F8392000F076F80028FAD047
:10142000022000F0DBF800BF00F086F80828FBD1AE
:10143000BFE7000030000020200000200B480168BA
:1014400041F0010101604168094A114041600168B1
:10145000084A11400160016821F48021016041685F
:1014600021F4FE01416000218160704700100240BC
:101470000000FFF8FFFFF6FE30B51F494A6812F082
:101480000C031E4A03D0042B01D0082B22D002608B
:101490004A680F231A4C03EA1212A35C0268DA406E
:1014A00042604B68072505EA1323E35C22FA03F345
:1014B00083604B6805EAD323E35C22FA03F2C2603F
:1014C0004968032303EA9131231F595CB2FBF1F110
:1014D000016130BD4A68022302F4701203EB9242AC
:1014E0004B6813F4803F02D04B689B0301D5054B3A
:1014F00000E0024B5A43CAE70010024000127A0093
:10150000DE2A000800093D0002460020530909496F
:10151000012B0BD0022B0BD0D1F8241002F01F02AC
:10152000012393400B4200D0012070470968F5E782
:10153000096AF3E7001002400248406800F00C001E
:101540007047000000100240034A516821F0F0018A
:101550000143516070470000001002400B490A68C7
:1015600022F480320A600A6822F480220A60B0F510
:10157000803F07D0B0F5802F03D1086840F4A02049
:1015800008607047086840F48030F9E700100240B6
:1015900070470000034A516821F4E0610143516043
:1015A000704700000010024003494A6822F460526C
:1015B00042EAC000486070470010024001490866D6
:1015C0007047000000004242034A5368084323F476
:1015D0007C1318435060704700100240034A516862
:1015E00021F00301014351607047000000100240E8
:1015F00030B50B4C40F2FF153120FFF785FF20700E
:101600006068401C6060207810B96068A842F3D11F
:101610003120FFF779FF002800D0012030BD000005
:1016200068000020704770477047704770477047E8
:10163000704700001E48016811B10168491E016031
:101640001C48016811B10168491E01601A4801680F
:1016500011B10168491E01601848016811B10168A3
:10166000491E0160006810B915490020087015482E
:10167000016811B10168491E01601348016811B188
:101680000168491E01601148016811B10168491ED5
:1016900001600F48016811B10168491E01600D48E1
:1016A0000168002902D00168491E016070470000EE
:1016B0000400002010000020080000200C00002082
:1016C00000000020140000204400002048000020FA
:1016D0004C000020500000204FF0E021012804D0F1
:1016E000801C06D0002088617047086940F0010026
:1016F00002E0086920F00100086170474FF0E02126
:101700000028086902D040F0020001E020F0020049
:10171000086170474FF0E02148617047704770479B
:1017200070477047704770470121014800F00FB8BB
:10173000000400400121014800F009B80008004001
:101740007047704770477047704770477047C9438C
:10175000018270477047704770B50F4D40F22554B5
:101760002146284600F0BFF880B1284600F038F93D
:101770000B4A0A491368C8541068401C106010686E
:10178000A0F5A061DC3901D1002010602146284677
:10179000BDE8704000F03CB8003801403C09002032
:1017A0007000002070B50F4D40F2255421462846A8
:1017B00000F099F880B1284600F012F90B4A0A4966
:1017C0001368C8541068401C1060106840F2DC5167
:1017D000884201D30020106021462846BDE87040B1
:1017E00000F016B800440040180F002074000020DC
:1017F00070B5064D40F225542146284600F073F896
:1018000021462846BDE8704000F002B8004800407C
:101810000A0A01219140C94301807047002981894A
:1018200002D041F4005101E021F400518181704760
:101830002DE9F041244C4FF4964000252060A5800E
:10184000E5802581214FA5810C26668121463846F9
:1018500000F080F840F2255801224146384600F059
:1018600061F801213846FFF7D9FF4FF41650206088
:10187000A580E5802581164FA581668121463846E1
:1018800000F068F801224146384600F04BF801218B
:101890003846FFF7C3FF4FF4E1302060A580E580B4
:1018A0002581A581668121460A4C204600F052F828
:1018B00001224146204600F035F82046BDE8F041BF
:1018C0000121FFF7ABBF00000C01002000380140F0
:1018D00000440040004800400246002012880A42AE
:1018E00000D00120704730B501F01F02012400250F
:1018F000C1F3421304FA02F2012B0FD0022B0FD0D6
:10190000838A4FEA11210088134204FA01F400EAA5
:10191000040001D000B10125284630BD8389F0E7DD
:10192000038AEEE710B5C1F3421301F01F04012151
:10193000A140012B07D0022B07D01430002A0268E7
:1019400005D00A4304E00C30F8E71030F6E78A438C
:10195000026010BD30B50446008A85B00D464CF6D5
:10196000FF710840E98801432182A1894EF6F310F6
:101970000140A8882A8910436A890A431043A0813C
:10198000A08A4FF6FF410840A9890143A182684619
:10199000FFF772FD1148844201D1039800E00298DC
:1019A000642200EBC00101EB001029686FF01805FC
:1019B0008900B0FBF1F0B0FBF2F109010B096B43B8
:1019C00000EB8300322303EB0010B0FBF2F000F0D9
:1019D0000F000843208105B030BD000000380140F1
:1019E0008088C0F308007047C1F308018180704708
:1019F0007047704700B585B00020009001900290BC
:101A000003906946049000F0C7FF17489DF80C103A
:101A100001709DF80D2042709DF80E3083709DF886
:101A20000F30C3709DF8103003719DF81130437171
:101A30009DF8123083719DF81330C3710098B0285F
:101A400008D0A0F500700A3808D10848017008488D
:101A5000027003E0F12901D1FFF704FC0220FEF738
:101A600055FF05B000BD0000180000203600002022
:101A700064000020FEE770470FB4084B10B504A9BE
:101A800002AA039800F0CAF8044602A9002000F058
:101A900068FC204610BC5DF814FB000063230008BE
:101AA00002E008C8121F08C1002AFAD17047704727
:101AB000002001E001C1121F002AFBD17047000085
:101AC0002DE9FF5FDDE90220010DDDF838B00243AA
:101AD00010D10F9801244CA2012808D000210098B1
:101AE0000F9BC0E90021C0E90243BDE8FF9F6FEAF8
:101AF0000B01F4E7A1F2FF3144F6105041430D14FD
:101B00000F9801280ED0A5EB0B00401C4FF00004ED
:101B10003E4EDFF8FC90B0F1000AA04605DACAF1AB
:101B2000000717E0CBF10000F0E7074612E0F807E6
:101B300007D02246334640464946FEF707FB80461B
:101B400089462246334610461946FEF7FFFA0446F8
:101B50000E467F10002FEAD1DDE90201BAF1000F35
:101B600042464B4602DAFEF7F1FA01E0FEF723FDAA
:101B700004460E460022274BFEF7A4FD03D84FF083
:101B8000FF30014607E00022234B20463146FEF796
:101B90006BFCFEF77FFD102409E0002C0ADB0A2213
:101BA0000023FEF79BFB019B30321A55641E50EA5E
:101BB0000102F2D1641C019AC4F1110314440F9A7A
:101BC000012A09D00122084301D15B450FDD4FF006
:101BD000000205F101050DE0084303D1A3EB0B055D
:101BE0006D1E09E000204FF0110B0F9088E701DA1D
:101BF00000226D1E002A83D000980F99C0E902319F
:101C0000C0E9004571E700003000000000002440FA
:101C10000000F03F0000F0430000E03F2DE9FF4FDF
:101C200095B09B4689460646002512E2252878D1C4
:101C30000024761CF94A2746012105943378203B7D
:101C400001FA03F0104202D00443761CF6E7307824
:101C50002A2811D06FF02F033078A0F13002092A22
:101C600016D8059A44F0020402EB820203EB42020A
:101C70001044761C0590EFE759F8042B0592002AD2
:101C800003DA504244F40054059044F00204761CF8
:101C900030782E2816D116F8010F44F004042A28B3
:101CA0000DD06FF02F023078A0F13003092B09D846
:101CB00007EB870302EB4303C718761CF3E759F8D9
:101CC000047B761C30786C280FD006DC4C2817D0AB
:101CD00068280DD06A2814D104E0742810D07A281E
:101CE0000FD10DE044F400140AE044F4801401E044
:101CF00044F440147278824202D1761C04F58014B8
:101D0000761C307866280BD013DC582877D009DC95
:101D1000002875D04528F6D04628F4D047281AD197
:101D20009FE118E0632835D0642879D0652812D166
:101D300097E1702873D008DC6728F1D069286FD04C
:101D40006E280DD06F2806D1B5E073282CD07528E9
:101D500075D0782874D05A46179990476D1C76E153
:101D6000C4F30250022809D003280DD0D9F800107E
:101D700004280DD00D6009F1040968E1D9F80010BC
:101D8000EA17C1E90052F6E7D9F800100D80F2E732
:101D90000D70F0E719F8041B8DF8001000208DF885
:101DA0000100EA46012003E059F804AB4FF0FF3090
:101DB00061074FF0000102D40DE008F101018846EF
:101DC000B9420FDA8045F8DB1AF808100029F4D17F
:101DD00008E008F1010188468142FADB1AF8081090
:101DE0000029F6D105985B46A0EB08072146384646
:101DF000179A00F09EFA284400EB080507E04DE032
:101E00002BE10DE01AF8010B5A4617999047B8F1EB
:101E10000108F7D25B4621463846179A14E142E0A2
:101E20000A220092C4F302524FF0000A022A08D09C
:101E300059F804CB032A4FEAEC710AD00DE029E0EF
:101E40002AE009F1070121F00702F2E802C19146F8
:101E500009E00FFA8CFC4FEAEC71042A03D14FFA27
:101E60008CFC4FEAEC71002907DA0A460021DCF10C
:101E7000000C61EB02012D2202E0220504D52B2289
:101E80008DF80420012203E0E20701D02022F7E7C9
:101E9000904653E00A2102E010220DE010214FF09D
:101EA000000A00910BE010224FF0000A44F00404F5
:101EB0000827009203E008224FF0000A0092C4F3C2
:101EC0000252022A05D059F804CB0021032A08D077
:101ED00009E009F1070121F00702F2E802C1914689
:101EE00005E01FFA8CFC042A01D10CF0FF0C4FF026
:101EF0000008220722D5702827D0009B83F010030A
:101F000053EA0A0309D15CEA010206D030228DF8B7
:101F100004208DF8050002229046009B83F0080300
:101F200053EA0A030AD15CEA010201D1620705D52E
:101F300030228DF804204FF001087F1E582809D068
:101F400037A003900EA8029013E040228DF80420E1
:101F50000122E1E737A0F4E753466046009AFEF716
:101F6000BDF984460398825C0298A0F101000290BA
:101F700002705CEA0100EFD1029806A9A1EB000013
:101F800000F1200A600702D524F4803400E0012724
:101F9000574502DDA7EB0A0000E0002000EB0A0134
:101FA000009005984144A0EB01000590E00306D4A1
:101FB0005B462146179A059800F0BBF905440027B7
:101FC00006E001A85A46C05D179990476D1C7F1C1A
:101FD0004745F6DBE0030CD55B462146179A05988A
:101FE00000F0A7F9054404E030205A4617999047BD
:101FF0006D1C0099481E00900029F5DC08E002984D
:1020000002995A460078491C0291179990476D1C15
:10201000BAF10001AAF1010AF1DC6BE10928010023
:10202000303132333435363738396162636465664E
:102030000000000030313233343536373839414210
:10204000434445460000000000F060F9054406F1F5
:102050000106307800287FF4E9AD19B02846BDE8C4
:10206000F08F620700D4062709F1070222F0070C5F
:10207000FCE80223E14603F000485FEA080C02D0C6
:102080000FF27C2C0DE05FEA045C02D50FF2742C99
:1020900007E05FEAC47C02D00FF26C2C01E0AFF2E3
:1020A000700C4FF0FF3823F00043CDF850C0652886
:1020B0000CD006DC452809D046281DD047283ED143
:1020C0003EE0662818D0672839D139E00021112F69
:1020D00001DB112000E0781CCDE9000106A90EA863
:1020E000FFF7EEFCDDE90F010E9A0391002100924B
:1020F00007F1010A04914EE04FF000400097CDE94E
:10210000011006A90EA8FFF7DBFCDDE90F02039220
:102110000E9B11990022DDF80CA00093049219B9CE
:1021200007F1010100EB010AB7EB0A0004D4C0F18A
:10213000FF3007F1010A0490AAEB0700019046E086
:10214000012F00DA01270021112F01DD112000E00D
:102150003846CDE9000106A90EA8FFF7B1FCDDE97C
:102160000F010E9A0391002104910092BA462107B3
:102170000CD40399514500DA8A46BAF1010F05DD06
:10218000009AAAF10101515C302908D0B84202DA64
:1021900010F1040F06DA0121CDE9011017E0AAF1D0
:1021A0000101E9E7002805DC049901440491AAEB48
:1021B000000102E0411C514500DD8A460499A0EB74
:1021C000010000F1010001904FF000400290200753
:1021D00004D40198504501DBCDF8048000208DF82F
:1021E0004F0002980DF14F07B0F1004F25D02B2082
:1021F0000E9002984FF0020800280CDA404202903C
:102200002D200E9007E00A210298FEF751F8303198
:10221000029007F8011DB8F10001A8F10108F2DCF5
:1022200002980028EFD1791E0E980870307800F0DF
:10223000200040F0450007F8020D12A8A0EB0700AF
:1022400000F107081498007800B1012000EB0A01A2
:10225000019801EBE07105984144A0EB0100A0F169
:1022600001000590E00306D45B462146179A0598C5
:1022700000F05FF805441498007820B15A46179989
:10228000904705F10105E00323D55B462146179AE7
:10229000059800F04EF805441BE00498002807DB81
:1022A000DDE90301884203DD0098405C179901E0F5
:1022B000179930205A46904704986D1C401C049092
:1022C0000198401E019004D12E205A46179990473C
:1022D0006D1CBAF10001AAF1010ADEDC05E017F875
:1022E000010B5A46179990476D1CB8F10001A8F1EF
:1022F0000108F4DC5B462146179A0598A4E6000025
:102300002D0000002B000000200000002DE9F0410E
:10231000044600251E461746880405D406E03946C3
:102320002020B04705F10105641EF8D52846BDE818
:10233000F0812DE9F041044600251E469046C80371
:1023400001D5302700E02027880405D506E0414666
:102350003846B04705F10105641EF8D52846BDE8AA
:10236000F0810A68531C0B601070704770B50E4600
:10237000002114461160012802D0022802D004E096
:10238000144D00E0144D112E01D9002070BD022122
:102390002846FEF7F0F90523012231462846FEF7CC
:1023A00065FA01212846FEF7A0FA02212846FEF729
:1023B0002BFA0028F9D02846FEF723FA02462060BF
:1023C00006A10848FFF758FB064800F0D1FA0120A3
:1023D00070BD000000240140002801400D0A2025A6
:1023E000640000007800002010B50A4CA06870B9A5
:1023F000A27809484FF4005102B10122FEF7B4FE61
:10240000A07880F00100A0704FF4FA70A060012065
:1024100010BD0000000000200010014070B5124CFB
:10242000B020124E20801020E0700325A5702146B8
:102430003046FEF725FE402020802820E070A57061
:1024400021463046FEF71CFE002280213046FEF772
:102450008BFE012220213046FEF786FEBDE870404B
:10246000002000F005B80000220000200008014014
:1024700070B50A4D0446012220212846FEF774FE5D
:10248000012C08D0002C08D101222846BDE870405C
:102490001021FEF769BE0022F7E770BD0008014079
:1024A0002DE9F84300240094064625460480A04602
:1024B0004FF47A776A4600210120FFF757FF012881
:1024C00009D00BA10F48FFF7D7FA0E4800F050FAD9
:1024D0000020BDE8F8830098641CA4B20544CDF840
:1024E0000080BC42E6D3B5FBF7F030800120F0E776
:1024F0000D0A204144432052656164204661696CA5
:1025000000000000780000202DE9F047DFF830825D
:102510000520022698F80010DFF828A2DFF828929C
:1025200000248A4F012506290ED2DFE801F0030FAF
:102530003353B0C998F80200012803D147F2305054
:10254000C8F8100088F80050BDE8F08780494FF4C3
:10255000FA670969B9420DDB98F80400012802D135
:102560007CA000F005FA88F8015088F80060C8F8EF
:10257000187088E098F80210012902D088F800400D
:10258000E2E7D8F810100029DED188F80360A8F837
:102590000A401CE098F80100C0B10128D4D1D8F855
:1025A00018000028D0D1012202215046FEF7DCFDA0
:1025B000012211464846FEF7D7FD42F21070C8F8D6
:1025C0001400C820C8F81800032000E0042088F890
:1025D0000000B9E7D8F81400E8B398F8040098B9F7
:1025E000D8F814204FF47A70B2FBF0F100FB1121FF
:1025F00051B9D8F81410B1FBF0F25BA15D48FFF7B8
:102600003BFA5C4800F0B4F9D8F81C0040BBC8F8AD
:102610001C504B480830FFF743FF4C4AB8F80E00F7
:10262000283AB8F8081022F81010D8F82420401CD6
:10263000114480B2C8F82410A8F80E000A280FD35D
:102640000A20B1FBF0F1B8F80C0027F81010401C7C
:10265000A8F80C0000E012E0A8F80E40C8F82440EA
:10266000D8F8180000288BD144F62060C8F818006C
:10267000002201214846BDE8F047FEF775BD88F805
:10268000014088F80060002202215046F3E7C8F8B4
:10269000244000212246B8F80C3006E037F81150EB
:1026A00027F81140491C2A4489B29942F6D3C8F848
:1026B0002420A8F80C40A8F80E4088F8024086E7CD
:1026C00088F8005098F804002B4E2C4FF8B12C4994
:1026D000D8F824000844FDF7ABFD32463B46FDF731
:1026E00035FDFDF7C9FD10F1FF4F00D30020C8F8FC
:1026F0002C00FDF7AEFD02460B4622A11D48FFF758
:10270000BBF91C4800F034F9C8F824401CE788F8ED
:102710000450D8F82400C8F828001CA11548FFF779
:10272000ABF9144800F024F9D8E90901401AFDF783
:102730007FFD32463B46FDF709FDFDF79DFDD6E7DF
:102740003400002000100140000C01404401002032
:10275000280900200D0A20426C6F7720646574659B
:1027600063746564000000000D0A2025642E2E2E7F
:1027700020000000780000204BEC15FEDE6FDF3EED
:102780009048F0FF0D0A252E336600000D0A204206
:102790007265617468616C797A65722063616E201C
:1027A0006E6F772062652075736564002DE9F041D6
:1027B000294C86B0012626800327DFF8A080A77069
:1027C0000025E57021464046FEF75AFC0220208095
:1027D000A770E57021464046FEF752FCF003FEF775
:1027E0009DFD01214802FEF7BBFD1D4C2046FDF773
:1027F000E3FF4FF46020CDE902058DF80450009509
:102800008DF805608DF8106069462046FEF70AF8DD
:1028100001212046FDF7B2FF2046FEF761F8204671
:10282000FDF7F9FF0028FAD12046FEF768F82046A8
:10283000FDF7E0FF0028FAD101212046FDF79EFFB9
:1028400001212046FDF79AFF01212046FEF74DF8B1
:1028500006B00120BDE8F081220000200008014000
:1028600000240140064810B5C02101800321817079
:102870001421C17001460348FEF702FC012010BD7F
:1028800022000020000C014010B50A4C00224FF439
:1028900000412046FEF768FC00224FF480412046AC
:1028A000FEF762FC002261142046FEF75DFC012069
:1028B00010BD0000000C01402DE9F0411E4D002428
:1028C000286890BB1D484FF4007108220160002168
:1028D00041600172827241722222C272017341739D
:1028E0008173C1730174417481741448FEF7B8F99F
:1028F0000646042803D000244FF47A770BE0641CCA
:10290000A4B2322CF1D903E0641CA4B2BC4202D9B7
:102910000020BDE8F0813046FEF7FCF90228F3D034
:102920003046FEF7F7F910B12F600120F1E704A05F
:1029300000F01EF8ECE7000010000020DC00002092
:102940000D0A2043414E207478206661696C6564ED
:102950003A20666E5F75635F53656E645F486561BC
:102960007274626561745F546F5F45435500000087
:1029700070B50446074D09E02846FFF735F84021B9
:102980002846FEF7A9FF0028F9D0641C2178002909
:10299000F2D170BD003801401E4A02EB00121368EC
:1029A00013F004030B72136830D0DB084B6012681D
:1029B00002F002024A72174A121D02EB001213685B
:1029C00003F00F038B721268120ACA72114A08329E
:1029D00002EB001213680B7313681B0A4B73136826
:1029E0001B0C8B731268120ECA730A4A0C3202EB6C
:1029F000001213680B7413681B0A4B7413681B0CCA
:102A00008B741268120ECA74FEF738B85B0D0B6037
:102A1000CDE70000B0650040FEF7BAFCFEF7C0FB52
:102A2000FEF7F6F9FEF7AAFBFEF76CFAFEF700FFD9
:102A3000FDF7BCFFFFF7BAFEFFF714FFFFF7EEFC50
:102A4000FFF722FF104C0120207042F21070E0606E
:102A5000002565700D490E48FFF70EF80C48FFF78A
:102A600087FF607828B1012808D00228F9D1657065
:102A7000F7E7FFF7B9FCFFF71FFF01E0FFF744FDA1
:102A80006078401C6070ECE700000020942A000889
:102A9000780000200D0A2057656C636F6D65207407
:102AA0006F20537461726B656E6E20546563686E3F
:102AB0006F6C6F67696573200D0A204275696C64DD
:102AC0002056657273696F6E3A2041425F426173AE
:102AD00065436F64652E686578000204060800008F
:102AE00000000102030401020304060708090000B4
:102AF000102B00080000002078000000A01A000839
:102B0000882B00087800002080180000B01A000808
:102B100000000000000000000000000000000000B5
:102B200000000000000000000000000000000000A5
:102B30000000000000000000000000000000000095
:102B40000000000000000000010000000000000084
:102B50000000000000000000000000000000000075
:102B60000000000000000000000000000000000065
:102B70000000000000000000000000000000000055
:082B800000000000000000004D
:0400000508000131BD
:00000001FF
