:020000040800F2
:10000000B810002045010008591000082D10000804
:1000100057100008C90800088D18000800000000EB
:10002000000000000000000000000000DD140008D7
:100030009B0C000800000000C7110008E114000834
:100040008F180008C511000869150008D3140008AE
:10005000150E00083D140008AD0C0008210D000825
:10006000230D0008250D0008270D0008850C000849
:10007000870C0008890C00088B0C00088D0C000808
:100080008F0C0008910C00085B070008331800086B
:1000900035180008AD0B0008AF0B00082D0D000847
:1000A0006B150008711500086F1500086D15000824
:1000B0007315000875150008811500083110000837
:1000C0002F1000083510000833100008D71400085E
:1000D000D9140008A5150008F11500083D16000800
:1000E000C10C0008D114000831180008931500084D
:1000F0009915000897150008951500085D07000878
:10010000490E0008D51400088D150008DB140008FE
:10011000A1150008A31500088F1500089115000807
:10012000930C0008950C0008970C0008990C000827
:10013000DFF80CD000F0CEFA00480047892500080F
:10014000B810002000480047310100082DE9FE4F9B
:1001500081EA030404F0004421F0004100944FF0D0
:10016000000B23F0004350EA010402D052EA0304DA
:1001700004D10020014603B0BDE8F08FC3F30A5458
:10018000C1F30A552C44A4F2F3340194A0FB0254A9
:10019000C1F3130141F48011C3F3130343F480133B
:1001A00001FB024400FB034E840A970A44EA81548F
:1001B00047EA8357A4FB076802958D0A05FB07856C
:1001C0004FEA932C04FB0C542705029D4FEA065876
:1001D00047EA1637B5EB08056EEB070C870E920E53
:1001E00047EA811742EA8312A7FB0201B6EB0B0133
:1001F00064EB00042B0D43EA0C335E1844EB1C50F7
:10020000DA465146E7FB0201C5F313044FEA0B330C
:1002100043EA14534FEA0432019C43EA0603A4F173
:100220000C040294009CCDE900B400F0BFF8A2E7F2
:1002300096230022114600F07FB800F0004230F013
:1002400000400AD0C10D01F56071C0F3160042EA0A
:100250000151C20840071143704700200146704712
:1002600001F0004330B421F0004150EA010206D011
:100270000A0DA2F56072C1F31301002A02DC30BC42
:1002800000207047440F44EAC104C100E01830BCAC
:1002900000EBC25000F047B830B50B4601460020D5
:1002A0002022012409E021FA02F59D4205D303FA38
:1002B00002F5491B04FA02F52844151EA2F10102B9
:1002C000F1DC30BD2DE9F05F0546002092469B46EB
:1002D00088460646814640241BE02846414647465C
:1002E000224600F018FA53465A46C01A914110D3DC
:1002F00011461846224600F0FFF92D1A67EB010857
:100300004F4622460120002100F0F6F917EB0009C4
:100310004E41201EA4F10104DFDC484631462A4646
:100320004346BDE8F09F0029A8BF7047401C490024
:1003300008BF20F00100704710B4B0FA80FC00FA4A
:100340000CF050EA010404BF10BC704749B1CCF175
:10035000200421FA04F411FA0CF118BF0121214301
:100360000843A3EB0C01CB1D0106000A002BBEBF06
:10037000002010BC704700EBC35010440029A4BFFC
:1003800010BC7047401C490008BF20F0010010BCA1
:10039000704710B5002B08DA401C41F1000192189B
:1003A0005B411A4301D120F0010010BD2DE9F04D51
:1003B00092469B4611B1B1FA81F202E0B0FA80F2A6
:1003C0002032904600F098F904460F4640EA0A00B1
:1003D00041EA0B0153465A46084303D120463946A9
:1003E000BDE8F08D114653EA010015D0C8F1400276
:1003F000504600F090F905460E4650465946424692
:1004000000F07AF9084301D0012000E00020054304
:1004100046EAE0762C4337430A984FEA4453A0EB70
:1004200008004FEAD4240A304FF0000244EA47544F
:100430004FEAD72502D500200146D1E70105101962
:100440006941DDE9084500196941BDE8F04DA0E7C3
:100450002DE9FE4F804681EA0300C00F0C46009054
:1004600021F0004123F00045B8EB0200A94105D27C
:100470004046214690461C460B46024623F000406B
:10048000104304D14046214603B0BDE8F08F270D4C
:10049000C7F30A00C3F30A510290401A01904028A2
:1004A00066DAC3F3130040F4801B0098924620B133
:1004B0000023D2EB030A63EB0B0B01985946C0F102
:1004C0004002504600F018F906460D46504659467F
:1004D000019A00F030F910EB08006141002487EA2E
:1004E000115284EAE7731A433BD0009A3AB3019A57
:1004F000012A4FEA075210DC001B61EB02014FF0AA
:10050000004202EA0752CDE90042001C41F5801189
:1005100032462B46FFF74AFFB6E7001B61EB0201AC
:10052000001C41F5801300185B412018A2F500174C
:1005300047EB030140EAD570B6196D4111E06D0833
:100540004FEA360645EAC0754FEA0752001B61EBD9
:100550000201001C41F5801149084FEA30000019E2
:10056000514132462B4603B0BDE8F04FFFF711BFB3
:100570000098012240000023D0EB020263EBE073FD
:10058000009821464FEAE074B8EB000061EB0401EB
:10059000E9E783F000435BE781F0004158E72DE98C
:1005A000F04D81EA030404F0004B21F000451446AD
:1005B0004FF0000A23F0004150EA050220D054EA2F
:1005C00001021DD0C5F30A570246C5F31303C1F358
:1005D0001300C1F30A5640F4801543F48013A7EBCF
:1005E0000608101BD64608F2FD3873EB050002D34F
:1005F00008F1010801E092185B41B8F1000F03DA3D
:1006000000200146BDE8F08D00204FF48011064621
:1006100084460EE0171B73EB050705D3121B63EB33
:10062000050306434CEA010C49084FEA30009218D2
:100630005B4150EA0107EDD152EA030012D082EA91
:10064000040083EA0501084303D100224FF0004370
:1006500008E0101BAB4102D20122002302E06FF040
:10066000010253101AEB06004CEB085110EB0A0084
:1006700041EB0B01BDE8F04DFFF78BBEC1F30A5211
:10068000C1F3130140F2FF3341F480119A4202DAC0
:1006900000200146704740F233439A42A2F23342AF
:1006A00002DC524200F037B800F026B830B500291D
:1006B00004DB4FF00044404264EB0101002B04DBFB
:1006C0004FF00044524264EB0303994208BF90424A
:1006D00030BD0000064C074D06E0E06840F0010325
:1006E00094E8070098471034AC42F6D3FFF724FD96
:1006F0005826000878260008202A04DB203A00FA51
:1007000002F1002070479140C2F1200320FA03F368
:10071000194390407047202A04DB203A21FA02F066
:100720000021704721FA02F3D040C2F1200291402B
:10073000084319467047202A06DBCB17203A41FAB6
:1007400002F043EAE07306E041FA02F3D040C2F15E
:100750002002914008431946704770477047C943CB
:10076000016070470029816802D041F0010101E079
:1007700021F00101816070470D4910B5401811D07A
:100780004FF48064A04210D0B0F5C05F0FD10121BA
:10079000CC03204600F046FD2046BDE81040002175
:1007A00000F040BD01214C02F3E70121F1E710BD4B
:1007B00000DCFEBF014600208968490700D5012002
:1007C0007047C06C80B270470246002012680A422F
:1007D00000D001207047014600208968090700D534
:1007E0000120704710B542680E4B0C791A400B6817
:1007F00042EA04221343436082680B4B1A40D1E95A
:10080000024323434C7942EA440213438360C26AA1
:10081000097C22F47002491EC9B242EA0151C16248
:1008200010BD0000FFFEF0FFFDF7F1FF70B50724DB
:1008300009290AD9C568A1F10A0606EB4606B440A3
:10084000A543B3401D43C56007E0056901EB4106C0
:10085000B440A543B3401D4305611F23072A09D2B5
:10086000446B521E02EB820293409C4391400C4326
:10087000446370BD0D2A09D2046BD21F02EB8202C1
:1008800093409C4391400C43046370BDC46A0D3A8D
:1008900002EB820293409C4391400C43C46270BDC2
:1008A000816841F00801816070470029816802D0A9
:1008B00041F4800101E021F480018160704781688A
:1008C00041F0040181607047FEE70000F0B54FF48D
:1008D00080773E0208231022224C402834D013DCBB
:1008E0002149072801F1040528D007DC042827D076
:1008F000052821D0062800D10F60F0BD082821D09E
:100900002028FAD12360F0BD16490831B0F5806F78
:1009100020D008DCB84219D0B0F5007FF3D10868C8
:1009200020F0020019E01049091FB04217D0B0F5BD
:10093000003FE8D10A60F0BD01200EE00E60F0BD7E
:100940002B60F0BD2A60F0BD2260F0BD086820F089
:10095000010002E0086820F004000860F0BD0B60B0
:10096000F0BD0000106400400864004070B500F065
:1009700031F8164800F01CF91448002401250470D1
:1009800044708470C470057144718471C4710B210A
:100990000172042141720221418100F09FF80C484C
:1009A00044F2401104704570847081804FF4B0515E
:1009B000C180048144818481857300F021F8BDE801
:1009C00070400121022000F07DB80000D00000201E
:1009D000DC00002010B501214C06204600F00AFC86
:1009E0002046BDE81040002100F004BC202110B1D9
:1009F0000248016070470148001FFAE71064004098
:100A0000F0B50278012191402D4A89B2136843F074
:100A1000010313602A4C1C3423688B432360284B4A
:100A2000274D87780C3340352E1DA7B91F688F439B
:100A30001F60C788B0F80AC047EA0C4790F800C0AA
:100A400045F83C708788B0F808C047EA0C4790F832
:100A500000C046F83C708778012F0ED11F680F4305
:100A60001F60436807784FEA334345F8373083689F
:100A700005784FEA334346F83530114B45781B1D56
:100A8000002D1D6806D00D431D600D4B8589143364
:100A900015B104E08D43F7E71D688D431D6085891E
:100AA000012D02D11D680D431D60807B012802D1FC
:100AB000206808432060106820F001001060F0BD3D
:100AC00000660040044A0029116801D0014300E09B
:100AD000814311607047000014640040324910B532
:100AE000002201230B600B1D1C68E40748D002782C
:100AF000012A0A6846D022F080020A604278012A60
:100B00000A6842D022F040020A608278012A0A680C
:100B10003ED022F020020A60C278012A0A683AD048
:100B200022F010020A600279012A0A6836D022F007
:100B300008020A604279012A0A6832D022F00402CF
:100B40000A608279C479920742EA0462047A42EA2E
:100B50000442447A408942EA0452401E0243124849
:100B60001C3002600868012220F001000860900239
:100B7000401E0004000CFBD11868C00700D0002202
:100B8000104610BD42F08002B7E742F04002BBE7DA
:100B900042F02002BFE742F01002C3E742F0080231
:100BA000C7E742F00402CBE700640040704770479B
:100BB0000021017041708170C170017141718171BA
:100BC000C1710321017202214172012141817047EB
:100BD00030B52A4A002113685B0108D41168090165
:100BE00001D5012103E01168C9003BD50221244A47
:100BF00002EB0112136803F001031360037A83B35D
:100C00004468E500456014682C43457A2B431C4337
:100C10001460837A03F00F038372194B1B1D03EBDF
:100C200001131C6824F00F041C601C68857A2C4397
:100C30001C60C37AC46843EA0423114C083404EBF3
:100C400001142360C37B006943EA00200C4B0C3382
:100C500003EB01131860106840F0010010600846B3
:100C600030BD01E00421FAE703885C0504601368E5
:100C70002343447A23431360CBE700000864004019
:100C800080650040704770477047704770477047F5
:100C90007047704770477047704770470249486017
:100CA00048680028FCD170470000002010B50120E2
:100CB00000F068F8BDE81040012000F047B80000DF
:100CC00010B54FF48054204600F05CF8002813D093
:100CD0000A48007801280AD02146094800F09AF90C
:100CE00028B908A001F0FCFB0C490120087020463F
:100CF000BDE8104000F02AB810BD00000000002040
:100D0000000C01400D0A204B6579207072657373E9
:100D10002064657465637465640000002D00002024
:100D2000704770477047102000F010B810B52020B1
:100D300000F00CF8402000F009F8802000F006F8E0
:100D4000BDE810404FF48070AFF3008001490860A7
:100D5000704700001404014010B50C21012000F080
:100D6000D1F807484FF48051016000210171102132
:100D7000417101218171BDE8104000F013B80000FD
:100D800020000020064A014600201268044B0A4059
:100D900014331B680B4202D0002A00D00120704798
:100DA0000004014030B583791949026853B30B68D8
:100DB00093430B600A1D13680468A3431360027910
:100DC0000A441368046823431360114B08331A68FC
:100DD0000468A2431A601A1D14680568AC431460C5
:100DE0004479102C05D021440A68006802430A6047
:100DF00030BD196804682143196011680068014317
:100E0000116030BD0079084401689143016030BD34
:100E1000000401407047000004490A6822F01002F3
:100E20000A600A6802430A6070470000002002401E
:100E300004490A6802F038020A600A6802430A603C
:100E40007047000000200240704700002DE9F04785
:100E50000121284800F0BAF8274C4FF4017003250F
:100E60002080DFF898A0A5701826E670214650462D
:100E700000F05CF84FF481602080A5700427E770D3
:100E80002146504600F052F838022080DFF870907A
:100E9000A570E6702146484600F048F84FF4006817
:100EA000A4F80080A570E7702146484600F03EF89F
:100EB000B8022080A570E6702146504600F036F852
:100EC000A4F80080A570E7702146504600F02EF887
:100ED00001262680A5701020E0702146484600F0CB
:100EE00025F826800020E07021465046BDE8F047F6
:100EF00000F01CB8000430001A0000200008014077
:100F0000000C014010B58A0721F003040649130FB5
:100F100021440F228C689A4094438C608A689840E0
:100F200002438A6010BD000000000140F0B5CA789D
:100F3000002502F00F03D20601D58A7813430C78FE
:100F40004FF00F0E0122ECB1D0F800400F8802FAEA
:100F500005F63740B74211D14FEA850C0EFA0CF76F
:100F600024EA070703FA0CF43C43CF78282F02D079
:100F7000482F02D002E0466100E006616D1C082D9A
:100F8000E4D304600C88FF2C1ED944685FF000068F
:100F900006F1080702FA07F50F882F40AF420FD17C
:100FA0004FEA860C0EFA0CF7BC4303FA0CF73C43ED
:100FB000CF78282F00D14561CF78482F00D1056127
:100FC000761C082EE4D34460F0BD0000F0B5104D4F
:100FD0006A68440D260184B2C0F30157B440C0F3DF
:100FE0000343032F05D0C0020AD503209840824353
:100FF00007E0686822F0706320F07060686002E0CB
:10100000A24342F0706301B123436B60F0BD000066
:10101000000001400246002092680A4200D00120F0
:1010200070470AB10161704741617047FEE7704740
:1010300070477047704710B5002000F073FA42F215
:10104000283000F08DFA012000F07EFABDE8104053
:10105000012000F067BAFEE77047F8B500214FF0B5
:10106000006000F0A5F825208DF8000002258DF81D
:10107000015000268DF8026001248DF80340684677
:1010800000F04EF826208DF800008DF801508DF804
:1010900002408DF80340684600F042F827208DF8A2
:1010A00000008DF801608DF802408DF8034068461D
:1010B00000F036F814208DF800008DF801608DF8EE
:1010C00002608DF80340684600F02AF81D208DF874
:1010D00000008DF801508DF802508DF803406846ED
:1010E00000F01EF81E208DF800008DF801508DF8DC
:1010F00002508DF80340684600F012F806208DF883
:1011000000008DF801608DF802608DF8034068469C
:1011100000F006F84FF4C06000F040F8F8BD0000A1
:10112000F0B50F22C478017801234FF0E0253CB3DD
:10113000184C2468467804F4E064C4F5E064240A9A
:10114000C4F10407E2408478BE40144034432201D5
:101150008C07E70E21F003040F49BA406618316886
:10116000FF24BC40A143224011433160007800F0CD
:101170001F018B40400905EB8000C0F80031F0BD35
:1011800001F01F008340480905EB8000C0F8803162
:10119000F0BD00000CED00E000E400E0024908436F
:1011A00002490860704700000000FA050CED00E0FD
:1011B000024A1140014302480160704780FFFF1F4F
:1011C00008ED00E070477047034A516821F4404140
:1011D000014351607047000000100240044A00299A
:1011E000D16901D0014300E08143D1617047000023
:1011F00000100240044A0029116901D0014300E0B7
:10120000814311617047000000100240044A002928
:10121000916901D0014300E0814391617047000072
:1012200000100240044A0029D16801D0014300E0C7
:101230008143D160704700000010024010B500F0FB
:1012400053F84FF48034204600F0DEF800F026F921
:10125000234901280870234919D000200870012172
:101260004FF00610FFF7BAFF01218803FFF7CEFF0A
:10127000012140F67D00FFF7C9FF01214802FFF779
:10128000C5FF0121BDE810404806FFF7A7BF0120B8
:1012900008701020FFF7C0FD0220FFF7C9FD0020F5
:1012A00000F0A8F8002000F0D5F84FF4A06000F09E
:1012B000C7F84FF4E011204600F0DCF8012000F000
:1012C000D3F8392000F076F80028FAD0022000F098
:1012D000DBF800BF00F086F80828FBD1BFE700006C
:1012E00028000020180000200B48016841F001018F
:1012F00001604168094A114041600168084A114093
:101300000160016821F480210160416821F4FE013F
:101310004160002181607047001002400000FFF82A
:10132000FFFFF6FE30B51F494A6812F00C031E4A53
:1013300003D0042B01D0082B22D002604A680F236F
:101340001A4C03EA1212A35C0268DA4042604B684E
:10135000072505EA1323E35C22FA03F383604B6855
:1013600005EAD323E35C22FA03F2C260496803234F
:1013700003EA9131231F595CB2FBF1F1016130BDE9
:101380004A68022302F4701203EB92424B6813F492
:10139000803F02D04B689B0301D5054B00E0024B18
:1013A0005A43CAE70010024000127A00452600089E
:1013B00000093D000246002053090949012B0BD0CA
:1013C000022B0BD0D1F8241002F01F02012393400E
:1013D0000B4200D0012070470968F5E7096AF3E77E
:1013E000001002400248406800F00C007047000006
:1013F00000100240034A516821F0F001014351609E
:1014000070470000001002400B490A6822F4803245
:101410000A600A6822F480220A60B0F5803F07D093
:10142000B0F5802F03D1086840F4A0200860704711
:10143000086840F48030F9E700100240704700006F
:10144000034A516821F4E061014351607047000094
:101450000010024003494A6822F4605242EAC00088
:10146000486070470010024001490866704700005C
:1014700000004242034A5368084323F47C13184394
:101480005060704700100240034A516821F0030188
:1014900001435160704700000010024030B50B4C12
:1014A00040F2FF153120FFF785FF20706068401C77
:1014B0006060207810B96068A842F3D13120FFF74E
:1014C00079FF002800D0012030BD0000500000202E
:1014D000704770477047704770477047704700000B
:1014E0000C48016811B10168491E01600A48016891
:1014F00011B10168491E01600848016811B1016815
:10150000491E016006480168002902D00168491E91
:1015100001607047040000200C000020340000200F
:10152000080000204FF0E021012804D0801C06D0E4
:10153000002088617047086940F0010002E00869F6
:1015400020F00100086170474FF0E0210028086991
:1015500002D040F0020001E020F002000861704774
:101560004FF0E021486170477047704770477047FF
:10157000704770470121014800F00FB80004004097
:101580000121014800F009B8000800407047704789
:1015900070477047704770477047C9430182704772
:1015A0007047704770B50F4D40F2255421462846CC
:1015B00000F0B9F880B1284600F032F90B4A0A4928
:1015C0001368C8541068401C10601068A0F5A06132
:1015D000DC3901D10020106021462846BDE870406A
:1015E00000F03CB800380140FC000020480000201A
:1015F00070B50F4D40F225542146284600F093F86F
:1016000080B1284600F00CF90B4A0A495368C854C7
:101610005068401C50605068A0F5A061DC3901D1D1
:101620000020506021462846BDE8704000F016B802
:1016300000440040D80600204800002070B5064D48
:1016400040F225542146284600F06DF821462846F0
:10165000BDE8704000F002B8004800400A0A0121CD
:101660009140C943018070470029818902D041F42B
:10167000005101E021F40051818170472DE9F047CC
:10168000214C4FF4964000252060A580E5802581FF
:101690001E4FA5810C2666812146384600F07AF857
:1016A00040F2255901224946384600F05BF80121F5
:1016B0003846FFF7D9FF4FF416572760A580E5801D
:1016C0002581DFF84C80A58166812146404600F0E7
:1016D00061F801224946404600F044F801214046A5
:1016E000FFF7C2FF2760A580E5802581A58166817F
:1016F0002146084C204600F04DF849462046BDE8FA
:10170000F047012200F02EB8EC0000200038014024
:1017100000440040004800400246002012880A426F
:1017200000D00120704730B501F01F0201240025D0
:10173000C1F3421304FA02F2012B0FD0022B0FD097
:10174000838A4FEA11210088134204FA01F400EA67
:10175000040001D000B10125284630BD8389F0E79F
:10176000038AEEE710B5C1F3421301F01F04012113
:10177000A140012B07D0022B07D01430002A0268A9
:1017800005D00A4304E00C30F8E71030F6E78A434E
:10179000026010BD30B50446008A85B00D464CF697
:1017A000FF710840E98801432182A1894EF6F310B8
:1017B0000140A8882A8910436A890A431043A081FE
:1017C000A08A4FF6FF410840A9890143A1826846DB
:1017D000FFF7A8FD1148844201D1039800E0029868
:1017E000642200EBC00101EB001029686FF01805BE
:1017F0008900B0FBF1F0B0FBF2F109010B096B437A
:1018000000EB8300322303EB0010B0FBF2F000F09A
:101810000F000843208105B030BD000000380140B2
:101820008088C0F308007047C1F3080181807047C9
:101830007047704700B585B000200090019002907D
:1018400003906946049000F05FFE0F489DF80C106D
:1018500001709DF80D1041709DF80E1081709DF87B
:101860000F10C1709DF8101001719DF81110417199
:101870009DF8121081719DF81310C1710220FFF7BD
:1018800025F805B000BD000010000020FEE77047FD
:101890000FB4084B10B504A902AA039800F0CAF8C7
:1018A000044602A9002000F068FC204610BC5DF848
:1018B00014FB00007B21000802E008C8121F08C1C9
:1018C000002AFAD170477047002001E001C1121FC1
:1018D000002AFBD1704700002DE9FF5FDDE90220FF
:1018E000010DDDF838B0024310D10F9801244CA24D
:1018F000012808D0002100980F9BC0E90021C0E911
:101900000243BDE8FF9F6FEA0B01F4E7A1F2FF314C
:1019100044F6105041430D140F9801280ED0A5EB4A
:101920000B00401C4FF000043E4EDFF8FC90B0F17D
:10193000000AA04605DACAF1000717E0CBF1000063
:10194000F0E7074612E0F80707D022463346404644
:101950004946FEF7FBFB8046894622463346104641
:101960001946FEF7F3FB04460E467F10002FEAD11E
:10197000DDE90201BAF1000F42464B4602DAFEF7FA
:10198000E5FB01E0FEF70BFE04460E460022274B66
:10199000FEF78CFE03D84FF0FF30014607E000222F
:1019A000234B20463146FEF753FDFEF767FE102419
:1019B00009E0002C0ADB0A220023FEF783FC019BCE
:1019C00030321A55641E50EA0102F2D1641C019AA9
:1019D000C4F1110314440F9A012A09D001220843CB
:1019E00001D15B450FDD4FF0000205F101050DE06F
:1019F000084303D1A3EB0B056D1E09E000204FF057
:101A0000110B0F9088E701DA00226D1E002A83D0A7
:101A100000980F99C0E90231C0E9004571E7000064
:101A200030000000000024400000F03F0000F043C0
:101A30000000E03F2DE9FF4F95B09B4689460646E2
:101A4000002512E2252878D10024761CF94A274681
:101A5000012105943378203B01FA03F0104202D0B3
:101A60000443761CF6E730782A2811D06FF02F0354
:101A70003078A0F13002092A16D8059A44F0020401
:101A800002EB820203EB42021044761C0590EFE762
:101A900059F8042B0592002A03DA504244F400540A
:101AA000059044F00204761C30782E2816D116F8E2
:101AB000010F44F004042A280DD06FF02F02307873
:101AC000A0F13003092B09D807EB870302EB43038E
:101AD000C718761CF3E759F8047B761C30786C281D
:101AE0000FD006DC4C2817D068280DD06A2814D1F6
:101AF00004E0742810D07A280FD10DE044F40014CB
:101B00000AE044F4801401E044F440147278824204
:101B100002D1761C04F58014761C307866280BD030
:101B200013DC582877D009DC002875D04528F6D07A
:101B30004628F4D047281AD19FE118E0632835D011
:101B4000642879D0652812D197E1702873D008DC19
:101B50006728F1D069286FD06E280DD06F2806D184
:101B6000B5E073282CD0752875D0782874D05A46E3
:101B7000179990476D1C76E1C4F30250022809D0F2
:101B800003280DD0D9F8001004280DD00D6009F1FC
:101B9000040968E1D9F80010EA17C1E90052F6E734
:101BA000D9F800100D80F2E70D70F0E719F8041B6A
:101BB0008DF8001000208DF80100EA46012003E0B6
:101BC00059F804AB4FF0FF3061074FF0000102D429
:101BD0000DE008F101018846B9420FDA8045F8DBD3
:101BE0001AF808100029F4D108E008F1010188462C
:101BF0008142FADB1AF808100029F6D105985B46F5
:101C0000A0EB080721463846179A00F09EFA2844B0
:101C100000EB080507E04DE02BE10DE01AF8010BA1
:101C20005A4617999047B8F10108F7D25B4621460A
:101C30003846179A14E142E00A220092C4F3025295
:101C40004FF0000A022A08D059F804CB032A4FEAC1
:101C5000EC710AD00DE029E02AE009F1070121F03A
:101C60000702F2E802C1914609E00FFA8CFC4FEA44
:101C7000EC71042A03D14FFA8CFC4FEAEC71002975
:101C800007DA0A460021DCF1000C61EB02012D228B
:101C900002E0220504D52B228DF80420012203E066
:101CA000E20701D02022F7E7904653E00A2102E044
:101CB00010220DE010214FF0000A00910BE01022DD
:101CC0004FF0000A44F004040827009203E00822C1
:101CD0004FF0000A0092C4F30252022A05D059F8CC
:101CE00004CB0021032A08D009E009F1070121F003
:101CF0000702F2E802C1914605E01FFA8CFC042AB3
:101D000001D10CF0FF0C4FF00008220722D57028FB
:101D100027D0009B83F0100353EA0A0309D15CEA41
:101D2000010206D030228DF804208DF80500022231
:101D30009046009B83F0080353EA0A030AD15CEA49
:101D4000010201D1620705D530228DF804204FF041
:101D500001087F1E582809D037A003900EA80290D2
:101D600013E040228DF804200122E1E737A0F4E7D8
:101D700053466046009AFEF7A5FA84460398825CB3
:101D80000298A0F10100029002705CEA0100EFD11C
:101D9000029806A9A1EB000000F1200A600702D515
:101DA00024F4803400E00127574502DDA7EB0A0048
:101DB00000E0002000EB0A01009005984144A0EBF0
:101DC00001000590E00306D45B462146179A05986A
:101DD00000F0BBF90544002706E001A85A46C05DA3
:101DE000179990476D1C7F1C4745F6DBE0030CD527
:101DF0005B462146179A059800F0A7F9054404E0D0
:101E000030205A46179990476D1C0099481E009043
:101E10000029F5DC08E0029802995A460078491C2E
:101E20000291179990476D1CBAF10001AAF1010ABD
:101E3000F1DC6BE1092801003031323334353637BB
:101E40003839616263646566000000003031323306
:101E500034353637383941424344454600000000A6
:101E600000F060F9054406F10106307800287FF49F
:101E7000E9AD19B02846BDE8F08F620700D4062707
:101E800009F1070222F0070CFCE80223E14603F007
:101E900000485FEA080C02D00FF27C2C0DE05FEAEC
:101EA000045C02D50FF2742C07E05FEAC47C02D018
:101EB0000FF26C2C01E0AFF2700C4FF0FF3823F002
:101EC0000043CDF850C065280CD006DC452809D069
:101ED00046281DD047283ED13EE0662818D0672806
:101EE00039D139E00021112F01DB112000E0781CED
:101EF000CDE9000106A90EA8FFF7EEFCDDE90F0110
:101F00000E9A03910021009207F1010A04914EE01C
:101F10004FF000400097CDE9011006A90EA8FFF789
:101F2000DBFCDDE90F0203920E9B11990022DDF824
:101F30000CA00093049219B907F1010100EB010A0A
:101F4000B7EB0A0004D4C0F1FF3007F1010A049096
:101F5000AAEB0700019046E0012F00DA01270021DB
:101F6000112F01DD112000E03846CDE9000106A95E
:101F70000EA8FFF7B1FCDDE90F010E9A03910021D5
:101F800004910092BA4621070CD40399514500DA16
:101F90008A46BAF1010F05DD009AAAF10101515CF0
:101FA000302908D0B84202DA10F1040F06DA012114
:101FB000CDE9011017E0AAF10101E9E7002805DCED
:101FC000049901440491AAEB000102E0411C51452F
:101FD00000DD8A460499A0EB010000F101000190A8
:101FE0004FF000400290200704D40198504501DBD7
:101FF000CDF8048000208DF84F0002980DF14F07B6
:10200000B0F1004F25D02B200E9002984FF002081F
:1020100000280CDA404202902D200E9007E00A21A1
:102020000298FEF739F93031029007F8011DB8F136
:102030000001A8F10108F2DC02980028EFD1791E16
:102040000E980870307800F0200040F0450007F846
:10205000020D12A8A0EB070000F107081498007801
:1020600000B1012000EB0A01019801EBE071059835
:102070004144A0EB0100A0F101000590E00306D46B
:102080005B462146179A059800F05FF805441498BE
:10209000007820B15A461799904705F10105E003F1
:1020A00023D55B462146179A059800F04EF8054463
:1020B0001BE00498002807DBDDE90301884203DD0B
:1020C0000098405C179901E0179930205A469047D4
:1020D00004986D1C401C04900198401E019004D18E
:1020E0002E205A46179990476D1CBAF10001AAF1AB
:1020F000010ADEDC05E017F8010B5A4617999047F4
:102100006D1CB8F10001A8F10108F4DC5B46214622
:10211000179A0598A4E600002D0000002B0000008F
:10212000200000002DE9F041044600251E46174618
:10213000880405D406E039462020B04705F10105A2
:10214000641EF8D52846BDE8F0812DE9F04104462B
:1021500000251E469046C80301D5302700E0202701
:10216000880405D506E041463846B04705F101052B
:10217000641EF8D52846BDE8F0810A68531C0B6040
:102180001070704770B516460D46012802D002281F
:1021900002D004E0104C00E0104C112D01D90020B9
:1021A00070BD02212046FEF7DAFA052301222946F6
:1021B0002046FEF73BFB01212046FEF776FB02217D
:1021C0002046FEF701FB0028F9D02046FEF7F9FA79
:1021D0003060012070BD0000002401400028014053
:1021E0002DE9FC4100270097019707600D46064640
:1021F0003C460F606A460A210120FFF7C3FF012811
:1022000005D101AA0B21FFF7BDFF012802D0002054
:10221000BDE8FC81306800997F1C08443060286864
:102220000199BFB20844286000940194C82FE1D9F5
:102230003168C820B1FBF0F131602968B1FBF0F0E2
:1022400028600120E4E7000010B50A4CA06878B9C6
:10225000A178094809B1012200E000220121FEF71E
:10226000E0FEA07880F00100A0704FF4FA70A0604A
:10227000012010BD00000020000C014010B50C4CE6
:102280000020617881B16070A07870B90120A070E1
:102290002179012902D0022901D002E00220E07058
:1022A000207100F0E1F800E0A070E07810BD0000BF
:1022B0002C0000202DE9FC412E4C0125207830B166
:1022C000012814D002284DD0032848D14EE0FFF752
:1022D000D5FF012843D128A12D48FFF7D9FA2C4872
:1022E00000F0FEF841F28830A060257037E0A06869
:1022F00090B328492848FFF773FF274800688046B5
:10230000FDF796FFFDF799FF244E254F32463B46D9
:10231000FDF71CFFFDF7A4FF0546E0601D480068BF
:10232000FDF786FFFDF789FF32463B46FDF70EFFBE
:10233000FDF796FF20612846FDF77FFFCDE90001FC
:10234000424618A11248FFF7A3FA114800F0C8F856
:102350006420FEF7A3FC02E0FFE7022020700120CA
:10236000BDE8FC816571A5710320F7E700F09AF8DC
:102370000020F3E72C0000200D0A20416C636F68F9
:102380006F6C2054657374205374617274656400BB
:102390005800002044000020400000207A37161426
:1023A00006654A3F0D0A2041444331202D20256413
:1023B000202D3E2025302E3366560D0A00000000E9
:1023C00010B5264886B00F210180032181700421B9
:1023D000C17001462248FEF7A9FD4FF40040FEF708
:1023E000F3FE01214802FEF711FF1E4C2046FEF7C6
:1023F000C3F900224FF460210120CDE902128DF8CB
:1024000004208DF805008DF81000009269462046E2
:10241000FEF7E8F969462046FEF7E4F90121204677
:10242000FEF7A0F92046FEF73BFA2046FEF7D3F967
:102430000028FAD12046FEF742FA2046FEF7BAF904
:102440000028FAD101212046FEF78CF9012120460F
:10245000FEF72BFA06B0012010BD00001A00002084
:1024600000100140002401400C4810B540F22171D9
:10247000016000214160017208228272084A4172A3
:10248000D278C272017341738173C1730174417454
:102490008174FEF79DFB012010BD0000BC000020F0
:1024A0002C0000200C4810B540F221710160002181
:1024B0004160017208228272084A41725379C372E4
:1024C0009279027341738173C17301744174817491
:1024D000FEF77EFB012010BDBC0000202C00002078
:1024E00070B50446074D09E02846FFF79DF94021E5
:1024F0002846FFF711F90028F9D0641C217800293B
:10250000F2D170BD003801401E4A02EB0012136880
:1025100013F004030B72136830D0DB084B601268B1
:1025200002F002024A72174A121D02EB00121368EF
:1025300003F00F038B721268120ACA72114A083232
:1025400002EB001213680B7313681B0A4B731368BA
:102550001B0C8B731268120ECA730A4A0C3202EB00
:10256000001213680B7413681B0A4B7413681B0C5E
:102570008B741268120ECA74FEF738BA5B0D0B60CA
:10258000CDE70000B0650040FEF758FEFEF765FDA0
:10259000FEF7E2FBFEF74FFDFEF758FCFFF76EF883
:1025A000FEF7E4F9FFF70CFF114C01200025207025
:1025B00010486570104905701048FFF769F90F4819
:1025C000FFF78EFF0326607838B1012808D0022873
:1025D0000CD00328F7D16570F5E7FFF735FE01E071
:1025E000FFF768FE6078401C6070ECE76670EAE711
:1025F000000000202C0000200026000858000020C9
:102600000D0A2057656C636F6D6520746F205369E8
:102610007874682073656E736F72200D0A2042759E
:10262000696C642056657273696F6E3A20484D4933
:102630005F30305F30325F30325F30342E68657823
:102640000002040608000000000102030401020366
:102650000406070809000000782600080000002092
:1026600058000000B8180008D026000858000020C4
:1026700060100000C8180008000000000000000002
:10268000000000000000000000000000000000004A
:10269000000000000000000000000000000000003A
:1026A000000000000000000000000000000000002A
:1026B000000000000000000000000000000000001A
:1026C000000000000000000000000000000000000A
:0400000508000131BD
:00000001FF
