:020000040800F2
:10000000A017002045010008D5100008A91000081D
:10001000D310000821090008651A0008000000003C
:10002000000000000000000000000000691500084A
:10003000170D000800000000531200086D1500089D
:10004000671A000851120008451600085F150008DD
:100050006D0E0008C9140008190D0008790D00087C
:100060007B0D00087D0D00087F0D0008010D0008C4
:10007000030D0008050D0008070D0008090D000814
:100080000B0D00080D0D00083F0800083B19000883
:100090003D190008290C00082B0C0008850D0008EC
:1000A000471600084D1600084B16000849160008B0
:1000B0004F160008511600085D160008AD10000824
:1000C000AB100008B1100008AF100008631500085D
:1000D0006515000881160008CD16000825170008D0
:1000E0002D0D00085D150008391900086F1600086D
:1000F00075160008731600087116000841080008FC
:10010000A10E0008611500086916000867150008AF
:100110007D1600087F1600086B1600086D16000893
:100120000F0D0008110D0008130D0008150D000833
:10013000DFF80CD000F050FB004800479D2F00086E
:10014000A0170020004800473101000880EA0102A2
:1001500010B502F00043400026D04A0023D04FEAF9
:10016000106101EB1261C0F35600C2F3560240F475
:10017000000042F40002A0FB0220A1F17F014FEA3F
:100180000040140401D000F1010050EA124001D4F3
:100190004000491EC2B20C0604EBD010401C4008BF
:1001A000802A02D003E0002010BD20F001000029C9
:1001B00000DA0020184310BD2DE9FE4F81EA030448
:1001C00004F0004421F0004100944FF0000B23F0B4
:1001D000004350EA010402D052EA030404D1002093
:1001E000014603B0BDE8F08FC3F30A54C1F30A55CA
:1001F0002C44A4F2F3340194A0FB0254C1F3130184
:1002000041F48011C3F3130343F4801301FB024450
:1002100000FB034E840A970A44EA815447EA835755
:10022000A4FB076802958D0A05FB07854FEA932C0E
:1002300004FB0C542705029D4FEA065847EA16377F
:10024000B5EB08056EEB070C870E920E47EA811797
:1002500042EA8312A7FB0201B6EB0B0164EB000438
:100260002B0D43EA0C335E1844EB1C50DA46514622
:10027000E7FB0201C5F313044FEA0B3343EA1453BF
:100280004FEA0432019C43EA0603A4F10C040294F1
:10029000009CCDE900B400F079F9A2E72DE9F04D1A
:1002A00081EA030404F0004B21F0004514464FF0AE
:1002B000000A23F0004150EA050220D054EA01026E
:1002C0001DD0C5F30A570246C5F31303C1F313004B
:1002D000C1F30A5640F4801543F48013A7EB0608D7
:1002E000101BD64608F2FD3873EB050002D308F167
:1002F000010801E092185B41B8F1000F03DA002019
:100300000146BDE8F08D00204FF48011064684467A
:100310000EE0171B73EB050705D3121B63EB0503F8
:1003200006434CEA010C49084FEA300092185B4141
:1003300050EA0107EDD152EA030012D082EA04002C
:1003400083EA0501084303D100224FF0004308E08F
:10035000101BAB4102D20122002302E06FF0010228
:1003600053101AEB06004CEB085110EB0A0041EB5E
:100370000B01BDE8F04D00F0FCB8962300221146B9
:1003800000F0CAB80EB540F2334102910021CDE928
:1003900000110A460B4600F0F9F803B000BDC1F3A6
:1003A0000A5210B5C1F3130140F2FF3341F480113A
:1003B0009A4201DA002010BD40F233439A42A2F281
:1003C000334203DC524200F08EF810BD904010BD65
:1003D00000F0004230F000400AD0C10D01F560711C
:1003E000C0F3160042EA0151C208400711437047AA
:1003F00000200146704701F0004330B421F0004175
:1004000050EA010206D00A0DA2F56072C1F3130191
:10041000002A02DC30BC00207047440F44EAC104CB
:10042000C100E01830BC00EBC25000F06CB8000016
:10043000002801DBC0F10040002901DBC1F10041CF
:1004400081427047002801DBC0F10040002901DB38
:10045000C1F100418842704730B50B46014600208B
:100460002022012409E021FA02F59D4205D303FA76
:1004700002F5491B04FA02F52844151EA2F10102F7
:10048000F1DC30BD2DE9F05F0546002092469B4629
:1004900088460646814640241BE02846414647469A
:1004A000224600F020F853465A46C01A914110D314
:1004B00011461846224600F0A1F92D1A67EB0108F3
:1004C0004F4622460120002100F098F917EB000961
:1004D0004E41201EA4F10104DFDC484631462A4685
:1004E0004346BDE8F09F202A04DB203A21FA02F0BF
:1004F0000021704721FA02F3D040C2F1200291405E
:100500000843194670470029A8BF7047401C49009E
:1005100008BF20F00100704710B4B0FA80FC00FA68
:100520000CF050EA010404BF10BC704749B1CCF193
:10053000200421FA04F411FA0CF118BF012121431F
:100540000843A3EB0C01CB1D0106000A002BBEBF24
:10055000002010BC704700EBC35010440029A4BF1A
:1005600010BC7047401C490008BF20F0010010BCBF
:10057000704710B5002B08DA401C41F100019218B9
:100580005B411A4301D120F0010010BD2DE9F04D6F
:1005900092469B4611B1B1FA81F202E0B0FA80F2C4
:1005A0002032904600F02AF904460F4640EA0A003D
:1005B00041EA0B0153465A46084303D120463946C7
:1005C000BDE8F08D114653EA010015D0C8F1400294
:1005D0005046FFF788FF05460E46504659464246AC
:1005E00000F00CF9084301D0012000E00020054391
:1005F00046EAE0762C4337430A984FEA4453A0EB8F
:1006000008004FEAD4240A304FF0000244EA47546D
:100610004FEAD72502D500200146D1E70105101980
:100620006941DDE9084500196941BDE8F04DA0E7E1
:100630002DE9FE4F804681EA0300C00F0C46009072
:1006400021F0004123F00045B8EB0200A94105D29A
:100650004046214690461C460B46024623F0004089
:10066000104304D14046214603B0BDE8F08F270D6A
:10067000C7F30A00C3F30A510290401A01904028C0
:1006800066DAC3F3130040F4801B0098924620B151
:100690000023D2EB030A63EB0B0B01985946C0F120
:1006A0004002504600F0AAF806460D46504659460C
:1006B000019A00F0B2F810EB08006141002487EACB
:1006C000115284EAE7731A433BD0009A3AB3019A75
:1006D000012A4FEA075210DC001B61EB02014FF0C8
:1006E000004202EA0752CDE90042001C41F58011A8
:1006F00032462B46FFF74AFFB6E7001B61EB0201CB
:10070000001C41F5801300185B412018A2F500176A
:1007100047EB030140EAD570B6196D4111E06D0851
:100720004FEA360645EAC0754FEA0752001B61EBF7
:100730000201001C41F5801149084FEA3000001900
:10074000514132462B4603B0BDE8F04FFFF711BFD1
:100750000098012240000023D0EB020263EBE0731B
:10076000009821464FEAE074B8EB000061EB040109
:10077000E9E783F000435BE781F0004158E7C1F30C
:100780000A52C1F3130140F2FF3341F480119A423F
:1007900002DA00200146704740F233439A42A2F247
:1007A000334202DC5242FFF79EBE00F027B8000041
:1007B00030B5002904DB4FF00044404264EB0101F6
:1007C000002B04DB4FF00044524264EB03039942D8
:1007D00008BF904230BD0000064C074D06E0E068BF
:1007E00040F0010394E8070098471034AC42F6D378
:1007F000FFF7A2FC94300008B4300008202A04DB84
:10080000203A00FA02F1002070479140C2F1200323
:1008100020FA03F3194390407047202A06DBCB17D8
:10082000203A41FA02F043EAE07306E041FA02F3AB
:10083000D040C2F1200291400843194670477047EA
:1008400070470029816802D041F0010101E021F0E8
:1008500001018160704700000D4910B5401811D0AA
:100860004FF48064A04210D0B0F5C05F0FD10121D9
:10087000CC03204600F01CFD2046BDE810400021BE
:1008800000F016BD01214C02F3E70121F1E710BD94
:1008900000DCFEBF014600208968490700D5012021
:1008A0007047014600208968090700D5012070477C
:1008B00010B542680E4B0C791A400B6842EA0422CC
:1008C0001343436082680B4B1A40D1E90243234330
:1008D0004C7942EA440213438360C26A097C22F4E1
:1008E0007002491EC9B242EA0151C16210BD000046
:1008F000FFFEF0FFFDF7F1FF816841F00801816024
:1009000070470029816802D041F4800101E021F4A0
:10091000800181607047816841F004018160704707
:10092000FEE70000F0B54FF480773E020823102266
:10093000224C402834D013DC2149072801F104055A
:1009400028D007DC042827D0052821D0062800D18C
:100950000F60F0BD082821D02028FAD12360F0BD17
:1009600016490831B0F5806F20D008DCB84219D0A4
:10097000B0F5007FF3D1086820F0020019E01049BB
:10098000091FB04217D0B0F5003FE8D10A60F0BDB2
:1009900001200EE00E60F0BD2B60F0BD2A60F0BDBE
:1009A0002260F0BD086820F0010002E0086820F035
:1009B00004000860F0BD0B60F0BD00001064004052
:1009C0000864004070B500F043F81F4800F02EF9AD
:1009D0001D4800250126057045708570C57006719B
:1009E00045718571C5710B2101720421417202218B
:1009F000418100F0B1F8154C44F24010257066704A
:100A0000A570A08044F26010E0804FF4B0502081C7
:100A10006581A581A673204600F030F826706670C7
:100A2000A5704FF48440A08044F22020E08025810E
:100A30006581A581A673204600F020F8BDE87040CE
:100A40000121022000F07CB81C01002028010020B8
:100A500010B501214C06204600F012FC2046BDE8EE
:100A60001040002100F00CBC202110B102480160B0
:100A700070470148001FFAE710640040F0B50278A3
:100A8000012191402D4A89B2136843F0010313609C
:100A90002A4C1C3423688B432360284B274D8778CE
:100AA0000C3340352E1DA7B91F688F431F60C788C0
:100AB000B0F80AC047EA0C4790F800C045F83C700F
:100AC0008788B0F808C047EA0C4790F800C046F89D
:100AD0003C708778012F0ED11F680F431F60436859
:100AE00007784FEA334345F83730836805784FEA93
:100AF000334346F83530114B45781B1D002D1D68DA
:100B000006D00D431D600D4B8589143315B104E0EB
:100B10008D43F7E71D688D431D608589012D02D146
:100B20001D680D431D60807B012802D120680843A9
:100B30002060106820F001001060F0BD00660040E9
:100B4000044A0029116801D0014300E0814311608B
:100B50007047000014640040324910B500220123A0
:100B60000B600B1D1C68E40748D00278012A0A6854
:100B700046D022F080020A604278012A0A6842D0F8
:100B800022F040020A608278012A0A683ED022F0F0
:100B900020020A60C278012A0A683AD022F01002C4
:100BA0000A600279012A0A6836D022F008020A6037
:100BB0004279012A0A6832D022F004020A6082795E
:100BC000C479920742EA0462047A42EA0442447A0F
:100BD000408942EA0452401E024312481C3002601F
:100BE0000868012220F0010008609002401E000405
:100BF000000CFBD11868C00700D00022104610BDC1
:100C000042F08002B7E742F04002BBE742F0200228
:100C1000BFE742F01002C3E742F00802C7E742F024
:100C20000402CBE700640040704770470021017068
:100C300041708170C170017141718171C171032175
:100C400001720221417201214181704730B52A4A67
:100C5000002113685B0108D41168090101D5012145
:100C600003E01168C9003BD50221244A02EB0112BE
:100C7000136803F001031360037A83B34468E5004B
:100C8000456014682C43457A2B431C431460837AD7
:100C900003F00F038372194B1B1D03EB01131C6838
:100CA00024F00F041C601C68857A2C431C60C37AF6
:100CB000C46843EA0423114C083404EB0114236094
:100CC000C37B006943EA00200C4B0C3303EB011398
:100CD0001860106840F001001060084630BD01E067
:100CE0000421FAE703885C05046013682343447A0F
:100CF00023431360CBE70000086400408065004098
:100D0000704770477047704770477047704770472B
:100D1000704770477047704710B5012000F05EF8CB
:100D2000BDE81040012000F03DB8000010B54FF4C0
:100D30008054204600F052F8002813D00A4800786A
:100D400001280AD00948007838B92146084800F03F
:100D50009FF910B90749012008702046BDE81040EE
:100D600000F020B810BD000000000020340000207A
:100D7000000C01403500002070477047704710207C
:100D800000F010B810B5202000F00CF8402000F062
:100D900009F8802000F006F8BDE810404FF480709C
:100DA000AFF300800149086070470000140401405F
:100DB00010B50C21012000F0E3F807484FF48051F2
:100DC0000160002101711021417101218171BDE893
:100DD000104000F013B8000028000020064A014629
:100DE00000201268044B0A4014331B680B4202D0E7
:100DF000002A00D0012070470004014030B58379FB
:100E00001949026853B30B6893430B600A1D1368BA
:100E10000468A343136002790A44136804682343F7
:100E20001360114B08331A680468A2431A601A1D34
:100E300014680568AC4314604479102C05D0214433
:100E40000A68006802430A6030BD196804682143DB
:100E50001960116800680143116030BD00790844D1
:100E600001689143016030BD0004014070470000FB
:100E700004490A6822F010020A600A6802430A6004
:100E8000704700000020024004490A6802F038025E
:100E90000A600A6802430A607047000000200240AE
:100EA000704700002DE9F05F0121314800F0CCF8D7
:100EB000304C4FF4017003252080DFF8BCB0A570E2
:100EC0001826E6702146584600F06EF84FF481600F
:100ED0002080A5700427E7702146584600F064F88A
:100EE00038022080DFF894A0A570E67021465046B5
:100EF00000F05AF84FF40068A4F80080A570E7707D
:100F00002146504600F050F84FF48059A4F8009064
:100F1000A570E6702146584600F046F8A4F8008017
:100F2000A570E7702146584600F03EF80120208069
:100F3000A5701026E6702146504600F035F8258051
:100F40000020E0702146584600F02EF8A4F80090EA
:100F50004820E0702146504600F026F82680A57013
:100F6000E67021465846BDE8F05F00F01DB800006D
:100F7000000430002200002000080140000C014065
:100F800010B58A0721F003040649130F21440F22EC
:100F90008C689A4094438C608A68984002438A60C7
:100FA00010BD000000000140F0B5CA78002502F035
:100FB0000F03D20601D58A7813430C784FF00F0E39
:100FC0000122ECB1D0F800400F8802FA05F6374054
:100FD000B74211D14FEA850C0EFA0CF724EA070745
:100FE00003FA0CF43C43CF78282F02D0482F02D0CC
:100FF00002E0466100E006616D1C082DE4D3046048
:101000000C88FF2C1ED944685FF0000606F1080723
:1010100002FA07F50F882F40AF420FD14FEA860C36
:101020000EFA0CF7BC4303FA0CF73C43CF78282F99
:1010300000D14561CF78482F00D10561761C082E7C
:10104000E4D34460F0BD0000F0B5104D6A68440D73
:10105000260184B2C0F30157B440C0F30343032F09
:1010600005D0C0020AD503209840824307E0686893
:1010700022F0706320F07060686002E0A24342F0EA
:10108000706301B123436B60F0BD000000000140BC
:101090000246002092680A4200D0012070470AB13F
:1010A0000161704741617047FEE7704770477047C4
:1010B000704710B5002000F0A3FA42F2283000F08B
:1010C000BDFA012000F0AEFABDE81040012000F0AA
:1010D00097BAFEE77047F8B500214FF0006000F0C6
:1010E000ADF825208DF8000002258DF8015000266E
:1010F0008DF8026001248DF80340684600F056F830
:1011000026208DF800008DF801508DF802408DF8F2
:101110000340684600F04AF827208DF800008DF85B
:1011200001608DF802408DF80340684600F03EF8FB
:1011300014208DF800008DF801608DF802608DF8A4
:101140000340684600F032F81D208DF800008DF84D
:1011500001508DF802508DF80340684600F026F8E3
:101160001E208DF800008DF801508DF802508DF88A
:101170000340684600F01AF828208DF800008DF82A
:1011800001608DF802608DF80340684600F00EF8AB
:101190004FF4C06000F048F8F8BD00000249014873
:1011A000086070470400FA050CED00E0F0B50F226E
:1011B000C478017801234FF0E0253CB3184C246833
:1011C000467804F4E064C4F5E064240AC4F104073A
:1011D000E2408478BE401440344322018C07E70E7D
:1011E00021F003040F49BA4066183168FF24BC405F
:1011F000A143224011433160007800F01F018B4071
:10120000400905EB8000C0F80031F0BD01F01F007F
:101210008340480905EB8000C0F88031F0BD000034
:101220000CED00E000E400E00249084302490860D8
:10123000704700000000FA050CED00E0024A114082
:10124000014302480160704780FFFF1F08ED00E086
:1012500070477047034A516821F44041014351608F
:101260007047000000100240044A0029D16901D0F3
:10127000014300E08143D16170470000001002404B
:10128000044A0029116901D0014300E08143116142
:101290007047000000100240044A0029916901D003
:1012A000014300E08143916170470000001002405B
:1012B000044A0029D16801D0014300E08143D16094
:1012C000704700000010024010B500F053F84FF4D2
:1012D0008034204600F0DEF800F026F9234901288A
:1012E0000870234919D00020087001214FF0061022
:1012F000FFF7BAFF01218803FFF7CEFF012140F677
:101300007D00FFF7C9FF01214802FFF7C5FF01215A
:10131000BDE810404806FFF7A7BF01200870102065
:10132000FFF7A6FD0220FFF7AFFD002000F0A8F8B0
:10133000002000F0D5F84FF4A06000F0C7F84FF49B
:10134000E011204600F0DCF8012000F0D3F839204D
:1013500000F076F80028FAD0022000F0DBF800BF99
:1013600000F086F80828FBD1BFE70000300000201D
:10137000200000200B48016841F001010160416834
:10138000094A114041600168084A11400160016842
:1013900021F480210160416821F4FE0141600021B7
:1013A00081607047001002400000FFF8FFFFF6FE6A
:1013B00030B51F494A6812F00C031E4A03D0042BB3
:1013C00001D0082B22D002604A680F231A4C03EA8E
:1013D0001212A35C0268DA4042604B68072505EAF6
:1013E0001323E35C22FA03F383604B6805EAD323FB
:1013F000E35C22FA03F2C2604968032303EA9131F5
:10140000231F595CB2FBF1F1016130BD4A68022330
:1014100002F4701203EB92424B6813F4803F02D047
:101420004B689B0301D5054B00E0024B5A43CAE7CA
:101430000010024000127A008130000800093D00CF
:101440000246002053090949012B0BD0022B0BD077
:10145000D1F8241002F01F02012393400B4200D068
:10146000012070470968F5E7096AF3E700100240B8
:101470000248406800F00C00704700000010024075
:10148000034A516821F0F0010143516070470000A8
:10149000001002400B490A6822F480320A600A6890
:1014A00022F480220A60B0F5803F07D0B0F5802F8B
:1014B00003D1086840F4A02008607047086840F431
:1014C0008030F9E70010024070470000034A51687D
:1014D00021F4E061014351607047000000100240B8
:1014E00003494A6822F4605242EAC00048607047EB
:1014F00000100240014908667047000000004242A7
:10150000034A5368084323F47C1318435060704720
:1015100000100240034A516821F003010143516069
:10152000704700000010024030B50B4C40F2FF1530
:101530003120FFF785FF20706068401C60602078D4
:1015400010B96068A842F3D13120FFF779FF002875
:1015500000D0012030BD00008C0000207047704793
:101560007047704770477047704700001B4801681C
:1015700011B10168491E01601948016811B1016883
:10158000491E01601748016811B10168491E0160D8
:101590001548016811B10168491E016013480168CE
:1015A00011B10168491E01601148016811B101685B
:1015B000491E01600F48016811B10168491E0160B0
:1015C000006810B90C49002008700C480168002917
:1015D00002D00168491E016070470000040000202D
:1015E00010000020400000204400002008000020DF
:1015F000480000200C000020000000201400002003
:101600004FF0E021012804D0801C06D00020886122
:101610007047086940F0010002E0086920F001000D
:10162000086170474FF0E0210028086902D040F0BF
:10163000020001E020F00200086170474FF0E02155
:1016400048617047704770477047704770477047F0
:101650000121014800F00FB80004004001210148B9
:1016600000F009B8000800407047704770477047A5
:10167000704770477047C943018270477047704791
:1016800070B50F4D40F225542146284600F0CFF8A2
:1016900080B1284600F048F90B4A0A491368C8543B
:1016A0001068401C10601068A0F5A061DC3901D101
:1016B0000020106021462846BDE8704000F04EB87A
:1016C000003801400B0200209400002070B5114D3D
:1016D00040F225542146284600F0A9F8A0B10E4852
:1016E0000078012810D1284600F01EF90C4A0B4959
:1016F0001368C8541068401C1060106840F2DC5138
:10170000884201D30020106021462846BDE8704081
:1017100000F024B80044004062000020E7070020E9
:101720009800002070B50A4D40F225542146284605
:1017300000F07DF830B1284600F0F6F8064A054979
:101740001268885421462846BDE8704000F006B86B
:1017500000480040C30D0020A00000200A0A01211B
:101760009140C943018070470029818902D041F42A
:10177000005101E021F40051818170472DE9F047CB
:10178000234C4FF4964000252060A580E5802581FC
:10179000204FA5810C2666812146384600F07EF850
:1017A00040F2255901224946384600F05FF80121F0
:1017B0003846FFF7D9FF4FF416572760A580E5801C
:1017C0002581DFF85480A58166812146404600F0DE
:1017D00065F801224946404600F048F8012140469C
:1017E000FFF7C2FF2760A580E5802581A58166817E
:1017F00021460A4C204600F051F801224946204675
:1018000000F034F82046BDE8F0470121FFF7ACBFF7
:1018100038010020003801400044004000480040EA
:101820000246002012880A4200D00120704730B5DD
:1018300001F01F0201240025C1F3421304FA02F251
:10184000012B0FD0022B0FD0838A4FEA1121008881
:10185000134204FA01F400EA040001D000B10125AA
:10186000284630BD8389F0E7038AEEE710B5C1F35F
:10187000421301F01F040121A140012B07D0022BCC
:1018800007D01430002A026805D00A4304E00C3067
:10189000F8E71030F6E78A43026010BD30B5044621
:1018A000008A85B00D464CF6FF710840E988014377
:1018B0002182A1894EF6F3100140A8882A8910439D
:1018C0006A890A431043A081A08A4FF6FF4108406D
:1018D000A9890143A1826846FFF76AFD1148844245
:1018E00001D1039800E00298642200EBC00101EBF3
:1018F000001029686FF018058900B0FBF1F0B0FB0B
:10190000F2F109010B096B4300EB8300322303EB77
:101910000010B0FBF2F000F00F000843208105B08A
:1019200030BD0000003801408088C0F308007047D7
:10193000C1F3080181807047704770472DE9F0417D
:1019400086B00020009001900290039069460490B8
:1019500001F0E4FA38499DF80C0040F20B280870B9
:101960009DF80D304B709DF80E208A709DF80F4049
:10197000CC709DF810500D719DF811704F719DF84D
:1019800012608E719DF81360CE7100994FF6FF764C
:10199000A1F20B2C41450AD002DCB02945D10CE064
:1019A000BCF1050F0ED0BCF1060F3ED129E0234952
:1019B00006EA002003430B8037E0F12835D1FFF71A
:1019C000EDFB32E01E49087003F0030006EA002038
:1019D0001043FEF7D2FCDFF86C804146FEF7B6FB01
:1019E0001949086004F0030006EA00202843FEF7C6
:1019F000C4FC4146FEF7AAFB14490860144807706E
:101A000013E01449144D0870190441EA02210C43F3
:101A100012492C600E2841F8204006D110490120BF
:101A20000870401CC0B20E28FBD90220FEF77AFFD6
:101A300006B0BDE8F0810000180000203C00002046
:101A400084000020CDCCCC3C7C0000208000002015
:101A50006B00002085000020880000204801002045
:101A60006C000020FEE770470FB4084B10B504A9C6
:101A700002AA039800F0CAF8044602A9002000F068
:101A800068FC204610BC5DF814FB000053230008DE
:101A900002E008C8121F08C1002AFAD17047704737
:101AA000002001E001C1121F002AFBD17047000095
:101AB0002DE9FF5FDDE90220010DDDF838B00243BA
:101AC00010D10F9801244CA2012808D000210098C1
:101AD0000F9BC0E90021C0E90243BDE8FF9F6FEA08
:101AE0000B01F4E7A1F2FF3144F6105041430D140D
:101AF0000F9801280ED0A5EB0B00401C4FF00004FE
:101B00003E4EDFF8FC90B0F1000AA04605DACAF1BB
:101B1000000717E0CBF10000F0E7074612E0F807F6
:101B200007D02246334640464946FEF745FB8046ED
:101B300089462246334610461946FEF73DFB0446C9
:101B40000E467F10002FEAD1DDE90201BAF1000F45
:101B500042464B4602DAFEF72FFB01E0FEF79EFB02
:101B600004460E460022274BFEF722FE03D84FF014
:101B7000FF30014607E00022234B20463146FEF7A6
:101B800057FDFEF7FCFD102409E0002C0ADB0A22B9
:101B90000023FEF777FC019B30321A55641E50EA91
:101BA0000102F2D1641C019AC4F1110314440F9A8A
:101BB000012A09D00122084301D15B450FDD4FF016
:101BC000000205F101050DE0084303D1A3EB0B056D
:101BD0006D1E09E000204FF0110B0F9088E701DA2D
:101BE00000226D1E002A83D000980F99C0E90231AF
:101BF000C0E9004571E7000030000000000024400B
:101C00000000F03F0000F0430000E03F2DE9FF4FEF
:101C100095B09B4689460646002512E2252878D1D4
:101C20000024761CF94A2746012105943378203B8D
:101C300001FA03F0104202D00443761CF6E7307834
:101C40002A2811D06FF02F033078A0F13002092A32
:101C500016D8059A44F0020402EB820203EB42021A
:101C60001044761C0590EFE759F8042B0592002AE2
:101C700003DA504244F40054059044F00204761C08
:101C800030782E2816D116F8010F44F004042A28C3
:101C90000DD06FF02F023078A0F13003092B09D856
:101CA00007EB870302EB4303C718761CF3E759F8E9
:101CB000047B761C30786C280FD006DC4C2817D0BB
:101CC00068280DD06A2814D104E0742810D07A282E
:101CD0000FD10DE044F400140AE044F4801401E054
:101CE00044F440147278824202D1761C04F58014C8
:101CF000761C307866280BD013DC582877D009DCA6
:101D0000002875D04528F6D04628F4D047281AD1A7
:101D10009FE118E0632835D0642879D0652812D176
:101D200097E1702873D008DC6728F1D069286FD05C
:101D30006E280DD06F2806D1B5E073282CD07528F9
:101D400075D0782874D05A46179990476D1C76E163
:101D5000C4F30250022809D003280DD0D9F800108E
:101D600004280DD00D6009F1040968E1D9F80010CC
:101D7000EA17C1E90052F6E7D9F800100D80F2E742
:101D80000D70F0E719F8041B8DF8001000208DF895
:101D90000100EA46012003E059F804AB4FF0FF30A0
:101DA00061074FF0000102D40DE008F101018846FF
:101DB000B9420FDA8045F8DB1AF808100029F4D18F
:101DC00008E008F1010188468142FADB1AF80810A0
:101DD0000029F6D105985B46A0EB08072146384656
:101DE000179A00F09EFA284400EB080507E04DE042
:101DF0002BE10DE01AF8010B5A4617999047B8F1FC
:101E00000108F7D25B4621463846179A14E142E0B2
:101E10000A220092C4F302524FF0000A022A08D0AC
:101E200059F804CB032A4FEAEC710AD00DE029E0FF
:101E30002AE009F1070121F00702F2E802C1914608
:101E400009E00FFA8CFC4FEAEC71042A03D14FFA37
:101E50008CFC4FEAEC71002907DA0A460021DCF11C
:101E6000000C61EB02012D2202E0220504D52B2299
:101E70008DF80420012203E0E20701D02022F7E7D9
:101E8000904653E00A2102E010220DE010214FF0AD
:101E9000000A00910BE010224FF0000A44F0040405
:101EA0000827009203E008224FF0000A0092C4F3D2
:101EB0000252022A05D059F804CB0021032A08D087
:101EC00009E009F1070121F00702F2E802C1914699
:101ED00005E01FFA8CFC042A01D10CF0FF0C4FF036
:101EE0000008220722D5702827D0009B83F010031A
:101EF00053EA0A0309D15CEA010206D030228DF8C8
:101F000004208DF8050002229046009B83F0080310
:101F100053EA0A030AD15CEA010201D1620705D53E
:101F200030228DF804204FF001087F1E582809D078
:101F300037A003900EA8029013E040228DF80420F1
:101F40000122E1E737A0F4E753466046009AFEF726
:101F500099FA84460398825C0298A0F101000290ED
:101F600002705CEA0100EFD1029806A9A1EB000023
:101F700000F1200A600702D524F4803400E0012734
:101F8000574502DDA7EB0A0000E0002000EB0A0144
:101F9000009005984144A0EB01000590E00306D4B1
:101FA0005B462146179A059800F0BBF905440027C7
:101FB00006E001A85A46C05D179990476D1C7F1C2A
:101FC0004745F6DBE0030CD55B462146179A05989A
:101FD00000F0A7F9054404E030205A4617999047CD
:101FE0006D1C0099481E00900029F5DC08E002985D
:101FF00002995A460078491C0291179990476D1C26
:10200000BAF10001AAF1010AF1DC6BE10928010033
:10201000303132333435363738396162636465665E
:102020000000000030313233343536373839414220
:10203000434445460000000000F060F9054406F105
:102040000106307800287FF4E9AD19B02846BDE8D4
:10205000F08F620700D4062709F1070222F0070C6F
:10206000FCE80223E14603F000485FEA080C02D0D6
:102070000FF27C2C0DE05FEA045C02D50FF2742CA9
:1020800007E05FEAC47C02D00FF26C2C01E0AFF2F3
:10209000700C4FF0FF3823F00043CDF850C0652896
:1020A0000CD006DC452809D046281DD047283ED153
:1020B0003EE0662818D0672839D139E00021112F79
:1020C00001DB112000E0781CCDE9000106A90EA873
:1020D000FFF7EEFCDDE90F010E9A0391002100925B
:1020E00007F1010A04914EE04FF000400097CDE95E
:1020F000011006A90EA8FFF7DBFCDDE90F02039231
:102100000E9B11990022DDF80CA00093049219B9DE
:1021100007F1010100EB010AB7EB0A0004D4C0F19A
:10212000FF3007F1010A0490AAEB0700019046E096
:10213000012F00DA01270021112F01DD112000E01D
:102140003846CDE9000106A90EA8FFF7B1FCDDE98C
:102150000F010E9A0391002104910092BA462107C3
:102160000CD40399514500DA8A46BAF1010F05DD16
:10217000009AAAF10101515C302908D0B84202DA74
:1021800010F1040F06DA0121CDE9011017E0AAF1E0
:102190000101E9E7002805DC049901440491AAEB58
:1021A000000102E0411C514500DD8A460499A0EB84
:1021B000010000F1010001904FF000400290200763
:1021C00004D40198504501DBCDF8048000208DF83F
:1021D0004F0002980DF14F07B0F1004F25D02B2092
:1021E0000E9002984FF0020800280CDA404202904C
:1021F0002D200E9007E00A210298FEF72DF93031CC
:10220000029007F8011DB8F10001A8F10108F2DC05
:1022100002980028EFD1791E0E980870307800F0EF
:10222000200040F0450007F8020D12A8A0EB0700BF
:1022300000F107081498007800B1012000EB0A01B2
:10224000019801EBE07105984144A0EB0100A0F179
:1022500001000590E00306D45B462146179A0598D5
:1022600000F05FF805441498007820B15A46179999
:10227000904705F10105E00323D55B462146179AF7
:10228000059800F04EF805441BE00498002807DB91
:10229000DDE90301884203DD0098405C179901E005
:1022A000179930205A46904704986D1C401C0490A2
:1022B0000198401E019004D12E205A46179990474C
:1022C0006D1CBAF10001AAF1010ADEDC05E017F885
:1022D000010B5A46179990476D1CB8F10001A8F1FF
:1022E0000108F4DC5B462146179A0598A4E6000035
:1022F0002D0000002B000000200000002DE9F0411F
:10230000044600251E461746880405D406E03946D3
:102310002020B04705F10105641EF8D52846BDE828
:10232000F0812DE9F041044600251E469046C80381
:1023300001D5302700E02027880405D506E0414676
:102340003846B04705F10105641EF8D52846BDE8BA
:10235000F0810A68531C0B601070704710B50A4C6E
:10236000A06878B9A178094809B1012200E00022EB
:102370000121FEF794FEA07880F00100A0704FF4D8
:10238000FA70A060012010BD00000020000C014088
:102390000B4810B5AA21017041214170A121817023
:1023A0000721C1706321017100214171F622827100
:1023B000FF22C271017200F0FFFA012010BD00007F
:1023C000A400002010B5254886B00321018081704B
:1023D0000421C17001462248FEF7E6FD4FF400409B
:1023E000FEF738FF01214802FEF756FF1D4C20463C
:1023F000FEF732FA00224FF460210120CDE90212EB
:102400008DF804208DF805008DF8100000926946C3
:102410002046FEF74DFA69462046FEF749FA0121AB
:102420002046FEF70EFA2046FEF766FA2046FEF733
:1024300038FA0028FAD12046FEF76DFA2046FEF75A
:1024400029FA0028FAD101212046FEF7FAF90121E4
:102450002046FEF756FA06B0012010BD22000020EB
:102460000008014000240140084A00200146106095
:10247000074A1060074B40F2DC521954401C90424E
:10248000FBD30549012088707047000098000020A8
:102490009C000020E707002060000020084A002080
:1024A00001461060074A1060074B40F2DC52195495
:1024B000401C9042FBD3054841700120704700004A
:1024C000980000209C000020E7070020600000200A
:1024D0002DE9F84FDFF8F882DFF8F89243F6982AF2
:1024E000DFF8F4B240F2DC550026BC4CBC4F66E18C
:1024F0002168404618F80110AA293FD12168491CDB
:1025000021602168A94200D326602168415CA1298D
:10251000F3D12168491C21602168A94200D32660BB
:102520002168415C4129E8D12168491C216021686A
:10253000A94200D326602168425CC9F810202268B5
:10254000521C22602268AA4200D32660226818F832
:10255000020089F80300112802D06328CDD10EE0D3
:10256000A0A1A848FFF780FAA64800F011FA89F860
:102570000260CBF800A0012189F8011018E1A2A1A6
:10258000A048FFF771FA9F4800F002FA2068401C4B
:1025900020602068A84200D32660206818F8000058
:1025A00030B1CBF800A0012089F80100A1A0AEE075
:1025B0002068401C20602068A84200D3266099F85B
:1025C00004204846012A7DD0226818F80220C271F2
:1025D0005309037202F01F0189F8091000919BA1B1
:1025E0008848FFF741FA874800F0D2F92068401C7C
:1025F00020602068A84200D32660206841464B46F0
:1026000018F800000004C9F814002268521C226067
:102610002268AA4200D3266022688A5C40EA02202F
:1026200058612268521C22602268AA4200D32660A8
:10263000226892A118F8022002437248C9F81420B7
:10264000FFF712FA6F4800F0A3F92068401C2060E1
:102650002068A84200D3266021684FF6FF7218F860
:10266000011001F0030102EA01212268521C2260DC
:102670002268AA4200D32660226818F802000843A4
:10268000FDF780FE824A834BFDF796FDFDF7B3FE12
:10269000C9F81800FDF79CFE02460B467EA159487A
:1026A000FFF7E2F9574800F073F92068401C2060FA
:1026B0002068A84200D32660216818F8010032285B
:1026C00028D300E006E0216818F80100323889F8C4
:1026D0000A0021E00671226876A118F802204271F2
:1026E00089F806604748FFF7BFF9464800F050F9FF
:1026F0002068401C20602068A84200D32660216822
:10270000404818F8012072A1FFF7AEF93D4800F0EB
:102710003FF94DE089F80A6099F80A2070A139481C
:10272000FFF7A2F9374800F033F92068401C206019
:102730002068A84200D32660216818F8011089F8A3
:102740000D102168491C21602168A94200D3266030
:10275000D9F81800FDF73CFE4D4A4E4BFDF79EFDA3
:10276000FDF71DFE81B299F80A2099F8090000F0E2
:1027700057F999F80D000090D9E9051299F80A3037
:1027800099F8090000F098F999F80600401CC0B2C9
:1027900089F8060099F80510884209D357A000F07F
:1027A000F7F8012189F80110CBF800A089F806603C
:1027B0002068401C20602068A84200D32660216861
:1027C000386881427FF494AE0120BDE8F88F0000A4
:1027D000E707002060000020140000209C0000207B
:1027E000980000200D0A2048616E645368616B6593
:1027F00020526573706F6E736520526563656976EC
:1028000065640000A40000200D0A0D0A20476574CD
:1028100020416C6C2053656E736F7220496E666F39
:1028200020526573706F6E736520526563656976BB
:10283000656400000D0A20496E76616C696420436E
:102840006D64205265636569766564000D0A2054E5
:1028500020706F7369746F6E3A2025782C20547243
:102860006163746F72204E6F3A25642C2053656E3D
:10287000736F72204E6F3A20256400000D0A2053BA
:10288000656E736F722049443A202578000000007D
:102890009A9999999999993F0D0A205469726520DE
:1028A00050726573737572653A20252E303266203A
:1028B000626172000D0A204E756D626572206F664E
:1028C0002053656E736F72733A2025640000000018
:1028D0000D0A20436865636B73756D3A2025780097
:1028E0000D0A20546972652054656D703A20256484
:1028F0002064656772656573000000000D0A204161
:102900006C6C2053656E736F722044617461205249
:10291000656365697665640D0A0D0A000A4810B59D
:10292000AA210170417041218170A121C17006214D
:10293000017111214171A3218171FF21C17100F049
:102940003BF8012010BD0000A400002010B50E4C83
:102950002068B8B90D484FF40071082201600021C9
:1029600041600172827241722222C272017341730C
:102970008173C173017441748174FEF767F94FF478
:102980007A702060012010BD100000200801002096
:1029900070B50446074D09E02846FEF7C9FF4021FF
:1029A0002846FEF73DFF0028F9D0641C2178002955
:1029B000F2D170BD0038014070B50446074D09E002
:1029C0002846FEF7B5FF40212846FEF729FF0028DC
:1029D000F9D0641C2178FF29F2D170BD0044004079
:1029E0002DE9F0410D4C40F20525069E256000259D
:1029F000656025720827A7726572E07221736273A1
:102A0000C3F30120A073E37326746574A574204694
:102A1000FEF71CF90120BDE8F0810000080100204C
:102A200070B50C4B40F2062408251C6000245C6045
:102A30001C729D725C72D872C1F3012018735973B5
:102A40009A73DC731C745C749C741846FEF7FEF871
:102A5000012070BD0801002070B5144C0120022532
:102A6000617821B1012912D002291CD119E0104945
:102A70000978C1B9217B012915D1217899B9207034
:102A800000202073FFF7F0FCFFF748FF07E009493B
:102A9000096841B92071FFF7E7FCFFF779FC657021
:102AA00001E0FFF715FD012070BD0000600000206F
:102AB00000000020140000202DE9FF4F0446FC48D0
:102AC00083B0FB4E50F824003C360127DDF84080EF
:102AD0001D4688421AD1B146305D0026012811D129
:102AE00009F804600598FDF773FCF24AF24BFDF714
:102AF000D5FBFDF754FC83B200220121204600954E
:102B0000FFF76EFF19F8040090B1FDE10598FDF79D
:102B10005FFCE84AE84BFDF7C1FBFDF740FC83B2E0
:102B20000122114620460095FFF75AFF3755EBE189
:102B3000DFF87CB35FEA48600BF1870BABF13C092F
:102B400009F10F0A5ED50598FDF742FCD94ADA4B28
:102B5000FDF7A4FBFDF723FCCDE9005083B2012271
:102B600002212046FFF73CFF0BF804700198002279
:102B700083B2042120460095FFF732FF0AF8046073
:102B80000198002283B2032120460095FFF728FF19
:102B900009F804600198002283B2052120460095BF
:102BA000FFF71EFF09F11E000022065501980721BC
:102BB00083B220460095FFF713FF09F12D00002294
:102BC00006550198082183B220460095FFF708FFBB
:102BD00009F14B00002206550198092183B22046D5
:102BE0000095FFF7FDFE09F15A00002206550198F5
:102BF0000A2183B220460095FFF7F2FE09F1690031
:102C0000065515E01BF80410012911D10BF80460DA
:102C10000598FDF7DDFBA74AA74BFDF73FFBFDF746
:102C2000BEFB83B20022022120460095FFF7D8FEAA
:102C30001BF80410A14800297ED18346C16905987C
:102C4000FDF700FC1DD80598FDF7C2FB994A9A4B89
:102C5000FDF724FBFDF7A3FBCDE9005083B2002272
:102C600004212046FFF7BCFE0AF804600198012207
:102C700083B2032120460095FFF7B2FE09F80470E5
:102C80004EE0DBF820100598FDF7D2FB1DD8059823
:102C9000FDF79EFB874A884BFDF700FBFDF77FFBA6
:102CA000CDE9005083B2002203212046FFF798FEB1
:102CB00009F804600198012283B20421204600959E
:102CC000FFF78EFE0AF804702AE019F804100129B3
:102CD00004D01AF80410012910D021E009F804608A
:102CE0000598FDF775FB734A734BFDF7D7FAFDF7AF
:102CF00056FB002283B2032100950EE00AF804601F
:102D00000598FDF765FB6B4A6B4BFDF7C7FAFDF7BE
:102D100046FB002283B2042100952046FFF760FEA7
:102D20009BF80A109BF80B00814215D30598FDF71C
:102D30004FFB604A604B00E0E6E0FDF7AFFAFDF7BD
:102D40002EFB83B20122052120460095FFF748FEA5
:102D500057486930075515E055486930015D01292C
:102D600010D106550598FDF733FB524A524BFDF73B
:102D700095FAFDF714FB83B2002205212046009549
:102D8000FFF72EFE5FEAD81013D00598FDF720FB61
:102D9000484A494BFDF782FAFDF701FB83B2012255
:102DA000072120460095FFF71BFE41487830075564
:102DB00015E03F487830015D012910D1065505988E
:102DC000FDF706FB3B4A3C4BFDF768FAFDF7E7FAD7
:102DD00083B20022072120460095FFF701FE08F08C
:102DE0000309B9F1010F05D031489630015D012981
:102DF00014D024E00598FDF7EBFA2E4A2E4BFDF790
:102E00004DFAFDF7CCFA83B2012208212046009545
:102E1000FFF7E6FD26489630075510E00655059861
:102E2000FDF7D6FA234A244BFDF738FAFDF7B7FA37
:102E300083B20022082120460095FFF7D1FDB9F1A9
:102E4000020F05D01A48A530015D012914D024E0F5
:102E50000598FDF7BDFA174A174BFDF71FFAFDF766
:102E60009EFA83B20122092120460095FFF7B8FDA2
:102E70000F48A530075510E006550598FDF7A8FA4C
:102E80000C4A0D4BFDF70AFAFDF789FA83B20022CE
:102E9000092120460095FFF7A3FD6FEA080080078F
:102EA0000ED00348B430015D01291CD02CE0000095
:102EB000480100209A9999999999993F60000020BA
:102EC0000598FDF785FA124A124BFDF7E7F9FDF771
:102ED00066FA83B201220A2120460095FFF780FDA1
:102EE0000D48075510E006550598FDF771FA084A98
:102EF000084BFDF7D3F9FDF752FA83B200220A21FD
:102F000020460095FFF76CFD07B00120BDE8F08F6B
:102F10009A9999999999993FFC0100201E4A02EBD0
:102F20000012136813F004030B72136830D0DB082F
:102F30004B60126802F002024A72174A121D02EB3D
:102F40000012136803F00F038B721268120ACA7220
:102F5000114A083202EB001213680B7313681B0A44
:102F60004B7313681B0C8B731268120ECA730A4AD8
:102F70000C3202EB001213680B7413681B0A4B74BB
:102F800013681B0C8B741268120ECA74FDF76CBDAB
:102F90005B0D0B60CDE70000B0650040FEF794F9D3
:102FA000FEF799F8FDF704FFFEF783F8FDF77AFFC7
:102FB000FEF7E4FBFDF706FDFFF704FA194C0120CC
:102FC000207042F21070E0601748002565700570AF
:102FD000164802261649067040F27E400880FFF728
:102FE0005DFA14491448FEF73FFD1348FFF7D0FC83
:102FF0000327607848B101280FD002280FD003289A
:10300000F7D1FFF729FD6570F3E7FFF7A7F9FFF7A1
:103010009DFC6078401C6070EBE76670E9E76770C4
:10302000E7E7000000000020340000203800002006
:103030003C0000203C300008A40000200D0A20576E
:10304000656C636F6D6520746F20536978746820B8
:1030500073656E736F72200D0A204275696C64206F
:1030600056657273696F6E3A204143435F30305F3B
:1030700030305F30305F30312E68657800020406F2
:10308000080000000001020304010203040607080F
:1030900009000000B430000800000020A400000077
:1030A000901A000858310008A4000020FC16000007
:1030B000A01A00080000000000000000000000004E
:1030C0000000000000000000000000000000000000
:1030D00000000000000000000000000000000000F0
:1030E00000000000000000000000000000000000E0
:1030F00000000000000000000000000000000000D0
:1031000000000000000000000000000000000000BF
:1031100000000000000000000000000000000000AF
:10312000000000000000000000000000000000009F
:10313000000000000000000000000000000000008F
:10314000000000000000000000000000000000007F
:08315000000000000000000077
:0400000508000131BD
:00000001FF
