:020000040800F2
:10000000D04C002045010008A91200087D1200080C
:10001000A7120008410A0008991D0008000000000E
:100020000000000000000000000000003D17000874
:10003000CF0E000800000000271400084117000838
:100040009B1D0008251400088D18000833170008B0
:10005000351000089D160008E10E0008410F000849
:10006000430F0008450F0008470F0008B90E0008AD
:10007000BB0E0008BD0E0008BF0E0008C10E000830
:10008000C30E0008C50E00085F090008CF1B00085A
:10009000D11B0008750D0008770D00084D0F0008F2
:1000A0008F18000895180008931800089118000888
:1000B0009718000899180008A51800088112000870
:1000C0007F12000885120008831200083717000805
:1000D00039170008C9180008151900086D1900081B
:1000E000F50E000831170008CD1B0008B7180008EE
:1000F000BD180008BB180008B918000861090008FD
:100100006910000835170008B11800083B170008EF
:10011000C5180008C7180008B3180008B51800086B
:10012000C70E0008C90E0008CB0E0008CD0E00084F
:10013000DFF80CD000F0E0FB004800479D420008CB
:10014000D04C0020004800473101000838B5D0E904
:100150000221491E01EB410102EBC1014268C1EBE2
:10016000011102EB81010268C1EB011102EB810375
:10017000D0E9042101EB410102EB8101A1F55271AB
:10018000302491FBF4F2154D04FB1211554303EB9F
:10019000C51300931A2902DB114A1A4400920C235A
:1001A00091FBF3F20F4C009D544303FB121105EB3E
:1001B000C4140D4B009408E0491E40F2A3245A5C7D
:1001C0006243009C04EBC21200920029F4DC014659
:1001D000684600F0E9F9009838BD00003F0C0F00B8
:1001E0008051010067C203004E44000880EA01020A
:1001F00010B502F00043400026D04A0023D04FEA59
:10020000106101EB1261C0F35600C2F3560240F4D4
:10021000000042F40002A0FB0220A1F17F014FEA9E
:100220000040140401D000F1010050EA124001D452
:100230004000491EC2B20C0604EBD010401C40081E
:10024000802A02D003E0002010BD20F00100002928
:1002500000DA0020184310BD2DE9FE4F81EA0304A7
:1002600004F0004421F0004100944FF0000B23F013
:10027000004350EA010402D052EA030404D10020F2
:10028000014603B0BDE8F08FC3F30A54C1F30A5529
:100290002C44A4F2F3340194A0FB0254C1F31301E3
:1002A00041F48011C3F3130343F4801301FB0244B0
:1002B00000FB034E840A970A44EA815447EA8357B5
:1002C000A4FB076802958D0A05FB07854FEA932C6E
:1002D00004FB0C542705029D4FEA065847EA1637DF
:1002E000B5EB08056EEB070C870E920E47EA8117F7
:1002F00042EA8312A7FB0201B6EB0B0164EB000498
:100300002B0D43EA0C335E1844EB1C50DA46514681
:10031000E7FB0201C5F313044FEA0B3343EA14531E
:100320004FEA0432019C43EA0603A4F10C04029450
:10033000009CCDE900B400F0BAF9A2E72DE9F04D38
:1003400081EA030404F0004B21F0004514464FF00D
:10035000000A23F0004150EA050220D054EA0102CD
:100360001DD0C5F30A570246C5F31303C1F31300AA
:10037000C1F30A5640F4801543F48013A7EB060836
:10038000101BD64608F2FD3873EB050002D308F1C6
:10039000010801E092185B41B8F1000F03DA002078
:1003A0000146BDE8F08D00204FF4801106468446DA
:1003B0000EE0171B73EB050705D3121B63EB050358
:1003C00006434CEA010C49084FEA300092185B41A1
:1003D00050EA0107EDD152EA030012D082EA04008C
:1003E00083EA0501084303D100224FF0004308E0EF
:1003F000101BAB4102D20122002302E06FF0010288
:1004000053101AEB06004CEB085110EB0A0041EBBD
:100410000B01BDE8F04D00F03DB9962300221146D6
:1004200000F00BB90EB540F2334102910021CDE945
:1004300000110A460B4600F03AF903B000BDC1F3C3
:100440000A5210B5C1F3130140F2FF3341F4801199
:100450009A4201DA002010BD40F233439A42A2F2E0
:10046000334203DC524200F08EF810BD904010BDC4
:1004700000F0004230F000400AD0C10D01F560717B
:10048000C0F3160042EA0151C20840071143704709
:1004900000200146704701F0004330B421F00041D4
:1004A00050EA010206D00A0DA2F56072C1F31301F1
:1004B000002A02DC30BC00207047440F44EAC1042B
:1004C000C100E01830BC00EBC25000F0ADB8000035
:1004D000002801DBC0F10040002901DBC1F100412F
:1004E00081427047002801DBC0F10040002901DB98
:1004F000C1F100418842704730B50B4601460020EB
:100500002022012409E021FA02F59D4205D303FAD5
:1005100002F5491B04FA02F52844151EA2F1010256
:10052000F1DC30BD2DE9F05F0546002092469B4688
:1005300088460646814640241BE0284641464746F9
:10054000224600F020F853465A46C01A914110D373
:1005500011461846224600F0E1F92D1A67EB010812
:100560004F4622460120002100F0D8F917EB000980
:100570004E41201EA4F10104DFDC484631462A46E4
:100580004346BDE8F09F202A04DB203A21FA02F01E
:100590000021704721FA02F3D040C2F120029140BD
:1005A000084319467047000030B503683C22B3FB8E
:1005B000F2F002FB10330B60B0FBF2F302FB13000E
:1005C00018244860B3FBF4F004FB10328A60021D6B
:1005D0000723B2FBF3F403FB14228A61820002F6C4
:1005E0006C3240F2B555B2FBF5F404F14400034619
:1005F000486105FB14208008C8613B2802D39A0794
:1006000000D0401C0022074C13460A61E25C824283
:1006100003D8801A5B1C0B61F8E7401CC8600846D1
:1006200030BD00005A4400080029A8BF7047401C94
:10063000490008BF20F00100704710B4B0FA80FCF8
:1006400000FA0CF050EA010404BF10BC704749B135
:10065000CCF1200421FA04F411FA0CF118BF0121A5
:1006600021430843A3EB0C01CB1D0106000A002B1C
:10067000BEBF002010BC704700EBC35010440029DF
:10068000A4BF10BC7047401C490008BF20F0010007
:1006900010BC704710B5002B08DA401C41F1000176
:1006A00092185B411A4301D120F0010010BD2DE9E1
:1006B000F04D92469B4611B1B1FA81F202E0B0FAD8
:1006C00080F22032904600F029F904460F4640EAB5
:1006D0000A0041EA0B0153465A46084303D120461B
:1006E0003946BDE8F08D114653EA010015D0C8F136
:1006F00040025046FFF747FF05460E465046594612
:10070000424600F00BF9084301D0012000E0002030
:10071000054346EAE0762C4337430A984FEA4453B0
:10072000A0EB08004FEAD4240A304FF0000244EA5C
:1007300047544FEAD72502D500200146D1E70105ED
:1007400010196941DDE9084500196941BDE8F04D1E
:10075000A0E72DE9FE4F804681EA0300C00F0C465A
:10076000009021F0004123F00045B8EB0200A941C0
:1007700005D24046214690461C460B46024623F0D1
:100780000040104304D14046214603B0BDE8F08F3D
:10079000270DC7F30A00C3F30A510290401A0190D3
:1007A000402866DAC3F3130040F4801B0098924699
:1007B00020B10023D2EB030A63EB0B0B01985946DF
:1007C000C0F14002504600F0A9F806460D465046DA
:1007D0005946019A00F0B1F810EB0800614100247D
:1007E00087EA115284EAE7731A433BD0009A3AB37E
:1007F000019A012A4FEA075210DC001B61EB02014B
:100800004FF0004202EA0752CDE90042001C41F5D8
:10081000801132462B46FFF74AFFB6E7001B61EB1B
:100820000201001C41F5801300185B412018A2F55D
:10083000001747EB030140EAD570B6196D4111E08E
:100840006D084FEA360645EAC0754FEA0752001BAD
:1008500061EB0201001C41F5801149084FEA3000AC
:100860000019514132462B4603B0BDE8F04FFFF767
:1008700011BF0098012240000023D0EB020263EB7D
:10088000E073009821464FEAE074B8EB000061EB9A
:100890000401E9E783F000435BE781F0004158E79A
:1008A000C1F30A52C1F3130140F2FF3341F4801146
:1008B0009A4202DA00200146704740F233439A42DE
:1008C000A2F2334202DC5242FFF75DBE00F026B8CE
:1008D00030B5002904DB4FF00044404264EB0101D5
:1008E000002B04DB4FF00044524264EB03039942B7
:1008F00008BF904230BD0000064C074D06E0E0689E
:1009000040F0010394E8070098471034AC42F6D356
:10091000FFF712FC6844000888440008202A04DB22
:10092000203A00FA02F1002070479140C2F1200302
:1009300020FA03F3194390407047202A06DBCB17B7
:10094000203A41FA02F043EAE07306E041FA02F38A
:10095000D040C2F1200291400843194670477047C9
:1009600070470029816802D041F0010101E021F0C7
:1009700001018160704700000D4910B5401811D089
:100980004FF48064A04210D0B0F5C05F0FD10121B8
:10099000CC03204600F076FD2046BDE81040002143
:1009A00000F070BD01214C02F3E70121F1E710BD19
:1009B00000DCFEBF014600208968490700D5012000
:1009C0007047014600208968090700D5012070475B
:1009D00010B542680E4B0C791A400B6842EA0422AB
:1009E0001343436082680B4B1A40D1E9024323430F
:1009F0004C7942EA440213438360C26A097C22F4C0
:100A00007002491EC9B242EA0151C16210BD000024
:100A1000FFFEF0FFFDF7F1FF816841F00801816002
:100A200070470029816802D041F4800101E021F47F
:100A3000800181607047816841F0040181607047E6
:100A4000FEE70000F0B54FF480773E020823102245
:100A5000224C402834D013DC2149072801F1040539
:100A600028D007DC042827D0052821D0062800D16B
:100A70000F60F0BD082821D02028FAD12360F0BDF6
:100A800016490831B0F5806F20D008DCB84219D083
:100A9000B0F5007FF3D1086820F0020019E010499A
:100AA000091FB04217D0B0F5003FE8D10A60F0BD91
:100AB00001200EE00E60F0BD2B60F0BD2A60F0BD9D
:100AC0002260F0BD086820F0010002E0086820F014
:100AD00004000860F0BD0B60F0BD00001064004031
:100AE000086400402DE9F04100F058F8294800F072
:100AF00043F9284800250126057045708570C570AA
:100B0000067145718571C5710B2101720421417215
:100B10000227478100F0C6F81F4C44F240102570B0
:100B20006670A570A08044F26010E0804FF4B05071
:100B300020816581A581A673204600F045F82670C6
:100B40006670A5704FF48440A08044F22020E080BD
:100B500044F2602020814FF485406081A581A67316
:100B6000204600F031F827706670A57044F2A0208E
:100B7000A08044F2C020E08025816581A581A67314
:100B8000204600F021F8BDE8F0410121022000F0EC
:100B90007DB80000640100207001002010B5012123
:100BA0004C06204600F056FC2046BDE810400021CF
:100BB00000F050BC202110B102480160704701488C
:100BC000001FFAE710640040F0B50278012191405F
:100BD0002D4A89B2136843F0010313602A4C1C3478
:100BE00023688B432360284B274D87780C3340358F
:100BF0002E1DA7B91F688F431F60C788B0F80AC0B1
:100C000047EA0C4790F800C045F83C708788B0F878
:100C100008C047EA0C4790F800C046F83C70877857
:100C2000012F0ED11F680F431F60436807784FEAFA
:100C3000334345F83730836805784FEA334346F845
:100C40003530114B45781B1D002D1D6806D00D4316
:100C50001D600D4B8589143315B104E08D43F7E712
:100C60001D688D431D608589012D02D11D680D43CE
:100C70001D60807B012802D1206808432060106835
:100C800020F001001060F0BD00660040044A002919
:100C9000116801D0014300E08143116070470000FA
:100CA00014640040324910B5002201230B600B1D73
:100CB0001C68E40748D00278012A0A6846D022F06E
:100CC00080020A604278012A0A6842D022F040027B
:100CD0000A608278012A0A683ED022F020020A6067
:100CE000C278012A0A683AD022F010020A6002791A
:100CF000012A0A6836D022F008020A604279012AE5
:100D00000A6832D022F004020A608279C47992071C
:100D100042EA0462047A42EA0442447A408942EA9E
:100D20000452401E024312481C300260086801222F
:100D300020F0010008609002401E0004000CFBD16E
:100D40001868C00700D00022104610BD42F0800293
:100D5000B7E742F04002BBE742F02002BFE742F0B3
:100D60001002C3E742F00802C7E742F00402CBE7F3
:100D7000006400407047704700210170417081702D
:100D8000C170017141718171C17103210172022130
:100D9000417201214181704730B52A4A0021136810
:100DA0005B0108D41168090101D5012103E0116834
:100DB000C9003BD50221244A02EB0112136803F05B
:100DC00001031360037A83B34468E5004560146847
:100DD0002C43457A2B431C431460837A03F00F03A2
:100DE0008372194B1B1D03EB01131C6824F00F04C5
:100DF0001C601C68857A2C431C60C37AC46843EA73
:100E00000423114C083404EB01142360C37B0069F4
:100E100043EA00200C4B0C3303EB011318601068FD
:100E200040F001001060084630BD01E00421FAE7FF
:100E300003885C05046013682343447A23431360EA
:100E4000CBE70000086400408065004070B50446B0
:100E5000002003464FF6FF750BE0E25C5040002295
:100E6000C60700D06840521C4008D2B2082AF7D307
:100E70005B1C8B42F1D370BD0E4800B581788BB0FE
:100E8000643105914178491E049100780390094826
:100E9000C01C017802914178019180780090002077
:100EA00008906846FFF752F902490C3948630BB0C5
:100EB000012000BD9C0000207047704770477047BC
:100EC000704770477047704770477047704770476A
:100ED0000249486048680028FCD1704700000020A3
:100EE00010B5012000F05EF8BDE81040012000F0D0
:100EF0003DB8000010B54FF48054204600F052F881
:100F0000002813D00A48007801280AD00948007840
:100F100038B92146084800F0A5F910B90749012061
:100F200008702046BDE8104000F020B810BD000059
:100F30000000002034000020000C0140350000209B
:100F4000704770477047102000F010B810B520208F
:100F500000F00CF8402000F009F8802000F006F8BE
:100F6000BDE810404FF48070AFF300800149086085
:100F7000704700001404014010B50C21012000F05E
:100F8000E9F807484FF480510160002101711021F8
:100F9000417101218171BDE8104000F013B80000DB
:100FA00028000020064A014600201268044B0A402F
:100FB00014331B680B4202D0002A00D00120704776
:100FC0000004014030B583791949026853B30B68B6
:100FD00093430B600A1D13680468A34313600279EE
:100FE0000A441368046823431360114B08331A68DA
:100FF0000468A2431A601A1D14680568AC431460A3
:101000004479102C05D021440A68006802430A6024
:1010100030BD1968046821431960116800680143F4
:10102000116030BD0079084401689143016030BD12
:10103000000401407047000004490A6822F01002D1
:101040000A600A6802430A607047000000200240FC
:1010500004490A6802F038020A600A6802430A601A
:1010600070470000002002407047002100E0491C4A
:101070008142FCD3704700002DE9F05F0121314827
:1010800000F0CCF8304C4FF4017003252080DFF8DD
:10109000BCB0A5701826E6702146584600F06EF8E0
:1010A0004FF481602080A5700427E77021465846E0
:1010B00000F064F838022080DFF894A0A570E67094
:1010C0002146504600F05AF84FF40068A4F800801A
:1010D000A570E7702146504600F050F84FF4805953
:1010E000A4F80090A570E6702146584600F046F836
:1010F000A4F80080A570E7702146584600F03EF83D
:1011000001202080A5701026E6702146504600F090
:1011100035F825800020E0702146584600F02EF872
:10112000A4F800904820E0702146504600F026F8D0
:101130002680A570E67021465846BDE8F05F00F0B5
:101140001DB800000004300022000020000801400B
:10115000000C014010B58A0721F003040649130F63
:1011600021440F228C689A4094438C608A6898408E
:1011700002438A6010BD000000000140F0B5CA784B
:10118000002502F00F03D20601D58A7813430C78AC
:101190004FF00F0E0122ECB1D0F800400F8802FA98
:1011A00005F63740B74211D14FEA850C0EFA0CF71D
:1011B00024EA070703FA0CF43C43CF78282F02D027
:1011C000482F02D002E0466100E006616D1C082D48
:1011D000E4D304600C88FF2C1ED944685FF000063D
:1011E00006F1080702FA07F50F882F40AF420FD12A
:1011F0004FEA860C0EFA0CF7BC4303FA0CF73C439B
:10120000CF78282F00D14561CF78482F00D10561D4
:10121000761C082EE4D34460F0BD0000F0B5104DFC
:101220006A68440D260184B2C0F30157B440C0F38C
:101230000343032F05D0C0020AD503209840824300
:1012400007E0686822F0706320F07060686002E078
:10125000A24342F0706301B123436B60F0BD000014
:10126000000001400246002092680A4200D001209E
:1012700070470AB10161704741617047FEE77047EE
:1012800070477047704710B5002000F0DDFA42F259
:10129000283000F0F7FA012000F0E8FABDE810402D
:1012A000012000F0D1BAFEE77047F8B500214FF0F9
:1012B000006000F0ADF825208DF8000002258DF8C3
:1012C000015000268DF8026001248DF80340684625
:1012D00000F056F826208DF800008DF801508DF8AA
:1012E00002408DF80340684600F04AF827208DF848
:1012F00000008DF801608DF802408DF803406846CB
:1013000000F03EF814208DF800008DF801608DF893
:1013100002608DF80340684600F032F81D208DF819
:1013200000008DF801508DF802508DF8034068469A
:1013300000F026F81E208DF800008DF801508DF881
:1013400002508DF80340684600F01AF828208DF806
:1013500000008DF801608DF802608DF8034068464A
:1013600000F00EF84FF4C06000F048F8F8BD00003F
:1013700002490148086070470400FA050CED00E0DE
:10138000F0B50F22C478017801234FF0E0253CB37B
:10139000184C2468467804F4E064C4F5E064240A38
:1013A000C4F10407E2408478BE4014403443220173
:1013B0008C07E70E21F003040F49BA406618316824
:1013C000FF24BC40A143224011433160007800F06B
:1013D0001F018B40400905EB8000C0F80031F0BDD3
:1013E00001F01F008340480905EB8000C0F8803100
:1013F000F0BD00000CED00E000E400E0024908430D
:1014000002490860704700000000FA050CED00E09A
:10141000024A1140014302480160704780FFFF1FEC
:1014200008ED00E070477047034A516821F44041DD
:10143000014351607047000000100240044A002937
:10144000D16901D0014300E08143D16170470000C0
:1014500000100240044A0029116901D0014300E054
:10146000814311617047000000100240044A0029C6
:10147000916901D0014300E0814391617047000010
:1014800000100240044A0029D16801D0014300E065
:101490008143D160704700000010024010B500F099
:1014A00053F84FF48034204600F0DEF800F026F9BF
:1014B000234901280870234919D000200870012110
:1014C0004FF00610FFF7BAFF01218803FFF7CEFFA8
:1014D000012140F67D00FFF7C9FF01214802FFF717
:1014E000C5FF0121BDE810404806FFF7A7BF012056
:1014F00008701020FFF7A0FD0220FFF7A9FD0020D3
:1015000000F0A8F8002000F0D5F84FF4A06000F03B
:10151000C7F84FF4E011204600F0DCF8012000F09D
:10152000D3F8392000F076F80028FAD0022000F035
:10153000DBF800BF00F086F80828FBD1BFE7000009
:1015400030000020200000200B48016841F001011C
:1015500001604168094A114041600168084A114030
:101560000160016821F480210160416821F4FE01DD
:101570004160002181607047001002400000FFF8C8
:10158000FFFFF6FE30B51F494A6812F00C031E4AF1
:1015900003D0042B01D0082B22D002604A680F230D
:1015A0001A4C03EA1212A35C0268DA4042604B68EC
:1015B000072505EA1323E35C22FA03F383604B68F3
:1015C00005EAD323E35C22FA03F2C26049680323ED
:1015D00003EA9131231F595CB2FBF1F1016130BD87
:1015E0004A68022302F4701203EB92424B6813F430
:1015F000803F02D04B689B0301D5054B00E0024BB6
:101600005A43CAE70010024000127A003E44000824
:1016100000093D000246002053090949012B0BD067
:10162000022B0BD0D1F8241002F01F0201239340AB
:101630000B4200D0012070470968F5E7096AF3E71B
:10164000001002400248406800F00C0070470000A3
:1016500000100240034A516821F0F001014351603B
:1016600070470000001002400B490A6822F48032E3
:101670000A600A6822F480220A60B0F5803F07D031
:10168000B0F5802F03D1086840F4A02008607047AF
:10169000086840F48030F9E700100240704700000D
:1016A000034A516821F4E061014351607047000032
:1016B0000010024003494A6822F4605242EAC00026
:1016C00048607047001002400149086670470000FA
:1016D00000004242034A5368084323F47C13184332
:1016E0005060704700100240034A516821F0030126
:1016F00001435160704700000010024030B50B4CB0
:1017000040F2FF153120FFF785FF20706068401C14
:101710006060207810B96068A842F3D13120FFF7EB
:1017200079FF002800D0012030BD0000D00000204B
:1017300070477047704770477047704770470000A8
:101740003148016811B10168491E01602F480168E4
:1017500011B10168491E01602D48016811B101688D
:10176000491E01602B48016811B10168491E0160E2
:101770002948016811B10168491E016027480168C4
:1017800011B10168491E01602548016811B1016865
:10179000491E0160006810B92249002008702248E3
:1017A000016811B10168491E01602048016811B14A
:1017B0000168491E01601E48016811B10168491E97
:1017C00001601C48016829B91B490A6812B10A68FE
:1017D000521E0A6019490A6812B10A68521E0A604C
:1017E00017490A6812B10A68521E0A6015490A6848
:1017F00012B10A68521E0A600168002902D001680D
:10180000491E016070470000040000201000002005
:101810004000002044000020080000204800002074
:101820000C0000200000002014000020B000002068
:10183000B4000020AC000020B8000020C000002050
:1018400084000020BC0000204FF0E021012804D0DB
:10185000801C06D0002088617047086940F00100B4
:1018600002E0086920F00100086170474FF0E021B4
:101870000028086902D040F0020001E020F00200D8
:10188000086170474FF0E02148617047704770472A
:1018900070477047704770470121014800F00FB84A
:1018A000000400400121014800F009B80008004090
:1018B0007047704770477047704770477047C9431B
:1018C000018270477047704770B50F4D40F2255444
:1018D0002146284600F0F5F880B1284600F06EF960
:1018E0000B4A0A491368C8541068401C10601068FD
:1018F000A0F5A061DC3901D1002010602146284606
:10190000BDE8704000F072B8003801408D29002019
:10191000D800002070B5114D40F2255421462846CC
:1019200000F0CFF8A0B10E480078012810D1284669
:1019300000F044F90C4A0B491368C8541068401C65
:101940001060106840F2DC51884201D30020106022
:1019500021462846BDE8704000F048B800440040E9
:1019600062000020692F0020DC00002070B5194EB5
:1019700040F225552946304600F0A3F8A0B116489C
:10198000002400780128304614D000F017F9144ADA
:1019900012491368C8541068401C1060106840F267
:1019A000DC51884200D3146029463046BDE87040BF
:1019B00000F01CB800F002F902460B48094B016820
:1019C0005A54491C41F2883201609142ECD30460C0
:1019D000EAE7000000480040910000204535002063
:1019E000E400002005160020A40000200A0A0121BE
:1019F0009140C943018070470029818902D041F498
:101A0000005101E021F40051818170472DE9F0413E
:101A1000244C4FF4964000252060A580E580258168
:101A2000214FA5810C2666812146384600F080F8BA
:101A300040F2255801224146384600F061F8012164
:101A40003846FFF7D9FF4FF416502060A580E58097
:101A50002581164FA58166812146384600F068F839
:101A600001224146384600F04BF801213846FFF785
:101A7000C3FF4FF4E1302060A580E5802581A5817A
:101A8000668121460A4C204600F052F80122414668
:101A9000204600F035F82046BDE8F0410121FFF76F
:101AA000ABBF00008001002000380140004400402E
:101AB000004800400246002012880A4200D001205F
:101AC000704730B501F01F0201240025C1F3421315
:101AD00004FA02F2012B0FD0022B0FD0838A4FEAB7
:101AE00011210088134204FA01F400EA040001D035
:101AF00000B10125284630BD8389F0E7038AEEE76F
:101B000010B5C1F3421301F01F040121A140012BC4
:101B100007D0022B07D01430002A026805D00A43F0
:101B200004E00C30F8E71030F6E78A43026010BD9D
:101B300030B50446008A85B00D464CF6FF7108406A
:101B4000E98801432182A1894EF6F3100140A8885B
:101B50002A8910436A890A431043A081A08A4FF65C
:101B6000FF410840A9890143A1826846FFF70AFDA9
:101B70001148844201D1039800E00298642200EBEE
:101B8000C00101EB001029686FF018058900B0FB57
:101B9000F1F0B0FBF2F109010B096B4300EB83009C
:101BA000322303EB0010B0FBF2F000F00F0008430B
:101BB000208105B030BD0000003801408088C0F3AE
:101BC00008007047C1F30801818070477047704773
:101BD0002DE9F0478AB00020059006900790089004
:101BE00005A9099002F01AFB54489DF8204040F2E4
:101BF000112C04709DF8212042709DF822108170F4
:101C00009DF82350C5709DF8246006719DF82570DD
:101C100047719DF8263083719DF82730C371059870
:101C2000A0F21123604551D00ADCB02817D0D81D8E
:101C30007CD04FF6FF7301280BD0062876D113E035
:101C4000022B64D0032B64D0042B6DD0052B6DD1F7
:101C500072E03B4903EA042002430A8066E0F12C6B
:101C600064D1FFF785FB61E036489946047002F0C5
:101C7000030003EA00200843FEF7CFFBDFF8C8A00B
:101C80005146FEF7B3FA31498046086005F003007B
:101C900009EA00203043FEF7C0FB5146FEF7A6FAE2
:101CA0002B4908602B490F70FEF7E2FB05460E46F4
:101CB0004046FEF7DDFB8DE8E30022462649274833
:101CC00000F06CF8254801F0ABFE2FE02448254BCE
:101CD000254E0470100440EA012005431D6046F8BB
:101CE00024500E2C22D1214901204FEA0004087013
:101CF00056F8243022461EA1184800F04FF8174825
:101D000001F08EFE641CE4B20E2CF1D90EE01D48E9
:101D10000BE01D480470427081701C4805704670CD
:101D20008770FFF7A9F801E0194804700220FEF758
:101D300089FE0AB0BDE8F0871648F6E718000020D3
:101D40003C00002088000020CDCCCC3C7C00002052
:101D5000800000206B000020E8430008EC00002019
:101D6000890000208C000020A40100206C000020CD
:101D70000D0A2053656E736F722025643A20307807
:101D800025780000920000209C0000209F00002089
:101D90009400002096000020FEE770470FB4084B27
:101DA00010B504A902AA039800F0CAF8044602A9D3
:101DB000002000F068FC204610BC5DF814FB000019
:101DC0008726000802E008C8121F08C1002AFAD1BD
:101DD00070477047002001E001C1121F002AFBD1AB
:101DE000704700002DE9FF5FDDE90220010DDDF8FD
:101DF00038B0024310D10F9801244CA2012808D01A
:101E0000002100980F9BC0E90021C0E90243BDE812
:101E1000FF9F6FEA0B01F4E7A1F2FF3144F6105087
:101E200041430D140F9801280ED0A5EB0B00401C68
:101E30004FF000043E4EDFF8FC90B0F1000AA046DF
:101E400005DACAF1000717E0CBF10000F0E707461A
:101E500012E0F80707D02246334640464946FEF7CF
:101E6000FBF9804689462246334610461946FEF75E
:101E7000F3F904460E467F10002FEAD1DDE9020196
:101E8000BAF1000F42464B4602DAFEF7E5F901E0EF
:101E9000FEF754FA04460E460022274BFEF718FDC3
:101EA00003D84FF0FF30014607E00022234B2046C5
:101EB0003146FEF74EFCFEF7F3FC102409E0002C3F
:101EC0000ADB0A220023FEF72DFB019B30321A5554
:101ED000641E50EA0102F2D1641C019AC4F111039C
:101EE00014440F9A012A09D00122084301D15B450D
:101EF0000FDD4FF0000205F101050DE0084303D1AD
:101F0000A3EB0B056D1E09E000204FF0110B0F90A5
:101F100088E701DA00226D1E002A83D000980F990D
:101F2000C0E90231C0E9004571E70000300000005F
:101F3000000024400000F03F0000F0430000E03FBC
:101F40002DE9FF4F95B09B4689460646002512E2D3
:101F5000252878D10024761CF94A274601210594CA
:101F60003378203B01FA03F0104202D00443761C80
:101F7000F6E730782A2811D06FF02F033078A0F1DF
:101F80003002092A16D8059A44F0020402EB8202B4
:101F900003EB42021044761C0590EFE759F8042B3E
:101FA0000592002A03DA504244F40054059044F0AC
:101FB0000204761C30782E2816D116F8010F44F052
:101FC00004042A280DD06FF02F023078A0F13003DE
:101FD000092B09D807EB870302EB4303C718761CCC
:101FE000F3E759F8047B761C30786C280FD006DCB8
:101FF0004C2817D068280DD06A2814D104E0742822
:1020000010D07A280FD10DE044F400140AE044F413
:10201000801401E044F440147278824202D1761CAC
:1020200004F58014761C307866280BD013DC582811
:1020300077D009DC002875D04528F6D04628F4D0A2
:1020400047281AD19FE118E0632835D0642879D059
:10205000652812D197E1702873D008DC6728F1D089
:1020600069286FD06E280DD06F2806D1B5E073288F
:102070002CD0752875D0782874D05A461799904777
:102080006D1C76E1C4F30250022809D003280DD05C
:10209000D9F8001004280DD00D6009F1040968E199
:1020A000D9F80010EA17C1E90052F6E7D9F8001094
:1020B0000D80F2E70D70F0E719F8041B8DF80010A1
:1020C00000208DF80100EA46012003E059F804AB36
:1020D0004FF0FF3061074FF0000102D40DE008F12E
:1020E00001018846B9420FDA8045F8DB1AF808107A
:1020F0000029F4D108E008F1010188468142FADBA9
:102100001AF808100029F6D105985B46A0EB0807DD
:1021100021463846179A00F09EFA284400EB08053D
:1021200007E04DE02BE10DE01AF8010B5A46179934
:102130009047B8F10108F7D25B4621463846179A16
:1021400014E142E00A220092C4F302524FF0000A66
:10215000022A08D059F804CB032A4FEAEC710AD0BE
:102160000DE029E02AE009F1070121F00702F2E879
:1021700002C1914609E00FFA8CFC4FEAEC71042A87
:1021800003D14FFA8CFC4FEAEC71002907DA0A46BA
:102190000021DCF1000C61EB02012D2202E022059E
:1021A00004D52B228DF80420012203E0E20701D0A0
:1021B0002022F7E7904653E00A2102E010220DE0CA
:1021C00010214FF0000A00910BE010224FF0000A9E
:1021D00044F004040827009203E008224FF0000AAC
:1021E0000092C4F30252022A05D059F804CB002110
:1021F000032A08D009E009F1070121F00702F2E8FB
:1022000002C1914605E01FFA8CFC042A01D10CF0B2
:10221000FF0C4FF00008220722D5702827D0009B22
:1022200083F0100353EA0A0309D15CEA010206D0E5
:1022300030228DF804208DF8050002229046009B84
:1022400083F0080353EA0A030AD15CEA010201D1D0
:10225000620705D530228DF804204FF001087F1E5B
:10226000582809D037A003900EA8029013E040220E
:102270008DF804200122E1E737A0F4E753466046D9
:10228000009AFEF74FF984460398825C0298A0F109
:102290000100029002705CEA0100EFD1029806A9E9
:1022A000A1EB000000F1200A600702D524F480347D
:1022B00000E00127574502DDA7EB0A0000E00020FF
:1022C00000EB0A01009005984144A0EB0100059045
:1022D000E00306D45B462146179A059800F0BBF947
:1022E0000544002706E001A85A46C05D17999047AB
:1022F0006D1C7F1C4745F6DBE0030CD55B46214691
:10230000179A059800F0A7F9054404E030205A46D2
:10231000179990476D1C0099481E00900029F5DC24
:1023200008E0029802995A460078491C02911799D0
:1023300090476D1CBAF10001AAF1010AF1DC6BE1D2
:10234000092801003031323334353637383961628B
:10235000636465660000000030313233343536374F
:1023600038394142434445460000000000F060F91E
:10237000054406F10106307800287FF4E9AD19B074
:102380002846BDE8F08F620700D4062709F107024E
:1023900022F0070CFCE80223E14603F000485FEA64
:1023A000080C02D00FF27C2C0DE05FEA045C02D531
:1023B0000FF2742C07E05FEAC47C02D00FF26C2CA1
:1023C00001E0AFF2700C4FF0FF3823F00043CDF87E
:1023D00050C065280CD006DC452809D046281DD001
:1023E00047283ED13EE0662818D0672839D139E029
:1023F0000021112F01DB112000E0781CCDE9000144
:1024000006A90EA8FFF7EEFCDDE90F010E9A039175
:102410000021009207F1010A04914EE04FF00040C4
:102420000097CDE9011006A90EA8FFF7DBFCDDE956
:102430000F0203920E9B11990022DDF80CA000936D
:10244000049219B907F1010100EB010AB7EB0A0088
:1024500004D4C0F1FF3007F1010A0490AAEB070091
:10246000019046E0012F00DA01270021112F01DD44
:10247000112000E03846CDE9000106A90EA8FFF7BB
:10248000B1FCDDE90F010E9A039100210491009245
:10249000BA4621070CD40399514500DA8A46BAF1AD
:1024A000010F05DD009AAAF10101515C302908D025
:1024B000B84202DA10F1040F06DA0121CDE9011069
:1024C00017E0AAF10101E9E7002805DC04990144BD
:1024D0000491AAEB000102E0411C514500DD8A464F
:1024E0000499A0EB010000F1010001904FF00040C1
:1024F0000290200704D40198504501DBCDF80480F8
:1025000000208DF84F0002980DF14F07B0F1004FF9
:1025100025D02B200E9002984FF0020800280CDAEC
:10252000404202902D200E9007E00A210298FDF70C
:10253000E3FF3031029007F8011DB8F10001A8F166
:102540000108F2DC02980028EFD1791E0E9808707D
:10255000307800F0200040F0450007F8020D12A886
:10256000A0EB070000F107081498007800B10120E3
:1025700000EB0A01019801EBE07105984144A0EBE2
:102580000100A0F101000590E00306D45B4621465E
:10259000179A059800F05FF805441498007820B168
:1025A0005A461799904705F10105E00323D55B468C
:1025B0002146179A059800F04EF805441BE0049850
:1025C000002807DBDDE90301884203DD0098405C59
:1025D000179901E0179930205A46904704986D1CCE
:1025E000401C04900198401E019004D12E205A46B0
:1025F000179990476D1CBAF10001AAF1010ADEDCBF
:1026000005E017F8010B5A46179990476D1CB8F171
:102610000001A8F10108F4DC5B462146179A0598F1
:10262000A4E600002D0000002B00000020000000A8
:102630002DE9F041044600251E461746880405D4BE
:1026400006E039462020B04705F10105641EF8D5A3
:102650002846BDE8F0812DE9F041044600251E46DC
:102660009046C80301D5302700E02027880405D50F
:1026700006E041463846B04705F10105641EF8D52D
:102680002846BDE8F0810A68531C0B601070704743
:1026900010B50A4CA06878B9A178094809B101229F
:1026A00000E000220121FEF7E4FDA07880F00100A7
:1026B000A0704FF4FA70A060012010BD000000204F
:1026C000000C01400121814003488088814301D0F2
:1026D0000020704701207047900100202DE9F04153
:1026E000ADF59E5D16460D4607466C4600F0A8F80F
:1026F000012804D000200DF59E5DBDE8F081324632
:102700002146384600F014F8032801D00220F2E7F1
:10271000002009E029782278914201D00420EAE7DC
:102720006D1C641C401C80B2B042F3D30520E2E76C
:102730002DE9F84F00230093A9B10E4681098901C4
:1027400040318309091A9B0104464033181BC0B26B
:1027500001F0FF08101A424509D94FF0020101EBC0
:102760009011C9B205E04FF00600BDE8F88F4FF0B8
:102770000101894602D900F03F0001E04FF001005D
:102780008246B9F1010F04D1BAF1010F01D102F073
:10279000FF08B9F1000F09D84FE039B1A9F10100E4
:1027A000814205D15FEA0A0503D146E0454600E0D3
:1027B00040254FEA142BE7B201F0D4F9A02001F034
:1027C000A7F901F023FA012816D1584601F0A0F923
:1027D00001F01CFA01280FD1384601F099F901F0F7
:1027E00015FA012808D101F0BDF9A12001F090F9F6
:1027F00001F00CFA012801D00220B6E70027A5F16C
:10280000010B09E000F082FF30705F4501DA01F052
:1028100011F8761C7F1CFFB2AF42F3D300F0B2FA7E
:1028200001F0C4F9601984B20520FEF751FB00984D
:10283000401C014600904845AFD3032095E70000B7
:102840002DE9FC5F0446002016460090F9B10D46C4
:10285000A0200190B11E2846FEF7F8FAA91901F848
:10286000020D000A4870A00980014030001B00F0F2
:10287000FF08A00980014030001BC0B2301A464555
:102880000BD94FF0020101EB9011C9B207E030A063
:1028900001F0C6F80620BDE8FC9F4FF00101894613
:1028A00005D900F03F0ABAF1010F02D006E04FF05F
:1028B000010AB9F1010F01D106F0FF08B9F1000FCB
:1028C00009D842E039B1A9F10100814205D15FEA9E
:1028D0000A0603D139E0464600E040264FEA142BB1
:1028E000E7B201F03FF9019801F012F901F08EF919
:1028F000012816D1584601F00BF901F087F901289B
:102900000FD1384601F004F901F080F9012808D10F
:1029100000270BE0287801F0FBF801F077F9012897
:1029200001D00020B7E76D1C7F1CFFB2B742F1D386
:1029300001F03CF9A01984B20520FEF7C9FA00980D
:10294000401C014600904845BCD30120A3E700008D
:102950000D0A204E756C6C20506F696E74657200A4
:10296000002204E010F8013B491E1A4489B20029F4
:10297000F8D1D0B27047000010B50D4CAA20092143
:102980002070752060705620A070E070207160711A
:10299000F620A0710020E07120722046FFF7E0FFD2
:1029A00060724020A072204601F062F8012010BD44
:1029B000FA15002000200549034641F288320B54E5
:1029C000401C9042FBD301207047000005160020F8
:1029D00010B5ADF59E5D00220DF58051ADF80020DB
:1029E000C1F806208A72104641F2040369468C1829
:1029F000521C92B2A0709A42F9D3002240F27B336B
:102A00008C1804F58054521C92B2E0729A42F7D3AB
:102A1000084840F27122407950434FF4807202EB33
:102A2000C00080B241F28832FFF758FE0DF59E5D7E
:102A3000012010BD9000002070B5494C00252046B3
:102A4000E179407905297FD2DFE801F0031B2234C8
:102A500046002571A5716572FFF734FE012807D085
:102A60006079401CC0B2607103286DD365716BE062
:102A700062793CA14348FFF791F9424800F0D0FF4A
:102A800026E000F069FF40A13E48FFF787F9F4E730
:102A90002079012802D002280AD055E045A1394802
:102AA000FFF77CF9374800F0BBFF257165720FE036
:102AB00047A14EE000F0E6FE012845D14DA1314886
:102AC000FFF76CF92F4800F0ABFF47F23050E0629F
:102AD000E079401CE07137E0A079012804D0022899
:102AE00034D0032834D02FE04E492648FFF756F95A
:102AF000244800F095FF6079FFF76AFF4A48627941
:102B00000121838891408B438380026847A11D483F
:102B1000FFF744F91B4800F083FF1422424943F6B3
:102B20009830FFF7DBFD052806D049A11548FFF7CF
:102B300035F9144800F074FF6079401CC0B2607130
:102B4000032800D36571E571012070BD4BA100E041
:102B500057A10C48FFF722F90A4800F061FFF2E79D
:102B6000900000200D0A20496D61676520256420D2
:102B70007472616E736665722070656E64696E67EB
:102B800020000000EC0000200D0A205220552052A9
:102B90006561647920526571756573742073656E23
:102BA000742C2077616974696E6720666F722041AA
:102BB000434B20000D0A203C3C2D2D2041434B204F
:102BC0005265636569766564202D2D3E0000000026
:102BD0000D0A203C2D2D205220552052656164792C
:102BE000204E41434B205265636569766564202D14
:102BF0002D3E00000D0A20496D6167652054726109
:102C00006E736665727265642077616974696E6758
:102C100020666F722041434B2066726F6D204543E2
:102C200055200000A0430008900100200D0A204913
:102C30006D61676520436F756E743A2025642C20A2
:102C400053746174757320626974733A2025780037
:102C50000D0A20496D616765206269742073746193
:102C600074757320777269746520696E206565706C
:102C7000726F6D204661696C000000000D0A2049EA
:102C80006D616765205472616E7366657220636161
:102C90006E63656C6C65642064756520746F204E8E
:102CA00041434B205265636569766564000000000E
:102CB0000D0A20496D616765205472616E73666507
:102CC000722063616E63656C6C6564206475652059
:102CD000746F2074696D656F7574000070B5194C60
:102CE000002503262078052829D2DFE800F0030E0E
:102CF00016191F00206A28B9A07800F041FD4FF492
:102D0000FA6020622078401C05E000F07FFA6078CD
:102D1000012811D00220207011E000F05FF90DE0D1
:102D2000FFF72AFE41F288306062EBE7606A30B953
:102D300000F064F9012801D0267000E02570012020
:102D400070BD00009000002070B50C4D00224021A5
:102D50002846FEF78EFA0A4C2068FEF786F9012213
:102D600040212846FEF785FA2068FEF77EF900220A
:102D700040212846FEF77DFA012070BD000C01407D
:102D8000CC00002070B5114D002240212846FEF7EE
:102D900070FA012280212846FEF76BFA0C4C20685D
:102DA000FEF763F9012240212846FEF762FA206807
:102DB000FEF75BF9002240212846FEF75AFA01226D
:102DC00080212846FEF755FA012070BD000C014015
:102DD000CC0000200B4810B5AA21017041214170A0
:102DE000A12181700721C17063210171002141710E
:102DF000F6228271FF22C271017200F025FE0120CD
:102E000010BD0000EC00002010B5254886B003215D
:102E1000018081700421C17001462248FEF7AEF99D
:102E20004FF40040FEF700FB01214802FEF71EFBB5
:102E30001D4C2046FDF7A0FD00224FF4602101202B
:102E4000CDE902128DF804208DF805008DF81000F0
:102E5000009269462046FDF7BBFD69462046FDF716
:102E6000B7FD01212046FDF77CFD2046FDF7D4FD8E
:102E70002046FDF7A6FD0028FAD12046FDF7DBFD30
:102E80002046FDF797FD0028FAD101212046FDF7E5
:102E900068FD01212046FDF7C4FD06B0012010BDEC
:102EA00022000020000801400024014010B50C4918
:102EB00047F23050C861886214220A4943F69830BC
:102EC000FFF736FC032809D1064807A1838802686A
:102ED0000C48FEF763FF0B4800F0A2FD012010BD77
:102EE00090000020900100200D0A20436F756E7441
:102EF000733A2025642C205374617475733A20252D
:102F000078000000EC000020084A00200146106014
:102F1000074A1060074B40F2DC521954401C9042A3
:102F2000FBD305490120887070470000DC000020B9
:102F3000E0000020692F002060000020064810B546
:102F4000C0210180032181701421C1700146034812
:102F5000FEF714F9012010BD22000020000C0140F2
:102F6000064810B580210180032181704821C1707D
:102F700001460348FEF702F9012010BD220000209F
:102F8000000C0140064810B58021018003218170AA
:102F90001421C17001460348FEF7F0F8012010BD6E
:102FA00022000020000C0140084A00210846116060
:102FB000074A1160074A40F2DC535054491C9942B9
:102FC000FBD305494870486201207047DC000020AF
:102FD000E0000020692F002060000020064810B5A6
:102FE000816A31B9C17821B90121C170084601F067
:102FF000FDF8012010BD0000900000202DE9F05FD9
:10300000ADF59E5D4FF6FF79DFF8A481EB46DFF862
:10301000A4A141F288350026674CB8E018F80120D9
:103020004046AA2A7ED1491CA161A94200D3A661CB
:10303000A169425C752AF5D1491CA161A94200D35E
:10304000A661A169425C562AECD1491CA161A94242
:1030500000D3A661A269521CA261AA4200D3A66154
:10306000A269521CA261AA4200D3A661A269835C34
:10307000521C09EA0321A261AA4200D3A661A269F7
:10308000574818F802700F433A464CA1FEF786FEE7
:10309000534800F0C5FC3FB3A069401CA061A842A2
:1030A00000D3A661A069C446401CA061A84200D319
:1030B000A661A069401CA061A84200D3A661A069D6
:1030C000401CA061A84200D3A661A0690021401C59
:1030D000A84200D30020491C89B21029F7D3A0616F
:1030E000ADF80070002011E000200DF59E5DBDE8F8
:1030F000F09FA1690BEB00021CF80130491C937092
:10310000A161A94200D3A661401C80B2B842F0D3AD
:103110000DF58050616BC0F80610BDF800100BF182
:10312000020000E02DE0FFF71BFC0DF58051574633
:103130008872BAF8000040F2712148434FF4807160
:1031400001EBC00080B22A465946FFF7C7FA38683B
:103150000122B988824011438BB2401CBB80386089
:10316000032800D33E603A681EA11D48FEF716FEF4
:103170001B4800F055FC14220E4943F69830FFF727
:10318000ADFAA069401CA061A84200D3A661D4E9B1
:10319000050181427FF442AF0146A069814205D119
:1031A000FFF708FC6661A6616670267001209CE747
:1031B0000516002090010020900000200D0A2046F6
:1031C00061746967756520496D616765204C656E3E
:1031D00067746820286D356D36293A202564000013
:1031E000EC0000200D0A20496D61676520436F7572
:1031F0006E74204E6F3A2025642C205374617475D0
:1032000073204269743A2025303878002DE9F04760
:10321000DFF8CC80DFF8CC9040F2DC560027324C4F
:10322000324D56E00520FDF753FE2168404618F860
:103230000110AA2946D12168491C21602168B142A8
:1032400000D3276021682A68914246D02168415CFA
:10325000752937D12168491C21602168B14200D30A
:10326000276021682A68914237D02168415C512942
:1032700005D0216818F80100552816D022E02068F2
:10328000401C20602068B04200D327602068296875
:10329000884222D0012189F8011015A11A48FEF7B1
:1032A0007DFD194800F0BCFB0CE047F23051C9F835
:1032B000281099F80310012904D189F8037002201D
:1032C00000F094FF2068401C20602068B04200D3CA
:1032D0002760206829688842A4D10120BDE8F087D2
:1032E0004535002090000020E8000020E400002088
:1032F0000D0A204444205761726E696E6720526542
:103300006365697665640000EC0000202DE9F84FE4
:10331000AB4C2068AB490968884278D0AA4D686AEE
:10332000002874D1A9482168002640F2DC58415C8D
:10333000AA2941D12168491C21602168414500D357
:1033400026602168415CA129F3D12168491C2160D4
:103350002168414500D326602168415C4129E8D1BC
:103360002168491C21602168414500D326602168FD
:10337000415C29612168491C21602168414500D3D5
:10338000266021680746DFF848A2405CE8704AF6EC
:10339000C8794FF0010B112802D06328C9D10CE085
:1033A0008CA19448FEF7FAFC924800F039FBAE700D
:1033B000CAF8009085F801B0F8E08FA18D48FEF7BB
:1033C000EDFC8C4800F02CFB2068401C206020683D
:1033D000404500D326602068385C28B1CAF80090C8
:1033E00085F801B08FA09CE02068401C2060206818
:1033F000404500D326602879012878D021687A5C7E
:10340000EA7153092B7202F01F00687200E0D4E0E9
:1034100000908AA17748FEF7C1FC764800F000FBD7
:103420002068401C20602068404500D3266020684A
:10343000385C000468612168491C216021684145AD
:1034400000D326602168795C40EA01206861216828
:10345000491C21602268424500D3266021687A5CBD
:1034600082A1024363486A61FEF798FC614800F05C
:10347000D7FA2068401C20602168414500D32660AF
:1034800021684FF6FF72795C01F0030102EA012125
:103490002268521C22602268424500D326602068C0
:1034A000385C0843FCF7BEFF754A764BFCF7D4FE48
:1034B000FCF7F1FFA861FCF7DBFF02460B4672A1A7
:1034C0004C48FEF76BFC4B4800F0AAFA2068401C01
:1034D00020602168414500D326602068385C32288E
:1034E00022D32068385C3238A8721EE0FFE72E71C4
:1034F00020686CA13A5C6A71AE713E48FEF74EFCE2
:103500003C4800F08DFA2068401C2060206840454F
:1035100000D3266020686AA13A5C3648FEF73EFC7C
:10352000344800F07DFA41E0AE72AA7A68A13148D1
:10353000FEF734FC2F4800F073FA2068401C20602E
:103540002168414500D326602168795C6973216850
:10355000491C21602168414500D32660A869FCF719
:1035600087FF474A474BFCF7E9FEFCF768FF81B24B
:10357000AA7A687A00F0B0FA687B0090D5E9051263
:10358000AB7A687A00F0A8FB4FF47A706862A87989
:10359000401CC0B2A8716979884207D353A000F0DB
:1035A0003FFA85F801B0CAF80090AE712068401C5F
:1035B00020602168414500D326600120BDE8F88FD6
:1035C000E0000020DC00002060000020692F0020C7
:1035D000140000200D0A2048616E645368616B6519
:1035E00020526573706F6E736520526563656976EE
:1035F00065640000EC0000200D0A0D0A2047657488
:1036000020416C6C2053656E736F7220496E666F3B
:1036100020526573706F6E736520526563656976BD
:10362000656400000D0A20496E76616C6964204370
:103630006D64205265636569766564000D0A2054E7
:1036400020706F7369746F6E3A2025782C20547245
:103650006163746F72204E6F3A25642C2053656E3F
:10366000736F72204E6F3A20256400000D0A2053BC
:10367000656E736F722049443A202578000000007F
:103680009A9999999999993F0D0A205469726520E0
:1036900050726573737572653A20252E303266203C
:1036A000626172000D0A204E756D626572206F6650
:1036B0002053656E736F72733A202564000000001A
:1036C0000D0A20436865636B73756D3A2025780099
:1036D0000D0A20546972652054656D703A20256486
:1036E0002064656772656573000000000D0A204163
:1036F0006C6C2053656E736F72204461746120524C
:10370000656365697665640D0A0D0A002DE9F0416F
:1037100000263446FFF724FC174D2868FDF7A5FC6A
:10372000164F012240213846FDF7A3FD802138467F
:10373000FDF798FD10B144F0010401E004F0FE042F
:10374000002240213846FDF794FD2868FDF78DFCE6
:10375000072E01D26006040E761CF6B2072EE0D9C1
:10376000FFF710FC286800E0401E0028FCD128600C
:103770002046BDE8F0810000CC000020000C014094
:1037800010B50E4CAA212170752161705521A170D0
:10379000E07012202071052161711021A1711421A6
:1037A000E171207209212046FFF7DAF860724020AB
:1037B000A072204600F05CF9012010BDEF1500203A
:1037C0000A4810B5AA210170417041218170A121E0
:1037D000C1700621017111214171A3218171FF2165
:1037E000C17100F031F9012010BD0000EC00002093
:1037F00010B50E4C2068B8B90D484FF4007108227E
:103800000160002141600172827241722222C27203
:10381000017341738173C173017441748174FDF745
:10382000BBFA4FF47A702060012010BD1000002018
:103830005001002070B5114D002240212846FDF7AF
:1038400018FD002280212846FDF713FD0C4C20684E
:10385000FDF70BFC012240212846FDF70AFD2068F8
:10386000FDF703FC002240212846FDF702FD01225E
:1038700080212846FDF7FDFC012070BD000C0140B1
:10388000CC00002070B5294C294E0025607A10B17B
:10389000012843D126E0607940F2712148434FF47A
:1038A000807101EBC00080B241F288322049FEF7FE
:1038B0003FFF3088C1086181420704D0491C618103
:1038C00000F0070000E008202072A563607A8AB249
:1038D000401C607217A11F48FEF760FA1D4800F0F7
:1038E0009FF81BE06189E9B1206BB8B90F48104A15
:1038F0000129806B104400F1020011D05FF0080133
:1039000000F034FCA06B4FF032010830A0636089F6
:10391000401E0004000C6081216303D0002070BDB4
:10392000217AEDE76572012070BD00009000002053
:10393000670200200D0A2043616C63756C61746539
:1039400064204E6F206F66204672616D65733A2069
:1039500025640000EC00002010B5044640F2712000
:1039600060434FF4807101EBC000ADF59E5D80B205
:1039700041F2883202A9FEF7DBFE032806D013A12C
:103980001748FEF70BFA164800F04AF80DF580507C
:10399000BDF80830817CD0F80E00CDE90001224648
:1039A00010A10F48FEF7FAF90D4800F039F80DF5AF
:1039B0008050BDF80810837CD0F80E20204600F01F
:1039C000F7FB0DF59E5D012010BD00000D0A20499A
:1039D0006D6167652052656164204661696C000015
:1039E000EC0000200D0A20496D67204E6F3A20251B
:1039F000642C0D0A20496D672053697A653A2025A9
:103A0000642C0D0A2054696D657374616D703A20E1
:103A100025642C0D0A204352433A202578000000EB
:103A200070B50446074D09E02846FEF7CBF8402163
:103A30002846FEF73FF80028F9D0641C21780029B9
:103A4000F2D170BD0038014070B50446074D09E061
:103A50002846FEF7B7F840212846FEF72BF8002845
:103A6000F9D0641C2178FF29F2D170BD00440040D8
:103A700070B50446074D09E02846FEF7A3F840213B
:103A80002846FEF717F80028F9D0641C2178402951
:103A9000F2D170BD004800402DE9F0410D4C40F2DC
:103AA0000525069E25600025656025720827A772FA
:103AB0006572E07221736273C3F30120A073E37334
:103AC00026746574A5742046FDF766F90120BDE8EB
:103AD000F08100005001002070B50C4B40F206242C
:103AE00008251C6000245C601C729D725C72D87298
:103AF000C1F30120187359739A73DC731C745C74DE
:103B00009C741846FDF748F9012070BD5001002053
:103B10002DE9F0418026124F0546002435420CD095
:103B2000012280213846FDF7A4FBFFF70DF90022A2
:103B300080213846FDF79DFB06E0002280213846B3
:103B4000FDF797FBFFF700F9072C01D26806050E79
:103B5000641CE4B2072CE1D90120BDE8F08100002B
:103B6000000C014070B50F4D012280212846FDF761
:103B700080FB012240212846FDF77BFB0A4C206890
:103B8000FDF773FA002280212846FDF772FB2068BA
:103B9000FDF76BFA002240212846FDF76AFB012061
:103BA00070BD0000000C0140CC00002070B5154D28
:103BB000002240212846FDF75CFB00228021284698
:103BC000FDF757FB104C2068FDF74FFA012240210A
:103BD0002846FDF74EFB2068FDF747FA01228021B9
:103BE0002846FDF746FB2068FDF73FFA00228021BA
:103BF0002846FDF73EFB002240212846FDF739FB11
:103C0000012070BD000C0140CC00002070B5184EA2
:103C1000012280213046FDF72CFB00224021304656
:103C2000FDF727FB134C2068FDF71FFA0122402106
:103C30003046FDF71EFBFFF793F980213046FDF774
:103C400011FB0546FFF79EF92068FDF70EFA0022EA
:103C500040213046FDF70DFB012280213046FDF763
:103C600008FB012D01D0012070BD002070BD0000B7
:103C7000000C0140CC00002070B5144C012002253E
:103C8000617821B1012912D002291CD119E0104913
:103C90000978C1B9217B012915D1217899B9207002
:103CA00000202073FFF730F9FFF78AFD07E009498C
:103CB000096841B92071FFF727F9FFF78BF86570A4
:103CC00001E0FFF723FB012070BD00006000002031
:103CD00000000020140000202DE9FF4F0446FE489C
:103CE00083B0FD4E50F824003C360127DDF84080BB
:103CF0001D4688421AD1B146305D0026012811D1F7
:103D000009F804600598FCF7B3FBF44AF44BFCF7A0
:103D100015FBFCF794FB83B200220121204600959D
:103D2000FFF7BAFE19F8040090B115E20598FCF708
:103D30009FFBEA4AEA4BFCF701FBFCF780FB83B2EE
:103D40000122114620460095FFF7A6FE375503E2F3
:103D5000DFF884B35FEA48600BF1870BABF13C09F5
:103D600009F10F0A5ED50598FCF782FBDB4ADC4BB4
:103D7000FCF7E4FAFCF763FBCDE9005083B20122C3
:103D800002212046FFF788FE0BF8047001980022FC
:103D900083B2042120460095FFF77EFE0AF80460F6
:103DA0000198002283B2032120460095FFF774FE9C
:103DB00009F804600198002283B20521204600958D
:103DC000FFF76AFE09F11E0000220655019807213F
:103DD00083B220460095FFF75FFE09F12D00002217
:103DE00006550198082183B220460095FFF754FE3E
:103DF00009F14B00002206550198092183B22046A3
:103E00000095FFF749FE09F15A0000220655019876
:103E10000A2183B220460095FFF73EFE09F16900B2
:103E2000065515E01BF80410012911D10BF80460A8
:103E30000598FCF71DFBA94AA94BFCF77FFAFCF794
:103E4000FEFA83B20022022120460095FFF724FEED
:103E50001BF80410A348002977D18346C16905984F
:103E6000FCF740FB1DD20598FCF702FB9B4A9C4BDC
:103E7000FCF764FAFCF7E3FACDE9005083B20022C4
:103E800004212046FFF708FE0AF804600198012289
:103E900083B2032120460095FFF7FEFD09F8047068
:103EA0004EE0DBF820100598FCF712FB1DD20598B8
:103EB000FCF7DEFA894A8A4BFCF740FAFCF7BFFAB6
:103EC000CDE9005083B2002203212046FFF7E4FD34
:103ED00009F804600198012283B20421204600956C
:103EE000FFF7DAFD0AF804702AE019F80410012936
:103EF00004D01AF80410012910D021E009F8046058
:103F00000598FCF7B5FA754A754BFCF717FAFCF7FC
:103F100096FA002283B2032100950EE00AF80460AD
:103F20000598FCF7A5FA6D4A6D4BFCF707FAFCF70C
:103F300086FA002283B2042100952046FFF7ACFDEB
:103F40009BF80B0085421CD300E005E166A16F4899
:103F5000FDF724FF6D48FFF763FD0598FCF788FA2D
:103F60005E4A5F4BFCF7EAF9FCF769FA83B201227B
:103F7000052120460095FFF78FFD5748693007550A
:103F800015E055486930015D012910D106550598A5
:103F9000FCF76EFA514A524BFCF7D0F9FCF74FFA96
:103FA00083B20022052120460095FFF775FD5FEAE8
:103FB000D81013D00598FCF75BFA484A484BFCF739
:103FC000BDF9FCF73CFA83B2012207212046009597
:103FD000FFF762FD40487830075515E03E487830DD
:103FE000015D012910D106550598FCF741FA3B4ABD
:103FF0003B4BFCF7A3F9FCF722FA83B2002207211E
:1040000020460095FFF748FD08F00309B9F1010FBC
:1040100005D031489630015D012914D024E005987F
:10402000FCF726FA2D4A2E4BFCF788F9FCF707FA25
:1040300083B20122082120460095FFF72DFD264876
:104040009630075510E006550598FCF711FA234AFB
:10405000234BFCF773F9FCF7F2F983B20022082135
:1040600020460095FFF718FDB9F1020F05D01A4858
:10407000A530015D012914D024E00598FCF7F8F97A
:10408000164A174BFCF75AF9FCF7D9F983B201220B
:10409000092120460095FFF7FFFC0F48A530075582
:1040A00010E006550598FCF7E3F90C4A0C4BFCF7B9
:1040B00045F9FCF7C4F983B2002209212046009596
:1040C000FFF7EAFC6FEA0800800721D00248B4300D
:1040D000015D01292FD03FE0A40100209A99999910
:1040E0009999993F600000200D0A2048696768206F
:1040F00054656D7065726174757265204572726F7A
:10410000722064657465637465640000EC000020CF
:104110000598FCF7ADF9124A124BFCF70FF9FCF7C2
:104120008EF983B201220A2120460095FFF7B4FCE4
:104130000D48075510E006550598FCF799F9084A0F
:10414000084BFCF7FBF8FCF77AF983B200220A214E
:1041500020460095FFF7A0FC07B00120BDE8F08FD6
:104160009A9999999999993F5802002030B40F4A29
:10417000002440F21923C2E9003414720825957214
:104180005472D472147354739473D4731474547437
:10419000947405E0151910F8013B641CEB72E4B24D
:1041A0008C42F7D330BC0148FCF7F6BD500100202B
:1041B000F0B40D4C4FF406750826256000256560A7
:1041C0002572A6726572E072080A20736173100E80
:1041D000A073100CE073100A20746274A37420465C
:1041E000F0BCFCF7D9BD0000500100200A4940F2A4
:1041F00017220A6000224A600A7208238B724A72F0
:10420000C8720A734A738A73CA730A744A748A74C6
:104210000846FCF7C1BD0000500100201E4A02EB19
:104220000012136813F004030B72136830D0DB081C
:104230004B60126802F002024A72174A121D02EB2A
:104240000012136803F00F038B721268120ACA720D
:10425000114A083202EB001213680B7313681B0A31
:104260004B7313681B0C8B731268120ECA730A4AC5
:104270000C3202EB001213680B7413681B0A4B74A8
:1042800013681B0C8B741268120ECA74FCF792BC74
:104290005B0D0B60CDE70000B0650040FDF7FEF858
:1042A000FDF703F8FCF768FEFCF7EDFFFCF7E4FE12
:1042B000FDF7ACFBFCF716FCFEF7A6FDFEF73EFE95
:1042C0001F4C0120207042F21070E0601D48002554
:1042D000657005701C4802261C49067040F27E403D
:1042E0000880FEF761FEFEF7E1FD19491948FDF768
:1042F00055FD1848FFF794FBDFF85C8003276078D2
:104300000528FCD2DFE800F003080A0C1200FEF7D3
:10431000BFF9FFF76DFA05E06670F0E76770EEE74A
:10432000FFF7AAFC6078401C6070E8E7D8F800004E
:1043300018B9FEF7D3FCFEF77FFB6570DFE70000DE
:104340000000002034000020380000203C00002045
:104350005C430008EC000020AC0000200D0A205750
:10436000656C636F6D6520746F2053697874682085
:1043700073656E736F72200D0A204275696C64203C
:1043800056657273696F6E3A204143435F30305F08
:1043900030305F30315F30312E68657800000000CA
:1043A0000D0A20496D616765205472616E73666500
:1043B0007220636F6D706C6574656420636C6561F9
:1043C00072696E6720496D61676520446174612080
:1043D0006D656D6F727920262050656E64696E6719
:1043E00020626974200000000D0A204E6F206F6665
:1043F0002054797265733A2025642C0D0A2050727E
:1044000065737320557070722054683A20252E30E1
:1044100033662C0D0A205072657373204C6F7772CF
:104420002054683A20252E3033662C0D0A2054651E
:104430006D702054683A20256400020406080000CC
:1044400000000102030401020304060708091F1CFF
:104450001F1E1F1E1F1F1E1F1E1F1F1D1F1E1F1E74
:104460001F1F1E1F1E1F00008844000800000020A0
:10447000EC000000C41D000874450008EC0000209A
:10448000E44B0000D41D0008000000000000000004
:10449000000000000000000000000000000000001C
:1044A000000000000000000000000000000000000C
:1044B00000000000000000000000000000000000FC
:1044C00000000000000000000000000000000000EC
:1044D00000000000000000000000000000000000DC
:1044E00000000000000000000000000000000000CC
:1044F00000000000000000000000000000000000BC
:1045000000000000000000000000000000000000AB
:10451000000000000000000000000000000000009B
:10452000000000000000000000000000000000008B
:10453000000000000000000000000000000000007B
:10454000000000000000000000000000000000006B
:104550000000000004000000000000000000000057
:10456000000000000000000000000000000000004B
:044570000000000047
:0400000508000131BD
:00000001FF
