:020000040800F2
:10000000C01C0020450100085D0F0008310F0008EA
:100010005B0F000837070008E91B0008000000001C
:10002000000000000000000000000000B513000800
:100030004F0B000800000000CB10000875140008EA
:10004000EB1B0008C9100008E1150008AB130008FD
:100050002D0D000815130008610B00083B0C00086B
:100060003D0C00083F0C0008410C0008390B00084B
:100070003B0B00083D0B00083F0B0008410B00083C
:10008000430B0008450B00083307000897190008C8
:1000900099190008610A0008630A0008470C000863
:1000A000E3150008E9150008E7150008E515000844
:1000B000EB150008ED150008F9150008350F0008CC
:1000C000330F0008390F0008370F0008AF1300087E
:1000D000B113000895160008E11600082D17000856
:1000E000390C0008A9130008951900080B16000820
:1000F000111600080F1600080D1600083507000835
:10010000610D0008AD13000805160008B3130008C0
:100110009116000893160008071600080916000833
:10012000470B0008490B00084B0B00084D0B00085B
:10013000DFF80CD000F09AFA004800473130000890
:10014000C01C002000480047310100082DE9FE4F87
:10015000804681EA0300C00F0C46009021F0004168
:1001600023F00045B8EB0200A94105D240462146E4
:1001700090461C460B46024623F00040104304D133
:100180004046214603B0BDE8F08F270DC7F30A00B3
:10019000C3F30A510290401A0190402866DAC3F373
:1001A000130040F4801B0098924620B10023D2EB4C
:1001B000030A63EB0B0B01985946C0F1400250460D
:1001C00000F019F906460D4650465946019A00F0CE
:1001D00031F910EB08006141002487EA115284EAEA
:1001E000E7731A433BD0009A3AB3019A012A4FEAC7
:1001F000075210DC001B61EB02014FF0004202EAE3
:100200000752CDE90042001C41F5801132462B46D1
:1002100000F02FF9B6E7001B61EB0201001C41F56D
:10022000801300185B412018A2F5001747EB03016B
:1002300040EAD570B6196D4111E06D084FEA3606F7
:1002400045EAC0754FEA0752001B61EB0201001C32
:1002500041F5801149084FEA3000001951413246FA
:100260002B4603B0BDE8F04F00F0F6B8009801222D
:1002700040000023D0EB020263EBE07300982146BC
:100280004FEAE074B8EB000061EB0401E9E783F0AA
:1002900000435BE781F0004158E72DE9FE4F81EA1A
:1002A000030404F0004421F0004100944FF0000BDF
:1002B00023F0004350EA010402D052EA030404D1BF
:1002C0000020014603B0BDE8F08FC3F30A54C1F328
:1002D0000A552C44A4F2F3340194A0FB0254C1F358
:1002E000130141F48011C3F3130343F4801301FBA2
:1002F000024400FB034E840A970A44EA815447EA09
:100300008357A4FB076802958D0A05FB07854FEA12
:10031000932C04FB0C542705029D4FEA065847EA2C
:100320001637B5EB08056EEB070C870E920E47EA01
:10033000811742EA8312A7FB0201B6EB0B0164EBC3
:1003400000042B0D43EA0C335E1844EB1C50DA46D4
:100350005146E7FB0201C5F313044FEA0B3343EAAE
:1003600014534FEA0432019C43EA0603A4F10C043F
:100370000294009CCDE900B400F07BF8A2E70EB532
:1003800040F2334102910021CDE900110A460B46AB
:1003900000F06FF803B000BDC1F30A5210B5C1F30D
:1003A000130140F2FF3341F480119A4201DA002038
:1003B00010BD40F233439A42A2F2334203DC524270
:1003C00000F028F810BD904010BD30B50B46014636
:1003D00000202022012409E021FA02F59D4205D3E4
:1003E00003FA02F5491B04FA02F52844151EA2F18E
:1003F0000102F1DC30BD202A04DB203A00FA02F1D0
:10040000002070479140C2F1200320FA03F3194302
:1004100090407047202A04DB203A21FA02F00021A4
:10042000704721FA02F3D040C2F120029140084304
:1004300019467047202A06DBCB17203A41FA02F012
:1004400043EAE07306E041FA02F3D040C2F1200231
:10045000914008431946704710B5002B08DA401C3C
:1004600041F1000192185B411A4301D120F00100D3
:1004700010BD2DE9F04D92469B4611B1B1FA81F2C3
:1004800002E0B0FA80F220329046FFF7B4FF044653
:100490000F4640EA0A0041EA0B0153465A46084318
:1004A00003D120463946BDE8F08D114653EA0100DC
:1004B00015D0C8F140025046FFF7ACFF05460E4686
:1004C000504659464246FFF796FF084301D00120A7
:1004D00000E00020054346EAE0762C4337430A98C3
:1004E0004FEA4453A0EB08004FEAD4240A304FF0FF
:1004F000000244EA47544FEAD72502D500200146BE
:10050000D1E7010510196941DDE908450019694184
:10051000BDE8F04DA0E72DE9F04D81EA030404F0B9
:10052000004B21F0004514464FF0000A23F0004133
:1005300050EA050220D054EA01021DD0C5F30A5743
:100540000246C5F31303C1F31300C1F30A5640F486
:10055000801543F48013A7EB0608101BD64608F25B
:10056000FD3873EB050002D308F1010801E0921891
:100570005B41B8F1000F03DA00200146BDE8F08DC1
:1005800000204FF48011064684460EE0171B73EBE3
:10059000050705D3121B63EB050306434CEA010C68
:1005A00049084FEA300092185B4150EA0107EDD14B
:1005B00052EA030012D082EA040083EA05010843EC
:1005C00003D100224FF0004308E0101BAB4102D2E0
:1005D0000122002302E06FF0010253101AEB060023
:1005E0004CEB085110EB0A0041EB0B01BDE8F04D5C
:1005F000FFF732BF70B521F0004303430CD0C1F3C5
:100600000A550024D5EB040564EB0403D617AD1A94
:10061000B34102DB0020014670BD201841EB0251BE
:1006200070BD0EB5C10F80EAE0700844CA07002112
:1006300040F233438DE80E000A460B46FFF719FFE0
:1006400003B000BD30B5002904DB4FF00044404248
:1006500064EB0101002B04DB4FF00044524264EBD9
:100660000303994208BF904230BD0000064C074D7D
:1006700006E0E06840F0010394E807009847103472
:10068000AC42F6D3FFF758FD703C0008903C0008E0
:100690002DE9F04D00231A461B1A8A4103DB002086
:1006A0000146BDE8F08DC1F30A52C1F3130141F4D4
:1006B00080154FF0000BD10702D100186D41521E7A
:1006C0000027044640F2FF11384601EB620A3E461D
:1006D0008046024600204FF48011FFF79BFEC219AE
:1006E0007141BB1846EB0100B4EB030C75EB000C39
:1006F00004D3E41A65EB000517460E46241908F1E9
:1007000001006D4180463428E3DDF91946EB06000F
:10071000091BA84103D24FF0FF32134601E000222B
:1007200013461BEB070046EB0A51BDE8F04DFFF7FF
:1007300093BE70477047FEE7F0B54FF480773E02F6
:1007400008231022224C402834D013DC21490728EA
:1007500001F1040528D007DC042827D0052821D082
:10076000062800D10F60F0BD082821D02028FAD13A
:100770002360F0BD16490831B0F5806F20D008DC49
:10078000B84219D0B0F5007FF3D1086820F002001C
:1007900019E01049091FB04217D0B0F5003FE8D169
:1007A0000A60F0BD01200EE00E60F0BD2B60F0BDD0
:1007B0002A60F0BD2260F0BD086820F0010002E070
:1007C000086820F004000860F0BD0B60F0BD000078
:1007D00010640040086400402DE9F04100F054F836
:1007E000274800F03FF9264800250126057045708E
:1007F0008570C570067145718571C5710B210172D7
:10080000042141720227478100F0C2F81D4C2020CC
:1008100026706670A570A0804020E0806020208156
:1008200080206081A581A673204600F043F82770E0
:100830006670A570A020A080C020E080E02020810C
:1008400030026081A581A673204600F033F8257040
:100850006670A5704FF4A050A0804FF4A150E080C6
:100860004FF4A25020816581A581A673204600F037
:1008700021F8BDE8F0410121022000F07DB8000020
:10088000FC0600200807002010B501214C06204678
:1008900000F028FC2046BDE81040002100F022BCFA
:1008A000202110B10248016070470148001FFAE79B
:1008B00010640040F0B50278012191402D4A89B2C0
:1008C000136843F0010313602A4C1C3423688B43E4
:1008D0002360284B274D87780C3340352E1DA7B950
:1008E0001F688F431F60C788B0F80AC047EA0C47EB
:1008F00090F800C045F83C708788B0F808C047EA17
:100900000C4790F800C046F83C708778012F0ED154
:100910001F680F431F60436807784FEA334345F869
:100920003730836805784FEA334346F83530114B4A
:1009300045781B1D002D1D6806D00D431D600D4B15
:100940008589143315B104E08D43F7E71D688D43A5
:100950001D608589012D02D11D680D431D60807BBE
:10096000012802D1206808432060106820F00100AF
:100970001060F0BD00660040044A0029116801D0F3
:10098000014300E08143116070470000146400409F
:10099000324910B5002201230B600B1D1C68E407CF
:1009A00048D00278012A0A6846D022F080020A6004
:1009B0004278012A0A6842D022F040020A60827816
:1009C000012A0A683ED022F020020A60C278012A79
:1009D0000A683AD022F010020A600279012A0A68F5
:1009E00036D022F008020A604279012A0A6832D021
:1009F00022F004020A608279C479920742EA046212
:100A0000047A42EA0442447A408942EA0452401E8F
:100A1000024312481C3002600868012220F00100E5
:100A200008609002401E0004000CFBD11868C0074B
:100A300000D00022104610BD42F08002B7E742F01D
:100A40004002BBE742F02002BFE742F01002C3E7DA
:100A500042F00802C7E742F00402CBE7006400401E
:100A6000704770470021017041708170C170017141
:100A700041718171C1710321017202214172012111
:100A80004181704730B52A4A002113685B0108D4C0
:100A90001168090101D5012103E01168C9003BD5A6
:100AA0000221244A02EB0112136803F001031360D0
:100AB000037A83B34468E500456014682C43457AA3
:100AC0002B431C431460837A03F00F038372194B8A
:100AD0001B1D03EB01131C6824F00F041C601C6831
:100AE000857A2C431C60C37AC46843EA0423114C02
:100AF000083404EB01142360C37B006943EA00203F
:100B00000C4B0C3303EB01131860106840F001002C
:100B10001060084630BD01E00421FAE703885C0557
:100B2000046013682343447A23431360CBE7000037
:100B30000864004080650040704770477047704708
:100B400070477047704770477047704770477047ED
:100B50000249886188690028FCD1704704000020A0
:100B600070B5012000F09AF800283ED01F480126F9
:100B700001781F480129314603D000F0CDF940B378
:100B80002EE000F0C9F908BB1A4801681A4D00248C
:100B900001B92C702978491CCAB22A704FF4FA7135
:100BA000016016A1194801F021F8184802F0A6F8D2
:100BB0002A7817481749032A06D0052A07D0032A9E
:100BC0000ED004700C700BE004700E7008E006701C
:100BD000F8E711A002F092F8154806701548067063
:100BE000BDE87040012000F03FB870BD1600002045
:100BF0000008014030000020170000200D0A204BA3
:100C00005020436E743A256400000000A8000020C4
:100C100018000020140000200D0A204B6579207078
:100C200072657373206465746563746564000000A5
:100C30000000002013000020704770477047704785
:100C4000102000F011B810B5202000F00DF8402061
:100C500000F00AF8802000F007F8BDE810404FF4DB
:100C6000807000F001B80000014908607047000082
:100C70001404014010B50021084600F0C5F80648EC
:100C800001210022016002710C2242718171BDE8D4
:100C9000104000F013B8000080000020064A014612
:100CA00000201268044B0A4014331B680B4202D028
:100CB000002A00D0012070470004014030B583793C
:100CC0001949026853B30B6893430B600A1D1368FC
:100CD0000468A343136002790A4413680468234339
:100CE0001360114B08331A680468A2431A601A1D76
:100CF00014680568AC4314604479102C05D0214475
:100D00000A68006802430A6030BD1968046821431C
:100D10001960116800680143116030BD0079084412
:100D200001689143016030BD00040140704700003C
:100D300004490A6822F010020A600A6802430A6045
:100D4000704700000020024004490A6802F038029F
:100D50000A600A6802430A607047000000200240EF
:100D6000704700002DE9F0410121234800F0B0F860
:100D7000224C4FF4017003252080DFF88480A57099
:100D80001826E6702146404600F052F84FF4816084
:100D90002080A5700427E7702146404600F048F8FF
:100DA000B8022080A570E6702146404600F040F869
:100DB00078022080A570E7702146404600F038F8A0
:100DC000F0202080A5701026E6702146404600F0F5
:100DD0002FF82580A570E67021460A4800F028F813
:100DE00001202080A5704820E07021464046BDE8E3
:100DF000F04100F01DB80000000430007C0000202D
:100E000000080140000C014010B58A0721F00304DE
:100E10000649130F21440F228C689A4094438C603A
:100E20008A68984002438A6010BD000000000140BB
:100E3000F0B5CA78002502F00F03D20601D58A78F2
:100E400013430C784FF00F0E0122ECB1D0F80040A4
:100E50000F8802FA05F63740B74211D14FEA850CE8
:100E60000EFA0CF724EA070703FA0CF43C43CF7898
:100E7000282F02D0482F02D002E0466100E0066130
:100E80006D1C082DE4D304600C88FF2C1ED9446827
:100E90005FF0000606F1080702FA07F50F882F40F9
:100EA000AF420FD14FEA860C0EFA0CF7BC4303FA9F
:100EB0000CF73C43CF78282F00D14561CF78482FDD
:100EC00000D10561761C082EE4D34460F0BD00001B
:100ED000F0B5104D6A68440D260184B2C0F3015785
:100EE000B440C0F30343032F05D0C0020AD503204A
:100EF0009840824307E0686822F0706320F07060D9
:100F0000686002E0A24342F0706301B123436B606A
:100F1000F0BD0000000001400246002092680A4235
:100F200000D0012070470AB10161704741617047EC
:100F3000FEE7704770477047704710B5002000F01B
:100F40002DFB42F2283000F047FB012000F038FB77
:100F5000BDE81040012000F021BBFEE77047F8B566
:100F600000214FF0006000F0A5F825208DF800006A
:100F700002258DF8015000268DF8026001248DF8BD
:100F80000340684600F04EF826208DF800008DF8EA
:100F900001508DF802408DF80340684600F042F899
:100FA00027208DF800008DF801608DF802408DF843
:100FB0000340684600F036F814208DF800008DF8E4
:100FC00001608DF802608DF80340684600F02AF851
:100FD0001D208DF800008DF801508DF802508DF81D
:100FE0000340684600F01EF81E208DF800008DF8C2
:100FF00001508DF802508DF80340684600F012F859
:1010000006208DF800008DF801608DF802608DF8E3
:101010000340684600F006F84FF4C06000F040F866
:10102000F8BD0000F0B50F22C478017801234FF01D
:10103000E0253CB3184C2468467804F4E064C4F519
:10104000E064240AC4F10407E2408478BE401440FE
:10105000344322018C07E70E21F003040F49BA4004
:1010600066183168FF24BC40A1432240114331601F
:10107000007800F01F018B40400905EB8000C0F8AC
:101080000031F0BD01F01F008340480905EB8000EE
:10109000C0F88031F0BD00000CED00E000E400E09D
:1010A0000249084302490860704700000000FA0541
:1010B0000CED00E0024A1140014302480160704714
:1010C00080FFFF1F08ED00E070477047044A0029C9
:1010D000D16901D0014300E08143D1617047000034
:1010E00000100240044A0029116901D0014300E0C8
:1010F000814311617047000000100240044A00293A
:10110000916901D0014300E0814391617047000083
:101110000010024010B500F053F84FF48034204620
:1011200000F0DEF800F026F9234901280870234971
:1011300019D00020087001214FF00610FFF7C6FFFC
:1011400001218803FFF7DAFF012140F67D00FFF758
:10115000D5FF01214802FFF7D1FF0121BDE8104072
:101160004806FFF7B3BF012008701020FFF7E0FD2D
:101170000220FFF7E9FD002000F0A8F8002000F0B1
:10118000D5F84FF4A06000F0C7F84FF4E011204606
:1011900000F0DCF8012000F0D3F8392000F076F8F8
:1011A0000028FAD0022000F0DBF800BF00F086F83B
:1011B0000828FBD1BFE70000880000207B0000204A
:1011C0000B48016841F0010101604168094A114082
:1011D00041600168084A11400160016821F48021E2
:1011E0000160416821F4FE01416000218160704787
:1011F000001002400000FFF8FFFFF6FE30B51F4967
:101200004A6812F00C031E4A03D0042B01D0082BAD
:1012100022D002604A680F231A4C03EA1212A35C20
:101220000268DA4042604B68072505EA1323E35C55
:1012300022FA03F383604B6805EAD323E35C22FAC6
:1012400003F2C2604968032303EA9131231F595C0A
:10125000B2FBF1F1016130BD4A68022302F4701261
:1012600003EB92424B6813F4803F02D04B689B0320
:1012700001D5054B00E0024B5A43CAE7001002407B
:1012800000127A00CC3B000800093D000246002015
:1012900053090949012B0BD0022B0BD0D1F8241094
:1012A00002F01F02012393400B4200D0012070473F
:1012B0000968F5E7096AF3E7001002400248406850
:1012C00000F00C007047000000100240034A516813
:1012D00021F0F0010143516070470000001002400E
:1012E0000B490A6822F480320A600A6822F48022DC
:1012F0000A60B0F5803F07D0B0F5802F03D10868B1
:1013000040F4A02008607047086840F48030F9E796
:101310000010024070470000034A516821F4E06168
:1013200001435160704700000010024003494A68C1
:1013300022F4605242EAC000486070470010024048
:10134000014908667047000000004242034A5368A2
:10135000084323F47C131843506070470010024088
:10136000034A516821F003010143516070470000B6
:101370000010024030B50B4C40F2FF153120FFF752
:1013800085FF20706068401C6060207810B960683C
:10139000A842F3D13120FFF779FF002800D00120C7
:1013A00030BD00009C0000207047704770477047B8
:1013B00070477047704700003EB5154C002120462D
:1013C00000F035F900220121204600F03BF94FF4EE
:1013D000B4700021ADF80400ADF80010ADF80610AF
:1013E000ADF802106946204600F034F9012120468C
:1013F00000F01AF90121204600F00BF901221146F4
:10140000204600F01FF90121204600F010F93EBDF2
:10141000000400403EB5164C0021204600F007F9BC
:1014200000220121204600F00DF94FF43470ADF890
:1014300004004CF25030ADF800000021ADF8061069
:10144000ADF802106946204600F004F9012120465B
:1014500000F0EAF80121204600F0DBF801221146F5
:10146000204600F0EFF80121204600F0E0F83EBDF4
:101470000008004030B53648016811B10168491EC6
:10148000016034480078012805D13348016811B162
:101490000168491E01603148016811B10168491EA7
:1014A00001602F48016811B10168491E01602D4893
:1014B000016811B10168491E01602B48016811B132
:1014C0000168491E01602948012102780020012A93
:1014D00014D1274A274C1378012B06D0264B1D88A0
:1014E00055B11A88521E1A8008E0244B1D88002D21
:1014F000F7D12070107001E021701170204A12782D
:10150000012A17D11F4A204B1478012C06D01F48FE
:1015100004686CB10168491E01600BE01C490C684D
:101520001CB10868401E086004E01870107001E0EB
:10153000197011701748016811B10168491E0160E6
:1015400015480168002902D00168491E016030BDBC
:101550001C00002016000020280000203C00002075
:101560002C00002030000020340000200A00002061
:1015700009000020070000204A0000201A00002077
:10158000100000200F0000200D000020240000208B
:1015900020000020380000204C0000204FF0E02107
:1015A000012804D0801C06D000208861704708699B
:1015B00040F0010002E0086920F001000861704776
:1015C0004FF0E0210028086902D040F0020001E05D
:1015D00020F00200086170474FF0E0214861704739
:1015E0007047704770477047704770470121014846
:1015F00000F01AB8000400400121014800F014B8BE
:101600000008004070477047704770477047704748
:1016100070470029018802D041F0800102E040F2C9
:101620007F32114001807047C94301827047002911
:10163000018802D041F0010102E040F2FE32114087
:1016400001807047002A828901D00A4300E08A4362
:1016500082817047028802F08F020280CA884B881C
:101660001A4303881A4302808A8882850A88028581
:1016700001228282044A904202D0044A904201D15F
:10168000097A018670470000002C014000340140B7
:101690007047704770B50F4D40F2255421462846DB
:1016A00000F0F3F880B1284600F06CF90B4A0A49C3
:1016B0005368C8545068401C50605068A0F5A06141
:1016C000DC3901D10020506021462846BDE8704039
:1016D00000F072B800380140280700208C0000207C
:1016E00070B50F4D40F225542146284600F0CDF844
:1016F00080B1284600F046F90B4A0A499368C8545D
:101700009068401C90609068A0F5A061DC3901D120
:101710000020906021462846BDE8704000F04CB89B
:1017200000440040040D00208C0000202DE9F04111
:101730001B4D40F225542146284600F0A6F840B340
:101740001848007828BB284600F01CF9174A0146C3
:101750001548D368C154D16840F2DC53465C00217F
:10176000032E0BD1124F01263E70D668761CD66030
:10177000D6689E4200D3D160D66881550D4E41F2A5
:1017800088303060D068401CD060D068984200D368
:10179000D16021462846BDE8F04100F00DB80000B8
:1017A0000048004016000020E01200208C000020BD
:1017B000190000203C0000200A0A01219140C94381
:1017C000018070470029818902D041F4005101E075
:1017D00021F40051818170472DE9F047234C4FF4EB
:1017E000964000252060A580E5802581204FA581B9
:1017F0000C2666812146384600F07EF840F22559D5
:1018000001224946384600F05FF801213846FFF7CB
:10181000D9FF4FF416572760A580E5802581DFF8B2
:101820005480A58166812146404600F065F801227A
:101830004946404600F048F801214046FFF7C2FF04
:101840002760A580E5802581A581668121460A4C17
:10185000204600F051F801224946204600F034F8B5
:101860002046BDE8F0470121FFF7ACBF1807002074
:10187000003801400044004000480040024600207B
:1018800012880A4200D00120704730B501F01F02D3
:1018900001240025C1F3421304FA02F2012B0FD0F8
:1018A000022B0FD0838A4FEA11210088134204FAD9
:1018B00001F400EA040001D000B10125284630BD42
:1018C0008389F0E7038AEEE710B5C1F3421301F014
:1018D0001F040121A140012B07D0022B07D0143097
:1018E000002A026805D00A4304E00C30F8E7103003
:1018F000F6E78A43026010BD30B50446008A85B021
:101900000D464CF6FF710840E98801432182A18908
:101910004EF6F3100140A8882A8910436A890A43C9
:101920001043A081A08A4FF6FF410840A9890143D6
:10193000A1826846FFF762FC1148844201D10398F6
:1019400000E00298642200EBC00101EB001029685E
:101950006FF018058900B0FBF1F0B0FBF2F109015E
:101960000B096B4300EB8300322303EB0010B0FB49
:10197000F2F000F00F000843208105B030BD0000F8
:10198000003801408088C0F308007047C1F30801A7
:1019900081807047704770472DE9F04F85B0002473
:1019A000009401940294039469462046049401F043
:1019B000FFFA71499DF80CC0012581F800C09DF81F
:1019C0000D604E709DF80E308B709DF80F00C87042
:1019D0009DF810200A719DF811204A719DF812207F
:1019E0008A719DF81320CA71009F644A062F3BD06C
:1019F00005DC2AD2DFE807F0BA0D0F303436072FA6
:101A000049D0082F49D05E49A02F48D0A12F1CD122
:101A1000ABE05C4821E05C485D4E4FF4807180F89B
:101A200000C05A48BCF1010F08D0BCF1020F07D02A
:101A3000BCF1030F0AD0BCF1040F06D1012201E072
:101A400015700022FFF76FFA34708FE0514935703E
:101A500040F2DC50086089E04F4880F800C085E023
:101A60004E48FAE74E48F8E74E484F4E4F4F80F841
:101A700000C0BCF1000F02D035703C7076E04C48DD
:101A80003C7004704B4804704B480470157001F0B2
:101A900039F83470F1E74948DFE74948DDE744EABF
:101AA00003231843474A484E484FDFF82481494BE7
:101AB000DFF824A1DFF824B1A0F57F4C1080BCF141
:101AC000FF0C13D1197871BB45491D700C80AAF821
:101AD00000408BF80040042100F0C4FC34804148F1
:101AE0003C80A8F800400F2101703FE01C700B788B
:101AF000A146CBB1012B04D0022B07D0032B35D14B
:101B00000BE03188491C318001210AE0B8F800104F
:101B1000491CA8F80010022103E03988491C3980CB
:101B2000032100F09FFC21E0BAF800402D49641C1D
:101B3000AAF800400C7804B10B709BF800105C46CA
:101B4000A1B90021934600F08DFC2570AAF8009001
:101B500040F6FF71ABF80010A6F800902048A7F8F7
:101B60000090A8F80090018000E00E700220FEF7BF
:101B7000E3FD05B0BDE8F08F7300002011000020E8
:101B8000680000200500002004000020000801403B
:101B9000450000204C0000204100002042000020B1
:101BA0004300002044000020470000200C000020DB
:101BB0000E0000200D000020100000204800002032
:101BC00015000020640000206C0000206E00002042
:101BD000700000208C0000206A00002069000020B6
:101BE0006600002072000020FEE770470FB4084B2B
:101BF00010B504A902AA039800F094F8044602A9BB
:101C0000002000F034FA204610BC5DF814FB000000
:101C10006F200008490050EAC12018BF04204A0D77
:101C200018BF40F0010040F2FF72B2EB515F08BFF5
:101C300040F00200012808BF052070472DE9F0415F
:101C40004F1E00EBC7010446D1E9000115461E46B0
:101C500037F006020DD02A463346FEF71EFB7F1EE4
:101C600004EBC703D3E90023FEF770FA37F006024E
:101C7000F1D1022F25D0042F13D0062F18BFBDE8B5
:101C8000F0812A463346FEF708FBD4E90A23FEF723
:101C90005DFA2A463346FEF700FBD4E90823FEF737
:101CA00055FA2A463346FEF7F8FAD4E90623FEF73A
:101CB0004DFA2A463346FEF7F0FAD4E90423FEF73C
:101CC00045FA2A463346FEF7E8FAD4E90223FEF73E
:101CD0003DFA2A463346FEF7E0FAD4E90023BDE890
:101CE000F041FEF733BA0000024A00201107FEF768
:101CF00081BC000001FDFFFF02E008C8121F08C1FF
:101D0000002AFAD170477047002001E001C1121F7C
:101D1000002AFBD1704700000149086070470000AD
:101D2000A40000202DE9FF4F8BB088460546002611
:101D300067E125287AD100246D1CB649A146A24648
:101D400001222B78203B02FA03F0084202D0044320
:101D50006D1CF6E728782A2810D06FF02F0228781B
:101D6000A0F13001092915D809EB890102EB4101E5
:101D700044F0020400EB01096D1CF0E758F8049BE5
:101D8000B9F1000F03DA44F40054C9F1000944F03A
:101D900002046D1C28782E2817D115F8010F44F085
:101DA00004042A280ED06FF02F022878A0F1300109
:101DB00009290AD80AEB8A0102EB410100EB010A6A
:101DC0006D1CF2E758F804AB6D1C28786C280FD016
:101DD00006DC4C2817D068280DD06A2814D104E0FE
:101DE000742810D07A280FD10DE044F400140AE0D2
:101DF00044F4801401E044F440146978814202D133
:101E00006D1C04F580146D1C2878692866D007DCE9
:101E1000002876D0632828D0642807D15EE005E04A
:101E20006E2808D073282AD075287AD0DDE90D12E3
:101E30009047761CE4E0C4F30250022809D003283E
:101E40000DD0D8F8001004280DD00E6008F1040859
:101E5000D6E0D8F80010F217C1E90062F6E7D8F82A
:101E600000100E80F2E70E70F0E718F8041B8DF8F2
:101E7000001000208DF80100EB46012003E058F827
:101E800004BB4FF0FF3061074FF0000701D40AE0B8
:101E90007F1C57450DDA8742FADB1BF80710002933
:101EA000F6D106E07F1C8742FCDB1BF807100029F7
:101EB000F8D1DDE90D23A9EB07008146214600F0AA
:101EC000BEF83044C61904E0DDE90D121BF8010B21
:101ED00090477F1EF8D2214648468CE058F8040B04
:101EE000C4F302514FF00A0B032900D100B20429B8
:101EF00000D140B2002806DAC0F100004FF02D01F9
:101F000004E082E00DE0210504D52B218DF824109A
:101F1000012103E0E10710D02021F7E708AF089185
:101F200014E058F8040BC4F302514FF00A0B0329D4
:101F300000D180B2042900D1C0B20021EEE7594699
:101F4000FEF743FA01F1300107F8011D0028F6D130
:101F5000ADEB070000F1200B600702D524F48034BC
:101F600001E04FF0010ADA4502DDAAEB0B0000E0C8
:101F70000020824600EB0B0108980144A9EB010008
:101F80000A90E00306D4DDE90D2321460A9800F00B
:101F900056F80644002008E009A911F80900DDE917
:101FA0000D129047761C09F101000899814688427C
:101FB000F2DBE0030CD5DDE90D2321460A9800F0A1
:101FC0003EF8064404E0DDE90D1230209047761C0F
:101FD000BAF10001AAF1010AF5DC05E0DDE90D1214
:101FE00017F8010B9047761CBBF10001ABF1010B18
:101FF000F4DC0A982146DDE90D2300F00DF80644D3
:102000006D1C287800287FF494AE0FB03046BDE8F0
:10201000F08F0000092801002DE9F0410446002559
:102020001E461746880405D406E039462020B047EE
:1020300005F10105641EF8D52846BDE8F0812DE9BB
:10204000F041044600251E469046C80301D53027BE
:1020500000E02027880405D506E041463846B04711
:1020600005F10105641EF8D52846BDE8F0810A682F
:10207000531C0B601070704770B51A4C00224FF45F
:1020800080712046FEF74FFF002280212046FEF798
:102090004AFF002240212046FEF745FF0022202172
:1020A0002046FEF740FF104D002202212846FEF791
:1020B0003AFF00224FF400412046FEF734FF002291
:1020C0004FF480412046FEF72EFF002201212846D2
:1020D000FEF729FF2046BDE8704000221021FEF7E0
:1020E00022BF000000080140000C014070B51B4CED
:1020F000012208212046FEF716FF01221102204688
:10210000FEF711FF012280212046FEF70CFF01227D
:1021100040212046FEF707FF012220212046FEF73E
:1021200002FF0F4D012202212846FEF7FCFE01228C
:10213000D1032046FEF7F7FE012291032046FEF769
:10214000F2FE012211462846FEF7EDFE2046BDE8CC
:10215000704001221021FEF7E6BE00000008014099
:10216000000C014010B5104C012208212046FEF75A
:10217000DAFE012280212046FEF7D5FE0122402111
:102180002046FEF7D0FE012220212046FEF7CBFE9E
:102190000122D1032046FEF7C6FE20460122BDE8FB
:1021A00010401021FEF7BFBE000801402DE9F041AC
:1021B000174C07464FF48075002229462046FEF74B
:1021C000B2FE6615002231462046FEF7ACFE380905
:1021D00000F014FD00F0BCFE40F2CF70401EFDD1B7
:1021E00007F00F0000F00AFD00F0B2FE40F2CE72E0
:1021F0001046401EFDD1521EFDD131462046FEF74D
:1022000092FE29462046BDE8F0410022FEF78BBE33
:10221000000C01402DE9F0410122174C0746550200
:1022200029462046FEF77FFEA615002231462046AD
:10223000FEF779FE380900F0E1FC00F089FE40F27B
:10224000CF70401EFDD107F00F0000F0D7FC00F06A
:102250007FFE40F2CE721046401EFDD1521EFDD1CF
:1022600029462046FEF75FFE31462046BDE8F04194
:102270000022FEF758BE0000000C014070B500249B
:102280004FF49675FFF732FF2846FEF761FCFFF723
:10229000F3FE2846FEF75CFC641CE4B2022CF1D984
:1022A00070BD0000064810B5027806484FF40041A2
:1022B000012A00D00022FEF736FE012010BD0000EA
:1022C0004300002000080140064810B50278064887
:1022D0004FF48041012A00D00022FEF724FE0120A5
:1022E00010BD00004100002000080140064810B564
:1022F00001780648012905D000220121FEF713FECE
:10230000012010BD0122F8E748000020000C014028
:1023100070B51B4C207801282FD11A4D01221021B5
:102320002846FEF700FE3220FEF712FC00221021A4
:102330002846FEF7F8FD3220FEF70AFC01221021A4
:102340002846FEF7F0FD3220FEF702FC00221021A5
:102350002846FEF7E8FD3220FEF7FAFB01221021A5
:102360002846FEF7E0FD3220FEF7F2FB00221021A6
:102370002846FEF7D8FD00202070012070BD000027
:10238000110000200008014070B52848294C017850
:10239000274869B3017851BB012303702648022501
:1023A000264A0178012909D0022904D0032905D041
:1023B000042905D00CE01370037009E0157007E0E4
:1023C00015701FA12348FFF711FC224800F096FC6E
:1023D000012210212046FEF7A6FD3220FEF7B8FBB1
:1023E00000F0CCFB002210212046FEF79CFD01E00E
:1023F0000021017018480078012814D1174D286871
:1024000088B917490878C04310F0FF0008704FF4EE
:10241000807101D0012200E000222046FEF783FDFA
:1024200040F2DC502860012070BD00000000002058
:1024300040000020000801400400002001000020AE
:102440000D0A2043727569736520526573756D6559
:1024500000000000A8000020450000204C000020E3
:102460004600002000B58BB0052923D2DFE801F03B
:10247000030B0D121400012228A1104600F092F85F
:10248000012229A113E02BA100E02DA105A8FFF74F
:10249000ADFB0FE02DA1F9E72FA16846FFF7A6FBE2
:1024A00001226946104600F07DF801222DA102208C
:1024B00000F078F82E48007868B32E490A788242F6
:1024C0000ED008702CA16846FFF790FB01226946E8
:1024D000104600F067F8012205A9022000F062F81A
:1024E0002748284902880888824214D0264B0020B9
:1024F0001870264B1880264B1880264B1880264BC8
:1025000018800A8025A16846FFF770FB05226946FE
:10251000012000F047F80BB0012000BD52656C208F
:102520004F626A200000000020416273656E7420D3
:102530000000000053616D652064697200000000B6
:102540004F6E636F6D696E67000000002053746109
:10255000746963200000000053706565642069732E
:10256000000000003C434153204163740000000020
:10257000680000207200002044203A200000000083
:102580006400002066000020690000206C0000202C
:102590006E000020700000206A00002025303364A7
:1025A0006D00000070B5054600200C46034622B9B8
:1025B000002070BD5B1CDBB2491C0E78002EF9D1E7
:1025C000082B07D90DA11848FFF710FB164800F09B
:1025D00095FBEDE7012D02D0022D02D003E07F3202
:1025E00000E0BF32D0B2FFF7E1FD02E0FFF712FEDC
:1025F000641C20780028F9D1012070BD0D0A2054F8
:10260000657874206C656E677468206973206772E2
:102610006561746572207468616E204C4344206C5F
:10262000656E677468000000A80000202DE9F0477F
:10263000DFF8B4900446DFF8B4A099F800002C4D00
:102640002C4EDFF8B4800F4610B101280FD048E0BF
:1026500000F058FAAAF800700120307000212970AB
:10266000264989F8000008702549087007E0297894
:102670003078814235D0012801D0C0B131E0AAF8CC
:10268000007030782870012C2BD0022C02D0032C43
:1026900003D026E00022402101E00122202144460F
:1026A0004046FEF740FC01221021204617E0154964
:1026B0000A802870012C04D0022C05D0032C06D0EF
:1026C0000AE00122802104E00122402101E00022F1
:1026D00020214046FEF727FC002210214046FEF74D
:1026E00022FC0120BDE8F087060000201A0000202F
:1026F0000800002007000020000801400900002019
:102700000A0000204A000020064810B5017806485B
:10271000012905D000220221FEF705FC012010BD91
:102720000122F8E742000020000C01402DE9F04FA3
:1027300000248BB04FF08050CDE90604DFF8C8E1EB
:10274000724900948EF800400C707149A1462246EF
:10275000A2462046DFF8BCB140F2DC530C6042E0F8
:10276000DFF8B4C10E686D1C0CF80670761C6B4F58
:102770000E60C8F80050D7F800C09D420CF1010C63
:10278000C7F800C001D3C8F800009E4200D308601B
:102790009C4503D3386001E0DFF88481D8F800500D
:1027A0001BF80570002FDBD16F1C5C4DC8F8007062
:1027B0002E68761C2E609F4201D3C8F800009E420E
:1027C00000D32860544E0D680E2D70550BD00A684A
:1027D00054A15848FFF70AFA564800F08FFA002033
:1027E0000BB0BDE8F08F544D2F684C4D2E68B742AA
:1027F000D2D10B68A3F10E0144E0474D6E5CA6F107
:102800003005092D01D8EDB201E0373EF5B2561E74
:10281000012E0AD89EF800602E438EF80060022A2E
:102820002DD036018EF800601DE0D61E072E1AD876
:10283000DDE9067CA5FB076800FB078705FB0C7735
:1028400047EA0909DDE9067C3F0947EA0C7734438A
:102850004FEA1C1C009ECDE9067C2E43D70724D0EE
:102860003607360E0096A2F10B06022E07D2274E2F
:1028700037782F4337700C2A01D03D013570521C38
:10288000D2B2491CC9B29942B7D3204B9EF800205E
:102890001B788AEA02018B420BD028A12548FFF75A
:1028A000A5F9244800F02AFA2CE08AEA060A002654
:1028B000D8E7284E284A012535701168274F614016
:1028C00080EA0903194304D01460387024A000F092
:1028D00015FA3878B0B93D70204600F0DBFA0246B0
:1028E0000023307800F0ACF9244C0122102120465E
:1028F000FEF719FB3220FEF72BF9002210212046AB
:10290000FEF711FB01206BE75C0000205D0000205A
:1029100050000020E01200200C0100205800002090
:10292000540000200D0A20496E6465783A20256421
:1029300000000000A800002098000020435243201F
:102940004D69736D6174636820533A256420433A7E
:10295000256400005F000020600000205E00002071
:102960000D0A4E6577205246494420636172642007
:1029700064657465637465640D0A000000080140B5
:1029800010B500F055F81420FEF7E2F8274C0022AD
:102990004FF480712046FEF7C6FA002261152046EA
:1029A000FEF7C1FA0120FEF7D3F8032000F026F964
:1029B00000F0CEFA1420FEF7CBF8032000F01EF949
:1029C00000F0C6FA1420FEF7C3F8032000F016F951
:1029D00000F0BEFA1420FEF7BBF8022000F00EF95A
:1029E00000F0B6FA1420FEF7B3F8022000F006F962
:1029F00000F0AEFA1420FEF7ABF8082000F0FEF865
:102A000000F0A6FA1420FEF7A3F8C020FFF7CEFBD3
:102A10000820FFF7CBFB0120FFF7C8FB0620FFF7DC
:102A2000C5FB0C20FFF7C2FB012010BD000C0140CC
:102A30002DE9F041134C4FF4704003252080124FD4
:102A4000A5701426E67021463846FEF7F1F92020DD
:102A50002080A570E67021463846FEF7E9F9B815E2
:102A60002080A570E67021463846FEF7E1F978151A
:102A70002080A570E67021463846FEF7D9F901207E
:102A8000BDE8F0817C000020000C01400F4810B52B
:102A900002680F49002012B10870012010BD0D4CD2
:102AA00020700A78002AF8D101220A700A490A70B7
:102AB0000A4908700AA000F021F9FFF729FC00225A
:102AC0001346207800F0BCF8E7E700003C00002047
:102AD000890000205F000020110000205E0000201F
:102AE0000D0A524649442043617264206162736555
:102AF0006E742C2043414E206D73672073656E7495
:102B00000D0A000010B50E4C002280212046FEF771
:102B10000AFA002240212046FEF705FA0022202171
:102B20002046FEF700FA002201210648FEF7FBF9D5
:102B3000002210212046FEF7F6F9012010BD00000A
:102B400000080140000C01400B4910B540F2227210
:102B50000A6000224A600A7208238B724A72C872A5
:102B60000A734A738A73CA730A744A748A74084669
:102B7000FDF788FF012010BDE80600200C4810B5C5
:102B800040F22171016000214160017208228272CD
:102B9000084A41721278C272017341738173C17322
:102BA000017441748174FDF76DFF012010BD0000B8
:102BB000E80600200100002010B50E4C2068B8B9CE
:102BC0000D484FF4E4610822016000214160017268
:102BD000827241722222C272017341738173C17386
:102BE000017441748174FDF74DFF4FF47A702060D9
:102BF000012010BD38000020E806002070B50F4D00
:102C00000446C0F3C0024FF400412846FEF78BF99A
:102C1000C4F380024FF480412846FEF784F9C4F3E0
:102C2000400269142846FEF77EF904F00102A91457
:102C30002846BDE87040FEF776B90000000C014060
:102C40007FB51E4C40F2257108252160002161608E
:102C50002172A5726172E072100A227340EA036069
:102C60006073100C40EA0340A073100E40EA03208A
:102C7000E0732374180A6074A1742046FDF702FF04
:102C8000E07AC8B10EA210A11348FEF7AFFF1248B8
:102C900000F034F8A07B637C227CE17B8DE80F00A0
:102CA000637B227B0DA10C48FEF7A0FF0A4800F0D1
:102CB00025F804B0012070BD0EA2E4E7E80600206C
:102CC00050726573656E74000D0A52464944206364
:102CD0006172642025730000A80000202C0925647F
:102CE0002C25642C25642C25642C25642C25640D4E
:102CF0000A000000416273656E74000070B50446FE
:102D0000074D09E02846FEF741FE40212846FEF720
:102D1000B5FD0028F9D0641C21780029F2D170BDDE
:102D20000038014070B504461F4800250178A142D3
:102D300006D004701D4805701D480570FFF7E2FEBF
:102D40001C480B2C2ED2DFE804F0060F141B2020A9
:102D5000202D2D2D290018480078012822D0174851
:102D60000570FFF7CFFE1DE0642141F2883201209B
:102D700003E04FF4FA6264210220FFF757FC11E0F0
:102D800064214FF4FA720320F7E70122202106465E
:102D9000FEF7C9F801221021304601E0012210217E
:102DA000FEF7C1F8012070BD0B00002006000020D6
:102DB0000A000020000801404700002048000020D1
:102DC00070B52A48007801284DD12948007800289C
:102DD00049D1284C284D294A21782948642311B12A
:102DE00001290BD03FE00121017000261670254E0D
:102DF00031702B602170244C217003E0117804782D
:102E0000A14230D00178214C1170012901D091B13B
:102E100029E02B60012210212046FEF784F80122D0
:102E200080212046FEF77FF8012240212046FEF750
:102E30007AF8012213E016494FF47A7008600022F4
:102E400010212046FEF76FF8002280212046FEF771
:102E50006AF8002240212046FEF765F80022202172
:102E60002046FEF760F8012070BD000044000020FD
:102E7000050000200C000020200000200E00002093
:102E80000D0000200F00002010000020000801406D
:102E9000240000202DE9F047002704463D4622E0AB
:102EA00004F00F092846FDF76AFA02460B46002097
:102EB0000F4900F073F9064688464846FDF75FFA69
:102EC00032464346FDF7E9F9064688463846FDF79F
:102ED00056FA32464346FDF739F9FDF75DFA240903
:102EE0006D1C0746EDB2002CDAD13846BDE8F087FC
:102EF0000000304070B5144C0025A570E582E582D5
:102F00000120E07025716571A571E571E573257487
:102F1000A07425726572A572E5722573E56125625C
:102F2000E56225636573A573E5742575FFF7A4F85D
:102F3000012208210548FDF7F6FF4FF47A7060631F
:102F400065700220207070BD040000200008014060
:102F500010B50A4C012220212046FDF7E4FF40F283
:102F6000E731491EFDD1002220212046FDF7DBFF7D
:102F700040F2E630401EFDD110BD0000000C0140C3
:102F800010B5012205A11046FFF70CFB0122BDE898
:102F9000104004A10220FFF705BB00002A2A53536A
:102FA000542A2A0056657220312E3120000000007C
:102FB0001E4A02EB0012136813F004030B7213682D
:102FC00030D0DB084B60126802F002024A72174AE6
:102FD000121D02EB0012136803F00F038B721268CC
:102FE000120ACA72114A083202EB001213680B73FC
:102FF00013681B0A4B7313681B0C8B731268120E39
:10300000CA730A4A0C3202EB001213680B7413687D
:103010001B0A4B7413681B0C8B741268120ECA7453
:10302000FDF73EBC5B0D0B60CDE70000B0650040D6
:10303000FEF770F8FDF793FFFDF71CFEFDF77DFF2F
:10304000FDF790FEFEF7B8F9FEF7E4F9FEF7C4FBD2
:10305000FDF7C2FBFFF74EFFFFF792FCFFF790FF73
:10306000FFF70CF9324C012241F28836A2746662F5
:103070000520A0624FF4FA70E06240F6B830206399
:103080000025A573A6632BA13248FEF7AFFD31489A
:10309000FFF734FEA07C10B1E06A08B326E0FFF72A
:1030A0008BFDFFF7F3FC607D012802D1FFF73EFBAB
:1030B0006575607C10B1FFF755F8EBE76078FFF7B6
:1030C00031FEFFF721FBFFF7FFF8FFF7EBF8FFF703
:1030D00077FEFFF759F9FFF71BF9FFF707F9D9E773
:1030E000E07C032801D0052800D16562606A0028D1
:1030F000D0D1A574A663227D17A11648FEF776FDF0
:103100001448FFF7FBFD227C1BA11248FEF76EFD61
:103110001048FFF7F3FD207D012803D0207C012813
:1031200003D00020FFF710FDB4E70220FAE700000B
:10313000040000200D0A2057656C636F6D652074D4
:103140006F2053697874682073656E736F72202DD9
:1031500020256400A80000200D0A204D756C7469BC
:10316000706C65206B657920707265737320666C76
:103170006167202D202564000D0A2054657374209A
:103180004D6F6465206B657920707265737320667E
:103190006C6167202D202564000000002DE9F04DB2
:1031A00016460F460546020094B01C4621F0004129
:1031B00023F0004014BF4FF0010C4FF0000C0CEB5B
:1031C000470CFE4B0CEB03084FEA630CE0452DD394
:1031D0005FEA060818BF4FF0010808EB440898445E
:1031E000F74B984522D3F74B50EA060C02D09F428A
:1031F00005D14AB914B000201946BDE8F08D002A67
:1032000008BF4FF0000C01D04FF0010C0CEB47034E
:1032100013F5001F0AD8002E14BF4FF0010C4FF019
:10322000000C0CEB440313F5001F08D914B0324610
:10323000234628463946BDE8F04DFCF787BFDFF846
:1032400088B34FF0000A002FB8BF584523DADF4B90
:103250009842A8BF4FF0020A1DDADA4B83421ADC0B
:10326000DB4B03EB2053142B08DDC3F1340C26FA9F
:103270000CF303FA0CFCB4450DD108E05EB9C3F1C0
:10328000140C20FA0CF303FA0CFC844503D103F070
:103290000103C3F1020A51EA020321D1002C1FDA13
:1032A000002F18BFBAF1020F02D0BAF1010F0BD0F4
:1032B0000220FEF731FD14B00022BDE8F04D1346A8
:1032C0001046C049FDF727B90220FEF725FD14B0CE
:1032D0002A463B46BDE8F04D0020BA49FDF71BB930
:1032E00033006DD1584525D107F1804010F580108D
:1032F00001BF002A0020B34914B008BFBDE8F08D1B
:10330000B048884207DC002CA1BF1846214614B003
:10331000BDE8F08D07E0002CBFBF184684F00041E7
:1033200014B0BDE8F08DAB497944D1E9000114B087
:10333000BDE8F08DDFF88CC2604526D1002C1FDA85
:1033400019B1594513D1DAB90AE0002A40F0DA82FE
:103350009D4A394614B0002062F31E01BDE8F08D8D
:103360000020394614B060F31E01BDE8F08D07DA85
:1033700014B03B46BDE8F04D00206146FDF7CBB8E8
:1033800014B010463946BDE8F08D594518DAB4F14D
:10339000804F0DD0A4F10053B3F1FF5310D13B1E69
:1033A0000EDB14B01046BDE8F04D194600F0E6BB48
:1033B0003B4614B01046BDE8F04D1946FCF76DBF12
:1033C00027F00043A2BBE1B1594538D1002F06DDFB
:1033D000002CA1BF0020594614B0BDE8F08D002F8D
:1033E00001DD002C1FDB002F16DA002C14DBBAF1F4
:1033F000010F4FF0000014BF7349774914B0BDE8C6
:10340000F08DBAF1020F18BF002F0CD0BAF1010FE6
:1034100009D1002F07DA0CE0002FB8BF002C0EDA1C
:10342000BAF1010F05D0002014B00146BDE8F08DBF
:1034300005E014B000204FF00041BDE8F08D4FF0E2
:10344000010C0CEBE7720D9252EA0A020BD0634AB0
:1034500090427DDD624B634A984216DD8A420EDB64
:10346000002C1CDB2CE00120FEF756FC14B00022DF
:10347000BDE8F04D134610461146FDF74CB85148D3
:10348000884202DC002C0ADC1AE0914202DA002CAD
:1034900016DA04E04B4B99421EDD002C10DD0220B1
:1034A000FEF73AFC40F2013200204FF0E041FDF718
:1034B000A1F8454A14B061F31E021146BDE8F08D33
:1034C0000220FEF729FCFEF70FFC3E4A14B061F320
:1034D0001E021146BDE8F08D002228463946FCF751
:1034E000D6FE054688466FF00102FDF783F84FF0DF
:1034F00055323D4BFCF7CEFE2A464346FCF7CDFE47
:1035000000223A4BFCF7C6FE07468B462A46434646
:1035100010461946FCF7C1FE3A465B46FCF7BDFE75
:1035200009910C904FF0C042314B28464146FCF7C0
:10353000B4FE07468B462F4A2D4B09990C98FCF791
:10354000ACFECDE901102C4A2C4B2846414600E048
:1035500019E0FCF7A2FEDDE90132FCF798FE3A46DD
:103560005B4605910890FCF7F1FD002588463A4638
:103570005B462846FCF78BFE059B089AFCF78AFE03
:10358000024600F076B90020B1F5801F07DA352237
:1035900028461946FDF72EF805466FF0340000EB7B
:1035A0002150A0F2FF300190C1F3130040F07F6181
:1035B00041F0405102911249884223E0FFFF1F0071
:1035C000FFFF0F000000F03F0000F07F00004043CD
:1035D00001FCFFFF3C0900000000F0FF0000E0419B
:1035E0000000F043FFFFEF3F5555D53F0000E03F9F
:1035F0004715F73FFE822B6544DF5DF80BAE543E66
:103600008E980300D8BF4FF0000B0EDDFE498142BB
:10361000C8BF4FF0010B08DC01984FF0000B401CB5
:1036200001900298A0F580100290F8480299784421
:1036300000EBCB000B911090D0E900232846FCF75B
:1036400026FE009010980791D0E9002328460B9998
:10365000FCF77CFD02460B460020ED49FCF75BFFC2
:1036600005910B460246089007990098FCF715FE55
:103670000690E848884600277844029900680E9032
:103680004FF0005040EA610000EB8B4000F5002154
:1036900010980291D0E900230E98FCF7F8FD2A4615
:1036A0000B9BFCF7F7FD3A464346FCF7F6FD054653
:1036B0000B9138464146029B0E9AFCF7EEFD079BA4
:1036C000009AFCF7E7FD2A460B9BFCF7E0FD059B03
:1036D000089AFCF7E2FD0B911090069A43461046BB
:1036E0001946FCF7DAFD05460246CB480B46009129
:1036F00006217844FEF7A2FA009B2A460291089020
:1037000010461946FCF7C9FD029B089AFCF7C5FD57
:1037100005460591434638461946069AFCF716FDBC
:103720000B9B109AFCF7B9FD2A46059BFCF70EFD92
:103730003A4643460591089010461946FCF7ADFD00
:103740000022B64B00910C90FCF700FD059B089AF7
:10375000FCF7FCFC0D463A46B04B3846FCF797FDAB
:10376000009B0C9AFCF793FD059B089AFCF792FDD1
:1037700011913A460C902B4610464146FCF78DFDC0
:10378000079100904346069A11990C98FCF785FD25
:10379000804603912B463A460B991098FCF77DFD25
:1037A0004246039BFCF7D2FC059180460B4602463D
:1037B00007990098FCF7CAFC00200F460546079BB6
:1037C000009AFCF764FD4246059BFCF763FD8046CA
:1037D00009914FF06042924B28463946FCF75DFD57
:1037E000009102908F4A8E4B40460999FCF755FD97
:1037F000804603918C4A8D4B28463946FCF74DFD97
:103800004246039BFCF7A2FC894A7A4402EBCB03B5
:10381000D3E90023FCF79AFC069003910198FCF78A
:1038200000FF0746DDE902030591069A0099FCF7BF
:103830008DFC804A7A4402EBCB0BDBE90023FCF7DA
:1038400085FC3A46059BFCF781FC002588463A46F4
:103850002846059BFCF71BFDDBE90023FCF717FD61
:10386000009B029AFCF713FD039B069AFCF712FDDE
:103870000246002006900D98654FAAF101031843F7
:1038800001D16D4F069000200B4600903046214636
:10389000FCF703FD82468B46234630461946009AC4
:1038A000FCF7F5FC2A464346FCF7F7FC52465B461C
:1038B000FCF74CFC06468A462A46434621460098B9
:1038C000FCF7EBFC04460D4632465346FCF73EFC43
:1038D0005A4A8B46914226DBABEB020353EA0002C5
:1038E00010D122462B46FCF7D2FC80460591544A63
:1038F000544B30465146FCF729FC4246059BFCF7E9
:10390000A1FE30D20220FEF707FA40F20132002079
:103910004FF0E041FCF76EFE0A46394614B062F300
:103920001E01BDE8F08D484B2BF000429A421AD39D
:10393000464A0BEB020353EA000208D122462B460B
:10394000FCF7A5FC32465346FCF77CFE0BD8022060
:10395000FEF7E2F9FEF7C8F90A46394614B062F3F9
:103960001E01BDE8F08D2BF000403949394A01EBCA
:1039700020514FF00008824223DA481C4FF4801196
:1039800021FA00F05844C0F30A51334AA1F2FF3142
:103990007A44324B1268CB4020EA0303C0F3130091
:1039A00040F4801CC1F114002CFA00F8BBF1000FA8
:1039B000B8BFC8F1000820462946FCF768FC044659
:1039C0000D4622462B4630465146FCF7BFFB4FF0D2
:1039D000000B5A46224B58460591FCF75EFC0090BE
:1039E0000791204A204B58460599FCF756FC049154
:1039F000029022462B4658460599FCF748FC324671
:103A00005346FCF747FC31E07AB60B00AE050000E8
:103A10000000F03FEC0500001A050000000008401F
:103A200009C7EE3FFD033ADCF5015B14E02F3EBE13
:103A3000F2030000B80300000000F0BF0000904057
:103A4000FE822B654715973C00CC904000346F3FB9
:103A500001FCFFFF0000E03FD4020000FFFF0F0069
:103A6000432EE63F396CA80C615C20BE3F4A404BB8
:103A7000FCF713FC049B029AFCF768FB06468A4697
:103A8000079B009AFCF762FB04460D46079B009AD1
:103A9000FCF7FDFB32465346FCF7FCFB064622468C
:103AA0002B46099110461946FCF7F7FB8346024660
:103AB00030488A460B4605217844FEF7BFF85A463F
:103AC0005346FCF7EAFB22462B46FCF7E3FB824613
:103AD0008B46324620462946099BFCF7DEFB3246E0
:103AE000099BFCF733FB0591089000224FF08043BF
:103AF00050465946FCF7CBFB0646009152465B46C2
:103B000020462946FCF7C9FB3246009BFCF703FD23
:103B1000059B089AFCF7BBFB22462B46FCF7B7FB3C
:103B20000022154BFCF7B6FB0D46044601EB08518D
:103B30000815002810DC424620462946FCF75AFDAD
:103B4000FEF768F8042808BFFEF7CEF84246204684
:103B50002946FCF74FFD044606980B4614B0224652
:103B60003946BDE8F04DFCF798BB0000EF39FAFE8E
:103B7000422EE63F840100000000F03F2DE9F041B5
:103B800006460F46FCF784FD04000D4618BF0120D1
:103B9000284320F00040C0F17F6000F1E040C00FFA
:103BA0000ED0301C18BF0120384320F00040C0F177
:103BB0007F6000F1E040C00F04BF0120FEF7ACF8C9
:103BC00020462946BDE8F0810204060800000000F6
:103BD00001020304010203040607080900000000B3
:103BE000000000000000F03F000000000000F83F6F
:103BF00000000000000000000000004003B8E23FA9
:103C0000000000000000000006D0CF43EBFD4C3E5A
:103C1000033333333333E33FFFAB6FDBB66DDB3F4F
:103C20004D268F515555D53F01411DA96074D13F97
:103C300065DBC9934A86CD3FEF4E454A287ECA3F91
:103C40003E5555555555C53F93BDBE166CC166BF13
:103C50002CDE25AF6A56113FF16BD2C541BDBBBE0C
:103C6000D0A4BE726937663E00000000000000006C
:103C7000903C000800000020A8000000F81C00088C
:103C8000383D0008A8000020181C0000081D00088E
:103C90000000000000000000000000000000000024
:103CA0000000000000000100000000000000000013
:103CB0000000000000000000000000000000000004
:103CC00000000000000000000000000000000000F4
:103CD00000000000000000000000000000000000E4
:103CE00000000000000000000000000000000000D4
:103CF000000000000000FFFF0000000000000000C6
:103D000000000000000000000000000000000000B3
:103D100000000000000000000000000000000000A3
:103D20000000000000000000000000000000000093
:083D300000000000000000008B
:0400000508000131BD
:00000001FF
