:020000040800F2
:10000000F81C002045010008AD0F0008810F000812
:10001000AB0F00086F070008391D00080000000042
:10002000000000000000000000000000151400089F
:10003000B30B0008000000002B110008D5140008C5
:100040003B1D000829110008811600080B14000848
:10005000510D000875130008C50B0008610C00085D
:10006000630C0008650C0008670C00089D0B000875
:100070009F0B0008A10B0008A30B0008A50B0008AC
:10008000A70B0008A90B00086B0700082F1A00082F
:10009000311A0008C50A0008C70A00086D0C0008DC
:1000A00083160008891600088716000885160008C0
:1000B0008B1600088D16000899160008850F000899
:1000C000830F0008890F0008870F00080F1400082D
:1000D000111400083517000881170008CD17000813
:1000E000590C0008091400082D1A0008AB16000866
:1000F000B1160008AF160008AD1600086D0700081D
:10010000850D00080D140008A5160008131400083A
:100110003117000833170008A7160008A9160008B1
:10012000AB0B0008AD0B0008AF0B0008B10B0008CB
:10013000DFF80CD000F0B6FA00480047593C000840
:10014000F81C002000480047310100082DE9FE4F4F
:10015000804681EA0300C00F0C46009021F0004168
:1001600023F00045B8EB0200A94105D240462146E4
:1001700090461C460B46024623F00040104304D133
:100180004046214603B0BDE8F08F270DC7F30A00B3
:10019000C3F30A510290401A0190402866DAC3F373
:1001A000130040F4801B0098924620B10023D2EB4C
:1001B000030A63EB0B0B01985946C0F1400250460D
:1001C00000F034F906460D4650465946019A00F0B3
:1001D0004CF910EB08006141002487EA115284EACF
:1001E000E7731A433BD0009A3AB3019A012A4FEAC7
:1001F000075210DC001B61EB02014FF0004202EAE3
:100200000752CDE90042001C41F5801132462B46D1
:1002100000F04AF9B6E7001B61EB0201001C41F552
:10022000801300185B412018A2F5001747EB03016B
:1002300040EAD570B6196D4111E06D084FEA3606F7
:1002400045EAC0754FEA0752001B61EB0201001C32
:1002500041F5801149084FEA3000001951413246FA
:100260002B4603B0BDE8F04F00F011B90098012211
:1002700040000023D0EB020263EBE07300982146BC
:100280004FEAE074B8EB000061EB0401E9E783F0AA
:1002900000435BE781F0004158E72DE9FE4F81EA1A
:1002A000030404F0004421F0004100944FF0000BDF
:1002B00023F0004350EA010402D052EA030404D1BF
:1002C0000020014603B0BDE8F08FC3F30A54C1F328
:1002D0000A552C44A4F2F3340194A0FB0254C1F358
:1002E000130141F48011C3F3130343F4801301FBA2
:1002F000024400FB034E840A970A44EA815447EA09
:100300008357A4FB076802958D0A05FB07854FEA12
:10031000932C04FB0C542705029D4FEA065847EA2C
:100320001637B5EB08056EEB070C870E920E47EA01
:10033000811742EA8312A7FB0201B6EB0B0164EBC3
:1003400000042B0D43EA0C335E1844EB1C50DA46D4
:100350005146E7FB0201C5F313044FEA0B3343EAAE
:1003600014534FEA0432019C43EA0603A4F10C043F
:100370000294009CCDE900B400F096F8A2E70EB517
:1003800040F2334102910021CDE900110A460B46AB
:1003900000F08AF803B000BDC1F30A5210B5C1F3F2
:1003A000130140F2FF3341F480119A4201DA002038
:1003B00010BD40F233439A42A2F2334203DC524270
:1003C00000F043F810BD904010BD2DE9F05F0546E8
:1003D000002092469B4688460646814640241BE004
:1003E000284641464746224600F02FF853465A46D3
:1003F000C01A914110D311461846224600F016F853
:100400002D1A67EB01084F4622460120002100F01B
:100410000DF817EB00094E41201EA4F10104DFDCAA
:10042000484631462A464346BDE8F09F202A04DB71
:10043000203A00FA02F1002070479140C2F12003F7
:1004400020FA03F3194390407047202A04DB203A36
:1004500021FA02F00021704721FA02F3D040C2F1E4
:1004600020029140084319467047202A06DBCB172B
:10047000203A41FA02F043EAE07306E041FA02F35F
:10048000D040C2F12002914008431946704710B590
:10049000002B08DA401C41F1000192185B411A431D
:1004A00001D120F0010010BD2DE9F04D92469B4690
:1004B00011B1B1FA81F202E0B0FA80F22032904636
:1004C000FFF7B4FF04460F4640EA0A0041EA0B0179
:1004D00053465A46084303D120463946BDE8F08DBD
:1004E000114653EA010015D0C8F140025046FFF70B
:1004F000ACFF05460E46504659464246FFF796FF6A
:10050000084301D0012000E00020054346EAE076E0
:100510002C4337430A984FEA4453A0EB08004FEAB4
:10052000D4240A304FF0000244EA47544FEAD7255A
:1005300002D500200146D1E7010510196941DDE926
:10054000084500196941BDE8F04DA0E72DE9F04DDF
:1005500081EA030404F0004B21F0004514464FF0FB
:10056000000A23F0004150EA050220D054EA0102BB
:100570001DD0C5F30A570246C5F31303C1F3130098
:10058000C1F30A5640F4801543F48013A7EB060824
:10059000101BD64608F2FD3873EB050002D308F1B4
:1005A000010801E092185B41B8F1000F03DA002066
:1005B0000146BDE8F08D00204FF4801106468446C8
:1005C0000EE0171B73EB050705D3121B63EB050346
:1005D00006434CEA010C49084FEA300092185B418F
:1005E00050EA0107EDD152EA030012D082EA04007A
:1005F00083EA0501084303D100224FF0004308E0DD
:10060000101BAB4102D20122002302E06FF0010275
:1006100053101AEB06004CEB085110EB0A0041EBAB
:100620000B01BDE8F04DFFF732BF70B521F000437C
:1006300003430CD0C1F30A550024D5EB040564EB49
:100640000403D617AD1AB34102DB0020014670BD8A
:10065000201841EB025170BD0EB5C10F80EAE07069
:100660000844CA07002140F233438DE80E000A46D1
:100670000B46FFF719FF03B000BD000030B500299D
:1006800004DB4FF00044404264EB0101002B04DB2B
:100690004FF00044524264EB0303994208BF90427A
:1006A00030BD0000064C074D06E0E06840F0010355
:1006B00094E8070098471034AC42F6D3FFF73CFDAE
:1006C000F0480008104900082DE9F04D00231A46B3
:1006D0001B1A8A4103DB00200146BDE8F08DC1F3FF
:1006E0000A52C1F3130141F480154FF0000BD107FA
:1006F00002D100186D41521E0027044640F2FF113E
:10070000384601EB620A3E468046024600204FF41E
:100710008011FFF79AFEC2197141BB1846EB010028
:10072000B4EB030C75EB000C04D3E41A65EB000585
:1007300017460E46241908F101006D418046342801
:10074000E3DDF91946EB0600091BA84103D24FF07F
:10075000FF32134601E0002213461BEB070046EB75
:100760000A51BDE8F04DFFF792BE70477047FEE7B3
:10077000F0B54FF480773E0208231022224C402827
:1007800034D013DC2149072801F1040528D007DC07
:10079000042827D0052821D0062800D10F60F0BDFD
:1007A000082821D02028FAD12360F0BD164908314D
:1007B000B0F5806F20D008DCB84219D0B0F5007FCA
:1007C000F3D1086820F0020019E01049091FB04277
:1007D00017D0B0F5003FE8D10A60F0BD01200EE06F
:1007E0000E60F0BD2B60F0BD2A60F0BD2260F0BD50
:1007F000086820F0010002E0086820F004000860AA
:10080000F0BD0B60F0BD00001064004008640040C3
:100810002DE9F04100F06AF8324800F055F931480E
:1008200000250126057045708570C57006714571FB
:100830008571C5710B210172042141720227478124
:1008400000F0D8F8284C202026706670A570A08093
:100850004020E0806020208180206081A581A673F7
:10086000204600F059F827706670A570A020A0807F
:10087000C020E080E020208130026081A581A67345
:10088000204600F049F825706670A5704FF4A0501E
:10089000A0804FF4A150E0804FF4A25020814FF48B
:1008A000B0506081A581A673204600F035F8032082
:1008B00020706670A5704FF4A350A0804FF4A45030
:1008C000E0804FF4A55020814FF4A6506081A581AF
:1008D000A673204600F020F8BDE8F0410121022077
:1008E00000F07CB8340700204007002010B501213B
:1008F0004C06204600F026FC2046BDE810400021B2
:1009000000F020BC202110B102480160704701486E
:10091000001FFAE710640040F0B502780121914011
:100920002D4A89B2136843F0010313602A4C1C342A
:1009300023688B432360284B274D87780C33403541
:100940002E1DA7B91F688F431F60C788B0F80AC063
:1009500047EA0C4790F800C045F83C708788B0F82B
:1009600008C047EA0C4790F800C046F83C7087780A
:10097000012F0ED11F680F431F60436807784FEAAD
:10098000334345F83730836805784FEA334346F8F8
:100990003530114B45781B1D002D1D6806D00D43C9
:1009A0001D600D4B8589143315B104E08D43F7E7C5
:1009B0001D688D431D608589012D02D11D680D4381
:1009C0001D60807B012802D12068084320601068E8
:1009D00020F001001060F0BD00660040044A0029CC
:1009E000116801D0014300E08143116070470000AD
:1009F00014640040324910B5002201230B600B1D26
:100A00001C68E40748D00278012A0A6846D022F020
:100A100080020A604278012A0A6842D022F040022D
:100A20000A608278012A0A683ED022F020020A6019
:100A3000C278012A0A683AD022F010020A600279CC
:100A4000012A0A6836D022F008020A604279012A97
:100A50000A6832D022F004020A608279C4799207CF
:100A600042EA0462047A42EA0442447A408942EA51
:100A70000452401E024312481C30026008680122E2
:100A800020F0010008609002401E0004000CFBD121
:100A90001868C00700D00022104610BD42F0800246
:100AA000B7E742F04002BBE742F02002BFE742F066
:100AB0001002C3E742F00802C7E742F00402CBE7A6
:100AC00000640040704770470021017041708170E0
:100AD000C170017141718171C171032101720221E3
:100AE000417201214181704730B52A4A00211368C3
:100AF0005B0108D41168090101D5012103E01168E7
:100B0000C9003BD50221244A02EB0112136803F00D
:100B100001031360037A83B34468E50045601468F9
:100B20002C43457A2B431C431460837A03F00F0354
:100B30008372194B1B1D03EB01131C6824F00F0477
:100B40001C601C68857A2C431C60C37AC46843EA25
:100B50000423114C083404EB01142360C37B0069A7
:100B600043EA00200C4B0C3303EB011318601068B0
:100B700040F001001060084630BD01E00421FAE7B2
:100B800003885C05046013682343447A234313609D
:100B9000CBE7000008640040806500407047704764
:100BA000704770477047704770477047704770478D
:100BB000704770470249886188690028FCD17047F6
:100BC0000400002010B5012000F07AF820B31A4884
:100BD0000124017819480129214603D000F0C4F905
:100BE00000B323E000F0C0F9B0B9154B1968154AFD
:100BF000002001B910701178491CC9B211704FF46E
:100C0000FA721A60104A114B032906D0052907D041
:100C100003290BD01070187008E010701C7005E0EC
:100C20001470F8E70A4804700A480470BDE81040E0
:100C3000012000F02BB80000160000200008014041
:100C400030000020170000201800002014000020B1
:100C500000000020130000204FF4006000F016B8E0
:100C6000704770477047102000F010B810B5202072
:100C700000F00CF8402000F009F8802000F006F8A1
:100C8000BDE810404FF48070AFF300800149086068
:100C9000704700001404014010B50021084600F020
:100CA000DBF8064801210022016002710C2242712A
:100CB0008171BDE8104000F013B8000088000020EA
:100CC000064A014600201268044B0A4014331B6890
:100CD0000B4202D0002A00D00120704700040140DE
:100CE00030B583791949026853B30B6893430B609D
:100CF0000A1D13680468A343136002790A44136849
:100D0000046823431360114B08331A680468A24334
:100D10001A601A1D14680568AC4314604479102CDD
:100D200005D021440A68006802430A6030BD196892
:100D3000046821431960116800680143116030BDE7
:100D40000079084401689143016030BD000401400E
:100D50007047000004490A6822F010020A600A681D
:100D600002430A60704700000020024004490A68FC
:100D700002F038020A600A6802430A607047000005
:100D800000200240704700002DE9F04701212E4865
:100D900000F0C6F82D4C4FF4017003252080DFF8D9
:100DA000B0A0A5701826E6702146504600F068F8FD
:100DB0004FF481602080A5700427E77021465046DB
:100DC00000F05EF838022080DFF88890A570E670A9
:100DD0002146484600F054F84FF40068A4F800801B
:100DE000A570E7702146484600F04AF8B802208016
:100DF000A570E6702146504600F042F8A4F8008045
:100E0000A570E7702146504600F03AF84CF2F01019
:100E10002080A5701026E6702146504600F030F87C
:100E200013202080A570E6702146484600F028F87F
:100E300001202080A5704820E07021465046BDE882
:100E4000F04700F01DB800000004300082000020D0
:100E500000080140000C014010B58A0721F003048E
:100E60000649130F21440F228C689A4094438C60EA
:100E70008A68984002438A6010BD0000000001406B
:100E8000F0B5CA78002502F00F03D20601D58A78A2
:100E900013430C784FF00F0E0122ECB1D0F8004054
:100EA0000F8802FA05F63740B74211D14FEA850C98
:100EB0000EFA0CF724EA070703FA0CF43C43CF7848
:100EC000282F02D0482F02D002E0466100E00661E0
:100ED0006D1C082DE4D304600C88FF2C1ED94468D7
:100EE0005FF0000606F1080702FA07F50F882F40A9
:100EF000AF420FD14FEA860C0EFA0CF7BC4303FA4F
:100F00000CF73C43CF78282F00D14561CF78482F8C
:100F100000D10561761C082EE4D34460F0BD0000CA
:100F2000F0B5104D6A68440D260184B2C0F3015734
:100F3000B440C0F30343032F05D0C0020AD50320F9
:100F40009840824307E0686822F0706320F0706088
:100F5000686002E0A24342F0706301B123436B601A
:100F6000F0BD0000000001400246002092680A42E5
:100F700000D0012070470AB101617047416170479C
:100F8000FEE7704770477047704710B5002000F0CB
:100F900055FB42F2283000F06FFB012000F060FBAF
:100FA000BDE81040012000F049BBFEE77047F8B5EE
:100FB00000214FF0006000F0ADF825208DF8000012
:100FC00002258DF8015000268DF8026001248DF86D
:100FD0000340684600F056F826208DF800008DF892
:100FE00001508DF802408DF80340684600F04AF841
:100FF00027208DF800008DF801608DF802408DF8F3
:101000000340684600F03EF814208DF800008DF88B
:1010100001608DF802608DF80340684600F032F8F8
:101020001D208DF800008DF801508DF802508DF8CC
:101030000340684600F026F81E208DF800008DF869
:1010400001508DF802508DF80340684600F01AF800
:1010500006208DF800008DF801608DF802608DF893
:101060000340684600F00EF84FF4C06000F048F806
:10107000F8BD000002490148086070470400FA0505
:101080000CED00E0F0B50F22C478017801234FF099
:10109000E0253CB3184C2468467804F4E064C4F5B9
:1010A000E064240AC4F10407E2408478BE4014409E
:1010B000344322018C07E70E21F003040F49BA40A4
:1010C00066183168FF24BC40A143224011433160BF
:1010D000007800F01F018B40400905EB8000C0F84C
:1010E0000031F0BD01F01F008340480905EB80008E
:1010F000C0F88031F0BD00000CED00E000E400E03D
:101100000249084302490860704700000000FA05E0
:101110000CED00E0024A11400143024801607047B3
:1011200080FFFF1F08ED00E070477047044A002968
:10113000D16901D0014300E08143D16170470000D3
:1011400000100240044A0029116901D0014300E067
:10115000814311617047000000100240044A0029D9
:10116000916901D0014300E0814391617047000023
:101170000010024010B500F053F84FF480342046C0
:1011800000F0DEF800F026F9234901280870234911
:1011900019D00020087001214FF00610FFF7C6FF9C
:1011A00001218803FFF7DAFF012140F67D00FFF7F8
:1011B000D5FF01214802FFF7D1FF0121BDE8104012
:1011C0004806FFF7B3BF012008701020FFF7C2FDEB
:1011D0000220FFF7CBFD002000F0A8F8002000F06F
:1011E000D5F84FF4A06000F0C7F84FF4E0112046A6
:1011F00000F0DCF8012000F0D3F8392000F076F898
:101200000028FAD0022000F0DBF800BF00F086F8DA
:101210000828FBD1BFE700009000002081000020DB
:101220000B48016841F0010101604168094A114021
:1012300041600168084A11400160016821F4802181
:101240000160416821F4FE01416000218160704726
:10125000001002400000FFF8FFFFF6FE30B51F4906
:101260004A6812F00C031E4A03D0042B01D0082B4D
:1012700022D002604A680F231A4C03EA1212A35CC0
:101280000268DA4042604B68072505EA1323E35CF5
:1012900022FA03F383604B6805EAD323E35C22FA66
:1012A00003F2C2604968032303EA9131231F595CAA
:1012B000B2FBF1F1016130BD4A68022302F4701201
:1012C00003EB92424B6813F4803F02D04B689B03C0
:1012D00001D5054B00E0024B5A43CAE7001002401B
:1012E00000127A004948000800093D00024600202B
:1012F00053090949012B0BD0022B0BD0D1F8241034
:1013000002F01F02012393400B4200D001207047DE
:101310000968F5E7096AF3E70010024002484068EF
:1013200000F00C007047000000100240034A5168B2
:1013300021F0F001014351607047000000100240AD
:101340000B490A6822F480320A600A6822F480227B
:101350000A60B0F5803F07D0B0F5802F03D1086850
:1013600040F4A02008607047086840F48030F9E736
:101370000010024070470000034A516821F4E06108
:1013800001435160704700000010024003494A6861
:1013900022F4605242EAC0004860704700100240E8
:1013A000014908667047000000004242034A536842
:1013B000084323F47C131843506070470010024028
:1013C000034A516821F00301014351607047000056
:1013D0000010024030B50B4C40F2FF153120FFF7F2
:1013E00085FF20706068401C6060207810B96068DC
:1013F000A842F3D13120FFF779FF002800D0012067
:1014000030BD0000D400002070477047704770471F
:1014100070477047704700003EB5154C00212046CC
:1014200000F055F900220121204600F05BF94FF44D
:10143000B4700021ADF80400ADF80010ADF806104E
:10144000ADF802106946204600F054F9012120460B
:1014500000F03AF90121204600F02BF90122114653
:10146000204600F03FF90121204600F030F93EBD52
:10147000000400403EB5164C0021204600F027F93C
:1014800000220121204600F02DF94FF43470ADF810
:1014900004004CF25030ADF800000021ADF8061009
:1014A000ADF802106946204600F024F901212046DB
:1014B00000F00AF90121204600F0FBF80122114654
:1014C000204600F00FF90121204600F000F93EBD52
:1014D0000008004030B54248016811B10168491E5A
:1014E000016040480078012805D13F48016811B1EA
:1014F0000168491E01603D48016811B10168491E3B
:1015000001603B48016811B10168491E016039481A
:10151000016811B10168491E016037480121027854
:101520000020012A14D1354A354C1378012B06D0FE
:10153000344B1D8855B11A88521E1A8008E0324B70
:101540001D88002DF7D12070107001E021701170FE
:101550002E4A1278012A17D12D4A2E4B1478012CCD
:1015600006D02D4804686CB10168491E01600BE08B
:101570002A490C681CB10868401E086004E0187015
:10158000107001E0197011702548016811B10168EF
:10159000491E01602348016811B10168491E0160BC
:1015A0002148016811B10168491E01601F480168A6
:1015B00011B10168491E01601D48016811B101683F
:1015C000491E01601B48016811B10168491E016094
:1015D00019480168002902D00168491E016030BD28
:1015E0001C00002016000020280000202C000020F5
:1015F00030000020340000200A00002009000020F4
:10160000070000204A0000201A00002010000020DF
:101610000F0000200D0000202400002020000020EA
:10162000380000204C0000203C000020A4000020D6
:10163000A8000020AC000020B00000204FF0E02106
:10164000012804D0801C06D00020886170470869FA
:1016500040F0010002E0086920F0010008617047D5
:101660004FF0E0210028086902D040F0020001E0BC
:1016700020F00200086170474FF0E0214861704798
:1016800070477047704770477047704701210148A5
:1016900000F01AB8000400400121014800F014B81D
:1016A00000080040704770477047704770477047A8
:1016B00070470029018802D041F0800102E040F229
:1016C0007F32114001807047C94301827047002971
:1016D000018802D041F0010102E040F2FE321140E7
:1016E00001807047002A828901D00A4300E08A43C2
:1016F00082817047028802F08F020280CA884B887C
:101700001A4303881A4302808A8882850A880285E0
:1017100001228282044A904202D0044A904201D1BE
:10172000097A018670470000002C01400034014016
:101730007047704770B50F4D40F22554214628463A
:1017400000F0EFF880B1284600F068F90B4A0A492A
:101750005368C8545068401C50605068A0F5A061A0
:10176000DC3901D10020506021462846BDE8704098
:1017700000F072B80038014060070020C40000206B
:1017800070B50F4D40F225542146284600F0C9F8A7
:1017900080B1284600F042F90B4A0A499368C854C0
:1017A0009068401C90609068A0F5A061DC3901D180
:1017B0000020906021462846BDE8704000F04CB8FB
:1017C000004400403C0D0020C40000202DE9F04101
:1017D0001B4D40F225542146284600F0A2F840B3A4
:1017E0001848007828BB284600F018F9174A014627
:1017F0001548D368C154D16840F2DC53465C0021DF
:10180000032E0BD1124F01263E70D668761CD6608F
:10181000D6689E4200D3D160D66881550D4E41F204
:1018200088303060D068401CD060D068984200D3C7
:10183000D16021462846BDE8F04100F00DB8000017
:10184000004800401600002018130020C4000020AB
:10185000190000203C0000200A0A01219140C943E0
:10186000018070470029818902D041F4005101E0D4
:1018700021F40051818170472DE9F047214C4FF44C
:10188000964000252060A580E58025811E4FA5811A
:101890000C2666812146384600F07AF840F2255938
:1018A00001224946384600F05BF801213846FFF72F
:1018B000D9FF4FF416572760A580E5802581DFF812
:1018C0004C80A58166812146404600F061F80122E6
:1018D0004946404600F044F801214046FFF7C2FF68
:1018E0002760A580E5802581A58166812146084C79
:1018F000204600F04DF849462046BDE8F047012259
:1019000000F02EB85007002000380140004400408D
:10191000004800400246002012880A4200D0012000
:10192000704730B501F01F0201240025C1F34213B6
:1019300004FA02F2012B0FD0022B0FD0838A4FEA58
:1019400011210088134204FA01F400EA040001D0D6
:1019500000B10125284630BD8389F0E7038AEEE710
:1019600010B5C1F3421301F01F040121A140012B66
:1019700007D0022B07D01430002A026805D00A4392
:1019800004E00C30F8E71030F6E78A43026010BD3F
:1019900030B50446008A85B00D464CF6FF7108400C
:1019A000E98801432182A1894EF6F3100140A888FD
:1019B0002A8910436A890A431043A081A08A4FF6FE
:1019C000FF410840A9890143A1826846FFF746FC10
:1019D0001148844201D1039800E00298642200EB90
:1019E000C00101EB001029686FF018058900B0FBF9
:1019F000F1F0B0FBF2F109010B096B4300EB83003E
:101A0000322303EB0010B0FBF2F000F00F000843AC
:101A1000208105B030BD0000003801408088C0F34F
:101A200008007047C1F30801818070477047704714
:101A30002DE9F04F85B000240094019402940394A2
:101A400069462046049402F0C7F893499DF80CC0FB
:101A500081F800C09DF80D204A709DF80E308B7003
:101A60009DF80F00C8709DF8108081F804809DF8E3
:101A700011704F719DF812508D719DF81350CD71FA
:101A8000009E0125072E5AD008DC8448844A15D2CE
:101A9000DFE806F0FB12153537393B008149A12EEE
:101AA0007ED004DC082E4CD0A02E07D151E0A32E0E
:101AB00077D0B02EF9D146E080F800C0E5E07A4852
:101AC0007B4E4FF4807180F800C07848BCF1010F64
:101AD00008D0BCF1020F07D0BCF1030F0AD0BCF153
:101AE000040FEBD1012201E015700022FFF743FA49
:101AF0003470CAE0357040F2DC506E49C4E06E4884
:101B0000DAE76E48D8E76E48D6E76E496E4E6F4FFB
:101B100081F800C0BCF1000F02D035703C70B4E019
:101B20006B493C700C706B490C706B490C70007801
:101B30000A28F3D0157001F0F9FD3470EEE767481C
:101B4000BAE76748B8E7BCF1F10F01D1FFF792FAA5
:101B50009BE044EA03231843624A634E634FDFF875
:101B60009081644BDFF890A1DFF890B1A0F57F4C35
:101B70001080BCF1FF0C15D1197881BB60491D7034
:101B80000C80AAF800408BF80040042100F01CFEF5
:101B900034805C483C80A8F800400F21017074E05C
:101BA0003FE040E01C700B78A146CBB1012B04D084
:101BB000022B07D0032B68D10BE03188491C318000
:101BC00001210AE0B8F80010491CA8F80010022111
:101BD00003E03988491C3980032100F0F5FD54E009
:101BE000BAF800404749641CAAF800400C7804B1D8
:101BF0000B709BF800105C4621BB0021934600F05F
:101C0000E3FD2570AAF8009040F6FF71ABF80010D4
:101C1000A6F800903A48A7F80090A8F80090018034
:101C200033E00A7031E03849BCF1010F81F800C09F
:101C300009D0BCF1020F0DD0BCF1030F12D0BCF1E2
:101C4000040F14D021E0314805703148027031484A
:101C500003701AE03049012A0D7030490A7014D11E
:101C60002F490BE02F4805702F4802700DE02F49D7
:101C7000012A0D702E490A7007D12E4943EA00202F
:101C800040EA084040EA076008600220FEF770FD65
:101C900005B0BDE8F08F00007900002005000020AD
:101CA000110000206E000020040000200008014008
:101CB000450000204C000020410000204200002090
:101CC0004300002044000020470000200C000020BA
:101CD0000E0000200D000020100000204800002011
:101CE000150000206A00002072000020740000200F
:101CF00076000020C4000020700000206F0000204B
:101D00006C00002078000020BC000020960000201D
:101D10009A00002098000020BD000020BF00002095
:101D2000B8000020970000209B000020BE0000208B
:101D3000C0000020B4000020FEE770470FB4084B3D
:101D400010B504A902AA039800F094F8044602A969
:101D5000002000F052FA204610BC5DF814FB000091
:101D6000FB210008490050EAC12018BF04204A0D99
:101D700018BF40F0010040F2FF72B2EB515F08BFA4
:101D800040F00200012808BF052070472DE9F0410E
:101D90004F1E00EBC7010446D1E9000115461E465F
:101DA00037F006020DD02A463346FEF776FA7F1E3C
:101DB00004EBC703D3E90023FEF7C8F937F00602A6
:101DC000F1D1022F25D0042F13D0062F18BFBDE864
:101DD000F0812A463346FEF760FAD4E90A23FEF77B
:101DE000B5F92A463346FEF758FAD4E90823FEF738
:101DF000ADF92A463346FEF750FAD4E90623FEF73A
:101E0000A5F92A463346FEF748FAD4E90423FEF73B
:101E10009DF92A463346FEF740FAD4E90223FEF73D
:101E200095F92A463346FEF738FAD4E90023BDE88F
:101E3000F041FEF78BB90000024A00201107FEF7BF
:101E4000F4BB000001FDFFFF02E008C8121F08C13B
:101E5000002AFAD170477047002001E001C1121F2B
:101E6000002AFBD17047000001490860704700005C
:101E7000DC0000202DE9FF4F8BB00F460546002601
:101E800086E125287AD100246D1CC549A146A346C8
:101E900001222B78203B02FA03F0084202D00443CF
:101EA0006D1CF6E728782A2810D06FF02F022878CA
:101EB000A0F13001092915D809EB890102EB410194
:101EC00044F0020400EB01096D1CF0E757F8049B95
:101ED000B9F1000F03DA44F40054C9F1000944F0E9
:101EE00002046D1C28782E2817D115F8010F44F034
:101EF00004042A280ED06FF02F022878A0F13001B8
:101F000009290AD80BEB8B0102EB410100EB010B15
:101F10006D1CF2E757F804BB6D1C28786C280FD0B5
:101F200006DC4C2817D068280DD06A2814D104E0AC
:101F3000742810D07A280FD10DE044F400140AE080
:101F400044F4801401E044F440146978814202D1E1
:101F50006D1C04F580146D1C2878692868D007DC96
:101F6000002872D0632824D0642807D160E005E0FF
:101F70006E2808D0732826D0752867D0DDE90D12A9
:101F80009047761C03E1C4F30250022806D00328D0
:101F90000AD0042801CF0AD00660F8E001CF4FEA4A
:101FA000E671C0E90061F2E001CF0680EFE0067063
:101FB000EDE017F8040B8DF8000000208DF801000B
:101FC000EA46012003E057F804AB4FF0FF30610709
:101FD0004FF0000102D40DE008F101018846594597
:101FE0000FDA8045F8DB1AF808100029F4D108E070
:101FF00008F1010188468142FADB1AF8081000292D
:10200000F6D1DDE90D23A9EB08008146214600F059
:10201000DCF8304400EB080604E0DDE90D121AF8A4
:10202000010B9047B8F10108F7D221464846A9E0D4
:102030000020C4F302524FF00A0A0A90022A06D086
:1020400001CFC117032A08D009E0A5E023E0FF1D56
:1020500027F00707F7E8020105E000B2C117042ADC
:1020600001D140B2C117002906DA0023D0EB0300EA
:1020700063EB01012D2202E0220504D52B228DF80D
:102080002420012203E0E2071CD02022F7E70DF113
:102090002008089220E00020C4F302524FF00A0A00
:1020A0000A90022A04D001CF0021032A06D006E0BC
:1020B000FF1D27F00707F7E8020103E080B2042ABA
:1020C00000D1C0B20022E2E752460A9BFEF77DF93A
:1020D00002F1300208F8012D50EA0102F4D1ADEB13
:1020E000080000F1200A600702D524F4803401E0E2
:1020F0004FF0010BD34502DDABEB0A0000E00020FE
:10210000834600EB0A0108980144A9EB01000A90FC
:10211000E00306D4DDE90D2321460A9800F055F8C6
:102120000644002008E009A911F80900DDE90D12B4
:102130009047761C09F10100089981468842F2DB3C
:10214000E0030CD5DDE90D2321460A9800F03DF8A7
:10215000064404E0DDE90D1230209047761CBBF107
:102160000001ABF1010BF5DC05E0DDE90D1218F81B
:10217000010B9047761CBAF10001AAF1010AF4DCC8
:102180000A982146DDE90D2300F00CF806446D1C89
:10219000287800287FF475AE0FB03046BDE8F08F88
:1021A000092801002DE9F041044600251E46174686
:1021B000880405D406E039462020B04705F1010522
:1021C000641EF8D52846BDE8F0812DE9F0410446AB
:1021D00000251E469046C80301D5302700E0202781
:1021E000880405D506E041463846B04705F10105AB
:1021F000641EF8D52846BDE8F0810A68531C0B60C0
:102200001070704770B51C4C00224FF4807120464E
:10221000FEF7B1FE002280212046FEF7ACFE002230
:1022200040212046FEF7A7FE002220212046FEF78F
:10223000A2FE124D002202212846FEF79CFE00223B
:1022400010212846FEF797FE00224FF40041204659
:10225000FEF791FE00224FF480412046FEF78BFEF0
:10226000002201212846FEF786FE2046BDE8704088
:1022700000221021FEF77FBE00080140000C014043
:1022800070B51D4C012208212046FEF774FE012284
:1022900011022046FEF76FFE012280212046FEF744
:1022A0006AFE012240212046FEF765FE0122202120
:1022B0002046FEF760FE114D012202212846FEF75E
:1022C0005AFE012210212846FEF755FE0122D103B5
:1022D0002046FEF750FE012291032046FEF74BFEFA
:1022E000012211462846FEF746FE2046BDE8704012
:1022F00001221021FEF73FBE00080140000C014002
:1023000010B5104C012208212046FEF734FE0122B0
:1023100080212046FEF72FFE012240212046FEF7B5
:102320002AFE012220212046FEF725FE0122D103AC
:102330002046FEF720FE20460122BDE81040102175
:10234000FEF719BE000801402DE9F041174C074681
:102350004FF48075002229462046FEF70CFE6615D4
:10236000002231462046FEF706FE380901F05AFAEF
:1023700001F01AFC40F2CF70401EFDD107F00F00B3
:1023800001F050FA01F010FC40F2CE721046401EEF
:10239000FDD1521EFDD131462046FEF7ECFD294607
:1023A0002046BDE8F0410022FEF7E5BD000C0140EB
:1023B0002DE9F0410122174C0746550229462046D7
:1023C000FEF7D9FDA615002231462046FEF7D3FDC3
:1023D000380901F027FA01F0E7FB40F2CF70401E08
:1023E000FDD107F00F0001F01DFA01F0DDFB40F216
:1023F000CE721046401EFDD1521EFDD12946204608
:10240000FEF7B9FD31462046BDE8F0410022FEF757
:10241000B2BD0000000C014070B500244FF4967569
:10242000FFF72EFF2846FEF7C5FBFFF7EBFE284619
:10243000FEF7C0FB641CE4B2022CF1D970BD0000B1
:10244000012181400348406A814301D00020704748
:102450000120704794000020012181400348006A58
:10246000814301D000207047012070479400002074
:10247000064810B5027806484FF40041012A00D002
:102480000022FEF778FD012010BD0000430000206F
:1024900000080140064810B5027806484FF4804114
:1024A000012A00D00022FEF766FD012010BD0000C9
:1024B0004100002000080140064810B50178064898
:1024C000012905D000220121FEF755FD012010BD94
:1024D0000122F8E748000020000C014070B51B4CB9
:1024E000207801282FD11A4D012210212846FEF70D
:1024F00042FD3220FEF75EFB002210212846FEF747
:102500003AFD3220FEF756FB012210212846FEF745
:1025100032FD3220FEF74EFB002210212846FEF746
:102520002AFD3220FEF746FB012210212846FEF745
:1025300022FD3220FEF73EFB002210212846FEF746
:102540001AFD00202070012070BD00001100002045
:102550000008014070B524492448254C0B7800221E
:102560002BB30A70017809BB224D0123037029782F
:102570000220214A012909D0022904D0032905D0CB
:10258000042903D003E013702B7000E010700122C7
:1025900010212046FEF7EFFC3220FEF70BFB01F086
:1025A00001F9002210212046FEF7E5FC00E0027050
:1025B00012480078012814D1114D286888B91149B2
:1025C0000878C04310F0FF0008704FF4807101D00C
:1025D000012200E000222046FEF7CDFC40F2DC5054
:1025E0002860012070BD0000000000204000002095
:1025F00000080140040000200100002045000020E8
:102600004C0000204600002010B504463220FEF7A2
:10261000D1FA01222AA1104600F0BCFC152C14D2DC
:10262000DFE804F00B0E15181B1E2124272A2D307D
:102630003336393C3F4245484B00012223A101E09B
:10264000012225A1022000F0A5FC012010BD0122DD
:1026500024A1F7E7012226A1F4E7012227A1F1E74F
:10266000012229A1EEE701222AA1EBE701222CA1F8
:10267000E8E701222DA1E5E701222FA1E2E70122EF
:1026800030A1DFE7012232A1DCE7012233A1D9E743
:10269000012235A1D6E7012236A1D3E7012238A1D4
:1026A000D0E7012239A1CDE701223BA1CAE70122EF
:1026B0003CA1C7E701223EA1C4E701223FA1C1E737
:1026C000414343204375743A000000004E6F20419F
:1026D0006C61726D000000005370656564202020FD
:1026E0000000000041434320427970730000000065
:1026F00053656E736F722020000000004779726F7F
:1027000073636F70000000002020484D4920202096
:102710000000000020205254432020200000000030
:1027200042726B2043796C6E0000000041636320AD
:1027300043796C6E00000000202054504D5320203F
:1027400000000000204E4F2053494D2000000000A3
:102750004C6F772042617474000000004E6F20546B
:10276000726970200000000020204F424420202089
:1027700000000000494F5420436F6E6E00000000BF
:10278000536C656570202020000000004F76725366
:1027900070656564000000004E6F4E657477726B63
:1027A0000000000020205246494420200000000084
:1027B000204C656464617220000000002020494FB5
:1027C000542020200000000000B58BB0052923D242
:1027D000DFE801F0030B0D121400012228A11046BE
:1027E00000F0D8FB012226A113E028A100E02AA1D5
:1027F00005A8FFF7A3FA0FE02AA1F9E72CA1684684
:10280000FFF79CFA01226946104600F0C3FB012243
:102810002AA1022000F0BEFB2B48007868B32B49A8
:102820000A7882420ED0087029A16846FFF786FA1E
:1028300001226946104600F0ADFB012205A90220E5
:1028400000F0A8FB2448254902880888824214D059
:10285000234B00201870234B1880234B1880234BE8
:102860001880234B18800A8022A16846FFF766FA79
:1028700005226946012000F08DFB0BB0012000BD50
:1028800020202020202020200000000053616D65C2
:1028900020646972000000004F6E636F6D696E679F
:1028A0000000000020537461746963200000000080
:1028B0005370656564206973000000003C43415318
:1028C00020416374000000006E00002078000020AA
:1028D00044203A20000000006A0000206C00002024
:1028E0006F0000207200002074000020760000209D
:1028F00070000020253033646D00000010B50446E0
:102900003220FEF757F901222AA1104600F042FBBF
:10291000152C14D2DFE804F00B0E15181B1E212411
:10292000272A2D303336393C3F4245484B0001229F
:1029300023A101E0012225A1022000F02BFB0120B0
:1029400010BD012224A1F7E7012226A1F4E701220C
:1029500027A1F1E7012229A1EEE701222AA1EBE755
:1029600001222CA1E8E701222DA1E5E701222FA1F8
:10297000E2E7012230A1DFE7012232A1DCE70122F8
:1029800033A1D9E7012235A1D6E7012236A1D3E749
:10299000012238A1D0E7012239A1CDE701223BA1D4
:1029A000CAE701223CA1C7E701223EA1C4E70122F8
:1029B0003FA1C1E74C696D703A2020200000000063
:1029C0004E6F20416C61726D0000000053706565B0
:1029D00064202020000000004143432042797073AE
:1029E0000000000053656E736F722020000000002D
:1029F0004779726F73636F70000000002020484DAC
:102A00004920202000000000202052544320202094
:102A10000000000042726B2043796C6E00000000E1
:102A20004163632043796C6E000000002020545005
:102A30004D53202000000000204E4F2053494D20D0
:102A4000000000004C6F77204261747400000000A9
:102A50004E6F2054726970200000000020204F4209
:102A60004420202000000000494F5420436F6E6E28
:102A700000000000536C65657020202000000000FD
:102A80004F76725370656564000000004E6F4E65AE
:102A90007477726B000000002020524649442020C9
:102AA00000000000204C656464617220000000009A
:102AB0002020494F542020200000000010B520287D
:102AC00075D2DFE800F074101C242C343C85444C93
:102AD000545C646C757D8D959DA5ADB5BDC5CDD59A
:102AE000DDE5F1F9EEED012283A1104600F052FA86
:102AF000012283A1022000F04DFA012010BD012225
:102B000082A1104600F046FA012283A1F2E70122D9
:102B100084A1104600F03EFA012285A1EAE70122D5
:102B200086A1104600F036FA012287A1E2E70122D1
:102B300088A1104600F02EFA012289A1DAE70122CD
:102B40008AA1104600F026FA01228BA1D2E70122C9
:102B50008CA1104600F01EFA01228DA1CAE70122C5
:102B60008EA1104600F016FA01228FA1C2E70122C1
:102B700090A1104600F00EFA012291A1BAE70122BD
:102B800092A1104600F006FA012293A1B2E70122B9
:102B900094A1104600F0FEF9012295A1AAE70122B6
:102BA00096A1104600F0F6F9012297A1A2E79BE05A
:102BB000012298A1104600F0EDF9012298A199E7B1
:102BC000012294A1104600F0E5F9012297A191E7B6
:102BD000012299A1104600F0DDF9012299A189E7AF
:102BE00001229BA1104600F0D5F901229BA181E7AB
:102BF000012297A1104600F0CDF901229AA179E7B0
:102C000001229CA1104600F0C5F901229CA171E7A8
:102C100001229EA1104600F0BDF901229EA169E7A4
:102C20000122A0A1104600F0B5F90122A0A161E7A0
:102C30000122A2A1104600F0ADF9012299A159E7A5
:102C40000122A1A1104600F0A5F90122A1A151E79E
:102C50000122A3A1104600F09DF90122A3A149E79A
:102C60000122A5A1104600F095F90122A5A141E796
:102C70000122A7A1104600F08DF90122A7A139E792
:102C80000122A9A1104600F085F90122A9A131E78E
:102C90000122ABA1104600F07DF90122ABA129E78A
:102CA0001AE011E008E0FFE7012224A1104600F03D
:102CB00071F90122A8A11DE7012220A1104600F010
:102CC00069F90122A7A115E701221CA1104600F015
:102CD00061F90122A6A10DE7012218A1104600F01A
:102CE00059F90122A5A105E70122A7A1104600F08C
:102CF00051F90122A4A1FDE657454C434F4D450033
:102D000036746853656E736500000000484D4920B5
:102D10004657202000000000563A20322E302E3434
:102D2000000000004C4F4144494E47200000000085
:102D300044454641554C5453000000002020544562
:102D4000535420200000000020204D4F44452020F7
:102D500000000000456E6A6F79202020000000000E
:102D600044726976696E6720000000004E4F20456E
:102D700052524F5200000000414C4C204F4B20203B
:102D8000000000004841525348202020000000006D
:102D9000414343454C524E2000000000205355440F
:102DA00044454E200000000020204252414B452067
:102DB0000000000020475245454E20200000000042
:102DC00020205A4F4E452020000000005441494C1D
:102DD00047415445000000004E6F74696663276EDA
:102DE0000000000020535045454420200000000012
:102DF0002042554D502020200000000020204C4152
:102E00004E45202000000000204348414E47452009
:102E100000000000204252414B45202000000000ED
:102E200044495354414E434500000000202054546F
:102E3000432020200000000020534C454550202016
:102E4000000000005741524E494E4720000000004C
:102E50002043525549534520000000002020204FB8
:102E60004E202020000000002020204F4646202039
:102E7000000000004E455720545249500000000009
:102E8000205354415254454400000000434F4E54D7
:102E9000494E554500000000202054524950202042
:102EA0000000000052462043415244200000000030
:102EB00020414253454E542000000000494E5641E7
:102EC0004C49442000000000204E4F20494F542020
:102ED00000000000524553504F4E53450000000083
:102EE0004177616974696E6700000000417574681C
:102EF000727A276E000000004E657720436172648D
:102F000000000000466F756E642020200000000065
:102F10005452495020454E4400000000524551553E
:102F2000495245440000000054524950204E4F542D
:102F3000000000005354415254454420000000005A
:102F40005348555454494E470000000020444F5701
:102F50004E2E2E20000000002044454255472031CF
:102F60000000000020444542554720320000000088
:102F7000204445425547203300000000204445428C
:102F80005547203400000000202020202020202051
:102F90000000000070B5054600200C46034642B113
:102FA00002E05B1CDBB2491C0E78002EF9D1082B25
:102FB00001D9002070BD012D02D0022D02D003E006
:102FC0007F3200E0BF32D0B2FFF7BEF903E000BFAE
:102FD000FFF7EEF9641C20780028F9D1012070BDBC
:102FE0002DE9F047DFF8B4900446DFF8B4A099F873
:102FF00000002C4D2C4EDFF8B4800F4610B1012894
:103000000FD048E000F092FBAAF800700120307069
:1030100000212970264989F80000087025490870A8
:1030200007E029783078814235D0012801D0C0B13D
:1030300031E0AAF8007030782870012C2BD0022CD7
:1030400002D0032C03D026E00022402101E001221F
:10305000202144464046FDF78EFF012210212046E4
:1030600017E015490A802870012C04D0022C05D0E5
:10307000032C06D00AE00122802104E00122402135
:1030800001E0002220214046FDF775FF00221021BB
:103090004046FDF770FF0120BDE8F08706000020E4
:1030A0001A0000200800002007000020000801404E
:1030B000090000200A0000204A000020064810B540
:1030C00001780648012905D000220221FDF753FFAF
:1030D000012010BD0122F8E742000020000C014051
:1030E0002DE9F04F00259DB08E491B95A9460D7026
:1030F0008D494FF080562F462C46AB460D7007E1A8
:103100008A4A0020DFF828E29246106020E0DFF8CB
:103110002482DAF800C0521C40F2DC5308F80C108C
:103120000CF1010C8449CAF800C0CEF80020D1F897
:1031300000809A4208F10108C1F8008001D3CEF85E
:1031400000009C4501D3CAF80000984500D30860F0
:103150007A49DEF800207346895C0029D7D1511CDA
:10316000DFF8D481196040F2DC52D8F800C09142F7
:103170000CF1010CC8F800C001D3CEF80000944552
:1031800001D3C8F800006B4ADAF800000021D046ED
:1031900011546BA102A8FEF7D1FDD8F800300E2B18
:1031A00006D068A000F0BEFB00201DB0BDE8F08F87
:1031B00000210DF1080A00BF1AF80120A2F1300029
:1031C000092801D8C0B201E0373AD0B2621E012A04
:1031D0000DD8544A022C92F800C04CEA000C82F838
:1031E00000C02ED04FEA0C1C82F800C019E0E21E8D
:1031F000072A16D8A0FB06284FF0000C0CFB068C03
:1032000000FB07CC3609154346EA07764CEA090964
:103210003F094BEA00025FEAC47C50D01207120E4D
:103220009346A4F10B02022A0BD23F4A0C2C92F8CF
:1032300000C04CEA000C82F800C002D04FEA0C102B
:103240001070641C491CC9B2E4B29942B4D3354928
:103250001B98097848401B90334801781B9881429D
:1032600056D1DFF8ECA03B494FF001088AF8008006
:10327000D1E90002684082EA0902104327D03648AB
:103280000178491CC9B20170052923D302A800F0B6
:1032900049FB3048CDE90059D0E900232FA1394836
:1032A000FEF74CFD374800F03DFB37A000F03AFB3D
:1032B00028490020C1E900593A4908700DE0DDF8BD
:1032C0006CC08CEA020C0022CDF86CC0A8E7224941
:1032D0000020087033480078D0B93249284681F878
:1032E000008000F003FC024600239AF8000000F082
:1032F000BBFADFF8B480012210214046FDF73BFE07
:103300003220FDF757FC002210214046FDF733FE26
:10331000264802680849086882427FF4F1AE01201D
:1033200043E700005C0000205D000020500000200A
:1033300054000020440100205800002018130020F1
:10334000257300000D0A2072657475726E0000000E
:103350005F000020600000206800002009205072FB
:1033600065762056616C3A20256C6C752C2043756F
:103370007272656E742056616C3A20256C6C7520F3
:103380000D0A0000E00000200D0A204E6577205253
:1033900046494420636172642064657465637465A2
:1033A000640D0A005E00002000080140D0000020EB
:1033B0002DE9F05FDFF8D4810225012498F8001090
:1033C0004FF0000901290ED040460326406A4FF411
:1033D0007A7B022923D0042740F6B83A032952D039
:1033E000042907D16EE098F80200012803D098F86C
:1033F000050088B1C6E088F8029098F8040001281A
:1034000001D038B1BEE088F8054098F80600FFF713
:1034100055FBB7E088F8059088F80050B2E030B36B
:1034200088F80A4088F80D90D8F8180040B1A9E053
:10343000401CC0B288F80900152801D388F809900B
:1034400098F80900FEF7FCFF012898F80900EFD171
:10345000FFF7DAF898F80900401CC0B288F80900B4
:10346000152801D388F80990C8F818B08AE098F8B0
:103470000A00012804D188F80A900020FFF71EFBFB
:1034800088F800607EE098F80300012803D0D8F89F
:10349000100058B157E088F8039088F80B4098F86E
:1034A0000700FFF70BFBC8F810A06BE098F80B00C3
:1034B000012804D188F80B900020FFF7FFFA88F864
:1034C00000705FE0314998F80120096A012A06D0AE
:1034D000022A3BD0032A3CD0042A53D13CE039B322
:1034E00088F80C4088F80D90D8F8140050B12AE004
:1034F00098F80800401CC0B288F80800152801D3CD
:1035000088F8089098F80800FEF7A6FF0128EFD188
:10351000454698F80800FFF7F1F9287A401CC0B238
:103520002872152801D385F80890C5F814B00AE070
:1035300098F80C00012804D188F80C900020FFF7BF
:10354000BDFA88F8015088F800401BE088F8016057
:1035500018E088F8017015E0084311D198F80D00C3
:1035600018B1D8F81C0040B10CE088F80D400620D6
:10357000FFF7A4FAC8F81CA004E00020FFF79EFAA9
:1035800088F801400120BDE8F09F00009400002071
:1035900010B500F055F81420FDF70CFB274C002265
:1035A0004FF480712046FDF7E6FC002261152046AD
:1035B000FDF7E1FC0120FDF7FDFA032000F032F9F0
:1035C00000F0F2FA1420FDF7F5FA032000F02AF9D2
:1035D00000F0EAFA1420FDF7EDFA032000F022F9DA
:1035E00000F0E2FA1420FDF7E5FA022000F01AF9E3
:1035F00000F0DAFA1420FDF7DDFA022000F012F9EB
:1036000000F0D2FA1420FDF7D5FA082000F00AF9EC
:1036100000F0CAFA1420FDF7CDFAC020FEF794FEA0
:103620000820FEF791FE0120FEF78EFE0620FEF731
:103630008BFE0C20FEF788FE012010BD000C01401F
:1036400070B50C4C4FF4704003252080A5704820C5
:10365000094EE07021463046FDF712FC4FF44870E9
:103660002080A5701420E07021463046FDF708FC4C
:10367000012070BD82000020000C014070B5184888
:10368000002401681748254611B10570012070BD5E
:10369000154E357001780029F8D1012101701348C9
:1036A000017013A000F03EF9FEF718FF0022134648
:1036B000307800F0D9F8174805601748184A40F2EA
:1036C000DC510560154805600020C2E90000154A7C
:1036D000154815550555641C8C42FAD3D6E70000F1
:1036E0003C000020C10000205F00002011000020ED
:1036F0000D0A20524649442043617264206162737E
:10370000656E742C2043414E206D73672073656E87
:10371000740D0A00D0000020540000205800002042
:1037200060000020181300204401002010B50E4C4A
:10373000002280212046FDF71EFC00224021204669
:10374000FDF719FC002220212046FDF714FC002281
:1037500001210648FDF70FFC002210212046FDF74D
:103760000AFC012010BD000000080140000C0140CF
:103770000B4910B540F222720A6000224A600A72B8
:1037800008238B724A72C8720A734A738A73CA73A7
:103790000A744A748A740846FDF7A6F9012010BD20
:1037A000200700200C4810B540F221710160002173
:1037B0004160017208228272084A41721278C27214
:1037C000017341738173C173017441748174FDF796
:1037D0008BF9012010BD000020070020010000200F
:1037E00010B50E4C2068B8B90D484FF4E4610822BA
:1037F0000160002141600172827241722222C27214
:10380000017341738173C173017441748174FDF755
:103810006BF94FF47A702060012010BD3800002051
:103820002007002070B50F4D0446C0F3C0024FF4CE
:1038300000412846FDF79FFBC4F380024FF480410E
:103840002846FDF798FBC4F3400269142846FDF7AB
:1038500092FB04F00102A9142846BDE87040FDF770
:103860008ABB0000000C01407FB51E4C40F2257160
:1038700008252160002161602172A5726172E072E9
:10388000100A227340EA03606073100C40EA0340A0
:10389000A073100E40EA0320E0732374180A6074CA
:1038A000A1742046FDF720F9E07AC8B10EA210A15C
:1038B0001348FEF743FA124800F034F8A07B637C0B
:1038C000227CE17B8DE80F00637B227B0DA10C48FD
:1038D000FEF734FA0A4800F025F804B0012070BD64
:1038E0000EA2E4E72007002050726573656E740035
:1038F0000D0A2052464944206361726420257300FA
:10390000E00000202C0925642C25642C25642C253E
:10391000642C25642C25640D0A0000004162736547
:103920006E74000070B50446074D09E02846FEF7A6
:1039300079F840212846FDF7EDFF0028F9D0641CF6
:1039400021780029F2D170BD003801402DE9F04105
:103950002A4E0746DFF8A88030780025294C0B282E
:1039600003D198F80010012909D0B84207D02648A1
:1039700037700570254805702570FFF7D7FE24487D
:103980000B2F37D2DFE807F0060E1B202525253642
:1039900036362E001F48007801282BD0FFF7C6FED0
:1039A000257027E098F8000010B10B20307021E05E
:1039B00041F2883264210120FFF712FB1AE06421F2
:1039C0004FF4FA620220F7E764214FF4FA72032001
:1039D000F2E7012220210446FDF7CDFA0122102151
:1039E000204605E0217829B9012121700A461021DD
:1039F000FDF7C1FA0120BDE8F08100000B000020B6
:103A00004400002091000020060000200A00002051
:103A1000000801404700002070B52A4800780128BE
:103A20004ED12948007808B1012849D1274C284DAA
:103A3000284A21782848642311B101290BD03FE09E
:103A40000121017000261670244E31702B60217008
:103A5000234C217003E011780478A14230D0017822
:103A6000204C1170012901D091B129E02B60012275
:103A700010212046FDF77FFA012280212046FDF724
:103A80007AFA012240212046FDF775FA012213E05F
:103A900015494FF47A700860002210212046FDF786
:103AA0006AFA002280212046FDF765FA00224021B3
:103AB0002046FDF760FA002220212046FDF75BFA40
:103AC000012070BD44000020050000200C000020F3
:103AD000200000200E0000200D0000200F0000201C
:103AE0001000002000080140240000202DE9F047CC
:103AF000002704463D4622E004F00F092846FCF763
:103B00003EFC02460B4600200F4900F065F90646D0
:103B100088464846FCF733FC32464346FCF7BDFB7B
:103B2000064688463846FCF72AFC32464346FCF7F0
:103B30000DFBFCF731FC24096D1C0746EDB2002C8F
:103B4000DAD13846BDE8F0870000304070B5144C3B
:103B50000025A570E582E5820120E0702571657180
:103B6000A571E571E5732574A07425726572A5725F
:103B7000E5722573E5612562E56225636573A573CA
:103B8000E5742575FEF73EFB012208210548FDF787
:103B9000F2F94FF47A70606365700220207070BD96
:103BA000040000200008014010B50A4C0122202129
:103BB0002046FDF7E0F940F2DB51491EFDD100221D
:103BC00020212046FDF7D7F940F2DA50401EFDD102
:103BD00010BD0000000C01401E4A02EB00121368E9
:103BE00013F004030B72136830D0DB084B601268CB
:103BF00002F002024A72174A121D02EB0012136809
:103C000003F00F038B721268120ACA72114A08324B
:103C100002EB001213680B7313681B0A4B731368D3
:103C20001B0C8B731268120ECA730A4A0C3202EB19
:103C3000001213680B7413681B0A4B7413681B0C77
:103C40008B741268120ECA74FCF75CBE5B0D0B60BD
:103C5000CDE70000B0650040FDF78CFAFDF7A7F94D
:103C6000FDF71AF8FDF791F9FDF78EF8FDF7D4FB93
:103C7000FDF700FCFDF700FEFCF7CAFDFFF766FF4D
:103C8000FFF786FC0120FEF719FFFEF7C5FB3A4C53
:103C9000012640F6B830A67460620521A1624FF497
:103CA000FA71E16220630025A573A06333493448AB
:103CB000FEF744F83248FFF735FE324805703248C7
:103CC000067032480670A07C28B1606A0028FAD1DC
:103CD000E06A18B328E0FFF76BFBFFF781FDFFF701
:103CE000CDFC607D012802D1FFF7FAF96575607C93
:103CF00010B1FEF705FBE6E76078FFF727FEFFF758
:103D0000DDF9FEF7C7FBFEF7B3FBFFF785FEFEF715
:103D100021FCFEF7E3FBFEF7CFFBD4E7E07C0328B2
:103D200001D0052800D16562606A0028CBD1A57456
:103D300041F28830A063227D15A11148FDF7FEFFF6
:103D40000F48FFF7EFFD227C19A10D48FDF7F6FFA4
:103D50000B48FFF7E7FD207D012803D0207C0128D8
:103D600007D00020FFF704FD01211A48FDF77AFD76
:103D7000A9E70220F6E7000004000020044800083C
:103D8000E000002099000020940000209500002011
:103D90000D0A204D756C7469706C65206B65792017
:103DA000707265737320666C6167202D2025640036
:103DB0000D0A2054657374204D6F6465206B65791E
:103DC00020707265737320666C6167202D202564F6
:103DD00000000000004800402DE9F04D16460F4657
:103DE0000546020094B01C4621F0004123F000403B
:103DF00014BF4FF0010C4FF0000C0CEB470CFE4BC6
:103E00000CEB03084FEA630CE0452DD35FEA06088C
:103E100018BF4FF0010808EB44089844F74B984549
:103E200022D3F74B50EA060C02D09F4205D14AB983
:103E300014B000201946BDE8F08D002A08BF4FF0ED
:103E4000000C01D04FF0010C0CEB470313F5001FE1
:103E50000AD8002E14BF4FF0010C4FF0000C0CEBF1
:103E6000440313F5001F08D914B0324623462846F0
:103E70003946BDE8F04DFCF769B9DFF888B34FF07B
:103E8000000A002FB8BF584523DADF4B9842A8BF7D
:103E90004FF0020A1DDADA4B83421ADCDB4B03EBEC
:103EA0002053142B08DDC3F1340C26FA0CF303FA6B
:103EB0000CFCB4450DD108E05EB9C3F1140C20FA36
:103EC0000CF303FA0CFC844503D103F00103C3F1A6
:103ED000020A51EA020321D1002C1FDA002F18BF79
:103EE000BAF1020F02D0BAF1010F0BD00220FDF798
:103EF000BBFF14B00022BDE8F04D13461046C04988
:103F0000FCF724BB0220FDF7AFFF14B02A463B4666
:103F1000BDE8F04D0020BA49FCF718BB33006DD165
:103F2000584525D107F1804010F5801001BF002AC7
:103F30000020B34914B008BFBDE8F08DB0488842F6
:103F400007DC002CA1BF1846214614B0BDE8F08D57
:103F500007E0002CBFBF184684F0004114B0BDE854
:103F6000F08DAB497944D1E9000114B0BDE8F08D82
:103F7000DFF88CC2604526D1002C1FDA19B15945F3
:103F800013D1DAB90AE0002A40F0DA829D4A3946B4
:103F900014B0002062F31E01BDE8F08D0020394608
:103FA00014B060F31E01BDE8F08D07DA14B03B4693
:103FB000BDE8F04D00206146FCF7C8BA14B01046C9
:103FC0003946BDE8F08D594518DAB4F1804F0DD06F
:103FD000A4F10053B3F1FF5310D13B1E0EDB14B01C
:103FE0001046BDE8F04D194600F0E6BB3B4614B064
:103FF0001046BDE8F04D1946FCF74FB927F00043D5
:10400000A2BBE1B1594538D1002F06DD002CA1BF7C
:104010000020594614B0BDE8F08D002F01DD002CC2
:104020001FDB002F16DA002C14DBBAF1010F4FF062
:10403000000014BF7349774914B0BDE8F08DBAF1A0
:10404000020F18BF002F0CD0BAF1010F09D1002FB9
:1040500007DA0CE0002FB8BF002C0EDABAF1010F1E
:1040600005D0002014B00146BDE8F08D05E014B085
:1040700000204FF00041BDE8F08D4FF0010C0CEB3B
:10408000E7720D9252EA0A020BD0634A90427DDD3C
:10409000624B634A984216DD8A420EDB002C1CDB21
:1040A0002CE00120FDF7E0FE14B00022BDE8F04D49
:1040B000134610461146FCF749BA5148884202DCC3
:1040C000002C0ADC1AE0914202DA002C16DA04E035
:1040D0004B4B99421EDD002C10DD0220FDF7C4FE83
:1040E00040F2013200204FF0E041FCF79EFA454AD1
:1040F00014B061F31E021146BDE8F08D0220FDF7F9
:10410000B3FEFDF799FE3E4A14B061F31E0211465C
:10411000BDE8F08D002228463946FCF7B8F8054680
:1041200088466FF00102FCF780FA4FF055323D4BA4
:10413000FCF7B0F82A464346FCF7AFF800223A4BAA
:10414000FCF7A8F807468B462A4643461046194610
:10415000FCF7A3F83A465B46FCF79FF809910C90F0
:104160004FF0C042314B28464146FCF796F80746CF
:104170008B462F4A2D4B09990C98FCF78EF8CDE908
:1041800001102C4A2C4B2846414600E019E0FCF770
:1041900084F8DDE90132FCF77AF83A465B4605918E
:1041A0000890FBF7D3FF002588463A465B46284631
:1041B000FCF76DF8059B089AFCF76CF8024600F0D6
:1041C00076B90020B1F5801F07DA35222846194656
:1041D000FCF72BFA05466FF0340000EB2150A0F2FB
:1041E000FF300190C1F3130040F07F6141F0405176
:1041F00002911249884223E0FFFF1F00FFFF0F00DA
:104200000000F03F0000F07F0000404301FCFFFF92
:10421000800900000000F0FF0000E0410000F043D2
:10422000FFFFEF3F5555D53F0000E03F4715F73FF3
:10423000FE822B6544DF5DF80BAE543E8E98030082
:10424000D8BF4FF0000B0EDDFE498142C8BF4FF0D2
:10425000010B08DC01984FF0000B401C0190029804
:10426000A0F580100290F8480299784400EBCB004A
:104270000B911090D0E900232846FCF708F8009035
:1042800010980791D0E9002328460B99FBF75EFFB1
:1042900002460B460020ED49FCF758F905910B4604
:1042A0000246089007990098FBF7F7FF0690E84848
:1042B000884600277844029900680E904FF000501D
:1042C00040EA610000EB8B4000F50021109802915C
:1042D000D0E900230E98FBF7DAFF2A460B9BFBF789
:1042E000D9FF3A464346FBF7D8FF05460B913846BF
:1042F0004146029B0E9AFBF7D0FF079B009AFBF703
:10430000C9FF2A460B9BFBF7C2FF059B089AFBF7E8
:10431000C4FF0B911090069A434610461946FBF7CE
:10432000BCFF05460246CB480B4600910621784467
:10433000FDF72CFD009B2A46029108901046194675
:10434000FBF7ABFF029B089AFBF7A7FF0546059119
:10435000434638461946069AFBF7F8FE0B9B109A1F
:10436000FBF79BFF2A46059BFBF7F0FE3A464346C8
:104370000591089010461946FBF78FFF0022B64BB7
:1043800000910C90FBF7E2FE059B089AFBF7DEFE1E
:104390000D463A46B04B3846FBF779FF009B0C9A26
:1043A000FBF775FF059B089AFBF774FF11913A46DE
:1043B0000C902B4610464146FBF76FFF079100908B
:1043C0004346069A11990C98FBF767FF80460391C4
:1043D0002B463A460B991098FBF75FFF4246039B2A
:1043E000FBF7B4FE059180460B46024607990098FC
:1043F000FBF7ACFE00200F460546079B009AFBF733
:1044000046FF4246059BFBF745FF804609914FF06A
:104410006042924B28463946FBF73FFF00910290DD
:104420008F4A8E4B40460999FBF737FF8046039130
:104430008C4A8D4B28463946FBF72FFF4246039B9B
:10444000FBF784FE894A7A4402EBCB03D3E90023CD
:10445000FBF77CFE069003910198FCF7FDF80746F8
:10446000DDE902030591069A0099FBF76FFE804A89
:104470007A4402EBCB0BDBE90023FBF767FE3A46FD
:10448000059BFBF763FE002588463A462846059BB8
:10449000FBF7FDFEDBE90023FBF7F9FE009B029A28
:1044A000FBF7F5FE039B069AFBF7F4FE024600209D
:1044B00006900D98654FAAF10103184301D16D4F85
:1044C000069000200B46009030462146FBF7E5FEA3
:1044D00082468B46234630461946009AFBF7D7FEA4
:1044E0002A464346FBF7D9FE52465B46FBF72EFEB3
:1044F00006468A462A46434621460098FBF7CDFEEB
:1045000004460D4632465346FBF720FE5A4A8B4678
:10451000914226DBABEB020353EA000210D12246A4
:104520002B46FBF7B4FE80460591544A544B304667
:104530005146FBF70BFE4246059BFCF79FF830D235
:104540000220FDF791FC40F2013200204FF0E041E3
:10455000FCF76BF80A46394614B062F31E01BDE859
:10456000F08D484B2BF000429A421AD3464A0BEB8F
:10457000020353EA000208D122462B46FBF787FECE
:1045800032465346FCF77AF80BD80220FDF76CFC54
:10459000FDF752FC0A46394614B062F31E01BDE82D
:1045A000F08D2BF000403949394A01EB20514FF092
:1045B0000008824223DA481C4FF4801121FA00F0EF
:1045C0005844C0F30A51334AA1F2FF317A44324BC6
:1045D0001268CB4020EA0303C0F3130040F4801CB0
:1045E000C1F114002CFA00F8BBF1000FB8BFC8F1FC
:1045F000000820462946FBF74AFE04460D4622469F
:104600002B4630465146FBF7A1FD4FF0000B5A46B2
:10461000224B58460591FBF740FE00900791204A37
:10462000204B58460599FBF738FE0491029022462C
:104630002B4658460599FBF72AFE32465346FBF7B0
:1046400029FE31E07AB60B00F20500000000F03FD1
:10465000300600005E0500000000084009C7EE3F7C
:10466000FD033ADCF5015B14E02F3EBE360400008A
:10467000FC0300000000F0BF00009040FE822B65AC
:104680004715973C00CC904000346F3F01FCFFFF82
:104690000000E03F18030000FFFF0F00432EE63F3D
:1046A000396CA80C615C20BE3F4A404BFBF7F5FD1E
:1046B000049B029AFBF74AFD06468A46079B009A2E
:1046C000FBF744FD04460D46079B009AFBF7DFFD10
:1046D00032465346FBF7DEFD064622462B4609913D
:1046E00010461946FBF7D9FD8346024630488A46F4
:1046F0000B4605217844FDF749FB5A465346FBF724
:10470000CCFD22462B46FBF7C5FD82468B46324642
:1047100020462946099BFBF7C0FD3246099BFBF763
:1047200015FD0591089000224FF0804350465946F0
:10473000FBF7ADFD0646009152465B4620462946F2
:10474000FBF7ABFD3246009BFBF700FF059B089A89
:10475000FBF79DFD22462B46FBF799FD0022154BEA
:10476000FBF798FD0D46044601EB0851081500289B
:1047700010DC424620462946FBF757FFFDF7F2FAC8
:10478000042808BFFDF758FB424620462946FBF7A0
:104790004CFF044606980B4614B022463946BDE845
:1047A000F04DFBF77ABD0000EF39FAFE422EE63FEE
:1047B000C80100000000F03F2DE9F04106460F4619
:1047C000FBF782FF04000D4618BF0120284320F0AC
:1047D0000040C0F17F6000F1E040C00F0ED0301CFF
:1047E00018BF0120384320F00040C0F17F6000F185
:1047F000E040C00F04BF0120FDF736FB20462946EC
:10480000BDE8F0810D0A2057656C636F6D652074FB
:104810006F2053697874682073656E736F72200D12
:104820000A204275696C642056657273696F6E3A2E
:1048300020484D495F30305F30325F30325F303476
:104840002E686578000204060800000000010203DB
:10485000040102030406070809000000000000002C
:10486000000000000000F03F000000000000F83FE2
:1048700000000000000000000000004003B8E23F1C
:10488000000000000000000006D0CF43EBFD4C3ECE
:10489000033333333333E33FFFAB6FDBB66DDB3FC3
:1048A0004D268F515555D53F01411DA96074D13F0B
:1048B00065DBC9934A86CD3FEF4E454A287ECA3F05
:1048C0003E5555555555C53F93BDBE166CC166BF87
:1048D0002CDE25AF6A56113FF16BD2C541BDBBBE80
:1048E000D0A4BE726937663E0000000000000000E0
:1048F0001049000800000020E0000000481E0008E9
:10490000F0490008E0000020181C0000581E0008B4
:104910000000000000000000000000000000000097
:104920000000000000000000000000000000000087
:104930000000000000000000000000000000000077
:104940000000000000000000000000000000000067
:104950000000000000000000000000000000000057
:104960000000000000000000000000000000010046
:10497000000000000000000000000000FFFF000039
:104980000000000000000000000000000000000027
:104990000000000000000000000000000000000017
:1049A0000000000000000000000000000000000007
:1049B00000000000000000000000000000000000F7
:1049C00000000000000000000000000000000000E7
:1049D00000000000000000000000000000000000D7
:1049E00000000000000000000000000000000000C7
:0400000508000131BD
:00000001FF
