:020000040800F2
:10000000B816002045010008410A0008150A00083A
:100010003F0A0008A1010008811500080000000047
:10002000000000000000000000000000990E000821
:10003000A705000800000000AF0B0008590F0008DA
:1000400083150008AD0B0008B51000088F0E0008DE
:100050000D080008F90D0008B90500081907000887
:100060001B0700081D0700081F070008910500086E
:1000700093050008950500089705000899050008F4
:100080009B0500089D0500089D0100085314000809
:1000900055140008B9040008BB040008250700082F
:1000A000B7100008BD100008BB100008B910000808
:1000B000BF100008C1100008CD100008190A000880
:1000C000170A00081D0A00081B0A0008930E000802
:1000D000950E000869110008B5110008011200080A
:1000E000C10500088D0E000851140008DF1000083B
:1000F000E5100008E3100008E11000089F01000867
:1001000041080008910E0008D9100008970E000859
:100110006511000867110008DB100008DD100008F9
:100120009F050008A1050008A3050008A505000813
:10013000DFF80CD000F020F800480047A91E0008A6
:10014000B8160020004800473101000830B50B46C2
:10015000014600202022012409E021FA02F59D42F7
:1001600005D303FA02F5491B04FA02F52844151ECB
:10017000A2F10102F1DC30BD064C074D06E0E0685B
:1001800040F0010394E8070098471034AC42F6D3DE
:10019000FFF7D2FFF01F00081020000870477047DB
:1001A000FEE70000F0B54FF480773E0208231022EE
:1001B000224C402834D013DC2149072801F10405E2
:1001C00028D007DC042827D0052821D0062800D114
:1001D0000F60F0BD082821D02028FAD12360F0BD9F
:1001E00016490831B0F5806F20D008DCB84219D02C
:1001F000B0F5007FF3D1086820F0020019E0104943
:10020000091FB04217D0B0F5003FE8D10A60F0BD39
:1002100001200EE00E60F0BD2B60F0BD2A60F0BD45
:100220002260F0BD086820F0010002E0086820F0BC
:1002300004000860F0BD0B60F0BD000010640040D9
:10024000086400402DE9F04100F04AF8224800F02F
:1002500035F9214800250126057045708570C67066
:10026000067145718571C5710B21017204214172BE
:100270000227478100F0B8F8184C4FF22000267092
:100280006670A570A0804FF24000E0804FF26000E1
:1002900020814FF280006081A581A673204600F086
:1002A00035F827706670A5704FF2A000A0804FF25D
:1002B000C000E0804FF2E00020814FF47140608187
:1002C000A581A673204600F021F8BDE8F041012188
:1002D000022000F07DB80000F400002000010020A2
:1002E00010B501214C06204600F06EFC2046BDE80A
:1002F0001040002100F068BC202110B102480160CC
:1003000070470148001FFAE710640040F0B502781A
:10031000012191402D4A89B2136843F00103136013
:100320002A4C1C3423688B432360284B274D877845
:100330000C3340352E1DA7B91F688F431F60C78837
:10034000B0F80AC047EA0C4790F800C045F83C7086
:100350008788B0F808C047EA0C4790F800C046F814
:100360003C708778012F0ED11F680F431F604368D0
:1003700007784FEA334345F83730836805784FEA0A
:10038000334346F83530114B45781B1D002D1D6851
:1003900006D00D431D600D4B8589143315B104E063
:1003A0008D43F7E71D688D431D608589012D02D1BE
:1003B0001D680D431D60807B012802D12068084321
:1003C0002060106820F001001060F0BD0066004061
:1003D000044A0029116801D0014300E08143116003
:1003E0007047000014640040324910B50022012318
:1003F0000B600B1D1C68E40748D00278012A0A68CC
:1004000046D022F080020A604278012A0A6842D06F
:1004100022F040020A608278012A0A683ED022F067
:1004200020020A60C278012A0A683AD022F010023B
:100430000A600279012A0A6836D022F008020A60AE
:100440004279012A0A6832D022F004020A608279D5
:10045000C479920742EA0462047A42EA0442447A86
:10046000408942EA0452401E024312481C30026096
:100470000868012220F0010008609002401E00047C
:10048000000CFBD11868C00700D00022104610BD38
:1004900042F08002B7E742F04002BBE742F02002A0
:1004A000BFE742F01002C3E742F00802C7E742F09C
:1004B0000402CBE7006400407047704700210170E0
:1004C00041708170C170017141718171C1710321ED
:1004D00001720221417201214181704730B52A4ADF
:1004E000002113685B0108D41168090101D50121BD
:1004F00003E01168C9003BD50221244A02EB011236
:10050000136803F001031360037A83B34468E500C2
:10051000456014682C43457A2B431C431460837A4E
:1005200003F00F038372194B1B1D03EB01131C68AF
:1005300024F00F041C601C68857A2C431C60C37A6D
:10054000C46843EA0423114C083404EB011423600B
:10055000C37B006943EA00200C4B0C3303EB01130F
:100560001860106840F001001060084630BD01E0DE
:100570000421FAE703885C05046013682343447A86
:1005800023431360CBE7000008640040806500400F
:1005900070477047704770477047704770477047A3
:1005A0007047704770477047024988618869002822
:1005B000FCD1704704000020012000F0C3B8000007
:1005C0002DE9F0474FF4006A504600F0D7F8C0B16B
:1005D0003D4801243E4F01783C483E4D3E4E0129A6
:1005E0004FF005094FF0000851460FD000F006FA11
:1005F0003A49002859D081F8008085F8008086F8B3
:1006000000805046BDE8F04700F09CB800F0F6F9D5
:10061000334BDFF8D0C0344A344998B185F80080B4
:1006200086F800800D784046052D35D001D9087038
:1006300010701B68002BE4D10B78052B30D00870AC
:100640001070DEE7287878B338680028D9D1307880
:10065000274D012809D00878401C08704FF4FA7023
:10066000186040F6B830286028E018680028C8D123
:1006700081F8008082F80080296840460029C0D1B6
:100680001C490C70CCF800001BA1224800F07AFF36
:10069000204801F0D3FAB4E71470CCF80000C8E7A2
:1006A0001470CCF80000ACE70AE0287840B1386854
:1006B0000028A6D130780128A3D00C703470A0E7B0
:1006C0002C70C7F800909CE716000020000C014039
:1006D0002C00002012000020130000200000002049
:1006E0003000002028000020180000201700002003
:1006F00034000020140000200D0A204C6F6E67208B
:100700004B657920707265737320646574656374DA
:10071000656400007C00002070477047704710201F
:1007200000F010B810B5202000F00CF8402000F0C8
:1007300009F8802000F006F8BDE810404FF4807002
:10074000AFF30080014908607047000014040140C5
:1007500010B50B21002000F0C9F807484FF40061E4
:100760000160002101710C21417101218171BDE8FD
:10077000104000F013B800005C000020064A01465B
:1007800000201268044B0A4014331B680B4202D04D
:10079000002A00D0012070470004014030B5837961
:1007A0001949026853B30B6893430B600A1D136821
:1007B0000468A343136002790A441368046823435E
:1007C0001360114B08331A680468A2431A601A1D9B
:1007D00014680568AC4314604479102C05D021449A
:1007E0000A68006802430A6030BD19680468214342
:1007F0001960116800680143116030BD0079084438
:1008000001689143016030BD000401407047000061
:1008100004490A6822F010020A600A6802430A606A
:10082000704700000020024004490A6802F03802C4
:100830000A600A6802430A60704700000020024014
:10084000704700002DE9F0470121244800F0B2F87C
:10085000234C4FF4017003252080DFF88890A570A9
:100860001826E6702146484600F054F84FF48060A0
:1008700020800427E7702146484600F04BF84FF4EB
:100880000068A4F80080E7702146484600F042F86E
:10089000B8022080E6702146484600F03BF8FC2074
:1008A0002080A5701026E6702146484600F032F8F8
:1008B0004FF474402080A570E6700B4E2146304600
:1008C00000F028F8A4F80080A5700020E070214610
:1008D0003046BDE8F04700F01DB8000000043000CD
:1008E0005600002000080140000C014010B58A07A6
:1008F00021F003040649130F21440F228C689A400B
:1009000094438C608A68984002438A6010BD00005E
:1009100000000140F0B5CA78002502F00F03D206AE
:1009200001D58A7813430C784FF00F0E0122ECB1F9
:10093000D0F800400F8802FA05F63740B74211D1CF
:100940004FEA850C0EFA0CF724EA070703FA0CF4B9
:100950003C43CF78282F02D0482F02D002E04661D6
:1009600000E006616D1C082DE4D304600C88FF2CA8
:100970001ED944685FF0000606F1080702FA07F581
:100980000F882F40AF420FD14FEA860C0EFA0CF7BA
:10099000BC4303FA0CF73C43CF78282F00D14561C4
:1009A000CF78482F00D10561761C082EE4D344602F
:1009B000F0BD0000F0B5104D6A68440D260184B208
:1009C000C0F30157B440C0F30343032F05D0C00266
:1009D0000AD503209840824307E0686822F07063DC
:1009E00020F07060686002E0A24342F0706301B1E1
:1009F00023436B60F0BD0000000001400246002070
:100A000092680A4200D0012070470AB10161704724
:100A100041617047FEE7704770477047704710B5F7
:100A2000002000F025FB42F2283000F03FFB0120BF
:100A300000F030FBBDE81040012000F019BBFEE7DC
:100A40007047F8B500214FF0006000F0A5F82520B0
:100A50008DF8000002268DF8016000258DF8025007
:100A600001248DF80340684600F04EF826208DF8EA
:100A700000008DF801608DF802408DF80340684653
:100A800000F042F827208DF800008DF801608DF805
:100A900002608DF80340684600F036F828208DF893
:100AA00000008DF801508DF802508DF80340684623
:100AB00000F02AF814208DF800008DF801508DF810
:100AC00002508DF80340684600F01EF81D208DF896
:100AD00000008DF801508DF802608DF803406846E3
:100AE00000F012F81E208DF800008DF801508DF8EE
:100AF00002608DF80340684600F006F84FF4C060CD
:100B000000F040F8F8BD0000F0B50F22C47801787D
:100B100001234FF0E0253CB3184C2468467804F4D8
:100B2000E064C4F5E064240AC4F10407E240847878
:100B3000BE401440344322018C07E70E21F0030429
:100B40000F49BA4066183168FF24BC40A1432240D7
:100B500011433160007800F01F018B40400905EB24
:100B60008000C0F80031F0BD01F01F00834048094B
:100B700005EB8000C0F88031F0BD00000CED00E016
:100B800000E400E0024908430249086070470000A1
:100B90000000FA050CED00E0024A11400143024852
:100BA0000160704780FFFF1F08ED00E0704770474D
:100BB000044A0029D16901D0014300E08143D16199
:100BC0007047000000100240044A0029116901D05A
:100BD000014300E0814311617047000000100240B2
:100BE000044A0029916901D0014300E081439161E9
:100BF000704700000010024010B500F053F84FF4A9
:100C00008034204600F0DEF800F026F92349012860
:100C10000870234919D00020087001214FF00610F8
:100C2000FFF7C6FF01218803FFF7DAFF012140F635
:100C30007D00FFF7D5FF01214802FFF7D1FF012119
:100C4000BDE810404806FFF7B3BF01200870102030
:100C5000FFF7DEFD0220FFF7E7FD002000F0A8F817
:100C6000002000F0D5F84FF4A06000F0C7F84FF472
:100C7000E011204600F0DCF8012000F0D3F8392024
:100C800000F076F80028FAD0022000F0DBF800BF70
:100C900000F086F80828FBD1BFE7000064000020C0
:100CA000540000200B48016841F0010101604168D7
:100CB000094A114041600168084A11400160016819
:100CC00021F480210160416821F4FE01416000218E
:100CD00081607047001002400000FFF8FFFFF6FE41
:100CE00030B51F494A6812F00C031E4A03D0042B8A
:100CF00001D0082B22D002604A680F231A4C03EA65
:100D00001212A35C0268DA4042604B68072505EACC
:100D10001323E35C22FA03F383604B6805EAD323D1
:100D2000E35C22FA03F2C2604968032303EA9131CB
:100D3000231F595CB2FBF1F1016130BD4A68022307
:100D400002F4701203EB92424B6813F4803F02D01E
:100D50004B689B0301D5054B00E0024B5A43CAE7A1
:100D60000010024000127A00E01F000800093D0058
:100D70000246002053090949012B0BD0022B0BD04E
:100D8000D1F8241002F01F02012393400B4200D03F
:100D9000012070470968F5E7096AF3E7001002408F
:100DA0000248406800F00C0070470000001002404C
:100DB000034A516821F0F00101435160704700007F
:100DC000001002400B490A6822F480320A600A6867
:100DD00022F480220A60B0F5803F07D0B0F5802F62
:100DE00003D1086840F4A02008607047086840F408
:100DF0008030F9E70010024070470000034A516854
:100E000021F4E0610143516070470000001002408E
:100E100003494A6822F4605242EAC00048607047C1
:100E2000001002400149086670470000000042427D
:100E3000034A5368084323F47C13184350607047F7
:100E400000100240034A516821F003010143516040
:100E5000704700000010024030B50B4C40F2FF1507
:100E60003120FFF785FF20706068401C60602078AB
:100E700010B96068A842F3D13120FFF779FF00284C
:100E800000D0012030BD0000740000207047704782
:100E90007047704770477047704700003EB5154C6B
:100EA0000021204600F02DF900220121204600F00B
:100EB00033F94FF4B4700021ADF80400ADF8001020
:100EC000ADF80610ADF802106946204600F02CF986
:100ED0000121204600F012F90121204600F003F91B
:100EE00001221146204600F017F90121204600F0AA
:100EF00008F93EBD000400403EB5164C00212046D6
:100F000000F0FFF800220121204600F005F94FF41F
:100F10003470ADF804004CF25030ADF80000002100
:100F2000ADF80610ADF802106946204600F0FCF856
:100F30000121204600F0E2F80121204600F0D3F81C
:100F400001221146204600F0E7F80121204600F07A
:100F5000D8F83EBD0008004030B53348016811B1F3
:100F60000168491E016031480078012805D13048E8
:100F7000016811B10168491E01602E48016811B174
:100F80000168491E01602C48016811B10168491EC1
:100F900001602A48016811B10168491E01602848B2
:100FA000012102780020012A14D1264A264C137808
:100FB000012B06D0254B1D8855B11A88521E1A8068
:100FC00008E0234B1D88002DF7D12070107001E040
:100FD000217011701F4A1278012A17D11E4A1F4B27
:100FE0001478012C06D01E4804686CB10168491EB3
:100FF00001600BE01B490C681CB10868401E0860CA
:1010000004E01870107001E0197011701648016842
:1010100011B10168491E016014480168002902D01D
:101020000168491E016030BD1C0000201600002030
:10103000280000202C000020300000203400002078
:101040000A000020090000200700002046000020C0
:101050001A000020100000200F0000200D000020CA
:10106000240000202000002038000020480000203C
:101070004FF0E021012804D0801C06D000208861B8
:101080007047086940F0010002E0086920F00100A3
:10109000086170474FF0E0210028086902D040F055
:1010A000020001E020F00200086170474FF0E021EB
:1010B0004861704770477047704770477047704786
:1010C0000121014800F01AB8000400400121014844
:1010D00000F014B800080040704770477047704730
:1010E0007047704770470029018802D041F08001A5
:1010F00002E040F27F32114001807047C943018213
:1011000070470029018802D041F0010102E040F25D
:10111000FE32114001807047002A828901D00A43C3
:1011200000E08A4382817047028802F08F020280C9
:10113000CA884B881A4303881A4302808A888285AA
:101140000A88028501228282044A904202D0044A1F
:10115000904201D1097A018670470000002C0140BD
:10116000003401407047704770B50F4D40F2255470
:101170002146284600F0E7F880B1284600F060F9E3
:101180000B4A0A491368C8541068401C1060106864
:10119000A0F5A061DC3901D100201060214628466D
:1011A000BDE8704000F066B8003801402001002022
:1011B0006800002070B50F4D40F2255421462846A6
:1011C00000F0C1F880B1284600F03AF90B4A0A490C
:1011D0005368C8545068401C50605068A0F5A06126
:1011E000DC3901D10020506021462846BDE870401E
:1011F00000F040B800440040FC06002068000020D9
:1012000070B5184D40F225542146284600F09BF851
:1012100008B315480078F0B9284600F011F9144ACF
:10122000014612489368C154916840F2DC53465C11
:101230000021032E08D19668761C966096689E421F
:1012400000D39160966881559068401C90609068CA
:10125000984200D3916021462846BDE8704000F0D6
:1012600009B800000048004016000020D80C0020FB
:10127000680000200A0A01219140C943018070479B
:101280000029818902D041F4005101E021F400518C
:10129000818170472DE9F047234C4FF4964000259B
:1012A0002060A580E5802581204FA5810C266681E0
:1012B0002146384600F07EF840F225590122494681
:1012C000384600F05FF801213846FFF7D9FF4FF4A8
:1012D00016572760A580E5802581DFF85480A58119
:1012E00066812146404600F065F8012249464046A5
:1012F00000F048F801214046FFF7C2FF2760A580B3
:10130000E5802581A581668121460A4C204600F0B2
:1013100051F801224946204600F034F82046BDE845
:10132000F0470121FFF7ACBF100100200038014059
:1013300000440040004800400246002012880A4253
:1013400000D00120704730B501F01F0201240025B4
:10135000C1F3421304FA02F2012B0FD0022B0FD07B
:10136000838A4FEA11210088134204FA01F400EA4B
:10137000040001D000B10125284630BD8389F0E783
:10138000038AEEE710B5C1F3421301F01F040121F7
:10139000A140012B07D0022B07D01430002A02688D
:1013A00005D00A4304E00C30F8E71030F6E78A4332
:1013B000026010BD30B50446008A85B00D464CF67B
:1013C000FF710840E98801432182A1894EF6F3109C
:1013D0000140A8882A8910436A890A431043A081E2
:1013E000A08A4FF6FF410840A9890143A1826846BF
:1013F000FFF776FC1148844201D1039800E002987F
:10140000642200EBC00101EB001029686FF01805A1
:101410008900B0FBF1F0B0FBF2F109010B096B435D
:1014200000EB8300322303EB0010B0FBF2F000F07E
:101430000F000843208105B030BD00000038014096
:101440008088C0F308007047C1F3080181807047AD
:1014500070477047F0B585B0002400940194029461
:10146000039469462046049400F0DEFC32489DF85F
:101470000C10324F01709DF80D2042709DF80E2027
:1014800082709DF80F20C2709DF8102002719DF8A7
:10149000112042719DF8122082719DF81320C271B3
:1014A00000980122A0F28170082830D2DFE800F015
:1014B000040621242628404221481BE02148234DD0
:1014C00001290170204805D0022905D003290AD03E
:1014D00004291CD1012201E03A7000221021FFF7FB
:1014E00094FA2C7013E01A492A7040F2DC5008601C
:1014F0000DE0184801700AE01748FBE71748F9E7C4
:101500001748184D184E017031B12A7034700220FE
:10151000FEF748FE05B0F0BD14483470047014485E
:101520000470144804703A7000F00CFB2C70EDE766
:101530001148DFE71148DDE74C00002011000020D2
:1015400005000020040000200008014041000020A8
:10155000480000203D0000203E0000203F00002009
:1015600040000020430000200C0000200E0000205E
:101570000D00002010000020440000201500002075
:10158000FEE770470FB4084B10B504A902AA0398F0
:1015900000F01CF8044602A9002000F0C1F8204623
:1015A00010BC5DF814FB00002117000802E008C819
:1015B000121F08C1002AFAD170477047002001E0CD
:1015C00001C1121F002AFBD1704700002DE9FF4F17
:1015D00089B09B460446002597E0252833D1002793
:1015E000641C4E49B84601222378203B02FA03F0DE
:1015F000084202D00743641CF6E720782E2819D150
:1016000014F8010F47F004072A280ED06FF02F02BC
:101610002078A0F1300109290CD808EB880102EBF1
:10162000410100EB0108641CF2E70A98641C50F8C1
:10163000048B0A90207800286BD0642808D0692891
:1016400006D0752820D05A460B9990476D1C5BE058
:101650000A994FF00A0901C90A91002804DAC0F179
:1016600000004FF02D0102E0390504D52B218DF843
:101670002010012103E0F90704D02021F7E78A4672
:1016800008AE0EE00021FAE70A994FF00A0901C9F5
:101690000A91F7E74946FEF759FD01F1300106F8D6
:1016A000011D0028F6D1ADEB060000F120097807F6
:1016B00001D44FF00108C84502DDA8EB090000E0A5
:1016C00000208046002706E008A85A46C05D0B9916
:1016D00090476D1C7F1C5745F6DB04E030205A46CE
:1016E0000B9990476D1CB8F10001A8F10108F5DCD9
:1016F00005E016F8010B5A460B9990476D1CB9F19D
:101700000001A9F10109F4DC641C207800287FF4B1
:1017100064AF0DB02846BDE8F08F00000928010035
:101720000A68531C0B6010707047000070B5194CAC
:10173000002210212046FFF768F900228021204670
:10174000FFF763F9002240212046FFF75EF90022EF
:1017500020212046FFF759F90F4D00224FF4804118
:101760002846FFF752F90022A1142846FFF74DF949
:10177000002261142846FFF748F900224FF4004187
:101780002846FFF742F92046BDE8704000220421B8
:10179000FFF73BB900080140000C014070B51B4C3D
:1017A000012208212046FFF730F9012210212046AE
:1017B000FFF72BF9012280212046FFF726F90122AD
:1017C00040212046FFF721F9012220212046FFF782
:1017D0001CF90F4D012291032846FFF716F901224B
:1017E00011032846FFF711F9012251032846FFF79C
:1017F0000CF90122D1032846FFF707F92046BDE87E
:10180000704001220421FFF700B9000000080140E8
:10181000000C014010B5104C012208212046FFF7B2
:10182000F4F8012280212046FFF7EFF80122402141
:101830002046FFF7EAF8012220212046FFF7E5F8CD
:10184000012211030548FFF7E0F820460122BDE818
:1018500010400421FFF7D9B800080140000C0140F6
:1018600070B500244FF49675FFF798FF2846FEF7F1
:101870009BFEFFF75BFF2846FEF796FE641CE4B272
:10188000022CF1D970BD0000064810B50278064858
:101890004FF48051012A00D00022FFF7B6F8012052
:1018A00010BD00003F000020000C0140064810B5AC
:1018B000027806484FF40051012A00D00022FFF7B9
:1018C000A4F8012010BD00003D000020000C0140E4
:1018D000064810B5027806484FF40041012A00D0AE
:1018E0000022FFF792F8012010BD00004400002004
:1018F000000C014070B51B4C207801282FD11A4DE7
:10190000012204212846FFF780F83220FEF74CFE22
:10191000002204212846FFF778F83220FEF744FE23
:10192000012204212846FFF770F83220FEF73CFE22
:10193000002204212846FFF768F83220FEF734FE23
:10194000012204212846FFF760F83220FEF72CFE22
:10195000002204212846FFF758F8002020700120BB
:1019600070BD0000110000200008014070B527483C
:10197000284C0178264869B3017851BB01230370D4
:1019800025480225254A0178012909D0022904D0D9
:10199000032905D0042905D00CE01370037009E079
:1019A000157007E015701EA12248FFF7EBFD2148D6
:1019B00000F044F9012204212046FFF726F83220E6
:1019C000FEF7F2FD00F0FAF8002204212046FFF7AE
:1019D0001CF801E00021017017480078012813D19C
:1019E000164D286880B916490878C04310F0FF00EA
:1019F000087001D0012200E0002210212046FFF7EC
:101A000004F840F2DC502860012070BD0000002086
:101A10003C000020000801400400002001000020DC
:101A20000D0A2043727569736520526573756D6583
:101A3000000000007C000020410000204800002041
:101A4000420000202DE9F047DFF8B4900446DFF8AB
:101A5000B4A099F800002C4D2C4EDFF8B4800F464E
:101A600010B101280FD048E000F06CF8AAF800701F
:101A70000120307000212970264989F80000087083
:101A80002549087007E029783078814235D001284F
:101A900001D0C0B131E0AAF8007030782870012C74
:101AA0002BD0022C02D0032C03D026E000224021B0
:101AB00001E00122202144464046FEF7A6FF012214
:101AC0000421204617E015490A802870012C04D013
:101AD000022C05D0032C06D00AE00122802104E06C
:101AE0000122402101E0002220214046FEF78DFF27
:101AF000002204214046FEF788FF0120BDE8F08760
:101B0000060000201A000020080000200700002026
:101B100000080140090000200A00002046000020C3
:101B2000064810B5027806484FF48041012A00D0DB
:101B30000022FEF76AFF012010BD00003E000020D9
:101B4000000C014010B50E4C002280212046FEF70B
:101B50005CFF002240212046FEF757FF0022202193
:101B60002046FEF752FF00224FF400410548FEF7E1
:101B70004CFF002204212046FEF747FF012010BD44
:101B800000080140000C01400B4910B540F20372FF
:101B90000A6000224A600A7208238B724A72C87275
:101BA0000A734A738A73CA730A744A748A74084639
:101BB000FEF794FC012010BDE00000200C4810B599
:101BC00040F20271016000214160017208228272BC
:101BD000084A41721278C272017341738173C173F2
:101BE000017441748174FEF779FC012010BD00007E
:101BF000E00000200100002010B50E4C2068B8B9AC
:101C00000D4840F20171082201600021416001721B
:101C1000827241722222C272017341738173C17355
:101C2000017441748174FEF759FC4FF47A7020609E
:101C3000012010BD38000020E000002070B50446EF
:101C4000074D09E02846FFF7FFFB40212846FFF734
:101C500073FB0028F9D0641C21780029F2D170BDF3
:101C60000038014070B504461E480178A14207D0F3
:101C70001D490470002008701C490870FFF762FFBE
:101C80001B480B2C2CD2DFE804F0060D12191E1E87
:101C90001E2B2B2B270017480078012820D0FFF798
:101CA00051FF1DE0642141F28832012003E04FF42E
:101CB000FA6264210220FFF7C5FE11E064214FF4AF
:101CC000FA720320F7E7012220210546FEF79DFE68
:101CD00001220421284601E001220421FEF795FE9D
:101CE000012070BD0B000020060000200A0000202B
:101CF000000801404300002070B52A480078012800
:101D00004DD129480078002849D1284C284D294A2E
:101D100021782948642311B101290BD03FE001212A
:101D2000017000261670254E31702B602170244CF6
:101D3000217003E011780478A14230D00178214C61
:101D40001170012901D091B129E02B6001220421F9
:101D50002046FEF75AFE012280212046FEF755FE5E
:101D6000012240212046FEF750FE012213E01649D1
:101D70004FF47A700860002204212046FEF745FEE9
:101D8000002280212046FEF740FE0022402120460E
:101D9000FEF73BFE002220212046FEF736FE012002
:101DA00070BD000040000020050000200C00002055
:101DB000200000200E0000200D0000200F00002059
:101DC00010000020000801402400002070B5144CD1
:101DD0000025A570E582E5820120E070257165711E
:101DE000A571E571E5732574A57425726572A572F8
:101DF000E5722573E5612562E56225636573A57368
:101E0000E5742575FFF792FC012208210548FEF7CD
:101E1000FCFD4FF47A70606365700220207070BD25
:101E200004000020000801401E4A02EB0012136863
:101E300013F004030B72136830D0DB084B60126898
:101E400002F002024A72174A121D02EB00121368D6
:101E500003F00F038B721268120ACA72114A083219
:101E600002EB001213680B7313681B0A4B731368A1
:101E70001B0C8B731268120ECA730A4A0C3202EBE7
:101E8000001213680B7413681B0A4B7413681B0C45
:101E90008B741268120ECA74FEF72EBA5B0D0B60BB
:101EA000CDE70000B0650040FEF7A6FEFEF7C9FDD5
:101EB000FEF74EFCFEF7B3FDFEF7C4FCFEF7EEFFA7
:101EC000FFF71AF8FFF7E6F9FEF7BCF9FFF77EFF18
:101ED000FFF7C6FC284C012241F28830A2746062F0
:101EE0000520A0624FF4FA70E06240F6B83020633B
:101EF0000025A57321A12948FFF744FB2748FFF7D8
:101F00009DFEA07CE8B1606A0028FAD1A574227D0C
:101F100023A12248FFF736FB2048FFF78FFE227CE3
:101F200027A11E48FFF72EFB1C48FFF787FE207DE8
:101F3000012803D0207C01281CD00020FFF724FEBC
:101F4000DFE7FFF759FE607C10B1FFF763FCD8E7CD
:101F50006078FFF787FEFFF7E3FDFFF7A7FCFFF7C9
:101F600093FCFFF7C9FEFFF701FDFFF7C3FCFFF786
:101F7000AFFCC6E70220E1E7040000200D0A20576D
:101F8000656C636F6D6520746F2053697874682089
:101F900073656E736F72202D202564007C00002015
:101FA0000D0A204D756C7469706C65206B65792025
:101FB000707265737320666C6167202D2025640044
:101FC0000D0A204C6F6E67206B6579207072657307
:101FD0007320666C6167202D2025640002040608CA
:101FE00000000000010203040102030406070809BF
:101FF00010200008000000207C000000AC15000844
:102000008C2000087C0000203C160000BC15000855
:1020100000000000000000000000000000000000C0
:1020200000000000000000000000000000000000B0
:1020300000000000000000000000000000000000A0
:102040000000000000000000000000000000000090
:102050000000000000000000000000000000000080
:102060000000000000000000000000000000000070
:102070000000000000000000000000000000000060
:0C20800000000000000000000000000054
:0400000508000131BD
:00000001FF
