:020000040800F2
:10000000F01C002045010008C90F00089D0F0008E2
:10001000C70F000837070008351E00080000000061
:100020000000000000000000000000003114000883
:100030007B0B00080000000047110008F1140008C5
:10004000371E0008451100088D1600082714000807
:10005000710D0008911300088D0B0008810C000839
:10006000830C0008850C0008870C0008650B00084D
:10007000670B0008690B00086B0B00086D0B00088C
:100080006F0B0008710B0008330700083B1A0008CB
:100090003D1A00088D0A00088F0A00088D0C000820
:1000A0008F16000895160008931600089116000890
:1000B0009716000899160008A5160008A10F000859
:1000C0009F0F0008A50F0008A30F00082B140008BD
:1000D0002D140008411700088D170008D9170008D3
:1000E000790C000825140008391A0008B716000812
:1000F000BD160008BB160008B91600083507000831
:10010000A50D000829140008B11600082F140008D6
:100110003D1700083F170008B3160008B516000881
:10012000730B0008750B0008770B0008790B0008AB
:10013000DFF80CD000F09AFA004800475537000865
:10014000F01C002000480047310100082DE9FE4F57
:10015000804681EA0300C00F0C46009021F0004168
:1001600023F00045B8EB0200A94105D240462146E4
:1001700090461C460B46024623F00040104304D133
:100180004046214603B0BDE8F08F270DC7F30A00B3
:10019000C3F30A510290401A0190402866DAC3F373
:1001A000130040F4801B0098924620B10023D2EB4C
:1001B000030A63EB0B0B01985946C0F1400250460D
:1001C00000F019F906460D4650465946019A00F0CE
:1001D00031F910EB08006141002487EA115284EAEA
:1001E000E7731A433BD0009A3AB3019A012A4FEAC7
:1001F000075210DC001B61EB02014FF0004202EAE3
:100200000752CDE90042001C41F5801132462B46D1
:1002100000F02FF9B6E7001B61EB0201001C41F56D
:10022000801300185B412018A2F5001747EB03016B
:1002300040EAD570B6196D4111E06D084FEA3606F7
:1002400045EAC0754FEA0752001B61EB0201001C32
:1002500041F5801149084FEA3000001951413246FA
:100260002B4603B0BDE8F04F00F0F6B8009801222D
:1002700040000023D0EB020263EBE07300982146BC
:100280004FEAE074B8EB000061EB0401E9E783F0AA
:1002900000435BE781F0004158E72DE9FE4F81EA1A
:1002A000030404F0004421F0004100944FF0000BDF
:1002B00023F0004350EA010402D052EA030404D1BF
:1002C0000020014603B0BDE8F08FC3F30A54C1F328
:1002D0000A552C44A4F2F3340194A0FB0254C1F358
:1002E000130141F48011C3F3130343F4801301FBA2
:1002F000024400FB034E840A970A44EA815447EA09
:100300008357A4FB076802958D0A05FB07854FEA12
:10031000932C04FB0C542705029D4FEA065847EA2C
:100320001637B5EB08056EEB070C870E920E47EA01
:10033000811742EA8312A7FB0201B6EB0B0164EBC3
:1003400000042B0D43EA0C335E1844EB1C50DA46D4
:100350005146E7FB0201C5F313044FEA0B3343EAAE
:1003600014534FEA0432019C43EA0603A4F10C043F
:100370000294009CCDE900B400F07BF8A2E70EB532
:1003800040F2334102910021CDE900110A460B46AB
:1003900000F06FF803B000BDC1F30A5210B5C1F30D
:1003A000130140F2FF3341F480119A4201DA002038
:1003B00010BD40F233439A42A2F2334203DC524270
:1003C00000F028F810BD904010BD30B50B46014636
:1003D00000202022012409E021FA02F59D4205D3E4
:1003E00003FA02F5491B04FA02F52844151EA2F18E
:1003F0000102F1DC30BD202A04DB203A00FA02F1D0
:10040000002070479140C2F1200320FA03F3194302
:1004100090407047202A04DB203A21FA02F00021A4
:10042000704721FA02F3D040C2F120029140084304
:1004300019467047202A06DBCB17203A41FA02F012
:1004400043EAE07306E041FA02F3D040C2F1200231
:10045000914008431946704710B5002B08DA401C3C
:1004600041F1000192185B411A4301D120F00100D3
:1004700010BD2DE9F04D92469B4611B1B1FA81F2C3
:1004800002E0B0FA80F220329046FFF7B4FF044653
:100490000F4640EA0A0041EA0B0153465A46084318
:1004A00003D120463946BDE8F08D114653EA0100DC
:1004B00015D0C8F140025046FFF7ACFF05460E4686
:1004C000504659464246FFF796FF084301D00120A7
:1004D00000E00020054346EAE0762C4337430A98C3
:1004E0004FEA4453A0EB08004FEAD4240A304FF0FF
:1004F000000244EA47544FEAD72502D500200146BE
:10050000D1E7010510196941DDE908450019694184
:10051000BDE8F04DA0E72DE9F04D81EA030404F0B9
:10052000004B21F0004514464FF0000A23F0004133
:1005300050EA050220D054EA01021DD0C5F30A5743
:100540000246C5F31303C1F31300C1F30A5640F486
:10055000801543F48013A7EB0608101BD64608F25B
:10056000FD3873EB050002D308F1010801E0921891
:100570005B41B8F1000F03DA00200146BDE8F08DC1
:1005800000204FF48011064684460EE0171B73EBE3
:10059000050705D3121B63EB050306434CEA010C68
:1005A00049084FEA300092185B4150EA0107EDD14B
:1005B00052EA030012D082EA040083EA05010843EC
:1005C00003D100224FF0004308E0101BAB4102D2E0
:1005D0000122002302E06FF0010253101AEB060023
:1005E0004CEB085110EB0A0041EB0B01BDE8F04D5C
:1005F000FFF732BF70B521F0004303430CD0C1F3C5
:100600000A550024D5EB040564EB0403D617AD1A94
:10061000B34102DB0020014670BD201841EB0251BE
:1006200070BD0EB5C10F80EAE0700844CA07002112
:1006300040F233438DE80E000A460B46FFF719FFE0
:1006400003B000BD30B5002904DB4FF00044404248
:1006500064EB0101002B04DB4FF00044524264EBD9
:100660000303994208BF904230BD0000064C074D7D
:1006700006E0E06840F0010394E807009847103472
:10068000AC42F6D3FFF758FDE843000808440008E1
:100690002DE9F04D00231A461B1A8A4103DB002086
:1006A0000146BDE8F08DC1F30A52C1F3130141F4D4
:1006B00080154FF0000BD10702D100186D41521E7A
:1006C0000027044640F2FF11384601EB620A3E461D
:1006D0008046024600204FF48011FFF79BFEC219AE
:1006E0007141BB1846EB0100B4EB030C75EB000C39
:1006F00004D3E41A65EB000517460E46241908F1E9
:1007000001006D4180463428E3DDF91946EB06000F
:10071000091BA84103D24FF0FF32134601E000222B
:1007200013461BEB070046EB0A51BDE8F04DFFF7FF
:1007300093BE70477047FEE7F0B54FF480773E02F6
:1007400008231022224C402834D013DC21490728EA
:1007500001F1040528D007DC042827D0052821D082
:10076000062800D10F60F0BD082821D02028FAD13A
:100770002360F0BD16490831B0F5806F20D008DC49
:10078000B84219D0B0F5007FF3D1086820F002001C
:1007900019E01049091FB04217D0B0F5003FE8D169
:1007A0000A60F0BD01200EE00E60F0BD2B60F0BDD0
:1007B0002A60F0BD2260F0BD086820F0010002E070
:1007C000086820F004000860F0BD0B60F0BD000078
:1007D00010640040086400402DE9F04100F06AF820
:1007E000324800F055F93148002501260570457062
:1007F0008570C570067145718571C5710B210172D7
:10080000042141720227478100F0D8F8284C2020AB
:1008100026706670A570A0804020E0806020208156
:1008200080206081A581A673204600F059F82770CA
:100830006670A570A020A080C020E080E02020810C
:1008400030026081A581A673204600F049F825702A
:100850006670A5704FF4A050A0804FF4A150E080C6
:100860004FF4A25020814FF4B0506081A581A6734F
:10087000204600F035F8032020706670A5704FF414
:10088000A350A0804FF4A450E0804FF4A5502081E5
:100890004FF4A6506081A581A673204600F020F891
:1008A000BDE8F0410121022000F07CB830070020B3
:1008B0003C07002010B501214C06204600F050FCFA
:1008C0002046BDE81040002100F04ABC202110B1B4
:1008D0000248016070470148001FFAE710640040B9
:1008E000F0B50278012191402D4A89B2136843F096
:1008F000010313602A4C1C3423688B432360284B6C
:10090000274D87780C3340352E1DA7B91F688F43BC
:100910001F60C788B0F80AC047EA0C4790F800C0CB
:1009200045F83C708788B0F808C047EA0C4790F853
:1009300000C046F83C708778012F0ED11F680F4326
:100940001F60436807784FEA334345F837308368C0
:1009500005784FEA334346F83530114B45781B1D77
:10096000002D1D6806D00D431D600D4B8589143385
:1009700015B104E08D43F7E71D688D431D6085893F
:10098000012D02D11D680D431D60807B012802D11D
:10099000206808432060106820F001001060F0BD5E
:1009A00000660040044A0029116801D0014300E0BC
:1009B000814311607047000014640040324910B553
:1009C000002201230B600B1D1C68E40748D002784D
:1009D000012A0A6846D022F080020A604278012A81
:1009E0000A6842D022F040020A608278012A0A682E
:1009F0003ED022F020020A60C278012A0A683AD06A
:100A000022F010020A600279012A0A6836D022F028
:100A100008020A604279012A0A6832D022F00402F0
:100A20000A608279C479920742EA0462047A42EA4F
:100A30000442447A408942EA0452401E024312486A
:100A40001C3002600868012220F00100086090025A
:100A5000401E0004000CFBD11868C00700D0002223
:100A6000104610BD42F08002B7E742F04002BBE7FB
:100A700042F02002BFE742F01002C3E742F0080252
:100A8000C7E742F00402CBE70064004070477047BC
:100A90000021017041708170C170017141718171DB
:100AA000C17103210172022141720121418170470C
:100AB00030B52A4A002113685B0108D41168090186
:100AC00001D5012103E01168C9003BD50221244A68
:100AD00002EB0112136803F001031360037A83B37E
:100AE0004468E500456014682C43457A2B431C4359
:100AF0001460837A03F00F038372194B1B1D03EB01
:100B000001131C6824F00F041C601C68857A2C43B8
:100B10001C60C37AC46843EA0423114C083404EB14
:100B200001142360C37B006943EA00200C4B0C33A3
:100B300003EB01131860106840F0010010600846D4
:100B400030BD01E00421FAE703885C050460136806
:100B50002343447A23431360CBE70000086400403A
:100B60008065004070477047704770477047704716
:100B700070477047704770477047704702498861F7
:100B800088690028FCD1704704000020F8B50120D6
:100B900000F0A6F800283DD0214F012621483978E1
:100BA0000129314603D000F0EDF960B332E000F0E6
:100BB000E9F910BB1C4801681C4D002401B92C70D8
:100BC0002978491CCAB22A704FF4FA71016038784A
:100BD00000901748036817A11C4801F02DF91B4825
:100BE00002F01EFC2A781A481A49032A06D0052A60
:100BF00007D0032A0ED004700C700BE004700E7046
:100C000008E00670F8E714A002F00AFC1848067025
:100C100018480670BDE8F840012000F047B8000011
:100C200016000020000801403000002017000020BE
:100C3000280000200D0A204B5020436E743A256492
:100C40002C2025642C20256400000000DC000020FE
:100C500018000020140000200D0A204B6579207038
:100C60007265737320646574656374656400000065
:100C700000000020130000204FF4006000F016B8C0
:100C8000704770477047102000F010B810B5202052
:100C900000F00CF8402000F009F8802000F006F881
:100CA000BDE810404FF48070AFF300800149086048
:100CB000704700001404014010B50021084600F000
:100CC000D9F8064801210022016002710C2242710C
:100CD0008171BDE8104000F013B8000080000020D2
:100CE000064A014600201268044B0A4014331B6870
:100CF0000B4202D0002A00D00120704700040140BE
:100D000030B583791949026853B30B6893430B607C
:100D10000A1D13680468A343136002790A44136828
:100D2000046823431360114B08331A680468A24314
:100D30001A601A1D14680568AC4314604479102CBD
:100D400005D021440A68006802430A6030BD196872
:100D5000046821431960116800680143116030BDC7
:100D60000079084401689143016030BD00040140EE
:100D70007047000004490A6822F010020A600A68FD
:100D800002430A60704700000020024004490A68DC
:100D900002F038020A600A6802430A6070470000E5
:100DA00000200240704700002DE9F04701212D4846
:100DB00000F0C4F82C4C4FF4017003252080DFF8BC
:100DC000ACA0A5701826E6702146504600F066F8E3
:100DD0004FF481602080A5700427E77021465046BB
:100DE00000F05CF838022080DFF88490A570E6708F
:100DF0002146484600F052F84FF40068A4F80080FD
:100E0000A570E7702146484600F048F8B8022080F7
:100E1000A570E6702146504600F040F8A4F8008026
:100E2000A570E7702146504600F038F84CF2F010FB
:100E30002080A5701026E6702146504600F02EF85E
:100E40002580A570E6702146484600F027F801206D
:100E50002080A5704820E07021465046BDE8F0474C
:100E600000F01CB8000430007C00002000080140A5
:100E7000000C014010B58A0721F003040649130F46
:100E800021440F228C689A4094438C608A68984071
:100E900002438A6010BD000000000140F0B5CA782E
:100EA000002502F00F03D20601D58A7813430C788F
:100EB0004FF00F0E0122ECB1D0F800400F8802FA7B
:100EC00005F63740B74211D14FEA850C0EFA0CF700
:100ED00024EA070703FA0CF43C43CF78282F02D00A
:100EE000482F02D002E0466100E006616D1C082D2B
:100EF000E4D304600C88FF2C1ED944685FF0000620
:100F000006F1080702FA07F50F882F40AF420FD10C
:100F10004FEA860C0EFA0CF7BC4303FA0CF73C437D
:100F2000CF78282F00D14561CF78482F00D10561B7
:100F3000761C082EE4D34460F0BD0000F0B5104DDF
:100F40006A68440D260184B2C0F30157B440C0F36F
:100F50000343032F05D0C0020AD5032098408243E3
:100F600007E0686822F0706320F07060686002E05B
:100F7000A24342F0706301B123436B60F0BD0000F7
:100F8000000001400246002092680A4200D0012081
:100F900070470AB10161704741617047FEE77047D1
:100FA00070477047704710B5002000F04DFB42F2CB
:100FB000283000F067FB012000F058FBBDE810402E
:100FC000012000F041BBFEE77047F8B500214FF06B
:100FD000006000F0ADF825208DF8000002258DF8A6
:100FE000015000268DF8026001248DF80340684608
:100FF00000F056F826208DF800008DF801508DF88D
:1010000002408DF80340684600F04AF827208DF82A
:1010100000008DF801608DF802408DF803406846AD
:1010200000F03EF814208DF800008DF801608DF876
:1010300002608DF80340684600F032F81D208DF8FC
:1010400000008DF801508DF802508DF8034068467D
:1010500000F026F81E208DF800008DF801508DF864
:1010600002508DF80340684600F01AF806208DF80B
:1010700000008DF801608DF802608DF8034068462D
:1010800000F00EF84FF4C06000F048F8F8BD000022
:1010900002490148086070470400FA050CED00E0C1
:1010A000F0B50F22C478017801234FF0E0253CB35E
:1010B000184C2468467804F4E064C4F5E064240A1B
:1010C000C4F10407E2408478BE4014403443220156
:1010D0008C07E70E21F003040F49BA406618316807
:1010E000FF24BC40A143224011433160007800F04E
:1010F0001F018B40400905EB8000C0F80031F0BDB6
:1011000001F01F008340480905EB8000C0F88031E2
:10111000F0BD00000CED00E000E400E002490843EF
:1011200002490860704700000000FA050CED00E07D
:10113000024A1140014302480160704780FFFF1FCF
:1011400008ED00E070477047044A0029D16901D0DA
:10115000014300E08143D16170470000001002406C
:10116000044A0029116901D0014300E08143116163
:101170007047000000100240044A0029916901D024
:10118000014300E08143916170470000001002407C
:1011900010B500F053F84FF48034204600F0DEF82C
:1011A00000F026F9234901280870234919D00020AE
:1011B000087001214FF00610FFF7C6FF01218803D8
:1011C000FFF7DAFF012140F67D00FFF7D5FF01218F
:1011D0004802FFF7D1FF0121BDE810404806FFF7A4
:1011E000B3BF012008701020FFF7C4FD0220FFF7F5
:1011F000CDFD002000F0A8F8002000F0D5F84FF455
:10120000A06000F0C7F84FF4E011204600F0DCF8D1
:10121000012000F0D3F8392000F076F80028FAD049
:10122000022000F0DBF800BF00F086F80828FBD1B0
:10123000BFE70000880000207B0000200B48016809
:1012400041F0010101604168094A114041600168B3
:10125000084A11400160016821F480210160416861
:1012600021F4FE01416000218160704700100240BE
:101270000000FFF8FFFFF6FE30B51F494A6812F084
:101280000C031E4A03D0042B01D0082B22D002608D
:101290004A680F231A4C03EA1212A35C0268DA4070
:1012A00042604B68072505EA1323E35C22FA03F347
:1012B00083604B6805EAD323E35C22FA03F2C26041
:1012C0004968032303EA9131231F595CB2FBF1F112
:1012D000016130BD4A68022302F4701203EB9242AE
:1012E0004B6813F4803F02D04B689B0301D5054B3C
:1012F00000E0024B5A43CAE70010024000127A0095
:101300004543000800093D000246002053090949F1
:10131000012B0BD0022B0BD0D1F8241002F01F02AE
:10132000012393400B4200D0012070470968F5E784
:10133000096AF3E7001002400248406800F00C0020
:101340007047000000100240034A516821F0F0018C
:101350000143516070470000001002400B490A68C9
:1013600022F480320A600A6822F480220A60B0F512
:10137000803F07D0B0F5802F03D1086840F4A0204B
:1013800008607047086840F48030F9E700100240B8
:1013900070470000034A516821F4E0610143516045
:1013A000704700000010024003494A6822F460526E
:1013B00042EAC000486070470010024001490866D8
:1013C0007047000000004242034A5368084323F478
:1013D0007C1318435060704700100240034A516864
:1013E00021F00301014351607047000000100240EA
:1013F00030B50B4C40F2FF153120FFF785FF207010
:101400006068401C6060207810B96068A842F3D121
:101410003120FFF779FF002800D0012030BD000007
:10142000D000002070477047704770477047704782
:10143000704700003EB5154C0021204600F04DF9E4
:1014400000220121204600F053F94FF4B47000212E
:10145000ADF80400ADF80010ADF80610ADF80210BC
:101460006946204600F04CF90121204600F032F98F
:101470000121204600F023F901221146204600F008
:1014800037F90121204600F028F93EBD0004004054
:101490003EB5164C0021204600F01FF90022012124
:1014A000204600F025F94FF43470ADF804004CF2FA
:1014B0005030ADF800000021ADF80610ADF8021074
:1014C0006946204600F01CF90121204600F002F98F
:1014D0000121204600F0F3F801221146204600F0D9
:1014E00007F90121204600F0F8F83EBD0008004051
:1014F00030B53F48016811B10168491E01603D489F
:101500000078012805D13C48016811B10168491EE5
:1015100001603A48016811B10168491E016038480C
:10152000016811B10168491E01603648016811B1B6
:101530000168491E01603448002102780120012A17
:1015400014D1324B324C1A78012A06D0314A158810
:1015500055B113885B1E138008E02F4A1588002DB3
:10156000F7D12170197001E0207018702B4A1278A1
:10157000012A17D12A4A2B4B1478012C06D02A496C
:101580000C686CB10868401E08600BE027480468CE
:101590001CB10168491E016004E01970117001E07E
:1015A000187010702248016811B10168491E01606D
:1015B0002048016811B10168491E01601E48016898
:1015C00011B10168491E01601C48016811B1016830
:1015D000491E01601A48016811B10168491E016085
:1015E00018480168002902D00168491E016030BD19
:1015F0001C00002016000020280000202C000020E5
:1016000030000020340000200A00002009000020E3
:10161000070000204A0000201A00002010000020CF
:101620000F0000200D0000202400002020000020DA
:10163000380000204C0000203C0000209C000020CE
:10164000A0000020A40000204FF0E021012804D0D9
:10165000801C06D0002088617047086940F00100B6
:1016600002E0086920F00100086170474FF0E021B6
:101670000028086902D040F0020001E020F00200DA
:10168000086170474FF0E02148617047704770472C
:1016900070477047704770470121014800F01AB841
:1016A000000400400121014800F014B80008004087
:1016B0007047704770477047704770477047002900
:1016C000018802D041F0800102E040F27F321140F7
:1016D00001807047C943018270470029018802D008
:1016E00041F0010102E040F2FE32114001807047FA
:1016F000002A828901D00A4300E08A438281704730
:10170000028802F08F020280CA884B881A4303883D
:101710001A4302808A8882850A8802850122828291
:10172000044A904202D0044A904201D1097A0186CB
:1017300070470000002C01400034014070477047A2
:1017400070B50F4D40F225542146284600F0EFF8C1
:1017500080B1284600F068F90B4A0A495368C8541A
:101760005068401C50605068A0F5A061DC3901D180
:101770000020506021462846BDE8704000F072B855
:10178000003801405C070020C000002070B50F4DFC
:1017900040F225542146284600F0C9F880B1284679
:1017A00000F042F90B4A0A499368C8549068401CFB
:1017B00090609068A0F5A061DC3901D100209060B4
:1017C00021462846BDE8704000F04CB80044004077
:1017D000380D0020C00000202DE9F0411B4D40F2E3
:1017E00025542146284600F0A2F840B31848007856
:1017F00028BB284600F018F9174A01461548D36857
:10180000C154D16840F2DC53465C0021032E0BD159
:10181000124F01263E70D668761CD660D6689E426E
:1018200000D3D160D66881550D4E41F288303060CA
:10183000D068401CD060D068984200D3D160214667
:101840002846BDE8F04100F00DB800000048004017
:101850001600002014130020C000002019000020F2
:101860003C0000200A0A01219140C94301807047D1
:101870000029818902D041F4005101E021F4005196
:10188000818170472DE9F047214C4FF496400025A7
:101890002060A580E58025811E4FA5810C266681EC
:1018A0002146384600F07AF840F22559012249468F
:1018B000384600F05BF801213846FFF7D9FF4FF4B6
:1018C00016572760A580E5802581DFF84C80A5812B
:1018D00066812146404600F061F8012249464046B3
:1018E00000F044F801214046FFF7C2FF2760A580C1
:1018F000E5802581A58166812146084C204600F0BF
:101900004DF849462046BDE8F047012200F02EB8C8
:101910004C070020003801400044004000480040CF
:101920000246002012880A4200D00120704730B5DC
:1019300001F01F0201240025C1F3421304FA02F250
:10194000012B0FD0022B0FD0838A4FEA1121008880
:10195000134204FA01F400EA040001D000B10125A9
:10196000284630BD8389F0E7038AEEE710B5C1F35E
:10197000421301F01F040121A140012B07D0022BCB
:1019800007D01430002A026805D00A4304E00C3066
:10199000F8E71030F6E78A43026010BD30B5044620
:1019A000008A85B00D464CF6FF710840E988014376
:1019B0002182A1894EF6F3100140A8882A8910439C
:1019C0006A890A431043A081A08A4FF6FF4108406C
:1019D000A9890143A1826846FFF74EFC1148844261
:1019E00001D1039800E00298642200EBC00101EBF2
:1019F000001029686FF018058900B0FBF1F0B0FB0A
:101A0000F2F109010B096B4300EB8300322303EB76
:101A10000010B0FBF2F000F00F000843208105B089
:101A200030BD0000003801408088C0F308007047D6
:101A3000C1F3080181807047704770472DE9F04F6E
:101A400085B00024009401940294039469462046D2
:101A5000049401F03FFEA24E9DF80C200125327047
:101A60009DF80DC086F801C09DF80E30B3709DF84A
:101A70000F00F0709DF8101031719DF81110717108
:101A80009DF81210B1719DF81310F171009F072F8E
:101A900055D009DC9348DFF850C214D2DFE807F0D4
:101AA00013121431333537009049A12F78D004DC5C
:101AB000082F46D0A02F06D14AE0A32F71D0B02F17
:101AC000F9D140E0027005E189488B4E4FF48071F6
:101AD00002708848012A05D0022A05D0032A0AD0BC
:101AE000042AF0D1012202E08CF800500022FFF716
:101AF00050FA3470EEE08149357040F2DC500860F5
:101B0000E8E07F48DEE77F48DCE77F48DAE77F49A7
:101B10007F4E804F0A7012B135703C70DAE07E491A
:101B20003C700C707D490C707D490C7000780A285F
:101B3000F3D08CF8005001F04DFB3470EDE779489C
:101B4000C0E77948BEE7F12ABDD1FFF7A1FAC1E0AD
:101B500044EA03231843754A754E764FDFF8D8815F
:101B6000764BDFF8DCA1DFF8DCB1A0F57F4C10800C
:101B7000BCF1FF0C16D119780029A4D172491D704F
:101B80000C80AAF800408BF80040042100F090FD82
:101B900034806E483C80A8F800400F21017099E025
:101BA0003FE041E01C700B78A146CBB1012B04D083
:101BB000022B07D0032B86D10BE03188491C3180E2
:101BC00001210AE0B8F80010491CA8F80010022111
:101BD00003E03988491C3980032100F069FD79E070
:101BE000BAF800405949641CAAF800400C7804B1C6
:101BF0000B709BF800105C4600296BD1934600F0F7
:101C000057FD2570AAF8009040F6FF71ABF8001060
:101C1000A6F800904C48A7F80090A8F80090018022
:101C200058E081F800C055E0494C4AA14F48227065
:101C300000F002F94D4801F0F3FB2078012806D0AE
:101C4000022811D0032824D0042829D042E0484893
:101C50004AA105704748727802704748B37803700C
:101C6000424800F0E9F832E0524853490570707874
:101C7000087001282ED1B078F278504940EA02204D
:101C8000327940EA0240727940EA02620A604CA16D
:101C90001AE0534854A1057052487278027013E05C
:101CA0005A485B49057070780870012812D1B078E5
:101CB000F278584940EA0220327940EA02407279CB
:101CC00040EA02620A6054A1284800F0B5F82748AB
:101CD00001F0A6FB0220FEF72FFD05B0BDE8F08F56
:101CE0007300002005000020110000206800002083
:101CF0000400002000080140450000204C000020A6
:101D00004100002042000020430000204400002049
:101D1000470000200C0000200E0000200D000020D5
:101D20001000002048000020150000206400002062
:101D30006C0000206E00002070000020C000002019
:101D40006A00002069000020660000207200002068
:101D5000B00000200D0A204D7367205072696F7229
:101D60006974793A2025642000000000DC0000201E
:101D70008E00002092000020900000200D0A2053C9
:101D800075706572696F72205072696F72697479CB
:101D9000204D7367204E6F3A2025642C20446973D0
:101DA000706C617920537461747573202D202564E3
:101DB00000000000B1000020B3000020AC000020B3
:101DC0000D0A20416363204375746F666620457277
:101DD000726F7220537461747573202D2025640016
:101DE0008F000020930000200D0A204D6F64657263
:101DF000617465205072696F72697479204D7367E0
:101E0000204E6F202D20256400000000B20000202D
:101E1000B4000020A80000200D0A204C696D70203D
:101E20004D6F646520537461747573202D20256493
:101E300000000000FEE770470FB4084B10B504A97E
:101E400002AA039800F094F8044602A9002000F0CA
:101E500034FA204610BC5DF814FB0000BB220008D9
:101E6000490050EAC12018BF04204A0D18BF40F0B5
:101E7000010040F2FF72B2EB515F08BF40F0020078
:101E8000012808BF052070472DE9F0414F1E00EBE7
:101E9000C7010446D1E9000115461E4637F0060287
:101EA0000DD02A463346FEF7F8F97F1E04EBC70330
:101EB000D3E90023FEF74AF937F00602F1D1022FE9
:101EC00025D0042F13D0062F18BFBDE8F0812A4675
:101ED0003346FEF7E2F9D4E90A23FEF737F92A463A
:101EE0003346FEF7DAF9D4E90823FEF72FF92A463C
:101EF0003346FEF7D2F9D4E90623FEF727F92A463E
:101F00003346FEF7CAF9D4E90423FEF71FF92A463F
:101F10003346FEF7C2F9D4E90223FEF717F92A4641
:101F20003346FEF7BAF9D4E90023BDE8F041FEF7E5
:101F30000DB90000024A00201107FEF75BBB00004C
:101F400001FDFFFF02E008C8121F08C1002AFAD1F4
:101F500070477047002001E001C1121F002AFBD129
:101F6000704700000149086070470000D800002059
:101F70002DE9FF4F8BB088460546002667E12528EE
:101F80007AD100246D1CB649A146A24601222B78C5
:101F9000203B02FA03F0084202D004436D1CF6E72E
:101FA00028782A2810D06FF02F022878A0F130016D
:101FB000092915D809EB890102EB410144F002041B
:101FC00000EB01096D1CF0E758F8049BB9F1000F14
:101FD00003DA44F40054C9F1000944F002046D1C12
:101FE00028782E2817D115F8010F44F004042A2868
:101FF0000ED06FF02F022878A0F1300109290AD8FD
:102000000AEB8A0102EB410100EB010A6D1CF2E7C9
:1020100058F804AB6D1C28786C280FD006DC4C28CF
:1020200017D068280DD06A2814D104E0742810D085
:102030007A280FD10DE044F400140AE044F480142F
:1020400001E044F440146978814202D16D1C04F52A
:1020500080146D1C2878692866D007DC002876D0AB
:10206000632828D0642807D15EE005E06E2808D0F8
:1020700073282AD075287AD0DDE90D129047761C96
:10208000E4E0C4F30250022809D003280DD0D8F8A8
:10209000001004280DD00E6008F10408D6E0D8F82E
:1020A0000010F217C1E90062F6E7D8F800100E80C0
:1020B000F2E70E70F0E718F8041B8DF8001000200E
:1020C0008DF80100EB46012003E058F804BB4FF007
:1020D000FF3061074FF0000701D40AE07F1C57452D
:1020E0000DDA8742FADB1BF807100029F6D106E06B
:1020F0007F1C8742FCDB1BF807100029F8D1DDE9C3
:102100000D23A9EB07008146214600F0BEF83044BC
:10211000C61904E0DDE90D121BF8010B90477F1E84
:10212000F8D2214648468CE058F8040BC4F302511B
:102130004FF00A0B032900D100B2042900D140B2AC
:10214000002806DAC0F100004FF02D0104E082E023
:102150000DE0210504D52B218DF82410012103E089
:10216000E10710D02021F7E708AF089114E058F8F4
:10217000040BC4F302514FF00A0B032900D180B2C3
:10218000042900D1C0B20021EEE75946FEF71DF93F
:1021900001F1300107F8011D0028F6D1ADEB070071
:1021A00000F1200B600702D524F4803401E04FF0E9
:1021B000010ADA4502DDAAEB0B0000E000208246AE
:1021C00000EB0B0108980144A9EB01000A90E00321
:1021D00006D4DDE90D2321460A9800F056F806449E
:1021E000002008E009A911F80900DDE90D12904767
:1021F000761C09F10100089981468842F2DBE00370
:102200000CD5DDE90D2321460A9800F03EF806447E
:1022100004E0DDE90D1230209047761CBAF1000190
:10222000AAF1010AF5DC05E0DDE90D1217F8010B52
:102230009047761CBBF10001ABF1010BF4DC0A986E
:102240002146DDE90D2300F00DF806446D1C2878C9
:1022500000287FF494AE0FB03046BDE8F08F000048
:10226000092801002DE9F041044600251E461746C5
:10227000880405D406E039462020B04705F1010561
:10228000641EF8D52846BDE8F0812DE9F0410446EA
:1022900000251E469046C80301D5302700E02027C0
:1022A000880405D506E041463846B04705F10105EA
:1022B000641EF8D52846BDE8F0810A68531C0B60FF
:1022C0001070704770B51A4C00224FF48071204690
:1022D000FEF75FFE002280212046FEF75AFE002214
:1022E00040212046FEF755FE002220212046FEF721
:1022F00050FE104D002202212846FEF74AFE002221
:102300004FF400412046FEF744FE00224FF4804186
:102310002046FEF73EFE002201212846FEF739FE48
:102320002046BDE8704000221021FEF732BE0000BA
:1023300000080140000C014070B51B4C012208212F
:102340002046FEF726FE012211022046FEF721FE5E
:10235000012280212046FEF71CFE0122402120465A
:10236000FEF717FE012220212046FEF712FE0F4D38
:10237000012202212846FEF70CFE0122D10320464D
:10238000FEF707FE012291032046FEF702FE01221E
:1023900011462846FEF7FDFD2046BDE870400122AB
:1023A0001021FEF7F6BD000000080140000C0140BE
:1023B00010B5104C012208212046FEF7EAFD01224B
:1023C00080212046FEF7E5FD012240212046FEF750
:1023D000E0FD012220212046FEF7DBFD0122D10392
:1023E0002046FEF7D6FD20460122BDE81040102110
:1023F000FEF7CFBD000801402DE9F041174C07461C
:102400004FF48075002229462046FEF7C2FD66156E
:10241000002231462046FEF7BCFD380900F080FF5F
:1024200001F040F940F2CF70401EFDD107F00F00DF
:1024300000F076FF01F036F940F2CE721046401EF1
:10244000FDD1521EFDD131462046FEF7A2FD2946A0
:102450002046BDE8F0410022FEF79BBD000C014084
:102460002DE9F0410122174C074655022946204626
:10247000FEF78FFDA615002231462046FEF789FDA6
:10248000380900F04DFF01F00DF940F2CF70401E09
:10249000FDD107F00F0000F043FF01F003F940F217
:1024A000CE721046401EFDD1521EFDD12946204657
:1024B000FEF76FFD31462046BDE8F0410022FEF7F1
:1024C00068BD0000000C014070B500244FF4967503
:1024D000FFF732FF2846FEF751FBFFF7F3FE2846D1
:1024E000FEF74CFB641CE4B2022CF1D970BD000075
:1024F000064810B5027806484FF40041012A00D082
:102500000022FEF746FD012010BD00004300002020
:1025100000080140064810B5027806484FF4804193
:10252000012A00D00022FEF734FD012010BD00007A
:102530004100002000080140064810B50178064817
:10254000012905D000220121FEF723FD012010BD45
:102550000122F8E748000020000C014070B51B4C38
:10256000207801282FD11A4D012210212846FEF78C
:1025700010FD3220FEF702FB002210212846FEF754
:1025800008FD3220FEF7FAFA012210212846FEF754
:1025900000FD3220FEF7F2FA002210212846FEF755
:1025A000F8FC3220FEF7EAFA012210212846FEF755
:1025B000F0FC3220FEF7E2FA002210212846FEF756
:1025C000E8FC00202070012070BD000011000020F8
:1025D0000008014070B528492848294C0B78002292
:1025E00073B30A70017851BB264D0123037029781B
:1025F0000220254A012909D0022904D0032905D047
:10260000042905D00CE013702B7009E0107007E06E
:1026100010701EA12248FFF70FFC214800F000FFB8
:10262000012210212046FEF7B4FC3220FEF7A6FA64
:1026300000F00CFE002210212046FEF7AAFC00E06C
:10264000027018480078012814D1174D286888B9FD
:1026500016490878C04310F0FF0008704FF48071ED
:1026600001D0012200E000222046FEF792FC40F259
:10267000DC502860012070BD0000002040000020D8
:102680000008014004000020010000200D0A204342
:10269000727569736520526573756D650000000081
:1026A000DC000020450000204C00002046000020F7
:1026B00000B58BB0052923D2DFE801F0030B0D1222
:1026C0001400012228A1104600F0EEFA012229A1EF
:1026D00013E02BA100E02DA105A8FFF7ADFB0FE053
:1026E0002DA1F9E72FA16846FFF7A6FB0122694655
:1026F000104600F0D9FA01222DA1022000F0D4FAF0
:102700002E48007868B32E490A7882420ED00870AD
:102710002CA16846FFF790FB01226946104600F0A5
:10272000C3FA012205A9022000F0BEFA2748284971
:1027300002880888824214D0264B00201870264B4D
:102740001880264B1880264B1880264B18800A804C
:1027500025A16846FFF770FB05226946012000F0BD
:10276000A3FA0BB0012000BD52656C204F626A20B5
:102770000000000020416273656E742000000000BC
:1027800053616D6520646972000000004F6E636FD5
:102790006D696E67000000002053746174696320E6
:1027A000000000005370656564206973000000003C
:1027B0003C43415320416374000000006800002046
:1027C0007200002044203A20000000006400002035
:1027D00066000020690000206C0000206E000020D0
:1027E000700000206A000020253033646D00000076
:1027F00010B504463220FEF7C1F91F2C75D2DFE870
:1028000004F074101C242C343C85444C545C646CDF
:10281000757D8D959DA5ADB5BDC5CDD5DDE5F0F832
:10282000ED0001227FA1104600F03EFA01227FA1B7
:10283000022000F039FA012010BD01227EA11046CD
:1028400000F032FA01227FA1F2E7012280A11046B6
:1028500000F02AFA012281A1EAE7012282A11046B2
:1028600000F022FA012283A1E2E7012284A11046AE
:1028700000F01AFA012285A1DAE7012286A11046AA
:1028800000F012FA012287A1D2E7012288A11046A6
:1028900000F00AFA012289A1CAE701228AA11046A2
:1028A00000F002FA01228BA1C2E701228CA110469E
:1028B00000F0FAF901228DA1BAE701228EA110469B
:1028C00000F0F2F901228FA1B2E7012290A1104697
:1028D00000F0EAF9012291A1AAE7012292A1104693
:1028E00000F0E2F9012293A1A2E792E0012294A173
:1028F000104600F0D9F9012294A199E7012290A194
:10290000104600F0D1F9012293A191E7012295A18F
:10291000104600F0C9F9012295A189E7012297A18B
:10292000104600F0C1F9012297A181E7012293A18D
:10293000104600F0B9F9012296A179E7012298A189
:10294000104600F0B1F9012298A171E701229AA185
:10295000104600F0A9F901229AA169E701229CA181
:10296000104600F0A1F901229CA161E701229EA17D
:10297000104600F099F9012295A159E701229DA185
:10298000104600F091F901229DA151E701229FA17B
:10299000104600F089F901229FA149E70122A1A177
:1029A000104600F081F90122A1A141E70122A3A173
:1029B000104600F079F90122A3A139E70122A5A16F
:1029C000104600F071F90122A5A131E7012226A1EC
:1029D000104600F069F90122A4A129E711E008E0FE
:1029E000FFE7012220A1104600F05EF90122A2A11A
:1029F0001EE701221CA1104600F056F90122A1A1F8
:102A000016E7012218A1104600F04EF90122A0A1FC
:102A10000EE70122A1A1104600F046F901229FA174
:102A200006E7000057454C434F4D45003674685348
:102A3000656E736500000000484D49204657202010
:102A400000000000563A20322E302E3300000000E5
:102A50004C4F4144494E4720000000004445464148
:102A6000554C54530000000020205445535420205E
:102A70000000000020204D4F4445202000000000B1
:102A8000456E6A6F7920202000000000447269764C
:102A9000696E6720000000004E4F204552524F5291
:102AA00000000000414C4C204F4B20200000000053
:102AB0004841525348202020000000004143434534
:102AC0004C524E20000000002053554444454E20F7
:102AD0000000000020204252414B45200000000031
:102AE00020475245454E20200000000020205A4F2C
:102AF0004E452020000000005441494C47415445B8
:102B0000000000004E6F74696663276E00000000CD
:102B10002053504545442020000000002042554DE0
:102B2000502020200000000020204C414E45202055
:102B300000000000204348414E47452000000000AF
:102B4000204252414B45202000000000444953548C
:102B5000414E4345000000002020545443202020D3
:102B60000000000020534C4545502020000000008C
:102B70005741524E494E4720000000002043525515
:102B800049534520000000002020204F4E202020E7
:102B9000000000002020204F4646202000000000BA
:102BA0004E455720545249500000000020535441D4
:102BB0005254454400000000434F4E54494E554581
:102BC0000000000020205452495020200000000046
:102BD000524620434152442000000000204142530D
:102BE000454E542000000000494E56414C494420B7
:102BF00000000000204E4F20494F542000000000EC
:102C0000524553504F4E53450000000041776169D3
:102C100074696E670000000041757468727A276EEF
:102C2000000000004E6577204361726400000000E0
:102C3000466F756E642020200000000054524950F9
:102C400020454E440000000052455155495245442C
:102C50000000000054524950204E4F540000000024
:102C60005354415254454420000000002044454242
:102C7000554720310000000020444542554720328E
:102C8000000000002044454255472033000000006A
:102C900020444542554720340000000020202020D9
:102CA000202020200000000070B5054600200C46C2
:102CB000034622B9002070BD5B1CDBB2491C0E78B4
:102CC000002EF9D1082B07D90FA11A48FFF7B4F845
:102CD000184800F0A5FBEDE7012D02D0022D02D02F
:102CE00003E07F3200E0BF32D0B2FFF785FB02E0A5
:102CF000FFF7B6FB641C20780028F9D10520FDF70A
:102D00003DFF012070BD00000D0A2054657874203D
:102D10006C656E677468206973206772656174659D
:102D200072207468616E204C4344206C656E677439
:102D300068000000DC0000202DE9F047DFF8B490C7
:102D40000446DFF8B4A099F800002C4D2C4EDFF8B3
:102D5000B4800F4610B101280FD048E000F03AFAD5
:102D6000AAF800700120307000212970264989F8E6
:102D7000000008702549087007E029783078814202
:102D800035D0012801D0C0B131E0AAF80070307808
:102D90002870012C2BD0022C02D0032C03D026E06B
:102DA0000022402101E00122202144464046FEF756
:102DB000F0F801221021204617E015490A802870FA
:102DC000012C04D0022C05D0032C06D00AE00122ED
:102DD000802104E00122402101E000222021404620
:102DE000FEF7D7F8002210214046FEF7D2F8012066
:102DF000BDE8F087060000201A000020080000202F
:102E00000700002000080140090000200A000020FF
:102E10004A000020064810B501780648012905D06F
:102E200000220221FEF7B5F8012010BD0122F8E7CB
:102E300042000020000C01402DE9F04F00248BB02F
:102E40004FF08050CDE90604DFF8B8E16E4A0094F7
:102E50008EF8004014706D4AA1462146A2462046D5
:102E6000DFF8ACB1DFF8AC8140F2DC53146037E03E
:102E7000DFF8A4C116686D1C0CF80670761C674F4D
:102E80001660C8F80050D7F800C09D420CF1010C44
:102E9000C7F800C001D3C8F800009E4200D31060FC
:102EA0009C4500D33860D8F800501BF80570002FFF
:102EB000DED16F1C594DC8F800702E68761C2E604C
:102EC0009F4201D3C8F800009E4200D32860524EB2
:102ED00015680E2D705503D000200BB0BDE8F08FA3
:102EE0004F4D2F684D4D2E68B742DCD11368A3F1CA
:102EF0000E0244E0484DAE5CA6F13005092D01D824
:102F0000EDB201E0373EF5B24E1E012E0AD89EF812
:102F100000702F438EF8007002292DD03F018EF8EB
:102F200000701DE0CE1E072E1AD8DDE9067CA5FB39
:102F3000076800FB078705FB0C7747EA0909DDE90D
:102F400006C74FEA1C1C4CEA077C34433F09009E2D
:102F5000CDE906C72E43CF0724D03607360E00969C
:102F6000A1F10B06022E07D2274E37782F43377078
:102F70000C2901D03D013570491CC9B2521CD2B296
:102F80009A42B7D3204B9EF800201B788AEA0201B0
:102F90008B420BD023A12948FEF74EFF274800F0B3
:102FA0003FFA2CE08AEA060A0026D8E7244E254A92
:102FB000012535701168244F614080EA09031943E7
:102FC00004D01460387021A000F02AFA3878B0B923
:102FD0003D70204600F008FB02460023307800F0E8
:102FE000C1F9214C012210212046FDF7D2FF3220E9
:102FF000FDF7C4FD002210212046FDF7CAFF012085
:103000006BE700005C0000205D0000205000002005
:10301000141300205400002040010020580000201C
:10302000CC000020435243204D69736D6174636886
:1030300020533A256420433A25640000DC00002038
:103040005F000020600000205E0000200D0A204E7E
:103050006577205246494420636172642064657438
:1030600065637465640D0A000008014010B500F046
:1030700055F81420FDF782FD274C00224FF4807193
:103080002046FDF786FF002261152046FDF781FFEF
:103090000120FDF773FD032000F042F900F002FB70
:1030A0001420FDF76BFD032000F03AF900F0FAFA66
:1030B0001420FDF763FD032000F032F900F0F2FA6E
:1030C0001420FDF75BFD022000F02AF900F0EAFA77
:1030D0001420FDF753FD022000F022F900F0E2FA7F
:1030E0001420FDF74BFD082000F01AF900F0DAFA81
:1030F0001420FDF743FDC020FFF77EF90820FFF7FD
:103100007BF90120FFF778F90620FFF775F90C200D
:10311000FFF772F9012010BD000C01402DE9F041CC
:103120000C4C4FF47040032520800B4FA5704826AF
:10313000E67021463846FDF7B1FE4FF44870208016
:10314000A570E67021463846FDF7A8FE0120BDE8CF
:10315000F08100007C000020000C01400F4810B5F9
:1031600002680F49002012B10870012010BD0D4CFB
:1031700020700A78002AF8D101220A700A490A70E0
:103180000A4908700AA000F04BF9FFF7E7F900229E
:103190001346207800F0E6F8E7E700003C00002046
:1031A000BC0000205F000020110000205E00002015
:1031B0000D0A2052464944204361726420616273C3
:1031C000656E742C2043414E206D73672073656ECD
:1031D000740D0A0010B50E4C002280212046FDF728
:1031E000D8FE002240212046FDF7D3FE00222021F8
:1031F0002046FDF7CEFE002201210648FDF7C9FE5C
:10320000002210212046FDF7C4FE012010BD000061
:1032100000080140000C01400B4910B540F2227239
:103220000A6000224A600A7208238B724A72C872CE
:103230000A734A738A73CA730A744A748A74084692
:10324000FDF736FC012010BD1C0700200C4810B50E
:1032500040F22171016000214160017208228272F6
:10326000084A41721278C272017341738173C1734B
:10327000017441748174FDF71BFC012010BD000036
:103280001C0700200100002070B51A4C206870BB9C
:1032900019484FF4E4610022C0E9001202720821CB
:1032A000817242722221C172027342738273C273AD
:1032B00002744274114B827411481D684FF480519E
:1032C00015B1012D06D00CE001221A60FDF761FE58
:1032D0000CA004E01A600022FDF75BFE0BA000F0DA
:1032E0009FF80548FDF7E4FB4FF47A702060012059
:1032F00070BD0000380000201C070020B80000202E
:10330000000C01405353540D0A00000053697874B7
:10331000682053656E736F7220310D0A0000000043
:1033200070B50F4D0446C0F3C0024FF4004128466B
:10333000FDF72FFEC4F380024FF480412846FDF7CD
:1033400028FEC4F3400269142846FDF722FE04F06B
:103350000102A9142846BDE87040FDF71ABE00001E
:10336000000C01407FB51E4C40F2257108252160FC
:10337000002161602172A5726172E072100A2273ED
:1033800040EA03606073100C40EA0340A073100E23
:1033900040EA0320E0732374180A6074A174204685
:1033A000FDF786FBE07AC8B10EA210A11348FEF724
:1033B00043FD124800F034F8A07B637C227CE17B63
:1033C0008DE80F00637B227B0DA10C48FEF734FDD6
:1033D0000A4800F025F804B0012070BD0EA2E4E711
:1033E0001C07002050726573656E74000D0A52460A
:1033F000494420636172642025730000DC000020D2
:103400002C0925642C25642C25642C25642C25642A
:103410002C25640D0A000000416273656E74000083
:1034200070B50446074D09E02846FEF701FB402130
:103430002846FEF775FA0028F9D0641C2178002987
:10344000F2D170BD003801402DE9F0412A4E074607
:10345000DFF8A88030780025294C0B2803D198F894
:103460000010012909D0B84207D0264837700570EE
:10347000254805702570FFF7ADFE24480B2F37D285
:10348000DFE807F0060E1B202525253636362E00F0
:103490001F48007801282BD0FFF79CFE257027E0FD
:1034A00098F8000010B10B20307021E041F2883212
:1034B00064210120FFF740FC1AE064214FF4FA6216
:1034C0000220F7E764214FF4FA720320F2E70122A9
:1034D00020210446FDF75DFD01221021204605E074
:1034E000217829B9012121700A461021FDF751FDEB
:1034F0000120BDE8F08100000B0000204400002006
:1035000089000020060000200A0000200008014079
:103510004700002070B52A48007801284ED129487C
:10352000007808B1012849D1274C284D284A217834
:103530002848642311B101290BD03FE0012101701B
:1035400000261670244E31702B602170234C2170A0
:1035500003E011780478A14230D00178204C11703A
:10356000012901D091B129E02B60012210212046D0
:10357000FDF70FFD012280212046FDF70AFD012203
:1035800040212046FDF705FD012213E015494FF4C7
:103590007A700860002210212046FDF7FAFC002214
:1035A00080212046FDF7F5FC002240212046FDF752
:1035B000F0FC002220212046FDF7EBFC012070BD2D
:1035C00044000020050000200C0000202000002006
:1035D0000E0000200D0000200F0000201000002031
:1035E00000080140240000202DE9F0470027044690
:1035F0003D4622E004F00F092846FCF7C0FE0246D3
:103600000B4600200F4900F065F9064688464846FB
:10361000FCF7B5FE32464346FCF73FFE06468846B9
:103620003846FCF7ACFE32464346FCF78FFDFCF70C
:10363000B3FE24096D1C0746EDB2002CDAD13846E2
:10364000BDE8F0870000304070B5144C0025A5702F
:10365000E582E5820120E07025716571A571E57153
:10366000E5732574A07425726572A572E5722573E1
:10367000E5612562E56225636573A573E5742575CB
:10368000FEF720FE012208210548FDF782FC4FF4D9
:103690007A70606365700220207070BD04000020A5
:1036A0000008014010B50A4C012220212046FDF7F8
:1036B00070FC40F2DB51491EFDD100222021204642
:1036C000FDF767FC40F2DA50401EFDD110BD00004E
:1036D000000C01401E4A02EB0012136813F00403B1
:1036E0000B72136830D0DB084B60126802F00202E4
:1036F0004A72174A121D02EB0012136803F00F03FF
:103700008B721268120ACA72114A083202EB001256
:1037100013680B7313681B0A4B7313681B0C8B73B2
:103720001268120ECA730A4A0C3202EB00121368B6
:103730000B7413681B0A4B7413681B0C8B74126890
:10374000120ECA74FDF7C2B85B0D0B60CDE7000026
:10375000B0650040FDF71CFDFDF737FCFDF7ACFA46
:10376000FDF721FCFDF720FBFDF764FEFDF790FE61
:10377000FEF788F8FDF730F8FFF766FFFFF776FCF5
:103780000120FFF735F8FEF79FFE0220FFF730F823
:10379000384C012640F6B830A67460620521A1625B
:1037A0004FF4FA71E16220630025A573A0633249EA
:1037B0003248FEF741FB3148FFF732FE30480570D2
:1037C0003048067030480670A07C28B1606A002836
:1037D000FAD1E06A28B32AE001212C48FEF748F824
:1037E000FFF752FDFFF7BAFC607D012802D1FFF719
:1037F00023FB6575607C10B1FEF7DAFDE4E76078C5
:10380000FFF722FEFFF706FBFEF784FEFEF770FED1
:10381000FFF780FEFEF7DEFEFEF7A0FEFEF78CFE51
:10382000D2E7E07C032801D0052800D16562606AF8
:103830000028C9D1A57441F28830A063227D14A16B
:103840000E48FEF7F9FA0D48FFF7EAFD227C18A1B1
:103850000A48FEF7F1FA0948FFF7E2FD207D01284A
:1038600003D0207C012803D00020FFF7D5FCABE774
:103870000220FAE70400002000430008DC000020DA
:10388000910000208C0000208D00002000480040A6
:103890000D0A204D756C7469706C65206B6579201C
:1038A000707265737320666C6167202D202564003B
:1038B0000D0A2054657374204D6F6465206B657923
:1038C00020707265737320666C6167202D202564FB
:1038D000000000002DE9F04D16460F460546020097
:1038E00094B01C4621F0004123F0004014BF4FF07B
:1038F000010C4FF0000C0CEB470CFE4B0CEB0308DB
:103900004FEA630CE0452DD35FEA060818BF4FF07D
:10391000010808EB44089844F74B984522D3F74B2D
:1039200050EA060C02D09F4205D14AB914B00020DB
:103930001946BDE8F08D002A08BF4FF0000C01D0F9
:103940004FF0010C0CEB470313F5001F0AD8002EB3
:1039500014BF4FF0010C4FF0000C0CEB440313F5B7
:10396000001F08D914B03246234628463946BDE820
:10397000F04DFCF7EBBBDFF888B34FF0000A002FE7
:10398000B8BF584523DADF4B9842A8BF4FF0020A70
:103990001DDADA4B83421ADCDB4B03EB2053142B8A
:1039A00008DDC3F1340C26FA0CF303FA0CFCB44521
:1039B0000DD108E05EB9C3F1140C20FA0CF303FA40
:1039C0000CFC844503D103F00103C3F1020A51EA60
:1039D000020321D1002C1FDA002F18BFBAF1020F09
:1039E00002D0BAF1010F0BD00220FEF7BBFA14B0DF
:1039F0000022BDE8F04D13461046C049FCF78BBDD0
:103A00000220FEF7AFFA14B02A463B46BDE8F04D5F
:103A10000020BA49FCF77FBD33006DD1584525D150
:103A200007F1804010F5801001BF002A0020B34943
:103A300014B008BFBDE8F08DB048884207DC002C08
:103A4000A1BF1846214614B0BDE8F08D07E0002C58
:103A5000BFBF184684F0004114B0BDE8F08DAB49FB
:103A60007944D1E9000114B0BDE8F08DDFF88CC2D3
:103A7000604526D1002C1FDA19B1594513D1DAB9A6
:103A80000AE0002A40F0DA829D4A394614B000204C
:103A900062F31E01BDE8F08D0020394614B060F3DA
:103AA0001E01BDE8F08D07DA14B03B46BDE8F04DCD
:103AB00000206146FCF72FBD14B010463946BDE822
:103AC000F08D594518DAB4F1804F0DD0A4F10053B0
:103AD000B3F1FF5310D13B1E0EDB14B01046BDE80E
:103AE000F04D194600F0E6BB3B4614B01046BDE869
:103AF000F04D1946FCF7D1BB27F00043A2BBE1B162
:103B0000594538D1002F06DD002CA1BF00205946B1
:103B100014B0BDE8F08D002F01DD002C1FDB002F5D
:103B200016DA002C14DBBAF1010F4FF0000014BFBD
:103B30007349774914B0BDE8F08DBAF1020F18BF90
:103B4000002F0CD0BAF1010F09D1002F07DA0CE0D9
:103B5000002FB8BF002C0EDABAF1010F05D00020FB
:103B600014B00146BDE8F08D05E014B000204FF020
:103B70000041BDE8F08D4FF0010C0CEBE7720D92A7
:103B800052EA0A020BD0634A90427DDD624B634ADF
:103B9000984216DD8A420EDB002C1CDB2CE0012053
:103BA000FEF7E0F914B00022BDE8F04D13461046D0
:103BB0001146FCF7B0BC5148884202DC002C0ADCFC
:103BC0001AE0914202DA002C16DA04E04B4B9942DB
:103BD0001EDD002C10DD0220FEF7C4F940F2013298
:103BE00000204FF0E041FCF705FD454A14B061F3B9
:103BF0001E021146BDE8F08D0220FEF7B3F9FEF774
:103C000099F93E4A14B061F31E021146BDE8F08DE9
:103C1000002228463946FCF73AFB054688466FF0F5
:103C20000102FCF7E7FC4FF055323D4BFCF732FB4D
:103C30002A464346FCF731FB00223A4BFCF72AFBAD
:103C400007468B462A46434610461946FCF725FB95
:103C50003A465B46FCF721FB09910C904FF0C042BD
:103C6000314B28464146FCF718FB07468B462F4A46
:103C70002D4B09990C98FCF710FBCDE901102C4A4B
:103C80002C4B2846414600E019E0FCF706FBDDE935
:103C90000132FCF7FCFA3A465B4605910890FCF7C6
:103CA00055FA002588463A465B462846FCF7EFFA67
:103CB000059B089AFCF7EEFA024600F076B9002060
:103CC000B1F5801F07DA352228461946FCF792FC29
:103CD00005466FF0340000EB2150A0F2FF30019058
:103CE000C1F3130040F07F6141F04051029112494D
:103CF000884223E0FFFF1F00FFFF0F000000F03F9E
:103D00000000F07F0000404301FCFFFF7C09000041
:103D10000000F0FF0000E0410000F043FFFFEF3F34
:103D20005555D53F0000E03F4715F73FFE822B6514
:103D300044DF5DF80BAE543E8E980300D8BF4FF0C1
:103D4000000B0EDDFE498142C8BF4FF0010B08DCBD
:103D500001984FF0000B401C01900298A0F58010D4
:103D60000290F8480299784400EBCB000B91109038
:103D7000D0E900232846FCF78AFA009010980791B2
:103D8000D0E9002328460B99FCF7E0F902460B46E0
:103D90000020ED49FCF7BFFB05910B460246089059
:103DA00007990098FCF779FA0690E84888460027BA
:103DB0007844029900680E904FF0005040EA61008C
:103DC00000EB8B4000F5002110980291D0E9002310
:103DD0000E98FCF75CFA2A460B9BFCF75BFA3A4616
:103DE0004346FCF75AFA05460B9138464146029B7A
:103DF0000E9AFCF752FA079B009AFCF74BFA2A46F8
:103E00000B9BFCF744FA059B089AFCF746FA0B91CA
:103E10001090069A434610461946FCF73EFA0546AE
:103E20000246CB480B46009106217844FEF72CF859
:103E3000009B2A460291089010461946FCF72DFA7D
:103E4000029B089AFCF729FA054605914346384635
:103E50001946069AFCF77AF90B9B109AFCF71DFAA3
:103E60002A46059BFCF772F93A46434605910890AD
:103E700010461946FCF711FA0022B64B00910C903F
:103E8000FCF764F9059B089AFCF760F90D463A4681
:103E9000B04B3846FCF7FBF9009B0C9AFCF7F7F99E
:103EA000059B089AFCF7F6F911913A460C902B46BF
:103EB00010464146FCF7F1F9079100904346069AF7
:103EC00011990C98FCF7E9F9804603912B463A4684
:103ED0000B991098FCF7E1F94246039BFCF736F981
:103EE000059180460B46024607990098FCF72EF98B
:103EF00000200F460546079B009AFCF7C8F942468A
:103F0000059BFCF7C7F9804609914FF06042924B40
:103F100028463946FCF7C1F9009102908F4A8E4B32
:103F200040460999FCF7B9F9804603918C4A8D4BBC
:103F300028463946FCF7B1F94246039BFCF706F9DF
:103F4000894A7A4402EBCB03D3E90023FCF7FEF85D
:103F5000069003910198FCF764FB0746DDE9020334
:103F60000591069A0099FCF7F1F8804A7A4402EB31
:103F7000CB0BDBE90023FCF7E9F83A46059BFCF79D
:103F8000E5F8002588463A462846059BFCF77FF968
:103F9000DBE90023FCF77BF9009B029AFCF777F939
:103FA000039B069AFCF776F90246002006900D98CE
:103FB000654FAAF10103184301D16D4F069000200F
:103FC0000B46009030462146FCF767F982468B4647
:103FD000234630461946009AFCF759F92A464346CB
:103FE000FCF75BF952465B46FCF7B0F806468A469A
:103FF0002A46434621460098FCF74FF904460D46F1
:1040000032465346FCF7A2F85A4A8B46914226DBC9
:10401000ABEB020353EA000210D122462B46FCF719
:1040200036F980460591544A544B30465146FCF7C8
:104030008DF84246059BFCF705FB30D20220FDF7C8
:1040400091FF40F2013200204FF0E041FCF7D2FA3C
:104050000A46394614B062F31E01BDE8F08D484BA4
:104060002BF000429A421AD3464A0BEB020353EA62
:10407000000208D122462B46FCF709F93246534686
:10408000FCF7E0FA0BD80220FDF76CFFFDF752FFBA
:104090000A46394614B062F31E01BDE8F08D2BF0DC
:1040A00000403949394A01EB20514FF00008824263
:1040B00023DA481C4FF4801121FA00F05844C0F371
:1040C0000A51334AA1F2FF317A44324B1268CB4095
:1040D00020EA0303C0F3130040F4801CC1F1140074
:1040E0002CFA00F8BBF1000FB8BFC8F10008204659
:1040F0002946FCF7CCF804460D4622462B463046AE
:104100005146FCF723F84FF0000B5A46224B584615
:104110000591FCF7C2F800900791204A204B5846C1
:104120000599FCF7BAF80491029022462B465846AE
:104130000599FCF7ACF832465346FCF7ABF831E092
:104140007AB60B00EE0500000000F03F2C060000E0
:104150005A0500000000084009C7EE3FFD033ADCA5
:10416000F5015B14E02F3EBE32040000F8030000AE
:104170000000F0BF00009040FE822B654715973C81
:1041800000CC904000346F3F01FCFFFF0000E03F97
:1041900014030000FFFF0F00432EE63F396CA80C0C
:1041A000615C20BE3F4A404BFCF777F8049B029AC3
:1041B000FBF7CCFF06468A46079B009AFBF7C6FF33
:1041C00004460D46079B009AFCF761F832465346B9
:1041D000FCF760F8064622462B4609911046194620
:1041E000FCF75BF88346024630488A460B460521B9
:1041F0007844FDF749FE5A465346FCF74EF82246EE
:104200002B46FCF747F882468B4632462046294625
:10421000099BFCF742F83246099BFBF797FF059193
:10422000089000224FF0804350465946FCF72FF883
:104230000646009152465B4620462946FCF72DF87B
:104240003246009BFCF767F9059B089AFCF71FF8BC
:1042500022462B46FCF71BF80022154BFCF71AF8F8
:104260000D46044601EB08510815002810DC4246B3
:1042700020462946FCF7BEF9FDF7F2FD042808BFE9
:10428000FDF758FE424620462946FCF7B3F904469E
:1042900006980B4614B022463946BDE8F04DFBF7B0
:1042A000FCBF0000EF39FAFE422EE63FC4010000D9
:1042B0000000F03F2DE9F04106460F46FCF7E8F913
:1042C00004000D4618BF0120284320F00040C0F133
:1042D0007F6000F1E040C00F0ED0301C18BF0120FD
:1042E000384320F00040C0F17F6000F1E040C00F93
:1042F00004BF0120FDF736FE20462946BDE8F081C7
:104300000D0A2057656C636F6D6520746F205369CB
:104310007874682073656E736F72200D0A20427581
:10432000696C642056657273696F6E3A20484D4916
:104330005F30305F30325F30325F30332E68657807
:104340000002040608000000000102030401020349
:104350000406070809000000000000000000F03F0C
:10436000000000000000F83F000000000000000016
:104370000000004003B8E23F000000000000000021
:1043800006D0CF43EBFD4C3E033333333333E33FAF
:10439000FFAB6FDBB66DDB3F4D268F515555D53FDB
:1043A00001411DA96074D13F65DBC9934A86CD3FA9
:1043B000EF4E454A287ECA3F3E5555555555C53F97
:1043C00093BDBE166CC166BF2CDE25AF6A56113F89
:1043D000F16BD2C541BDBBBED0A4BE726937663E8B
:1043E0000000000000000000084400080000002059
:1043F000DC000000441F0008E4440008DC0000204A
:10440000141C0000541F0008000000000000000001
:10441000000000000000000000000000000000009C
:10442000000000000000000000000000000000008C
:10443000000000000000000000000000000000007C
:10444000000000000000000000000000000000006C
:10445000000000000000000000000000000000005C
:104460000000000000000000000000000000FFFF4E
:10447000000000000000000000000000000000003C
:10448000000000000000000000000000000000002C
:10449000000000000000000000000000000000001C
:1044A000000000000000000000000000000000000C
:1044B00000000000000000000000000000000000FC
:1044C00000000000000000000000000000000000EC
:1044D00000000000000000000000000000000000DC
:0444E00000000000D8
:0400000508000131BD
:00000001FF
